{
	"contracts/datatype.sol": {
		"datatype": {
			"abi": [
				{
					"inputs": [],
					"name": "bool1",
					"outputs": [
						{
							"internalType": "bool",
							"name": "",
							"type": "bool"
						}
					],
					"stateMutability": "view",
					"type": "function"
				},
				{
					"inputs": [],
					"name": "i8",
					"outputs": [
						{
							"internalType": "int8",
							"name": "",
							"type": "int8"
						}
					],
					"stateMutability": "view",
					"type": "function"
				},
				{
					"inputs": [],
					"name": "maxint",
					"outputs": [
						{
							"internalType": "int256",
							"name": "",
							"type": "int256"
						}
					],
					"stateMutability": "view",
					"type": "function"
				},
				{
					"inputs": [],
					"name": "mint",
					"outputs": [
						{
							"internalType": "int256",
							"name": "",
							"type": "int256"
						}
					],
					"stateMutability": "view",
					"type": "function"
				},
				{
					"inputs": [],
					"name": "u16",
					"outputs": [
						{
							"internalType": "uint16",
							"name": "",
							"type": "uint16"
						}
					],
					"stateMutability": "view",
					"type": "function"
				},
				{
					"inputs": [],
					"name": "u8",
					"outputs": [
						{
							"internalType": "uint8",
							"name": "",
							"type": "uint8"
						}
					],
					"stateMutability": "view",
					"type": "function"
				}
			],
			"devdoc": {
				"kind": "dev",
				"methods": {},
				"version": 1
			},
			"evm": {
				"assembly": "    /* \"contracts/datatype.sol\":56:412  contract datatype{\r... */\n  mstore(0x40, 0x80)\n    /* \"contracts/datatype.sol\":95:99  true */\n  0x01\n    /* \"contracts/datatype.sol\":76:99  bool public bool1 =true */\n  0x00\n  dup1\n  0x0100\n  exp\n  dup2\n  sload\n  dup2\n  0xff\n  mul\n  not\n  and\n  swap1\n  dup4\n  iszero\n  iszero\n  mul\n  or\n  swap1\n  sstore\n  pop\n    /* \"contracts/datatype.sol\":118:119  4 */\n  0x04\n    /* \"contracts/datatype.sol\":102:119  uint8 public u8=4 */\n  0x00\n  exp(0x0100, 0x01)\n  dup2\n  sload\n  dup2\n  0xff\n  mul\n  not\n  and\n  swap1\n  dup4\n  0xff\n  and\n  mul\n  or\n  swap1\n  sstore\n  pop\n    /* \"contracts/datatype.sol\":137:139  -4 */\n  0xfffffffffffffffffffffffffffffffffffffffffffffffffffffffffffffffc\n    /* \"contracts/datatype.sol\":122:139  int8 public i8=-4 */\n  0x00\n  exp(0x0100, 0x02)\n  dup2\n  sload\n  dup2\n  0xff\n  mul\n  not\n  and\n  swap1\n  dup4\n  0x00\n  signextend\n  0xff\n  and\n  mul\n  or\n  swap1\n  sstore\n  pop\n    /* \"contracts/datatype.sol\":161:164  200 */\n  0xc8\n    /* \"contracts/datatype.sol\":142:164  uint16 public  u16=200 */\n  0x00\n  exp(0x0100, 0x03)\n  dup2\n  sload\n  dup2\n  0xffff\n  mul\n  not\n  and\n  swap1\n  dup4\n  0xffff\n  and\n  mul\n  or\n  swap1\n  sstore\n  pop\n    /* \"contracts/datatype.sol\":181:187  100000 */\n  0x0186a0\n    /* \"contracts/datatype.sol\":167:187  uint256 u256= 100000 */\n  0x01\n  sstore\n    /* \"contracts/datatype.sol\":230:243  type(int).min */\n  0x8000000000000000000000000000000000000000000000000000000000000000\n    /* \"contracts/datatype.sol\":213:243  int public mint =type(int).min */\n  0x02\n  sstore\n    /* \"contracts/datatype.sol\":328:341  type(int).max */\n  0x7fffffffffffffffffffffffffffffffffffffffffffffffffffffffffffffff\n    /* \"contracts/datatype.sol\":310:341  int public maxint=type(int).max */\n  0x03\n  sstore\n    /* \"contracts/datatype.sol\":56:412  contract datatype{\r... */\n  callvalue\n  dup1\n  iszero\n  tag_1\n  jumpi\n  0x00\n  dup1\n  revert\ntag_1:\n  pop\n  dataSize(sub_0)\n  dup1\n  dataOffset(sub_0)\n  0x00\n  codecopy\n  0x00\n  return\nstop\n\nsub_0: assembly {\n        /* \"contracts/datatype.sol\":56:412  contract datatype{\r... */\n      mstore(0x40, 0x80)\n      callvalue\n      dup1\n      iszero\n      tag_1\n      jumpi\n      0x00\n      dup1\n      revert\n    tag_1:\n      pop\n      jumpi(tag_2, lt(calldatasize, 0x04))\n      shr(0xe0, calldataload(0x00))\n      dup1\n      0x0a6b4e06\n      eq\n      tag_3\n      jumpi\n      dup1\n      0x1249c58b\n      eq\n      tag_4\n      jumpi\n      dup1\n      0x2c23de69\n      eq\n      tag_5\n      jumpi\n      dup1\n      0x921cda74\n      eq\n      tag_6\n      jumpi\n      dup1\n      0xab3a58a3\n      eq\n      tag_7\n      jumpi\n      dup1\n      0xec630c70\n      eq\n      tag_8\n      jumpi\n    tag_2:\n      0x00\n      dup1\n      revert\n        /* \"contracts/datatype.sol\":142:164  uint16 public  u16=200 */\n    tag_3:\n      tag_9\n      tag_10\n      jump\t// in\n    tag_9:\n      mload(0x40)\n      tag_11\n      swap2\n      swap1\n      tag_12\n      jump\t// in\n    tag_11:\n      mload(0x40)\n      dup1\n      swap2\n      sub\n      swap1\n      return\n        /* \"contracts/datatype.sol\":213:243  int public mint =type(int).min */\n    tag_4:\n      tag_13\n      tag_14\n      jump\t// in\n    tag_13:\n      mload(0x40)\n      tag_15\n      swap2\n      swap1\n      tag_16\n      jump\t// in\n    tag_15:\n      mload(0x40)\n      dup1\n      swap2\n      sub\n      swap1\n      return\n        /* \"contracts/datatype.sol\":310:341  int public maxint=type(int).max */\n    tag_5:\n      tag_17\n      tag_18\n      jump\t// in\n    tag_17:\n      mload(0x40)\n      tag_19\n      swap2\n      swap1\n      tag_16\n      jump\t// in\n    tag_19:\n      mload(0x40)\n      dup1\n      swap2\n      sub\n      swap1\n      return\n        /* \"contracts/datatype.sol\":122:139  int8 public i8=-4 */\n    tag_6:\n      tag_20\n      tag_21\n      jump\t// in\n    tag_20:\n      mload(0x40)\n      tag_22\n      swap2\n      swap1\n      tag_23\n      jump\t// in\n    tag_22:\n      mload(0x40)\n      dup1\n      swap2\n      sub\n      swap1\n      return\n        /* \"contracts/datatype.sol\":102:119  uint8 public u8=4 */\n    tag_7:\n      tag_24\n      tag_25\n      jump\t// in\n    tag_24:\n      mload(0x40)\n      tag_26\n      swap2\n      swap1\n      tag_27\n      jump\t// in\n    tag_26:\n      mload(0x40)\n      dup1\n      swap2\n      sub\n      swap1\n      return\n        /* \"contracts/datatype.sol\":76:99  bool public bool1 =true */\n    tag_8:\n      tag_28\n      tag_29\n      jump\t// in\n    tag_28:\n      mload(0x40)\n      tag_30\n      swap2\n      swap1\n      tag_31\n      jump\t// in\n    tag_30:\n      mload(0x40)\n      dup1\n      swap2\n      sub\n      swap1\n      return\n        /* \"contracts/datatype.sol\":142:164  uint16 public  u16=200 */\n    tag_10:\n      0x00\n      0x03\n      swap1\n      sload\n      swap1\n      0x0100\n      exp\n      swap1\n      div\n      0xffff\n      and\n      dup2\n      jump\t// out\n        /* \"contracts/datatype.sol\":213:243  int public mint =type(int).min */\n    tag_14:\n      sload(0x02)\n      dup2\n      jump\t// out\n        /* \"contracts/datatype.sol\":310:341  int public maxint=type(int).max */\n    tag_18:\n      sload(0x03)\n      dup2\n      jump\t// out\n        /* \"contracts/datatype.sol\":122:139  int8 public i8=-4 */\n    tag_21:\n      0x00\n      0x02\n      swap1\n      sload\n      swap1\n      0x0100\n      exp\n      swap1\n      div\n      0x00\n      signextend\n      dup2\n      jump\t// out\n        /* \"contracts/datatype.sol\":102:119  uint8 public u8=4 */\n    tag_25:\n      0x00\n      0x01\n      swap1\n      sload\n      swap1\n      0x0100\n      exp\n      swap1\n      div\n      0xff\n      and\n      dup2\n      jump\t// out\n        /* \"contracts/datatype.sol\":76:99  bool public bool1 =true */\n    tag_29:\n      0x00\n      dup1\n      sload\n      swap1\n      0x0100\n      exp\n      swap1\n      div\n      0xff\n      and\n      dup2\n      jump\t// out\n        /* \"#utility.yul\":7:116   */\n    tag_33:\n        /* \"#utility.yul\":88:109   */\n      tag_35\n        /* \"#utility.yul\":103:108   */\n      dup2\n        /* \"#utility.yul\":88:109   */\n      tag_36\n      jump\t// in\n    tag_35:\n        /* \"#utility.yul\":83:86   */\n      dup3\n        /* \"#utility.yul\":76:110   */\n      mstore\n        /* \"#utility.yul\":66:116   */\n      pop\n      pop\n      jump\t// out\n        /* \"#utility.yul\":122:237   */\n    tag_37:\n        /* \"#utility.yul\":207:230   */\n      tag_39\n        /* \"#utility.yul\":224:229   */\n      dup2\n        /* \"#utility.yul\":207:230   */\n      tag_40\n      jump\t// in\n    tag_39:\n        /* \"#utility.yul\":202:205   */\n      dup3\n        /* \"#utility.yul\":195:231   */\n      mstore\n        /* \"#utility.yul\":185:237   */\n      pop\n      pop\n      jump\t// out\n        /* \"#utility.yul\":243:352   */\n    tag_41:\n        /* \"#utility.yul\":324:345   */\n      tag_43\n        /* \"#utility.yul\":339:344   */\n      dup2\n        /* \"#utility.yul\":324:345   */\n      tag_44\n      jump\t// in\n    tag_43:\n        /* \"#utility.yul\":319:322   */\n      dup3\n        /* \"#utility.yul\":312:346   */\n      mstore\n        /* \"#utility.yul\":302:352   */\n      pop\n      pop\n      jump\t// out\n        /* \"#utility.yul\":358:473   */\n    tag_45:\n        /* \"#utility.yul\":443:466   */\n      tag_47\n        /* \"#utility.yul\":460:465   */\n      dup2\n        /* \"#utility.yul\":443:466   */\n      tag_48\n      jump\t// in\n    tag_47:\n        /* \"#utility.yul\":438:441   */\n      dup3\n        /* \"#utility.yul\":431:467   */\n      mstore\n        /* \"#utility.yul\":421:473   */\n      pop\n      pop\n      jump\t// out\n        /* \"#utility.yul\":479:591   */\n    tag_49:\n        /* \"#utility.yul\":562:584   */\n      tag_51\n        /* \"#utility.yul\":578:583   */\n      dup2\n        /* \"#utility.yul\":562:584   */\n      tag_52\n      jump\t// in\n    tag_51:\n        /* \"#utility.yul\":557:560   */\n      dup3\n        /* \"#utility.yul\":550:585   */\n      mstore\n        /* \"#utility.yul\":540:591   */\n      pop\n      pop\n      jump\t// out\n        /* \"#utility.yul\":597:807   */\n    tag_31:\n        /* \"#utility.yul\":684:688   */\n      0x00\n        /* \"#utility.yul\":722:724   */\n      0x20\n        /* \"#utility.yul\":711:720   */\n      dup3\n        /* \"#utility.yul\":707:725   */\n      add\n        /* \"#utility.yul\":699:725   */\n      swap1\n      pop\n        /* \"#utility.yul\":735:800   */\n      tag_54\n        /* \"#utility.yul\":797:798   */\n      0x00\n        /* \"#utility.yul\":786:795   */\n      dup4\n        /* \"#utility.yul\":782:799   */\n      add\n        /* \"#utility.yul\":773:779   */\n      dup5\n        /* \"#utility.yul\":735:800   */\n      tag_33\n      jump\t// in\n    tag_54:\n        /* \"#utility.yul\":689:807   */\n      swap3\n      swap2\n      pop\n      pop\n      jump\t// out\n        /* \"#utility.yul\":813:1031   */\n    tag_16:\n        /* \"#utility.yul\":904:908   */\n      0x00\n        /* \"#utility.yul\":942:944   */\n      0x20\n        /* \"#utility.yul\":931:940   */\n      dup3\n        /* \"#utility.yul\":927:945   */\n      add\n        /* \"#utility.yul\":919:945   */\n      swap1\n      pop\n        /* \"#utility.yul\":955:1024   */\n      tag_56\n        /* \"#utility.yul\":1021:1022   */\n      0x00\n        /* \"#utility.yul\":1010:1019   */\n      dup4\n        /* \"#utility.yul\":1006:1023   */\n      add\n        /* \"#utility.yul\":997:1003   */\n      dup5\n        /* \"#utility.yul\":955:1024   */\n      tag_37\n      jump\t// in\n    tag_56:\n        /* \"#utility.yul\":909:1031   */\n      swap3\n      swap2\n      pop\n      pop\n      jump\t// out\n        /* \"#utility.yul\":1037:1247   */\n    tag_23:\n        /* \"#utility.yul\":1124:1128   */\n      0x00\n        /* \"#utility.yul\":1162:1164   */\n      0x20\n        /* \"#utility.yul\":1151:1160   */\n      dup3\n        /* \"#utility.yul\":1147:1165   */\n      add\n        /* \"#utility.yul\":1139:1165   */\n      swap1\n      pop\n        /* \"#utility.yul\":1175:1240   */\n      tag_58\n        /* \"#utility.yul\":1237:1238   */\n      0x00\n        /* \"#utility.yul\":1226:1235   */\n      dup4\n        /* \"#utility.yul\":1222:1239   */\n      add\n        /* \"#utility.yul\":1213:1219   */\n      dup5\n        /* \"#utility.yul\":1175:1240   */\n      tag_41\n      jump\t// in\n    tag_58:\n        /* \"#utility.yul\":1129:1247   */\n      swap3\n      swap2\n      pop\n      pop\n      jump\t// out\n        /* \"#utility.yul\":1253:1471   */\n    tag_12:\n        /* \"#utility.yul\":1344:1348   */\n      0x00\n        /* \"#utility.yul\":1382:1384   */\n      0x20\n        /* \"#utility.yul\":1371:1380   */\n      dup3\n        /* \"#utility.yul\":1367:1385   */\n      add\n        /* \"#utility.yul\":1359:1385   */\n      swap1\n      pop\n        /* \"#utility.yul\":1395:1464   */\n      tag_60\n        /* \"#utility.yul\":1461:1462   */\n      0x00\n        /* \"#utility.yul\":1450:1459   */\n      dup4\n        /* \"#utility.yul\":1446:1463   */\n      add\n        /* \"#utility.yul\":1437:1443   */\n      dup5\n        /* \"#utility.yul\":1395:1464   */\n      tag_45\n      jump\t// in\n    tag_60:\n        /* \"#utility.yul\":1349:1471   */\n      swap3\n      swap2\n      pop\n      pop\n      jump\t// out\n        /* \"#utility.yul\":1477:1691   */\n    tag_27:\n        /* \"#utility.yul\":1566:1570   */\n      0x00\n        /* \"#utility.yul\":1604:1606   */\n      0x20\n        /* \"#utility.yul\":1593:1602   */\n      dup3\n        /* \"#utility.yul\":1589:1607   */\n      add\n        /* \"#utility.yul\":1581:1607   */\n      swap1\n      pop\n        /* \"#utility.yul\":1617:1684   */\n      tag_62\n        /* \"#utility.yul\":1681:1682   */\n      0x00\n        /* \"#utility.yul\":1670:1679   */\n      dup4\n        /* \"#utility.yul\":1666:1683   */\n      add\n        /* \"#utility.yul\":1657:1663   */\n      dup5\n        /* \"#utility.yul\":1617:1684   */\n      tag_49\n      jump\t// in\n    tag_62:\n        /* \"#utility.yul\":1571:1691   */\n      swap3\n      swap2\n      pop\n      pop\n      jump\t// out\n        /* \"#utility.yul\":1697:1787   */\n    tag_36:\n        /* \"#utility.yul\":1731:1738   */\n      0x00\n        /* \"#utility.yul\":1774:1779   */\n      dup2\n        /* \"#utility.yul\":1767:1780   */\n      iszero\n        /* \"#utility.yul\":1760:1781   */\n      iszero\n        /* \"#utility.yul\":1749:1781   */\n      swap1\n      pop\n        /* \"#utility.yul\":1739:1787   */\n      swap2\n      swap1\n      pop\n      jump\t// out\n        /* \"#utility.yul\":1793:1869   */\n    tag_40:\n        /* \"#utility.yul\":1829:1836   */\n      0x00\n        /* \"#utility.yul\":1858:1863   */\n      dup2\n        /* \"#utility.yul\":1847:1863   */\n      swap1\n      pop\n        /* \"#utility.yul\":1837:1869   */\n      swap2\n      swap1\n      pop\n      jump\t// out\n        /* \"#utility.yul\":1875:1964   */\n    tag_44:\n        /* \"#utility.yul\":1909:1916   */\n      0x00\n        /* \"#utility.yul\":1952:1957   */\n      dup2\n        /* \"#utility.yul\":1949:1950   */\n      0x00\n        /* \"#utility.yul\":1938:1958   */\n      signextend\n        /* \"#utility.yul\":1927:1958   */\n      swap1\n      pop\n        /* \"#utility.yul\":1917:1964   */\n      swap2\n      swap1\n      pop\n      jump\t// out\n        /* \"#utility.yul\":1970:2059   */\n    tag_48:\n        /* \"#utility.yul\":2006:2013   */\n      0x00\n        /* \"#utility.yul\":2046:2052   */\n      0xffff\n        /* \"#utility.yul\":2039:2044   */\n      dup3\n        /* \"#utility.yul\":2035:2053   */\n      and\n        /* \"#utility.yul\":2024:2053   */\n      swap1\n      pop\n        /* \"#utility.yul\":2014:2059   */\n      swap2\n      swap1\n      pop\n      jump\t// out\n        /* \"#utility.yul\":2065:2151   */\n    tag_52:\n        /* \"#utility.yul\":2100:2107   */\n      0x00\n        /* \"#utility.yul\":2140:2144   */\n      0xff\n        /* \"#utility.yul\":2133:2138   */\n      dup3\n        /* \"#utility.yul\":2129:2145   */\n      and\n        /* \"#utility.yul\":2118:2145   */\n      swap1\n      pop\n        /* \"#utility.yul\":2108:2151   */\n      swap2\n      swap1\n      pop\n      jump\t// out\n\n    auxdata: 0xa2646970667358221220ba9d735ae61d9ca175efd70f9e14099292949622a3d393b900a8be2425e355cc64736f6c63430008060033\n}\n",
				"bytecode": {
					"linkReferences": {},
					"object": "608060405260016000806101000a81548160ff0219169083151502179055506004600060016101000a81548160ff021916908360ff1602179055507ffffffffffffffffffffffffffffffffffffffffffffffffffffffffffffffffc600060026101000a81548160ff021916908360000b60ff16021790555060c8600060036101000a81548161ffff021916908361ffff160217905550620186a06001557f80000000000000000000000000000000000000000000000000000000000000006002557f7fffffffffffffffffffffffffffffffffffffffffffffffffffffffffffffff6003553480156100f157600080fd5b506102b8806101016000396000f3fe608060405234801561001057600080fd5b50600436106100625760003560e01c80630a6b4e06146100675780631249c58b146100855780632c23de69146100a3578063921cda74146100c1578063ab3a58a3146100df578063ec630c70146100fd575b600080fd5b61006f61011b565b60405161007c919061020e565b60405180910390f35b61008d61012f565b60405161009a91906101d8565b60405180910390f35b6100ab610135565b6040516100b891906101d8565b60405180910390f35b6100c961013b565b6040516100d691906101f3565b60405180910390f35b6100e761014e565b6040516100f49190610229565b60405180910390f35b610105610161565b60405161011291906101bd565b60405180910390f35b600060039054906101000a900461ffff1681565b60025481565b60035481565b600060029054906101000a900460000b81565b600060019054906101000a900460ff1681565b60008054906101000a900460ff1681565b61017b81610244565b82525050565b61018a81610250565b82525050565b6101998161025a565b82525050565b6101a881610267565b82525050565b6101b781610275565b82525050565b60006020820190506101d26000830184610172565b92915050565b60006020820190506101ed6000830184610181565b92915050565b60006020820190506102086000830184610190565b92915050565b6000602082019050610223600083018461019f565b92915050565b600060208201905061023e60008301846101ae565b92915050565b60008115159050919050565b6000819050919050565b60008160000b9050919050565b600061ffff82169050919050565b600060ff8216905091905056fea2646970667358221220ba9d735ae61d9ca175efd70f9e14099292949622a3d393b900a8be2425e355cc64736f6c63430008060033",
					"opcodes": "PUSH1 0x80 PUSH1 0x40 MSTORE PUSH1 0x1 PUSH1 0x0 DUP1 PUSH2 0x100 EXP DUP2 SLOAD DUP2 PUSH1 0xFF MUL NOT AND SWAP1 DUP4 ISZERO ISZERO MUL OR SWAP1 SSTORE POP PUSH1 0x4 PUSH1 0x0 PUSH1 0x1 PUSH2 0x100 EXP DUP2 SLOAD DUP2 PUSH1 0xFF MUL NOT AND SWAP1 DUP4 PUSH1 0xFF AND MUL OR SWAP1 SSTORE POP PUSH32 0xFFFFFFFFFFFFFFFFFFFFFFFFFFFFFFFFFFFFFFFFFFFFFFFFFFFFFFFFFFFFFFFC PUSH1 0x0 PUSH1 0x2 PUSH2 0x100 EXP DUP2 SLOAD DUP2 PUSH1 0xFF MUL NOT AND SWAP1 DUP4 PUSH1 0x0 SIGNEXTEND PUSH1 0xFF AND MUL OR SWAP1 SSTORE POP PUSH1 0xC8 PUSH1 0x0 PUSH1 0x3 PUSH2 0x100 EXP DUP2 SLOAD DUP2 PUSH2 0xFFFF MUL NOT AND SWAP1 DUP4 PUSH2 0xFFFF AND MUL OR SWAP1 SSTORE POP PUSH3 0x186A0 PUSH1 0x1 SSTORE PUSH32 0x8000000000000000000000000000000000000000000000000000000000000000 PUSH1 0x2 SSTORE PUSH32 0x7FFFFFFFFFFFFFFFFFFFFFFFFFFFFFFFFFFFFFFFFFFFFFFFFFFFFFFFFFFFFFFF PUSH1 0x3 SSTORE CALLVALUE DUP1 ISZERO PUSH2 0xF1 JUMPI PUSH1 0x0 DUP1 REVERT JUMPDEST POP PUSH2 0x2B8 DUP1 PUSH2 0x101 PUSH1 0x0 CODECOPY PUSH1 0x0 RETURN INVALID PUSH1 0x80 PUSH1 0x40 MSTORE CALLVALUE DUP1 ISZERO PUSH2 0x10 JUMPI PUSH1 0x0 DUP1 REVERT JUMPDEST POP PUSH1 0x4 CALLDATASIZE LT PUSH2 0x62 JUMPI PUSH1 0x0 CALLDATALOAD PUSH1 0xE0 SHR DUP1 PUSH4 0xA6B4E06 EQ PUSH2 0x67 JUMPI DUP1 PUSH4 0x1249C58B EQ PUSH2 0x85 JUMPI DUP1 PUSH4 0x2C23DE69 EQ PUSH2 0xA3 JUMPI DUP1 PUSH4 0x921CDA74 EQ PUSH2 0xC1 JUMPI DUP1 PUSH4 0xAB3A58A3 EQ PUSH2 0xDF JUMPI DUP1 PUSH4 0xEC630C70 EQ PUSH2 0xFD JUMPI JUMPDEST PUSH1 0x0 DUP1 REVERT JUMPDEST PUSH2 0x6F PUSH2 0x11B JUMP JUMPDEST PUSH1 0x40 MLOAD PUSH2 0x7C SWAP2 SWAP1 PUSH2 0x20E JUMP JUMPDEST PUSH1 0x40 MLOAD DUP1 SWAP2 SUB SWAP1 RETURN JUMPDEST PUSH2 0x8D PUSH2 0x12F JUMP JUMPDEST PUSH1 0x40 MLOAD PUSH2 0x9A SWAP2 SWAP1 PUSH2 0x1D8 JUMP JUMPDEST PUSH1 0x40 MLOAD DUP1 SWAP2 SUB SWAP1 RETURN JUMPDEST PUSH2 0xAB PUSH2 0x135 JUMP JUMPDEST PUSH1 0x40 MLOAD PUSH2 0xB8 SWAP2 SWAP1 PUSH2 0x1D8 JUMP JUMPDEST PUSH1 0x40 MLOAD DUP1 SWAP2 SUB SWAP1 RETURN JUMPDEST PUSH2 0xC9 PUSH2 0x13B JUMP JUMPDEST PUSH1 0x40 MLOAD PUSH2 0xD6 SWAP2 SWAP1 PUSH2 0x1F3 JUMP JUMPDEST PUSH1 0x40 MLOAD DUP1 SWAP2 SUB SWAP1 RETURN JUMPDEST PUSH2 0xE7 PUSH2 0x14E JUMP JUMPDEST PUSH1 0x40 MLOAD PUSH2 0xF4 SWAP2 SWAP1 PUSH2 0x229 JUMP JUMPDEST PUSH1 0x40 MLOAD DUP1 SWAP2 SUB SWAP1 RETURN JUMPDEST PUSH2 0x105 PUSH2 0x161 JUMP JUMPDEST PUSH1 0x40 MLOAD PUSH2 0x112 SWAP2 SWAP1 PUSH2 0x1BD JUMP JUMPDEST PUSH1 0x40 MLOAD DUP1 SWAP2 SUB SWAP1 RETURN JUMPDEST PUSH1 0x0 PUSH1 0x3 SWAP1 SLOAD SWAP1 PUSH2 0x100 EXP SWAP1 DIV PUSH2 0xFFFF AND DUP2 JUMP JUMPDEST PUSH1 0x2 SLOAD DUP2 JUMP JUMPDEST PUSH1 0x3 SLOAD DUP2 JUMP JUMPDEST PUSH1 0x0 PUSH1 0x2 SWAP1 SLOAD SWAP1 PUSH2 0x100 EXP SWAP1 DIV PUSH1 0x0 SIGNEXTEND DUP2 JUMP JUMPDEST PUSH1 0x0 PUSH1 0x1 SWAP1 SLOAD SWAP1 PUSH2 0x100 EXP SWAP1 DIV PUSH1 0xFF AND DUP2 JUMP JUMPDEST PUSH1 0x0 DUP1 SLOAD SWAP1 PUSH2 0x100 EXP SWAP1 DIV PUSH1 0xFF AND DUP2 JUMP JUMPDEST PUSH2 0x17B DUP2 PUSH2 0x244 JUMP JUMPDEST DUP3 MSTORE POP POP JUMP JUMPDEST PUSH2 0x18A DUP2 PUSH2 0x250 JUMP JUMPDEST DUP3 MSTORE POP POP JUMP JUMPDEST PUSH2 0x199 DUP2 PUSH2 0x25A JUMP JUMPDEST DUP3 MSTORE POP POP JUMP JUMPDEST PUSH2 0x1A8 DUP2 PUSH2 0x267 JUMP JUMPDEST DUP3 MSTORE POP POP JUMP JUMPDEST PUSH2 0x1B7 DUP2 PUSH2 0x275 JUMP JUMPDEST DUP3 MSTORE POP POP JUMP JUMPDEST PUSH1 0x0 PUSH1 0x20 DUP3 ADD SWAP1 POP PUSH2 0x1D2 PUSH1 0x0 DUP4 ADD DUP5 PUSH2 0x172 JUMP JUMPDEST SWAP3 SWAP2 POP POP JUMP JUMPDEST PUSH1 0x0 PUSH1 0x20 DUP3 ADD SWAP1 POP PUSH2 0x1ED PUSH1 0x0 DUP4 ADD DUP5 PUSH2 0x181 JUMP JUMPDEST SWAP3 SWAP2 POP POP JUMP JUMPDEST PUSH1 0x0 PUSH1 0x20 DUP3 ADD SWAP1 POP PUSH2 0x208 PUSH1 0x0 DUP4 ADD DUP5 PUSH2 0x190 JUMP JUMPDEST SWAP3 SWAP2 POP POP JUMP JUMPDEST PUSH1 0x0 PUSH1 0x20 DUP3 ADD SWAP1 POP PUSH2 0x223 PUSH1 0x0 DUP4 ADD DUP5 PUSH2 0x19F JUMP JUMPDEST SWAP3 SWAP2 POP POP JUMP JUMPDEST PUSH1 0x0 PUSH1 0x20 DUP3 ADD SWAP1 POP PUSH2 0x23E PUSH1 0x0 DUP4 ADD DUP5 PUSH2 0x1AE JUMP JUMPDEST SWAP3 SWAP2 POP POP JUMP JUMPDEST PUSH1 0x0 DUP2 ISZERO ISZERO SWAP1 POP SWAP2 SWAP1 POP JUMP JUMPDEST PUSH1 0x0 DUP2 SWAP1 POP SWAP2 SWAP1 POP JUMP JUMPDEST PUSH1 0x0 DUP2 PUSH1 0x0 SIGNEXTEND SWAP1 POP SWAP2 SWAP1 POP JUMP JUMPDEST PUSH1 0x0 PUSH2 0xFFFF DUP3 AND SWAP1 POP SWAP2 SWAP1 POP JUMP JUMPDEST PUSH1 0x0 PUSH1 0xFF DUP3 AND SWAP1 POP SWAP2 SWAP1 POP JUMP INVALID LOG2 PUSH5 0x6970667358 0x22 SLT KECCAK256 0xBA SWAP14 PUSH20 0x5AE61D9CA175EFD70F9E14099292949622A3D393 0xB9 STOP 0xA8 0xBE 0x24 0x25 0xE3 SSTORE 0xCC PUSH5 0x736F6C6343 STOP ADDMOD MOD STOP CALLER "
				},
				"gasEstimates": {
					"creation": {
						"codeDepositCost": "139200",
						"executionCost": "163727",
						"totalCost": "302927"
					},
					"external": {
						"bool1()": "2556",
						"i8()": "2569",
						"maxint()": "2451",
						"mint()": "2429",
						"u16()": "2499",
						"u8()": "2587"
					}
				},
				"methodIdentifiers": {
					"bool1()": "ec630c70",
					"i8()": "921cda74",
					"maxint()": "2c23de69",
					"mint()": "1249c58b",
					"u16()": "0a6b4e06",
					"u8()": "ab3a58a3"
				}
			},
			"storageLayout": {
				"storage": [
					{
						"astId": 4,
						"contract": "contracts/datatype.sol:datatype",
						"label": "bool1",
						"offset": 0,
						"slot": "0",
						"type": "t_bool"
					},
					{
						"astId": 7,
						"contract": "contracts/datatype.sol:datatype",
						"label": "u8",
						"offset": 1,
						"slot": "0",
						"type": "t_uint8"
					},
					{
						"astId": 11,
						"contract": "contracts/datatype.sol:datatype",
						"label": "i8",
						"offset": 2,
						"slot": "0",
						"type": "t_int8"
					},
					{
						"astId": 14,
						"contract": "contracts/datatype.sol:datatype",
						"label": "u16",
						"offset": 3,
						"slot": "0",
						"type": "t_uint16"
					},
					{
						"astId": 17,
						"contract": "contracts/datatype.sol:datatype",
						"label": "u256",
						"offset": 0,
						"slot": "1",
						"type": "t_uint256"
					},
					{
						"astId": 24,
						"contract": "contracts/datatype.sol:datatype",
						"label": "mint",
						"offset": 0,
						"slot": "2",
						"type": "t_int256"
					},
					{
						"astId": 31,
						"contract": "contracts/datatype.sol:datatype",
						"label": "maxint",
						"offset": 0,
						"slot": "3",
						"type": "t_int256"
					}
				],
				"types": {
					"t_bool": {
						"encoding": "inplace",
						"label": "bool",
						"numberOfBytes": "1"
					},
					"t_int256": {
						"encoding": "inplace",
						"label": "int256",
						"numberOfBytes": "32"
					},
					"t_int8": {
						"encoding": "inplace",
						"label": "int8",
						"numberOfBytes": "1"
					},
					"t_uint16": {
						"encoding": "inplace",
						"label": "uint16",
						"numberOfBytes": "2"
					},
					"t_uint256": {
						"encoding": "inplace",
						"label": "uint256",
						"numberOfBytes": "32"
					},
					"t_uint8": {
						"encoding": "inplace",
						"label": "uint8",
						"numberOfBytes": "1"
					}
				}
			},
			"userdoc": {
				"kind": "user",
				"methods": {},
				"version": 1
			}
		}
	}
}