{
	"contracts/datatype.sol": {
		"datatype": {
			"abi": [
				{
					"inputs": [],
					"name": "bool1",
					"outputs": [
						{
							"internalType": "bool",
							"name": "",
							"type": "bool"
						}
					],
					"stateMutability": "view",
					"type": "function"
				},
				{
					"inputs": [],
					"name": "maxint",
					"outputs": [
						{
							"internalType": "int256",
							"name": "",
							"type": "int256"
						}
					],
					"stateMutability": "view",
					"type": "function"
				},
				{
					"inputs": [],
					"name": "mint",
					"outputs": [
						{
							"internalType": "int256",
							"name": "",
							"type": "int256"
						}
					],
					"stateMutability": "view",
					"type": "function"
				}
			],
			"devdoc": {
				"kind": "dev",
				"methods": {},
				"version": 1
			},
			"evm": {
				"assembly": "    /* \"contracts/datatype.sol\":56:271  contract datatype{\r... */\n  mstore(0x40, 0x80)\n    /* \"contracts/datatype.sol\":95:99  true */\n  0x01\n    /* \"contracts/datatype.sol\":76:99  bool public bool1 =true */\n  0x00\n  dup1\n  0x0100\n  exp\n  dup2\n  sload\n  dup2\n  0xff\n  mul\n  not\n  and\n  swap1\n  dup4\n  iszero\n  iszero\n  mul\n  or\n  swap1\n  sstore\n  pop\n    /* \"contracts/datatype.sol\":111:112  4 */\n  0x04\n    /* \"contracts/datatype.sol\":102:112  uint8 u8=4 */\n  0x00\n  exp(0x0100, 0x01)\n  dup2\n  sload\n  dup2\n  0xff\n  mul\n  not\n  and\n  swap1\n  dup4\n  0xff\n  and\n  mul\n  or\n  swap1\n  sstore\n  pop\n    /* \"contracts/datatype.sol\":123:125  -4 */\n  0xfffffffffffffffffffffffffffffffffffffffffffffffffffffffffffffffc\n    /* \"contracts/datatype.sol\":115:125  int8 i8=-4 */\n  0x00\n  exp(0x0100, 0x02)\n  dup2\n  sload\n  dup2\n  0xff\n  mul\n  not\n  and\n  swap1\n  dup4\n  0x00\n  signextend\n  0xff\n  and\n  mul\n  or\n  swap1\n  sstore\n  pop\n    /* \"contracts/datatype.sol\":139:142  200 */\n  0xc8\n    /* \"contracts/datatype.sol\":128:142  uint16 u16=200 */\n  0x00\n  exp(0x0100, 0x03)\n  dup2\n  sload\n  dup2\n  0xffff\n  mul\n  not\n  and\n  swap1\n  dup4\n  0xffff\n  and\n  mul\n  or\n  swap1\n  sstore\n  pop\n    /* \"contracts/datatype.sol\":159:165  100000 */\n  0x0186a0\n    /* \"contracts/datatype.sol\":145:165  uint256 u256= 100000 */\n  0x01\n  sstore\n    /* \"contracts/datatype.sol\":208:221  type(int).min */\n  0x8000000000000000000000000000000000000000000000000000000000000000\n    /* \"contracts/datatype.sol\":191:221  int public mint =type(int).min */\n  0x02\n  sstore\n    /* \"contracts/datatype.sol\":249:262  type(int).max */\n  0x7fffffffffffffffffffffffffffffffffffffffffffffffffffffffffffffff\n    /* \"contracts/datatype.sol\":231:262  int public maxint=type(int).max */\n  0x03\n  sstore\n    /* \"contracts/datatype.sol\":56:271  contract datatype{\r... */\n  callvalue\n  dup1\n  iszero\n  tag_1\n  jumpi\n  0x00\n  dup1\n  revert\ntag_1:\n  pop\n  dataSize(sub_0)\n  dup1\n  dataOffset(sub_0)\n  0x00\n  codecopy\n  0x00\n  return\nstop\n\nsub_0: assembly {\n        /* \"contracts/datatype.sol\":56:271  contract datatype{\r... */\n      mstore(0x40, 0x80)\n      callvalue\n      dup1\n      iszero\n      tag_1\n      jumpi\n      0x00\n      dup1\n      revert\n    tag_1:\n      pop\n      jumpi(tag_2, lt(calldatasize, 0x04))\n      shr(0xe0, calldataload(0x00))\n      dup1\n      0x1249c58b\n      eq\n      tag_3\n      jumpi\n      dup1\n      0x2c23de69\n      eq\n      tag_4\n      jumpi\n      dup1\n      0xec630c70\n      eq\n      tag_5\n      jumpi\n    tag_2:\n      0x00\n      dup1\n      revert\n        /* \"contracts/datatype.sol\":191:221  int public mint =type(int).min */\n    tag_3:\n      tag_6\n      tag_7\n      jump\t// in\n    tag_6:\n      mload(0x40)\n      tag_8\n      swap2\n      swap1\n      tag_9\n      jump\t// in\n    tag_8:\n      mload(0x40)\n      dup1\n      swap2\n      sub\n      swap1\n      return\n        /* \"contracts/datatype.sol\":231:262  int public maxint=type(int).max */\n    tag_4:\n      tag_10\n      tag_11\n      jump\t// in\n    tag_10:\n      mload(0x40)\n      tag_12\n      swap2\n      swap1\n      tag_9\n      jump\t// in\n    tag_12:\n      mload(0x40)\n      dup1\n      swap2\n      sub\n      swap1\n      return\n        /* \"contracts/datatype.sol\":76:99  bool public bool1 =true */\n    tag_5:\n      tag_13\n      tag_14\n      jump\t// in\n    tag_13:\n      mload(0x40)\n      tag_15\n      swap2\n      swap1\n      tag_16\n      jump\t// in\n    tag_15:\n      mload(0x40)\n      dup1\n      swap2\n      sub\n      swap1\n      return\n        /* \"contracts/datatype.sol\":191:221  int public mint =type(int).min */\n    tag_7:\n      sload(0x02)\n      dup2\n      jump\t// out\n        /* \"contracts/datatype.sol\":231:262  int public maxint=type(int).max */\n    tag_11:\n      sload(0x03)\n      dup2\n      jump\t// out\n        /* \"contracts/datatype.sol\":76:99  bool public bool1 =true */\n    tag_14:\n      0x00\n      dup1\n      sload\n      swap1\n      0x0100\n      exp\n      swap1\n      div\n      0xff\n      and\n      dup2\n      jump\t// out\n        /* \"#utility.yul\":7:116   */\n    tag_18:\n        /* \"#utility.yul\":88:109   */\n      tag_20\n        /* \"#utility.yul\":103:108   */\n      dup2\n        /* \"#utility.yul\":88:109   */\n      tag_21\n      jump\t// in\n    tag_20:\n        /* \"#utility.yul\":83:86   */\n      dup3\n        /* \"#utility.yul\":76:110   */\n      mstore\n        /* \"#utility.yul\":66:116   */\n      pop\n      pop\n      jump\t// out\n        /* \"#utility.yul\":122:237   */\n    tag_22:\n        /* \"#utility.yul\":207:230   */\n      tag_24\n        /* \"#utility.yul\":224:229   */\n      dup2\n        /* \"#utility.yul\":207:230   */\n      tag_25\n      jump\t// in\n    tag_24:\n        /* \"#utility.yul\":202:205   */\n      dup3\n        /* \"#utility.yul\":195:231   */\n      mstore\n        /* \"#utility.yul\":185:237   */\n      pop\n      pop\n      jump\t// out\n        /* \"#utility.yul\":243:453   */\n    tag_16:\n        /* \"#utility.yul\":330:334   */\n      0x00\n        /* \"#utility.yul\":368:370   */\n      0x20\n        /* \"#utility.yul\":357:366   */\n      dup3\n        /* \"#utility.yul\":353:371   */\n      add\n        /* \"#utility.yul\":345:371   */\n      swap1\n      pop\n        /* \"#utility.yul\":381:446   */\n      tag_27\n        /* \"#utility.yul\":443:444   */\n      0x00\n        /* \"#utility.yul\":432:441   */\n      dup4\n        /* \"#utility.yul\":428:445   */\n      add\n        /* \"#utility.yul\":419:425   */\n      dup5\n        /* \"#utility.yul\":381:446   */\n      tag_18\n      jump\t// in\n    tag_27:\n        /* \"#utility.yul\":335:453   */\n      swap3\n      swap2\n      pop\n      pop\n      jump\t// out\n        /* \"#utility.yul\":459:677   */\n    tag_9:\n        /* \"#utility.yul\":550:554   */\n      0x00\n        /* \"#utility.yul\":588:590   */\n      0x20\n        /* \"#utility.yul\":577:586   */\n      dup3\n        /* \"#utility.yul\":573:591   */\n      add\n        /* \"#utility.yul\":565:591   */\n      swap1\n      pop\n        /* \"#utility.yul\":601:670   */\n      tag_29\n        /* \"#utility.yul\":667:668   */\n      0x00\n        /* \"#utility.yul\":656:665   */\n      dup4\n        /* \"#utility.yul\":652:669   */\n      add\n        /* \"#utility.yul\":643:649   */\n      dup5\n        /* \"#utility.yul\":601:670   */\n      tag_22\n      jump\t// in\n    tag_29:\n        /* \"#utility.yul\":555:677   */\n      swap3\n      swap2\n      pop\n      pop\n      jump\t// out\n        /* \"#utility.yul\":683:773   */\n    tag_21:\n        /* \"#utility.yul\":717:724   */\n      0x00\n        /* \"#utility.yul\":760:765   */\n      dup2\n        /* \"#utility.yul\":753:766   */\n      iszero\n        /* \"#utility.yul\":746:767   */\n      iszero\n        /* \"#utility.yul\":735:767   */\n      swap1\n      pop\n        /* \"#utility.yul\":725:773   */\n      swap2\n      swap1\n      pop\n      jump\t// out\n        /* \"#utility.yul\":779:855   */\n    tag_25:\n        /* \"#utility.yul\":815:822   */\n      0x00\n        /* \"#utility.yul\":844:849   */\n      dup2\n        /* \"#utility.yul\":833:849   */\n      swap1\n      pop\n        /* \"#utility.yul\":823:855   */\n      swap2\n      swap1\n      pop\n      jump\t// out\n\n    auxdata: 0xa2646970667358221220a2c989d1c71a8c7f799ebd86770418d2a5bc4ffa1177f9b971c6ea85d93e2b4464736f6c63430008060033\n}\n",
				"bytecode": {
					"linkReferences": {},
					"object": "608060405260016000806101000a81548160ff0219169083151502179055506004600060016101000a81548160ff021916908360ff1602179055507ffffffffffffffffffffffffffffffffffffffffffffffffffffffffffffffffc600060026101000a81548160ff021916908360000b60ff16021790555060c8600060036101000a81548161ffff021916908361ffff160217905550620186a06001557f80000000000000000000000000000000000000000000000000000000000000006002557f7fffffffffffffffffffffffffffffffffffffffffffffffffffffffffffffff6003553480156100f157600080fd5b5061015d806101016000396000f3fe608060405234801561001057600080fd5b50600436106100415760003560e01c80631249c58b146100465780632c23de6914610064578063ec630c7014610082575b600080fd5b61004e6100a0565b60405161005b91906100f6565b60405180910390f35b61006c6100a6565b60405161007991906100f6565b60405180910390f35b61008a6100ac565b60405161009791906100db565b60405180910390f35b60025481565b60035481565b60008054906101000a900460ff1681565b6100c681610111565b82525050565b6100d58161011d565b82525050565b60006020820190506100f060008301846100bd565b92915050565b600060208201905061010b60008301846100cc565b92915050565b60008115159050919050565b600081905091905056fea2646970667358221220a2c989d1c71a8c7f799ebd86770418d2a5bc4ffa1177f9b971c6ea85d93e2b4464736f6c63430008060033",
					"opcodes": "PUSH1 0x80 PUSH1 0x40 MSTORE PUSH1 0x1 PUSH1 0x0 DUP1 PUSH2 0x100 EXP DUP2 SLOAD DUP2 PUSH1 0xFF MUL NOT AND SWAP1 DUP4 ISZERO ISZERO MUL OR SWAP1 SSTORE POP PUSH1 0x4 PUSH1 0x0 PUSH1 0x1 PUSH2 0x100 EXP DUP2 SLOAD DUP2 PUSH1 0xFF MUL NOT AND SWAP1 DUP4 PUSH1 0xFF AND MUL OR SWAP1 SSTORE POP PUSH32 0xFFFFFFFFFFFFFFFFFFFFFFFFFFFFFFFFFFFFFFFFFFFFFFFFFFFFFFFFFFFFFFFC PUSH1 0x0 PUSH1 0x2 PUSH2 0x100 EXP DUP2 SLOAD DUP2 PUSH1 0xFF MUL NOT AND SWAP1 DUP4 PUSH1 0x0 SIGNEXTEND PUSH1 0xFF AND MUL OR SWAP1 SSTORE POP PUSH1 0xC8 PUSH1 0x0 PUSH1 0x3 PUSH2 0x100 EXP DUP2 SLOAD DUP2 PUSH2 0xFFFF MUL NOT AND SWAP1 DUP4 PUSH2 0xFFFF AND MUL OR SWAP1 SSTORE POP PUSH3 0x186A0 PUSH1 0x1 SSTORE PUSH32 0x8000000000000000000000000000000000000000000000000000000000000000 PUSH1 0x2 SSTORE PUSH32 0x7FFFFFFFFFFFFFFFFFFFFFFFFFFFFFFFFFFFFFFFFFFFFFFFFFFFFFFFFFFFFFFF PUSH1 0x3 SSTORE CALLVALUE DUP1 ISZERO PUSH2 0xF1 JUMPI PUSH1 0x0 DUP1 REVERT JUMPDEST POP PUSH2 0x15D DUP1 PUSH2 0x101 PUSH1 0x0 CODECOPY PUSH1 0x0 RETURN INVALID PUSH1 0x80 PUSH1 0x40 MSTORE CALLVALUE DUP1 ISZERO PUSH2 0x10 JUMPI PUSH1 0x0 DUP1 REVERT JUMPDEST POP PUSH1 0x4 CALLDATASIZE LT PUSH2 0x41 JUMPI PUSH1 0x0 CALLDATALOAD PUSH1 0xE0 SHR DUP1 PUSH4 0x1249C58B EQ PUSH2 0x46 JUMPI DUP1 PUSH4 0x2C23DE69 EQ PUSH2 0x64 JUMPI DUP1 PUSH4 0xEC630C70 EQ PUSH2 0x82 JUMPI JUMPDEST PUSH1 0x0 DUP1 REVERT JUMPDEST PUSH2 0x4E PUSH2 0xA0 JUMP JUMPDEST PUSH1 0x40 MLOAD PUSH2 0x5B SWAP2 SWAP1 PUSH2 0xF6 JUMP JUMPDEST PUSH1 0x40 MLOAD DUP1 SWAP2 SUB SWAP1 RETURN JUMPDEST PUSH2 0x6C PUSH2 0xA6 JUMP JUMPDEST PUSH1 0x40 MLOAD PUSH2 0x79 SWAP2 SWAP1 PUSH2 0xF6 JUMP JUMPDEST PUSH1 0x40 MLOAD DUP1 SWAP2 SUB SWAP1 RETURN JUMPDEST PUSH2 0x8A PUSH2 0xAC JUMP JUMPDEST PUSH1 0x40 MLOAD PUSH2 0x97 SWAP2 SWAP1 PUSH2 0xDB JUMP JUMPDEST PUSH1 0x40 MLOAD DUP1 SWAP2 SUB SWAP1 RETURN JUMPDEST PUSH1 0x2 SLOAD DUP2 JUMP JUMPDEST PUSH1 0x3 SLOAD DUP2 JUMP JUMPDEST PUSH1 0x0 DUP1 SLOAD SWAP1 PUSH2 0x100 EXP SWAP1 DIV PUSH1 0xFF AND DUP2 JUMP JUMPDEST PUSH2 0xC6 DUP2 PUSH2 0x111 JUMP JUMPDEST DUP3 MSTORE POP POP JUMP JUMPDEST PUSH2 0xD5 DUP2 PUSH2 0x11D JUMP JUMPDEST DUP3 MSTORE POP POP JUMP JUMPDEST PUSH1 0x0 PUSH1 0x20 DUP3 ADD SWAP1 POP PUSH2 0xF0 PUSH1 0x0 DUP4 ADD DUP5 PUSH2 0xBD JUMP JUMPDEST SWAP3 SWAP2 POP POP JUMP JUMPDEST PUSH1 0x0 PUSH1 0x20 DUP3 ADD SWAP1 POP PUSH2 0x10B PUSH1 0x0 DUP4 ADD DUP5 PUSH2 0xCC JUMP JUMPDEST SWAP3 SWAP2 POP POP JUMP JUMPDEST PUSH1 0x0 DUP2 ISZERO ISZERO SWAP1 POP SWAP2 SWAP1 POP JUMP JUMPDEST PUSH1 0x0 DUP2 SWAP1 POP SWAP2 SWAP1 POP JUMP INVALID LOG2 PUSH5 0x6970667358 0x22 SLT KECCAK256 LOG2 0xC9 DUP10 0xD1 0xC7 BYTE DUP13 PUSH32 0x799EBD86770418D2A5BC4FFA1177F9B971C6EA85D93E2B4464736F6C63430008 MOD STOP CALLER "
				},
				"gasEstimates": {
					"creation": {
						"codeDepositCost": "69800",
						"executionCost": "163661",
						"totalCost": "233461"
					},
					"external": {
						"bool1()": "2490",
						"maxint()": "2429",
						"mint()": "2407"
					}
				},
				"methodIdentifiers": {
					"bool1()": "ec630c70",
					"maxint()": "2c23de69",
					"mint()": "1249c58b"
				}
			},
			"storageLayout": {
				"storage": [
					{
						"astId": 4,
						"contract": "contracts/datatype.sol:datatype",
						"label": "bool1",
						"offset": 0,
						"slot": "0",
						"type": "t_bool"
					},
					{
						"astId": 7,
						"contract": "contracts/datatype.sol:datatype",
						"label": "u8",
						"offset": 1,
						"slot": "0",
						"type": "t_uint8"
					},
					{
						"astId": 11,
						"contract": "contracts/datatype.sol:datatype",
						"label": "i8",
						"offset": 2,
						"slot": "0",
						"type": "t_int8"
					},
					{
						"astId": 14,
						"contract": "contracts/datatype.sol:datatype",
						"label": "u16",
						"offset": 3,
						"slot": "0",
						"type": "t_uint16"
					},
					{
						"astId": 17,
						"contract": "contracts/datatype.sol:datatype",
						"label": "u256",
						"offset": 0,
						"slot": "1",
						"type": "t_uint256"
					},
					{
						"astId": 24,
						"contract": "contracts/datatype.sol:datatype",
						"label": "mint",
						"offset": 0,
						"slot": "2",
						"type": "t_int256"
					},
					{
						"astId": 31,
						"contract": "contracts/datatype.sol:datatype",
						"label": "maxint",
						"offset": 0,
						"slot": "3",
						"type": "t_int256"
					}
				],
				"types": {
					"t_bool": {
						"encoding": "inplace",
						"label": "bool",
						"numberOfBytes": "1"
					},
					"t_int256": {
						"encoding": "inplace",
						"label": "int256",
						"numberOfBytes": "32"
					},
					"t_int8": {
						"encoding": "inplace",
						"label": "int8",
						"numberOfBytes": "1"
					},
					"t_uint16": {
						"encoding": "inplace",
						"label": "uint16",
						"numberOfBytes": "2"
					},
					"t_uint256": {
						"encoding": "inplace",
						"label": "uint256",
						"numberOfBytes": "32"
					},
					"t_uint8": {
						"encoding": "inplace",
						"label": "uint8",
						"numberOfBytes": "1"
					}
				}
			},
			"userdoc": {
				"kind": "user",
				"methods": {},
				"version": 1
			}
		}
	}
}