{
	"contracts/struct.sol": {
		"structure": {
			"abi": [
				{
					"inputs": [],
					"name": "disBook",
					"outputs": [
						{
							"internalType": "string",
							"name": "",
							"type": "string"
						},
						{
							"internalType": "string",
							"name": "",
							"type": "string"
						},
						{
							"internalType": "int256",
							"name": "",
							"type": "int256"
						},
						{
							"internalType": "int256",
							"name": "",
							"type": "int256"
						}
					],
					"stateMutability": "view",
					"type": "function"
				},
				{
					"inputs": [],
					"name": "setBook",
					"outputs": [],
					"stateMutability": "nonpayable",
					"type": "function"
				}
			],
			"devdoc": {
				"kind": "dev",
				"methods": {},
				"version": 1
			},
			"evm": {
				"assembly": "    /* \"contracts/struct.sol\":55:434  contract structure\r... */\n  mstore(0x40, 0x80)\n  callvalue\n  dup1\n  iszero\n  tag_1\n  jumpi\n  0x00\n  dup1\n  revert\ntag_1:\n  pop\n  dataSize(sub_0)\n  dup1\n  dataOffset(sub_0)\n  0x00\n  codecopy\n  0x00\n  return\nstop\n\nsub_0: assembly {\n        /* \"contracts/struct.sol\":55:434  contract structure\r... */\n      mstore(0x40, 0x80)\n      callvalue\n      dup1\n      iszero\n      tag_1\n      jumpi\n      0x00\n      dup1\n      revert\n    tag_1:\n      pop\n      jumpi(tag_2, lt(calldatasize, 0x04))\n      shr(0xe0, calldataload(0x00))\n      dup1\n      0x9c5990d7\n      eq\n      tag_3\n      jumpi\n      dup1\n      0xd629546c\n      eq\n      tag_4\n      jumpi\n    tag_2:\n      0x00\n      dup1\n      revert\n        /* \"contracts/struct.sol\":292:431  function disBook() public view returns(string memory,string memory ,int,int)\r... */\n    tag_3:\n      tag_5\n      tag_6\n      jump\t// in\n    tag_5:\n      mload(0x40)\n      tag_7\n      swap5\n      swap4\n      swap3\n      swap2\n      swap1\n      tag_8\n      jump\t// in\n    tag_7:\n      mload(0x40)\n      dup1\n      swap2\n      sub\n      swap1\n      return\n        /* \"contracts/struct.sol\":207:290  function setBook() public \r... */\n    tag_4:\n      tag_9\n      tag_10\n      jump\t// in\n    tag_9:\n      stop\n        /* \"contracts/struct.sol\":292:431  function disBook() public view returns(string memory,string memory ,int,int)\r... */\n    tag_6:\n        /* \"contracts/struct.sol\":331:344  string memory */\n      0x60\n        /* \"contracts/struct.sol\":345:358  string memory */\n      dup1\n        /* \"contracts/struct.sol\":360:363  int */\n      0x00\n        /* \"contracts/struct.sol\":364:367  int */\n      dup1\n        /* \"contracts/struct.sol\":381:385  book */\n      0x00\n        /* \"contracts/struct.sol\":381:391  book.title */\n      dup1\n      add\n        /* \"contracts/struct.sol\":392:396  book */\n      0x00\n        /* \"contracts/struct.sol\":392:403  book.author */\n      0x01\n      add\n        /* \"contracts/struct.sol\":404:408  book */\n      0x00\n        /* \"contracts/struct.sol\":404:415  book.bookId */\n      0x02\n      add\n      sload\n        /* \"contracts/struct.sol\":416:420  book */\n      0x00\n        /* \"contracts/struct.sol\":416:426  book.price */\n      0x03\n      add\n      sload\n        /* \"contracts/struct.sol\":373:427  return (book.title,book.author,book.bookId,book.price) */\n      dup4\n      dup1\n      sload\n      tag_12\n      swap1\n      tag_13\n      jump\t// in\n    tag_12:\n      dup1\n      0x1f\n      add\n      0x20\n      dup1\n      swap2\n      div\n      mul\n      0x20\n      add\n      mload(0x40)\n      swap1\n      dup2\n      add\n      0x40\n      mstore\n      dup1\n      swap3\n      swap2\n      swap1\n      dup2\n      dup2\n      mstore\n      0x20\n      add\n      dup3\n      dup1\n      sload\n      tag_14\n      swap1\n      tag_13\n      jump\t// in\n    tag_14:\n      dup1\n      iszero\n      tag_15\n      jumpi\n      dup1\n      0x1f\n      lt\n      tag_16\n      jumpi\n      0x0100\n      dup1\n      dup4\n      sload\n      div\n      mul\n      dup4\n      mstore\n      swap2\n      0x20\n      add\n      swap2\n      jump(tag_15)\n    tag_16:\n      dup3\n      add\n      swap2\n      swap1\n      0x00\n      mstore\n      keccak256(0x00, 0x20)\n      swap1\n    tag_17:\n      dup2\n      sload\n      dup2\n      mstore\n      swap1\n      0x01\n      add\n      swap1\n      0x20\n      add\n      dup1\n      dup4\n      gt\n      tag_17\n      jumpi\n      dup3\n      swap1\n      sub\n      0x1f\n      and\n      dup3\n      add\n      swap2\n    tag_15:\n      pop\n      pop\n      pop\n      pop\n      pop\n      swap4\n      pop\n      dup3\n      dup1\n      sload\n      tag_18\n      swap1\n      tag_13\n      jump\t// in\n    tag_18:\n      dup1\n      0x1f\n      add\n      0x20\n      dup1\n      swap2\n      div\n      mul\n      0x20\n      add\n      mload(0x40)\n      swap1\n      dup2\n      add\n      0x40\n      mstore\n      dup1\n      swap3\n      swap2\n      swap1\n      dup2\n      dup2\n      mstore\n      0x20\n      add\n      dup3\n      dup1\n      sload\n      tag_19\n      swap1\n      tag_13\n      jump\t// in\n    tag_19:\n      dup1\n      iszero\n      tag_20\n      jumpi\n      dup1\n      0x1f\n      lt\n      tag_21\n      jumpi\n      0x0100\n      dup1\n      dup4\n      sload\n      div\n      mul\n      dup4\n      mstore\n      swap2\n      0x20\n      add\n      swap2\n      jump(tag_20)\n    tag_21:\n      dup3\n      add\n      swap2\n      swap1\n      0x00\n      mstore\n      keccak256(0x00, 0x20)\n      swap1\n    tag_22:\n      dup2\n      sload\n      dup2\n      mstore\n      swap1\n      0x01\n      add\n      swap1\n      0x20\n      add\n      dup1\n      dup4\n      gt\n      tag_22\n      jumpi\n      dup3\n      swap1\n      sub\n      0x1f\n      and\n      dup3\n      add\n      swap2\n    tag_20:\n      pop\n      pop\n      pop\n      pop\n      pop\n      swap3\n      pop\n      swap4\n      pop\n      swap4\n      pop\n      swap4\n      pop\n      swap4\n      pop\n        /* \"contracts/struct.sol\":292:431  function disBook() public view returns(string memory,string memory ,int,int)\r... */\n      swap1\n      swap2\n      swap3\n      swap4\n      jump\t// out\n        /* \"contracts/struct.sol\":207:290  function setBook() public \r... */\n    tag_10:\n        /* \"contracts/struct.sol\":243:284  Book(\"Blockchain\",\"Avinash Singh\",100,23) */\n      mload(0x40)\n      dup1\n      0x80\n      add\n      0x40\n      mstore\n      dup1\n      mload(0x40)\n      dup1\n      0x40\n      add\n      0x40\n      mstore\n      dup1\n      0x0a\n      dup2\n      mstore\n      0x20\n      add\n      0x426c6f636b636861696e00000000000000000000000000000000000000000000\n      dup2\n      mstore\n      pop\n      dup2\n      mstore\n      0x20\n      add\n      mload(0x40)\n      dup1\n      0x40\n      add\n      0x40\n      mstore\n      dup1\n      0x0d\n      dup2\n      mstore\n      0x20\n      add\n      0x4176696e6173682053696e676800000000000000000000000000000000000000\n      dup2\n      mstore\n      pop\n      dup2\n      mstore\n      0x20\n      add\n        /* \"contracts/struct.sol\":277:280  100 */\n      0x64\n        /* \"contracts/struct.sol\":243:284  Book(\"Blockchain\",\"Avinash Singh\",100,23) */\n      dup2\n      mstore\n      0x20\n      add\n        /* \"contracts/struct.sol\":281:283  23 */\n      0x17\n        /* \"contracts/struct.sol\":243:284  Book(\"Blockchain\",\"Avinash Singh\",100,23) */\n      dup2\n      mstore\n      pop\n        /* \"contracts/struct.sol\":238:242  book */\n      0x00\n        /* \"contracts/struct.sol\":238:284  book=Book(\"Blockchain\",\"Avinash Singh\",100,23) */\n      dup1\n      dup3\n      add\n      mload\n      dup2\n      0x00\n      add\n      swap1\n      dup1\n      mload\n      swap1\n      0x20\n      add\n      swap1\n      tag_24\n      swap3\n      swap2\n      swap1\n      tag_25\n      jump\t// in\n    tag_24:\n      pop\n      0x20\n      dup3\n      add\n      mload\n      dup2\n      0x01\n      add\n      swap1\n      dup1\n      mload\n      swap1\n      0x20\n      add\n      swap1\n      tag_26\n      swap3\n      swap2\n      swap1\n      tag_25\n      jump\t// in\n    tag_26:\n      pop\n      0x40\n      dup3\n      add\n      mload\n      dup2\n      0x02\n      add\n      sstore\n      0x60\n      dup3\n      add\n      mload\n      dup2\n      0x03\n      add\n      sstore\n      swap1\n      pop\n      pop\n        /* \"contracts/struct.sol\":207:290  function setBook() public \r... */\n      jump\t// out\n    tag_25:\n      dup3\n      dup1\n      sload\n      tag_27\n      swap1\n      tag_13\n      jump\t// in\n    tag_27:\n      swap1\n      0x00\n      mstore\n      keccak256(0x00, 0x20)\n      swap1\n      0x1f\n      add\n      0x20\n      swap1\n      div\n      dup2\n      add\n      swap3\n      dup3\n      tag_29\n      jumpi\n      0x00\n      dup6\n      sstore\n      jump(tag_28)\n    tag_29:\n      dup3\n      0x1f\n      lt\n      tag_30\n      jumpi\n      dup1\n      mload\n      not(0xff)\n      and\n      dup4\n      dup1\n      add\n      or\n      dup6\n      sstore\n      jump(tag_28)\n    tag_30:\n      dup3\n      dup1\n      add\n      0x01\n      add\n      dup6\n      sstore\n      dup3\n      iszero\n      tag_28\n      jumpi\n      swap2\n      dup3\n      add\n    tag_31:\n      dup3\n      dup2\n      gt\n      iszero\n      tag_32\n      jumpi\n      dup3\n      mload\n      dup3\n      sstore\n      swap2\n      0x20\n      add\n      swap2\n      swap1\n      0x01\n      add\n      swap1\n      jump(tag_31)\n    tag_32:\n    tag_28:\n      pop\n      swap1\n      pop\n      tag_33\n      swap2\n      swap1\n      tag_34\n      jump\t// in\n    tag_33:\n      pop\n      swap1\n      jump\t// out\n    tag_34:\n    tag_35:\n      dup1\n      dup3\n      gt\n      iszero\n      tag_36\n      jumpi\n      0x00\n      dup2\n      0x00\n      swap1\n      sstore\n      pop\n      0x01\n      add\n      jump(tag_35)\n    tag_36:\n      pop\n      swap1\n      jump\t// out\n        /* \"#utility.yul\":7:122   */\n    tag_38:\n        /* \"#utility.yul\":92:115   */\n      tag_40\n        /* \"#utility.yul\":109:114   */\n      dup2\n        /* \"#utility.yul\":92:115   */\n      tag_41\n      jump\t// in\n    tag_40:\n        /* \"#utility.yul\":87:90   */\n      dup3\n        /* \"#utility.yul\":80:116   */\n      mstore\n        /* \"#utility.yul\":70:122   */\n      pop\n      pop\n      jump\t// out\n        /* \"#utility.yul\":128:492   */\n    tag_42:\n        /* \"#utility.yul\":216:219   */\n      0x00\n        /* \"#utility.yul\":244:283   */\n      tag_44\n        /* \"#utility.yul\":277:282   */\n      dup3\n        /* \"#utility.yul\":244:283   */\n      tag_45\n      jump\t// in\n    tag_44:\n        /* \"#utility.yul\":299:370   */\n      tag_46\n        /* \"#utility.yul\":363:369   */\n      dup2\n        /* \"#utility.yul\":358:361   */\n      dup6\n        /* \"#utility.yul\":299:370   */\n      tag_47\n      jump\t// in\n    tag_46:\n        /* \"#utility.yul\":292:370   */\n      swap4\n      pop\n        /* \"#utility.yul\":379:431   */\n      tag_48\n        /* \"#utility.yul\":424:430   */\n      dup2\n        /* \"#utility.yul\":419:422   */\n      dup6\n        /* \"#utility.yul\":412:416   */\n      0x20\n        /* \"#utility.yul\":405:410   */\n      dup7\n        /* \"#utility.yul\":401:417   */\n      add\n        /* \"#utility.yul\":379:431   */\n      tag_49\n      jump\t// in\n    tag_48:\n        /* \"#utility.yul\":456:485   */\n      tag_50\n        /* \"#utility.yul\":478:484   */\n      dup2\n        /* \"#utility.yul\":456:485   */\n      tag_51\n      jump\t// in\n    tag_50:\n        /* \"#utility.yul\":451:454   */\n      dup5\n        /* \"#utility.yul\":447:486   */\n      add\n        /* \"#utility.yul\":440:486   */\n      swap2\n      pop\n        /* \"#utility.yul\":220:492   */\n      pop\n      swap3\n      swap2\n      pop\n      pop\n      jump\t// out\n        /* \"#utility.yul\":498:1225   */\n    tag_8:\n        /* \"#utility.yul\":711:715   */\n      0x00\n        /* \"#utility.yul\":749:752   */\n      0x80\n        /* \"#utility.yul\":738:747   */\n      dup3\n        /* \"#utility.yul\":734:753   */\n      add\n        /* \"#utility.yul\":726:753   */\n      swap1\n      pop\n        /* \"#utility.yul\":799:808   */\n      dup2\n        /* \"#utility.yul\":793:797   */\n      dup2\n        /* \"#utility.yul\":789:809   */\n      sub\n        /* \"#utility.yul\":785:786   */\n      0x00\n        /* \"#utility.yul\":774:783   */\n      dup4\n        /* \"#utility.yul\":770:787   */\n      add\n        /* \"#utility.yul\":763:810   */\n      mstore\n        /* \"#utility.yul\":827:905   */\n      tag_53\n        /* \"#utility.yul\":900:904   */\n      dup2\n        /* \"#utility.yul\":891:897   */\n      dup8\n        /* \"#utility.yul\":827:905   */\n      tag_42\n      jump\t// in\n    tag_53:\n        /* \"#utility.yul\":819:905   */\n      swap1\n      pop\n        /* \"#utility.yul\":952:961   */\n      dup2\n        /* \"#utility.yul\":946:950   */\n      dup2\n        /* \"#utility.yul\":942:962   */\n      sub\n        /* \"#utility.yul\":937:939   */\n      0x20\n        /* \"#utility.yul\":926:935   */\n      dup4\n        /* \"#utility.yul\":922:940   */\n      add\n        /* \"#utility.yul\":915:963   */\n      mstore\n        /* \"#utility.yul\":980:1058   */\n      tag_54\n        /* \"#utility.yul\":1053:1057   */\n      dup2\n        /* \"#utility.yul\":1044:1050   */\n      dup7\n        /* \"#utility.yul\":980:1058   */\n      tag_42\n      jump\t// in\n    tag_54:\n        /* \"#utility.yul\":972:1058   */\n      swap1\n      pop\n        /* \"#utility.yul\":1068:1138   */\n      tag_55\n        /* \"#utility.yul\":1134:1136   */\n      0x40\n        /* \"#utility.yul\":1123:1132   */\n      dup4\n        /* \"#utility.yul\":1119:1137   */\n      add\n        /* \"#utility.yul\":1110:1116   */\n      dup6\n        /* \"#utility.yul\":1068:1138   */\n      tag_38\n      jump\t// in\n    tag_55:\n        /* \"#utility.yul\":1148:1218   */\n      tag_56\n        /* \"#utility.yul\":1214:1216   */\n      0x60\n        /* \"#utility.yul\":1203:1212   */\n      dup4\n        /* \"#utility.yul\":1199:1217   */\n      add\n        /* \"#utility.yul\":1190:1196   */\n      dup5\n        /* \"#utility.yul\":1148:1218   */\n      tag_38\n      jump\t// in\n    tag_56:\n        /* \"#utility.yul\":716:1225   */\n      swap6\n      swap5\n      pop\n      pop\n      pop\n      pop\n      pop\n      jump\t// out\n        /* \"#utility.yul\":1231:1330   */\n    tag_45:\n        /* \"#utility.yul\":1283:1289   */\n      0x00\n        /* \"#utility.yul\":1317:1322   */\n      dup2\n        /* \"#utility.yul\":1311:1323   */\n      mload\n        /* \"#utility.yul\":1301:1323   */\n      swap1\n      pop\n        /* \"#utility.yul\":1290:1330   */\n      swap2\n      swap1\n      pop\n      jump\t// out\n        /* \"#utility.yul\":1336:1505   */\n    tag_47:\n        /* \"#utility.yul\":1420:1431   */\n      0x00\n        /* \"#utility.yul\":1454:1460   */\n      dup3\n        /* \"#utility.yul\":1449:1452   */\n      dup3\n        /* \"#utility.yul\":1442:1461   */\n      mstore\n        /* \"#utility.yul\":1494:1498   */\n      0x20\n        /* \"#utility.yul\":1489:1492   */\n      dup3\n        /* \"#utility.yul\":1485:1499   */\n      add\n        /* \"#utility.yul\":1470:1499   */\n      swap1\n      pop\n        /* \"#utility.yul\":1432:1505   */\n      swap3\n      swap2\n      pop\n      pop\n      jump\t// out\n        /* \"#utility.yul\":1511:1587   */\n    tag_41:\n        /* \"#utility.yul\":1547:1554   */\n      0x00\n        /* \"#utility.yul\":1576:1581   */\n      dup2\n        /* \"#utility.yul\":1565:1581   */\n      swap1\n      pop\n        /* \"#utility.yul\":1555:1587   */\n      swap2\n      swap1\n      pop\n      jump\t// out\n        /* \"#utility.yul\":1593:1900   */\n    tag_49:\n        /* \"#utility.yul\":1661:1662   */\n      0x00\n        /* \"#utility.yul\":1671:1784   */\n    tag_61:\n        /* \"#utility.yul\":1685:1691   */\n      dup4\n        /* \"#utility.yul\":1682:1683   */\n      dup2\n        /* \"#utility.yul\":1679:1692   */\n      lt\n        /* \"#utility.yul\":1671:1784   */\n      iszero\n      tag_63\n      jumpi\n        /* \"#utility.yul\":1770:1771   */\n      dup1\n        /* \"#utility.yul\":1765:1768   */\n      dup3\n        /* \"#utility.yul\":1761:1772   */\n      add\n        /* \"#utility.yul\":1755:1773   */\n      mload\n        /* \"#utility.yul\":1751:1752   */\n      dup2\n        /* \"#utility.yul\":1746:1749   */\n      dup5\n        /* \"#utility.yul\":1742:1753   */\n      add\n        /* \"#utility.yul\":1735:1774   */\n      mstore\n        /* \"#utility.yul\":1707:1709   */\n      0x20\n        /* \"#utility.yul\":1704:1705   */\n      dup2\n        /* \"#utility.yul\":1700:1710   */\n      add\n        /* \"#utility.yul\":1695:1710   */\n      swap1\n      pop\n        /* \"#utility.yul\":1671:1784   */\n      jump(tag_61)\n    tag_63:\n        /* \"#utility.yul\":1802:1808   */\n      dup4\n        /* \"#utility.yul\":1799:1800   */\n      dup2\n        /* \"#utility.yul\":1796:1809   */\n      gt\n        /* \"#utility.yul\":1793:1795   */\n      iszero\n      tag_64\n      jumpi\n        /* \"#utility.yul\":1882:1883   */\n      0x00\n        /* \"#utility.yul\":1873:1879   */\n      dup5\n        /* \"#utility.yul\":1868:1871   */\n      dup5\n        /* \"#utility.yul\":1864:1880   */\n      add\n        /* \"#utility.yul\":1857:1884   */\n      mstore\n        /* \"#utility.yul\":1793:1795   */\n    tag_64:\n        /* \"#utility.yul\":1642:1900   */\n      pop\n      pop\n      pop\n      pop\n      jump\t// out\n        /* \"#utility.yul\":1906:2226   */\n    tag_13:\n        /* \"#utility.yul\":1950:1956   */\n      0x00\n        /* \"#utility.yul\":1987:1988   */\n      0x02\n        /* \"#utility.yul\":1981:1985   */\n      dup3\n        /* \"#utility.yul\":1977:1989   */\n      div\n        /* \"#utility.yul\":1967:1989   */\n      swap1\n      pop\n        /* \"#utility.yul\":2034:2035   */\n      0x01\n        /* \"#utility.yul\":2028:2032   */\n      dup3\n        /* \"#utility.yul\":2024:2036   */\n      and\n        /* \"#utility.yul\":2055:2073   */\n      dup1\n        /* \"#utility.yul\":2045:2047   */\n      tag_66\n      jumpi\n        /* \"#utility.yul\":2111:2115   */\n      0x7f\n        /* \"#utility.yul\":2103:2109   */\n      dup3\n        /* \"#utility.yul\":2099:2116   */\n      and\n        /* \"#utility.yul\":2089:2116   */\n      swap2\n      pop\n        /* \"#utility.yul\":2045:2047   */\n    tag_66:\n        /* \"#utility.yul\":2173:2175   */\n      0x20\n        /* \"#utility.yul\":2165:2171   */\n      dup3\n        /* \"#utility.yul\":2162:2176   */\n      lt\n        /* \"#utility.yul\":2142:2160   */\n      dup2\n        /* \"#utility.yul\":2139:2177   */\n      eq\n        /* \"#utility.yul\":2136:2138   */\n      iszero\n      tag_67\n      jumpi\n        /* \"#utility.yul\":2192:2210   */\n      tag_68\n      tag_69\n      jump\t// in\n    tag_68:\n        /* \"#utility.yul\":2136:2138   */\n    tag_67:\n        /* \"#utility.yul\":1957:2226   */\n      pop\n      swap2\n      swap1\n      pop\n      jump\t// out\n        /* \"#utility.yul\":2232:2412   */\n    tag_69:\n        /* \"#utility.yul\":2280:2357   */\n      0x4e487b7100000000000000000000000000000000000000000000000000000000\n        /* \"#utility.yul\":2277:2278   */\n      0x00\n        /* \"#utility.yul\":2270:2358   */\n      mstore\n        /* \"#utility.yul\":2377:2381   */\n      0x22\n        /* \"#utility.yul\":2374:2375   */\n      0x04\n        /* \"#utility.yul\":2367:2382   */\n      mstore\n        /* \"#utility.yul\":2401:2405   */\n      0x24\n        /* \"#utility.yul\":2398:2399   */\n      0x00\n        /* \"#utility.yul\":2391:2406   */\n      revert\n        /* \"#utility.yul\":2418:2520   */\n    tag_51:\n        /* \"#utility.yul\":2459:2465   */\n      0x00\n        /* \"#utility.yul\":2510:2512   */\n      0x1f\n        /* \"#utility.yul\":2506:2513   */\n      not\n        /* \"#utility.yul\":2501:2503   */\n      0x1f\n        /* \"#utility.yul\":2494:2499   */\n      dup4\n        /* \"#utility.yul\":2490:2504   */\n      add\n        /* \"#utility.yul\":2486:2514   */\n      and\n        /* \"#utility.yul\":2476:2514   */\n      swap1\n      pop\n        /* \"#utility.yul\":2466:2520   */\n      swap2\n      swap1\n      pop\n      jump\t// out\n\n    auxdata: 0xa26469706673582212201c09afc19b4701ad658644458891016764458ae37ef9d4e8f1afbe2c32d70f8a64736f6c63430008060033\n}\n",
				"bytecode": {
					"linkReferences": {},
					"object": "608060405234801561001057600080fd5b506104c7806100206000396000f3fe608060405234801561001057600080fd5b50600436106100365760003560e01c80639c5990d71461003b578063d629546c1461005c575b600080fd5b610043610066565b6040516100539493929190610373565b60405180910390f35b6100646101a7565b005b60608060008060008001600060010160006002015460006003015483805461008d9061041f565b80601f01602080910402602001604051908101604052809291908181526020018280546100b99061041f565b80156101065780601f106100db57610100808354040283529160200191610106565b820191906000526020600020905b8154815290600101906020018083116100e957829003601f168201915b505050505093508280546101199061041f565b80601f01602080910402602001604051908101604052809291908181526020018280546101459061041f565b80156101925780601f1061016757610100808354040283529160200191610192565b820191906000526020600020905b81548152906001019060200180831161017557829003601f168201915b50505050509250935093509350935090919293565b60405180608001604052806040518060400160405280600a81526020017f426c6f636b636861696e0000000000000000000000000000000000000000000081525081526020016040518060400160405280600d81526020017f4176696e6173682053696e6768000000000000000000000000000000000000008152508152602001606481526020016017815250600080820151816000019080519060200190610251929190610288565b50602082015181600101908051906020019061026e929190610288565b506040820151816002015560608201518160030155905050565b8280546102949061041f565b90600052602060002090601f0160209004810192826102b657600085556102fd565b82601f106102cf57805160ff19168380011785556102fd565b828001600101855582156102fd579182015b828111156102fc5782518255916020019190600101906102e1565b5b50905061030a919061030e565b5090565b5b8082111561032757600081600090555060010161030f565b5090565b610334816103e2565b82525050565b6000610345826103c6565b61034f81856103d1565b935061035f8185602086016103ec565b61036881610480565b840191505092915050565b6000608082019050818103600083015261038d818761033a565b905081810360208301526103a1818661033a565b90506103b0604083018561032b565b6103bd606083018461032b565b95945050505050565b600081519050919050565b600082825260208201905092915050565b6000819050919050565b60005b8381101561040a5780820151818401526020810190506103ef565b83811115610419576000848401525b50505050565b6000600282049050600182168061043757607f821691505b6020821081141561044b5761044a610451565b5b50919050565b7f4e487b7100000000000000000000000000000000000000000000000000000000600052602260045260246000fd5b6000601f19601f830116905091905056fea26469706673582212201c09afc19b4701ad658644458891016764458ae37ef9d4e8f1afbe2c32d70f8a64736f6c63430008060033",
					"opcodes": "PUSH1 0x80 PUSH1 0x40 MSTORE CALLVALUE DUP1 ISZERO PUSH2 0x10 JUMPI PUSH1 0x0 DUP1 REVERT JUMPDEST POP PUSH2 0x4C7 DUP1 PUSH2 0x20 PUSH1 0x0 CODECOPY PUSH1 0x0 RETURN INVALID PUSH1 0x80 PUSH1 0x40 MSTORE CALLVALUE DUP1 ISZERO PUSH2 0x10 JUMPI PUSH1 0x0 DUP1 REVERT JUMPDEST POP PUSH1 0x4 CALLDATASIZE LT PUSH2 0x36 JUMPI PUSH1 0x0 CALLDATALOAD PUSH1 0xE0 SHR DUP1 PUSH4 0x9C5990D7 EQ PUSH2 0x3B JUMPI DUP1 PUSH4 0xD629546C EQ PUSH2 0x5C JUMPI JUMPDEST PUSH1 0x0 DUP1 REVERT JUMPDEST PUSH2 0x43 PUSH2 0x66 JUMP JUMPDEST PUSH1 0x40 MLOAD PUSH2 0x53 SWAP5 SWAP4 SWAP3 SWAP2 SWAP1 PUSH2 0x373 JUMP JUMPDEST PUSH1 0x40 MLOAD DUP1 SWAP2 SUB SWAP1 RETURN JUMPDEST PUSH2 0x64 PUSH2 0x1A7 JUMP JUMPDEST STOP JUMPDEST PUSH1 0x60 DUP1 PUSH1 0x0 DUP1 PUSH1 0x0 DUP1 ADD PUSH1 0x0 PUSH1 0x1 ADD PUSH1 0x0 PUSH1 0x2 ADD SLOAD PUSH1 0x0 PUSH1 0x3 ADD SLOAD DUP4 DUP1 SLOAD PUSH2 0x8D SWAP1 PUSH2 0x41F JUMP JUMPDEST DUP1 PUSH1 0x1F ADD PUSH1 0x20 DUP1 SWAP2 DIV MUL PUSH1 0x20 ADD PUSH1 0x40 MLOAD SWAP1 DUP2 ADD PUSH1 0x40 MSTORE DUP1 SWAP3 SWAP2 SWAP1 DUP2 DUP2 MSTORE PUSH1 0x20 ADD DUP3 DUP1 SLOAD PUSH2 0xB9 SWAP1 PUSH2 0x41F JUMP JUMPDEST DUP1 ISZERO PUSH2 0x106 JUMPI DUP1 PUSH1 0x1F LT PUSH2 0xDB JUMPI PUSH2 0x100 DUP1 DUP4 SLOAD DIV MUL DUP4 MSTORE SWAP2 PUSH1 0x20 ADD SWAP2 PUSH2 0x106 JUMP JUMPDEST DUP3 ADD SWAP2 SWAP1 PUSH1 0x0 MSTORE PUSH1 0x20 PUSH1 0x0 KECCAK256 SWAP1 JUMPDEST DUP2 SLOAD DUP2 MSTORE SWAP1 PUSH1 0x1 ADD SWAP1 PUSH1 0x20 ADD DUP1 DUP4 GT PUSH2 0xE9 JUMPI DUP3 SWAP1 SUB PUSH1 0x1F AND DUP3 ADD SWAP2 JUMPDEST POP POP POP POP POP SWAP4 POP DUP3 DUP1 SLOAD PUSH2 0x119 SWAP1 PUSH2 0x41F JUMP JUMPDEST DUP1 PUSH1 0x1F ADD PUSH1 0x20 DUP1 SWAP2 DIV MUL PUSH1 0x20 ADD PUSH1 0x40 MLOAD SWAP1 DUP2 ADD PUSH1 0x40 MSTORE DUP1 SWAP3 SWAP2 SWAP1 DUP2 DUP2 MSTORE PUSH1 0x20 ADD DUP3 DUP1 SLOAD PUSH2 0x145 SWAP1 PUSH2 0x41F JUMP JUMPDEST DUP1 ISZERO PUSH2 0x192 JUMPI DUP1 PUSH1 0x1F LT PUSH2 0x167 JUMPI PUSH2 0x100 DUP1 DUP4 SLOAD DIV MUL DUP4 MSTORE SWAP2 PUSH1 0x20 ADD SWAP2 PUSH2 0x192 JUMP JUMPDEST DUP3 ADD SWAP2 SWAP1 PUSH1 0x0 MSTORE PUSH1 0x20 PUSH1 0x0 KECCAK256 SWAP1 JUMPDEST DUP2 SLOAD DUP2 MSTORE SWAP1 PUSH1 0x1 ADD SWAP1 PUSH1 0x20 ADD DUP1 DUP4 GT PUSH2 0x175 JUMPI DUP3 SWAP1 SUB PUSH1 0x1F AND DUP3 ADD SWAP2 JUMPDEST POP POP POP POP POP SWAP3 POP SWAP4 POP SWAP4 POP SWAP4 POP SWAP4 POP SWAP1 SWAP2 SWAP3 SWAP4 JUMP JUMPDEST PUSH1 0x40 MLOAD DUP1 PUSH1 0x80 ADD PUSH1 0x40 MSTORE DUP1 PUSH1 0x40 MLOAD DUP1 PUSH1 0x40 ADD PUSH1 0x40 MSTORE DUP1 PUSH1 0xA DUP2 MSTORE PUSH1 0x20 ADD PUSH32 0x426C6F636B636861696E00000000000000000000000000000000000000000000 DUP2 MSTORE POP DUP2 MSTORE PUSH1 0x20 ADD PUSH1 0x40 MLOAD DUP1 PUSH1 0x40 ADD PUSH1 0x40 MSTORE DUP1 PUSH1 0xD DUP2 MSTORE PUSH1 0x20 ADD PUSH32 0x4176696E6173682053696E676800000000000000000000000000000000000000 DUP2 MSTORE POP DUP2 MSTORE PUSH1 0x20 ADD PUSH1 0x64 DUP2 MSTORE PUSH1 0x20 ADD PUSH1 0x17 DUP2 MSTORE POP PUSH1 0x0 DUP1 DUP3 ADD MLOAD DUP2 PUSH1 0x0 ADD SWAP1 DUP1 MLOAD SWAP1 PUSH1 0x20 ADD SWAP1 PUSH2 0x251 SWAP3 SWAP2 SWAP1 PUSH2 0x288 JUMP JUMPDEST POP PUSH1 0x20 DUP3 ADD MLOAD DUP2 PUSH1 0x1 ADD SWAP1 DUP1 MLOAD SWAP1 PUSH1 0x20 ADD SWAP1 PUSH2 0x26E SWAP3 SWAP2 SWAP1 PUSH2 0x288 JUMP JUMPDEST POP PUSH1 0x40 DUP3 ADD MLOAD DUP2 PUSH1 0x2 ADD SSTORE PUSH1 0x60 DUP3 ADD MLOAD DUP2 PUSH1 0x3 ADD SSTORE SWAP1 POP POP JUMP JUMPDEST DUP3 DUP1 SLOAD PUSH2 0x294 SWAP1 PUSH2 0x41F JUMP JUMPDEST SWAP1 PUSH1 0x0 MSTORE PUSH1 0x20 PUSH1 0x0 KECCAK256 SWAP1 PUSH1 0x1F ADD PUSH1 0x20 SWAP1 DIV DUP2 ADD SWAP3 DUP3 PUSH2 0x2B6 JUMPI PUSH1 0x0 DUP6 SSTORE PUSH2 0x2FD JUMP JUMPDEST DUP3 PUSH1 0x1F LT PUSH2 0x2CF JUMPI DUP1 MLOAD PUSH1 0xFF NOT AND DUP4 DUP1 ADD OR DUP6 SSTORE PUSH2 0x2FD JUMP JUMPDEST DUP3 DUP1 ADD PUSH1 0x1 ADD DUP6 SSTORE DUP3 ISZERO PUSH2 0x2FD JUMPI SWAP2 DUP3 ADD JUMPDEST DUP3 DUP2 GT ISZERO PUSH2 0x2FC JUMPI DUP3 MLOAD DUP3 SSTORE SWAP2 PUSH1 0x20 ADD SWAP2 SWAP1 PUSH1 0x1 ADD SWAP1 PUSH2 0x2E1 JUMP JUMPDEST JUMPDEST POP SWAP1 POP PUSH2 0x30A SWAP2 SWAP1 PUSH2 0x30E JUMP JUMPDEST POP SWAP1 JUMP JUMPDEST JUMPDEST DUP1 DUP3 GT ISZERO PUSH2 0x327 JUMPI PUSH1 0x0 DUP2 PUSH1 0x0 SWAP1 SSTORE POP PUSH1 0x1 ADD PUSH2 0x30F JUMP JUMPDEST POP SWAP1 JUMP JUMPDEST PUSH2 0x334 DUP2 PUSH2 0x3E2 JUMP JUMPDEST DUP3 MSTORE POP POP JUMP JUMPDEST PUSH1 0x0 PUSH2 0x345 DUP3 PUSH2 0x3C6 JUMP JUMPDEST PUSH2 0x34F DUP2 DUP6 PUSH2 0x3D1 JUMP JUMPDEST SWAP4 POP PUSH2 0x35F DUP2 DUP6 PUSH1 0x20 DUP7 ADD PUSH2 0x3EC JUMP JUMPDEST PUSH2 0x368 DUP2 PUSH2 0x480 JUMP JUMPDEST DUP5 ADD SWAP2 POP POP SWAP3 SWAP2 POP POP JUMP JUMPDEST PUSH1 0x0 PUSH1 0x80 DUP3 ADD SWAP1 POP DUP2 DUP2 SUB PUSH1 0x0 DUP4 ADD MSTORE PUSH2 0x38D DUP2 DUP8 PUSH2 0x33A JUMP JUMPDEST SWAP1 POP DUP2 DUP2 SUB PUSH1 0x20 DUP4 ADD MSTORE PUSH2 0x3A1 DUP2 DUP7 PUSH2 0x33A JUMP JUMPDEST SWAP1 POP PUSH2 0x3B0 PUSH1 0x40 DUP4 ADD DUP6 PUSH2 0x32B JUMP JUMPDEST PUSH2 0x3BD PUSH1 0x60 DUP4 ADD DUP5 PUSH2 0x32B JUMP JUMPDEST SWAP6 SWAP5 POP POP POP POP POP JUMP JUMPDEST PUSH1 0x0 DUP2 MLOAD SWAP1 POP SWAP2 SWAP1 POP JUMP JUMPDEST PUSH1 0x0 DUP3 DUP3 MSTORE PUSH1 0x20 DUP3 ADD SWAP1 POP SWAP3 SWAP2 POP POP JUMP JUMPDEST PUSH1 0x0 DUP2 SWAP1 POP SWAP2 SWAP1 POP JUMP JUMPDEST PUSH1 0x0 JUMPDEST DUP4 DUP2 LT ISZERO PUSH2 0x40A JUMPI DUP1 DUP3 ADD MLOAD DUP2 DUP5 ADD MSTORE PUSH1 0x20 DUP2 ADD SWAP1 POP PUSH2 0x3EF JUMP JUMPDEST DUP4 DUP2 GT ISZERO PUSH2 0x419 JUMPI PUSH1 0x0 DUP5 DUP5 ADD MSTORE JUMPDEST POP POP POP POP JUMP JUMPDEST PUSH1 0x0 PUSH1 0x2 DUP3 DIV SWAP1 POP PUSH1 0x1 DUP3 AND DUP1 PUSH2 0x437 JUMPI PUSH1 0x7F DUP3 AND SWAP2 POP JUMPDEST PUSH1 0x20 DUP3 LT DUP2 EQ ISZERO PUSH2 0x44B JUMPI PUSH2 0x44A PUSH2 0x451 JUMP JUMPDEST JUMPDEST POP SWAP2 SWAP1 POP JUMP JUMPDEST PUSH32 0x4E487B7100000000000000000000000000000000000000000000000000000000 PUSH1 0x0 MSTORE PUSH1 0x22 PUSH1 0x4 MSTORE PUSH1 0x24 PUSH1 0x0 REVERT JUMPDEST PUSH1 0x0 PUSH1 0x1F NOT PUSH1 0x1F DUP4 ADD AND SWAP1 POP SWAP2 SWAP1 POP JUMP INVALID LOG2 PUSH5 0x6970667358 0x22 SLT KECCAK256 SHR MULMOD 0xAF 0xC1 SWAP12 SELFBALANCE ADD 0xAD PUSH6 0x864445889101 PUSH8 0x64458AE37EF9D4E8 CALL 0xAF 0xBE 0x2C ORIGIN 0xD7 0xF DUP11 PUSH5 0x736F6C6343 STOP ADDMOD MOD STOP CALLER "
				},
				"gasEstimates": {
					"creation": {
						"codeDepositCost": "244600",
						"executionCost": "287",
						"totalCost": "244887"
					},
					"external": {
						"disBook()": "infinite",
						"setBook()": "infinite"
					}
				},
				"methodIdentifiers": {
					"disBook()": "9c5990d7",
					"setBook()": "d629546c"
				}
			},
			"storageLayout": {
				"storage": [
					{
						"astId": 13,
						"contract": "contracts/struct.sol:structure",
						"label": "book",
						"offset": 0,
						"slot": "0",
						"type": "t_struct(Book)10_storage"
					}
				],
				"types": {
					"t_int256": {
						"encoding": "inplace",
						"label": "int256",
						"numberOfBytes": "32"
					},
					"t_string_storage": {
						"encoding": "bytes",
						"label": "string",
						"numberOfBytes": "32"
					},
					"t_struct(Book)10_storage": {
						"encoding": "inplace",
						"label": "struct structure.Book",
						"members": [
							{
								"astId": 3,
								"contract": "contracts/struct.sol:structure",
								"label": "title",
								"offset": 0,
								"slot": "0",
								"type": "t_string_storage"
							},
							{
								"astId": 5,
								"contract": "contracts/struct.sol:structure",
								"label": "author",
								"offset": 0,
								"slot": "1",
								"type": "t_string_storage"
							},
							{
								"astId": 7,
								"contract": "contracts/struct.sol:structure",
								"label": "bookId",
								"offset": 0,
								"slot": "2",
								"type": "t_int256"
							},
							{
								"astId": 9,
								"contract": "contracts/struct.sol:structure",
								"label": "price",
								"offset": 0,
								"slot": "3",
								"type": "t_int256"
							}
						],
						"numberOfBytes": "128"
					}
				}
			},
			"userdoc": {
				"kind": "user",
				"methods": {},
				"version": 1
			}
		}
	}
}