{
	"contracts/datatype.sol": {
		"datatype": {
			"abi": [
				{
					"inputs": [],
					"name": "bool1",
					"outputs": [
						{
							"internalType": "bool",
							"name": "",
							"type": "bool"
						}
					],
					"stateMutability": "view",
					"type": "function"
				},
				{
					"inputs": [],
					"name": "i8",
					"outputs": [
						{
							"internalType": "int8",
							"name": "",
							"type": "int8"
						}
					],
					"stateMutability": "view",
					"type": "function"
				},
				{
					"inputs": [],
					"name": "maxint",
					"outputs": [
						{
							"internalType": "int256",
							"name": "",
							"type": "int256"
						}
					],
					"stateMutability": "view",
					"type": "function"
				},
				{
					"inputs": [],
					"name": "mint",
					"outputs": [
						{
							"internalType": "int256",
							"name": "",
							"type": "int256"
						}
					],
					"stateMutability": "view",
					"type": "function"
				},
				{
					"inputs": [],
					"name": "u8",
					"outputs": [
						{
							"internalType": "uint8",
							"name": "",
							"type": "uint8"
						}
					],
					"stateMutability": "view",
					"type": "function"
				}
			],
			"devdoc": {
				"kind": "dev",
				"methods": {},
				"version": 1
			},
			"evm": {
				"assembly": "    /* \"contracts/datatype.sol\":56:406  contract datatype{\r... */\n  mstore(0x40, 0x80)\n    /* \"contracts/datatype.sol\":95:99  true */\n  0x01\n    /* \"contracts/datatype.sol\":76:99  bool public bool1 =true */\n  0x00\n  dup1\n  0x0100\n  exp\n  dup2\n  sload\n  dup2\n  0xff\n  mul\n  not\n  and\n  swap1\n  dup4\n  iszero\n  iszero\n  mul\n  or\n  swap1\n  sstore\n  pop\n    /* \"contracts/datatype.sol\":118:119  4 */\n  0x04\n    /* \"contracts/datatype.sol\":102:119  uint8 public u8=4 */\n  0x00\n  exp(0x0100, 0x01)\n  dup2\n  sload\n  dup2\n  0xff\n  mul\n  not\n  and\n  swap1\n  dup4\n  0xff\n  and\n  mul\n  or\n  swap1\n  sstore\n  pop\n    /* \"contracts/datatype.sol\":137:139  -4 */\n  0xfffffffffffffffffffffffffffffffffffffffffffffffffffffffffffffffc\n    /* \"contracts/datatype.sol\":122:139  int8 public i8=-4 */\n  0x00\n  exp(0x0100, 0x02)\n  dup2\n  sload\n  dup2\n  0xff\n  mul\n  not\n  and\n  swap1\n  dup4\n  0x00\n  signextend\n  0xff\n  and\n  mul\n  or\n  swap1\n  sstore\n  pop\n    /* \"contracts/datatype.sol\":153:156  200 */\n  0xc8\n    /* \"contracts/datatype.sol\":142:156  uint16 u16=200 */\n  0x00\n  exp(0x0100, 0x03)\n  dup2\n  sload\n  dup2\n  0xffff\n  mul\n  not\n  and\n  swap1\n  dup4\n  0xffff\n  and\n  mul\n  or\n  swap1\n  sstore\n  pop\n    /* \"contracts/datatype.sol\":173:179  100000 */\n  0x0186a0\n    /* \"contracts/datatype.sol\":159:179  uint256 u256= 100000 */\n  0x01\n  sstore\n    /* \"contracts/datatype.sol\":222:235  type(int).min */\n  0x8000000000000000000000000000000000000000000000000000000000000000\n    /* \"contracts/datatype.sol\":205:235  int public mint =type(int).min */\n  0x02\n  sstore\n    /* \"contracts/datatype.sol\":320:333  type(int).max */\n  0x7fffffffffffffffffffffffffffffffffffffffffffffffffffffffffffffff\n    /* \"contracts/datatype.sol\":302:333  int public maxint=type(int).max */\n  0x03\n  sstore\n    /* \"contracts/datatype.sol\":56:406  contract datatype{\r... */\n  callvalue\n  dup1\n  iszero\n  tag_1\n  jumpi\n  0x00\n  dup1\n  revert\ntag_1:\n  pop\n  dataSize(sub_0)\n  dup1\n  dataOffset(sub_0)\n  0x00\n  codecopy\n  0x00\n  return\nstop\n\nsub_0: assembly {\n        /* \"contracts/datatype.sol\":56:406  contract datatype{\r... */\n      mstore(0x40, 0x80)\n      callvalue\n      dup1\n      iszero\n      tag_1\n      jumpi\n      0x00\n      dup1\n      revert\n    tag_1:\n      pop\n      jumpi(tag_2, lt(calldatasize, 0x04))\n      shr(0xe0, calldataload(0x00))\n      dup1\n      0x1249c58b\n      eq\n      tag_3\n      jumpi\n      dup1\n      0x2c23de69\n      eq\n      tag_4\n      jumpi\n      dup1\n      0x921cda74\n      eq\n      tag_5\n      jumpi\n      dup1\n      0xab3a58a3\n      eq\n      tag_6\n      jumpi\n      dup1\n      0xec630c70\n      eq\n      tag_7\n      jumpi\n    tag_2:\n      0x00\n      dup1\n      revert\n        /* \"contracts/datatype.sol\":205:235  int public mint =type(int).min */\n    tag_3:\n      tag_8\n      tag_9\n      jump\t// in\n    tag_8:\n      mload(0x40)\n      tag_10\n      swap2\n      swap1\n      tag_11\n      jump\t// in\n    tag_10:\n      mload(0x40)\n      dup1\n      swap2\n      sub\n      swap1\n      return\n        /* \"contracts/datatype.sol\":302:333  int public maxint=type(int).max */\n    tag_4:\n      tag_12\n      tag_13\n      jump\t// in\n    tag_12:\n      mload(0x40)\n      tag_14\n      swap2\n      swap1\n      tag_11\n      jump\t// in\n    tag_14:\n      mload(0x40)\n      dup1\n      swap2\n      sub\n      swap1\n      return\n        /* \"contracts/datatype.sol\":122:139  int8 public i8=-4 */\n    tag_5:\n      tag_15\n      tag_16\n      jump\t// in\n    tag_15:\n      mload(0x40)\n      tag_17\n      swap2\n      swap1\n      tag_18\n      jump\t// in\n    tag_17:\n      mload(0x40)\n      dup1\n      swap2\n      sub\n      swap1\n      return\n        /* \"contracts/datatype.sol\":102:119  uint8 public u8=4 */\n    tag_6:\n      tag_19\n      tag_20\n      jump\t// in\n    tag_19:\n      mload(0x40)\n      tag_21\n      swap2\n      swap1\n      tag_22\n      jump\t// in\n    tag_21:\n      mload(0x40)\n      dup1\n      swap2\n      sub\n      swap1\n      return\n        /* \"contracts/datatype.sol\":76:99  bool public bool1 =true */\n    tag_7:\n      tag_23\n      tag_24\n      jump\t// in\n    tag_23:\n      mload(0x40)\n      tag_25\n      swap2\n      swap1\n      tag_26\n      jump\t// in\n    tag_25:\n      mload(0x40)\n      dup1\n      swap2\n      sub\n      swap1\n      return\n        /* \"contracts/datatype.sol\":205:235  int public mint =type(int).min */\n    tag_9:\n      sload(0x02)\n      dup2\n      jump\t// out\n        /* \"contracts/datatype.sol\":302:333  int public maxint=type(int).max */\n    tag_13:\n      sload(0x03)\n      dup2\n      jump\t// out\n        /* \"contracts/datatype.sol\":122:139  int8 public i8=-4 */\n    tag_16:\n      0x00\n      0x02\n      swap1\n      sload\n      swap1\n      0x0100\n      exp\n      swap1\n      div\n      0x00\n      signextend\n      dup2\n      jump\t// out\n        /* \"contracts/datatype.sol\":102:119  uint8 public u8=4 */\n    tag_20:\n      0x00\n      0x01\n      swap1\n      sload\n      swap1\n      0x0100\n      exp\n      swap1\n      div\n      0xff\n      and\n      dup2\n      jump\t// out\n        /* \"contracts/datatype.sol\":76:99  bool public bool1 =true */\n    tag_24:\n      0x00\n      dup1\n      sload\n      swap1\n      0x0100\n      exp\n      swap1\n      div\n      0xff\n      and\n      dup2\n      jump\t// out\n        /* \"#utility.yul\":7:116   */\n    tag_28:\n        /* \"#utility.yul\":88:109   */\n      tag_30\n        /* \"#utility.yul\":103:108   */\n      dup2\n        /* \"#utility.yul\":88:109   */\n      tag_31\n      jump\t// in\n    tag_30:\n        /* \"#utility.yul\":83:86   */\n      dup3\n        /* \"#utility.yul\":76:110   */\n      mstore\n        /* \"#utility.yul\":66:116   */\n      pop\n      pop\n      jump\t// out\n        /* \"#utility.yul\":122:237   */\n    tag_32:\n        /* \"#utility.yul\":207:230   */\n      tag_34\n        /* \"#utility.yul\":224:229   */\n      dup2\n        /* \"#utility.yul\":207:230   */\n      tag_35\n      jump\t// in\n    tag_34:\n        /* \"#utility.yul\":202:205   */\n      dup3\n        /* \"#utility.yul\":195:231   */\n      mstore\n        /* \"#utility.yul\":185:237   */\n      pop\n      pop\n      jump\t// out\n        /* \"#utility.yul\":243:352   */\n    tag_36:\n        /* \"#utility.yul\":324:345   */\n      tag_38\n        /* \"#utility.yul\":339:344   */\n      dup2\n        /* \"#utility.yul\":324:345   */\n      tag_39\n      jump\t// in\n    tag_38:\n        /* \"#utility.yul\":319:322   */\n      dup3\n        /* \"#utility.yul\":312:346   */\n      mstore\n        /* \"#utility.yul\":302:352   */\n      pop\n      pop\n      jump\t// out\n        /* \"#utility.yul\":358:470   */\n    tag_40:\n        /* \"#utility.yul\":441:463   */\n      tag_42\n        /* \"#utility.yul\":457:462   */\n      dup2\n        /* \"#utility.yul\":441:463   */\n      tag_43\n      jump\t// in\n    tag_42:\n        /* \"#utility.yul\":436:439   */\n      dup3\n        /* \"#utility.yul\":429:464   */\n      mstore\n        /* \"#utility.yul\":419:470   */\n      pop\n      pop\n      jump\t// out\n        /* \"#utility.yul\":476:686   */\n    tag_26:\n        /* \"#utility.yul\":563:567   */\n      0x00\n        /* \"#utility.yul\":601:603   */\n      0x20\n        /* \"#utility.yul\":590:599   */\n      dup3\n        /* \"#utility.yul\":586:604   */\n      add\n        /* \"#utility.yul\":578:604   */\n      swap1\n      pop\n        /* \"#utility.yul\":614:679   */\n      tag_45\n        /* \"#utility.yul\":676:677   */\n      0x00\n        /* \"#utility.yul\":665:674   */\n      dup4\n        /* \"#utility.yul\":661:678   */\n      add\n        /* \"#utility.yul\":652:658   */\n      dup5\n        /* \"#utility.yul\":614:679   */\n      tag_28\n      jump\t// in\n    tag_45:\n        /* \"#utility.yul\":568:686   */\n      swap3\n      swap2\n      pop\n      pop\n      jump\t// out\n        /* \"#utility.yul\":692:910   */\n    tag_11:\n        /* \"#utility.yul\":783:787   */\n      0x00\n        /* \"#utility.yul\":821:823   */\n      0x20\n        /* \"#utility.yul\":810:819   */\n      dup3\n        /* \"#utility.yul\":806:824   */\n      add\n        /* \"#utility.yul\":798:824   */\n      swap1\n      pop\n        /* \"#utility.yul\":834:903   */\n      tag_47\n        /* \"#utility.yul\":900:901   */\n      0x00\n        /* \"#utility.yul\":889:898   */\n      dup4\n        /* \"#utility.yul\":885:902   */\n      add\n        /* \"#utility.yul\":876:882   */\n      dup5\n        /* \"#utility.yul\":834:903   */\n      tag_32\n      jump\t// in\n    tag_47:\n        /* \"#utility.yul\":788:910   */\n      swap3\n      swap2\n      pop\n      pop\n      jump\t// out\n        /* \"#utility.yul\":916:1126   */\n    tag_18:\n        /* \"#utility.yul\":1003:1007   */\n      0x00\n        /* \"#utility.yul\":1041:1043   */\n      0x20\n        /* \"#utility.yul\":1030:1039   */\n      dup3\n        /* \"#utility.yul\":1026:1044   */\n      add\n        /* \"#utility.yul\":1018:1044   */\n      swap1\n      pop\n        /* \"#utility.yul\":1054:1119   */\n      tag_49\n        /* \"#utility.yul\":1116:1117   */\n      0x00\n        /* \"#utility.yul\":1105:1114   */\n      dup4\n        /* \"#utility.yul\":1101:1118   */\n      add\n        /* \"#utility.yul\":1092:1098   */\n      dup5\n        /* \"#utility.yul\":1054:1119   */\n      tag_36\n      jump\t// in\n    tag_49:\n        /* \"#utility.yul\":1008:1126   */\n      swap3\n      swap2\n      pop\n      pop\n      jump\t// out\n        /* \"#utility.yul\":1132:1346   */\n    tag_22:\n        /* \"#utility.yul\":1221:1225   */\n      0x00\n        /* \"#utility.yul\":1259:1261   */\n      0x20\n        /* \"#utility.yul\":1248:1257   */\n      dup3\n        /* \"#utility.yul\":1244:1262   */\n      add\n        /* \"#utility.yul\":1236:1262   */\n      swap1\n      pop\n        /* \"#utility.yul\":1272:1339   */\n      tag_51\n        /* \"#utility.yul\":1336:1337   */\n      0x00\n        /* \"#utility.yul\":1325:1334   */\n      dup4\n        /* \"#utility.yul\":1321:1338   */\n      add\n        /* \"#utility.yul\":1312:1318   */\n      dup5\n        /* \"#utility.yul\":1272:1339   */\n      tag_40\n      jump\t// in\n    tag_51:\n        /* \"#utility.yul\":1226:1346   */\n      swap3\n      swap2\n      pop\n      pop\n      jump\t// out\n        /* \"#utility.yul\":1352:1442   */\n    tag_31:\n        /* \"#utility.yul\":1386:1393   */\n      0x00\n        /* \"#utility.yul\":1429:1434   */\n      dup2\n        /* \"#utility.yul\":1422:1435   */\n      iszero\n        /* \"#utility.yul\":1415:1436   */\n      iszero\n        /* \"#utility.yul\":1404:1436   */\n      swap1\n      pop\n        /* \"#utility.yul\":1394:1442   */\n      swap2\n      swap1\n      pop\n      jump\t// out\n        /* \"#utility.yul\":1448:1524   */\n    tag_35:\n        /* \"#utility.yul\":1484:1491   */\n      0x00\n        /* \"#utility.yul\":1513:1518   */\n      dup2\n        /* \"#utility.yul\":1502:1518   */\n      swap1\n      pop\n        /* \"#utility.yul\":1492:1524   */\n      swap2\n      swap1\n      pop\n      jump\t// out\n        /* \"#utility.yul\":1530:1619   */\n    tag_39:\n        /* \"#utility.yul\":1564:1571   */\n      0x00\n        /* \"#utility.yul\":1607:1612   */\n      dup2\n        /* \"#utility.yul\":1604:1605   */\n      0x00\n        /* \"#utility.yul\":1593:1613   */\n      signextend\n        /* \"#utility.yul\":1582:1613   */\n      swap1\n      pop\n        /* \"#utility.yul\":1572:1619   */\n      swap2\n      swap1\n      pop\n      jump\t// out\n        /* \"#utility.yul\":1625:1711   */\n    tag_43:\n        /* \"#utility.yul\":1660:1667   */\n      0x00\n        /* \"#utility.yul\":1700:1704   */\n      0xff\n        /* \"#utility.yul\":1693:1698   */\n      dup3\n        /* \"#utility.yul\":1689:1705   */\n      and\n        /* \"#utility.yul\":1678:1705   */\n      swap1\n      pop\n        /* \"#utility.yul\":1668:1711   */\n      swap2\n      swap1\n      pop\n      jump\t// out\n\n    auxdata: 0xa264697066735822122052b9c7a95ffc8e9cf1439a5eca6f7797970425b9691c2ffbe2ad9446a01dd9af64736f6c63430008060033\n}\n",
				"bytecode": {
					"linkReferences": {},
					"object": "608060405260016000806101000a81548160ff0219169083151502179055506004600060016101000a81548160ff021916908360ff1602179055507ffffffffffffffffffffffffffffffffffffffffffffffffffffffffffffffffc600060026101000a81548160ff021916908360000b60ff16021790555060c8600060036101000a81548161ffff021916908361ffff160217905550620186a06001557f80000000000000000000000000000000000000000000000000000000000000006002557f7fffffffffffffffffffffffffffffffffffffffffffffffffffffffffffffff6003553480156100f157600080fd5b50610243806101016000396000f3fe608060405234801561001057600080fd5b50600436106100575760003560e01c80631249c58b1461005c5780632c23de691461007a578063921cda7414610098578063ab3a58a3146100b6578063ec630c70146100d4575b600080fd5b6100646100f2565b604051610071919061018c565b60405180910390f35b6100826100f8565b60405161008f919061018c565b60405180910390f35b6100a06100fe565b6040516100ad91906101a7565b60405180910390f35b6100be610111565b6040516100cb91906101c2565b60405180910390f35b6100dc610124565b6040516100e99190610171565b60405180910390f35b60025481565b60035481565b600060029054906101000a900460000b81565b600060019054906101000a900460ff1681565b60008054906101000a900460ff1681565b61013e816101dd565b82525050565b61014d816101e9565b82525050565b61015c816101f3565b82525050565b61016b81610200565b82525050565b60006020820190506101866000830184610135565b92915050565b60006020820190506101a16000830184610144565b92915050565b60006020820190506101bc6000830184610153565b92915050565b60006020820190506101d76000830184610162565b92915050565b60008115159050919050565b6000819050919050565b60008160000b9050919050565b600060ff8216905091905056fea264697066735822122052b9c7a95ffc8e9cf1439a5eca6f7797970425b9691c2ffbe2ad9446a01dd9af64736f6c63430008060033",
					"opcodes": "PUSH1 0x80 PUSH1 0x40 MSTORE PUSH1 0x1 PUSH1 0x0 DUP1 PUSH2 0x100 EXP DUP2 SLOAD DUP2 PUSH1 0xFF MUL NOT AND SWAP1 DUP4 ISZERO ISZERO MUL OR SWAP1 SSTORE POP PUSH1 0x4 PUSH1 0x0 PUSH1 0x1 PUSH2 0x100 EXP DUP2 SLOAD DUP2 PUSH1 0xFF MUL NOT AND SWAP1 DUP4 PUSH1 0xFF AND MUL OR SWAP1 SSTORE POP PUSH32 0xFFFFFFFFFFFFFFFFFFFFFFFFFFFFFFFFFFFFFFFFFFFFFFFFFFFFFFFFFFFFFFFC PUSH1 0x0 PUSH1 0x2 PUSH2 0x100 EXP DUP2 SLOAD DUP2 PUSH1 0xFF MUL NOT AND SWAP1 DUP4 PUSH1 0x0 SIGNEXTEND PUSH1 0xFF AND MUL OR SWAP1 SSTORE POP PUSH1 0xC8 PUSH1 0x0 PUSH1 0x3 PUSH2 0x100 EXP DUP2 SLOAD DUP2 PUSH2 0xFFFF MUL NOT AND SWAP1 DUP4 PUSH2 0xFFFF AND MUL OR SWAP1 SSTORE POP PUSH3 0x186A0 PUSH1 0x1 SSTORE PUSH32 0x8000000000000000000000000000000000000000000000000000000000000000 PUSH1 0x2 SSTORE PUSH32 0x7FFFFFFFFFFFFFFFFFFFFFFFFFFFFFFFFFFFFFFFFFFFFFFFFFFFFFFFFFFFFFFF PUSH1 0x3 SSTORE CALLVALUE DUP1 ISZERO PUSH2 0xF1 JUMPI PUSH1 0x0 DUP1 REVERT JUMPDEST POP PUSH2 0x243 DUP1 PUSH2 0x101 PUSH1 0x0 CODECOPY PUSH1 0x0 RETURN INVALID PUSH1 0x80 PUSH1 0x40 MSTORE CALLVALUE DUP1 ISZERO PUSH2 0x10 JUMPI PUSH1 0x0 DUP1 REVERT JUMPDEST POP PUSH1 0x4 CALLDATASIZE LT PUSH2 0x57 JUMPI PUSH1 0x0 CALLDATALOAD PUSH1 0xE0 SHR DUP1 PUSH4 0x1249C58B EQ PUSH2 0x5C JUMPI DUP1 PUSH4 0x2C23DE69 EQ PUSH2 0x7A JUMPI DUP1 PUSH4 0x921CDA74 EQ PUSH2 0x98 JUMPI DUP1 PUSH4 0xAB3A58A3 EQ PUSH2 0xB6 JUMPI DUP1 PUSH4 0xEC630C70 EQ PUSH2 0xD4 JUMPI JUMPDEST PUSH1 0x0 DUP1 REVERT JUMPDEST PUSH2 0x64 PUSH2 0xF2 JUMP JUMPDEST PUSH1 0x40 MLOAD PUSH2 0x71 SWAP2 SWAP1 PUSH2 0x18C JUMP JUMPDEST PUSH1 0x40 MLOAD DUP1 SWAP2 SUB SWAP1 RETURN JUMPDEST PUSH2 0x82 PUSH2 0xF8 JUMP JUMPDEST PUSH1 0x40 MLOAD PUSH2 0x8F SWAP2 SWAP1 PUSH2 0x18C JUMP JUMPDEST PUSH1 0x40 MLOAD DUP1 SWAP2 SUB SWAP1 RETURN JUMPDEST PUSH2 0xA0 PUSH2 0xFE JUMP JUMPDEST PUSH1 0x40 MLOAD PUSH2 0xAD SWAP2 SWAP1 PUSH2 0x1A7 JUMP JUMPDEST PUSH1 0x40 MLOAD DUP1 SWAP2 SUB SWAP1 RETURN JUMPDEST PUSH2 0xBE PUSH2 0x111 JUMP JUMPDEST PUSH1 0x40 MLOAD PUSH2 0xCB SWAP2 SWAP1 PUSH2 0x1C2 JUMP JUMPDEST PUSH1 0x40 MLOAD DUP1 SWAP2 SUB SWAP1 RETURN JUMPDEST PUSH2 0xDC PUSH2 0x124 JUMP JUMPDEST PUSH1 0x40 MLOAD PUSH2 0xE9 SWAP2 SWAP1 PUSH2 0x171 JUMP JUMPDEST PUSH1 0x40 MLOAD DUP1 SWAP2 SUB SWAP1 RETURN JUMPDEST PUSH1 0x2 SLOAD DUP2 JUMP JUMPDEST PUSH1 0x3 SLOAD DUP2 JUMP JUMPDEST PUSH1 0x0 PUSH1 0x2 SWAP1 SLOAD SWAP1 PUSH2 0x100 EXP SWAP1 DIV PUSH1 0x0 SIGNEXTEND DUP2 JUMP JUMPDEST PUSH1 0x0 PUSH1 0x1 SWAP1 SLOAD SWAP1 PUSH2 0x100 EXP SWAP1 DIV PUSH1 0xFF AND DUP2 JUMP JUMPDEST PUSH1 0x0 DUP1 SLOAD SWAP1 PUSH2 0x100 EXP SWAP1 DIV PUSH1 0xFF AND DUP2 JUMP JUMPDEST PUSH2 0x13E DUP2 PUSH2 0x1DD JUMP JUMPDEST DUP3 MSTORE POP POP JUMP JUMPDEST PUSH2 0x14D DUP2 PUSH2 0x1E9 JUMP JUMPDEST DUP3 MSTORE POP POP JUMP JUMPDEST PUSH2 0x15C DUP2 PUSH2 0x1F3 JUMP JUMPDEST DUP3 MSTORE POP POP JUMP JUMPDEST PUSH2 0x16B DUP2 PUSH2 0x200 JUMP JUMPDEST DUP3 MSTORE POP POP JUMP JUMPDEST PUSH1 0x0 PUSH1 0x20 DUP3 ADD SWAP1 POP PUSH2 0x186 PUSH1 0x0 DUP4 ADD DUP5 PUSH2 0x135 JUMP JUMPDEST SWAP3 SWAP2 POP POP JUMP JUMPDEST PUSH1 0x0 PUSH1 0x20 DUP3 ADD SWAP1 POP PUSH2 0x1A1 PUSH1 0x0 DUP4 ADD DUP5 PUSH2 0x144 JUMP JUMPDEST SWAP3 SWAP2 POP POP JUMP JUMPDEST PUSH1 0x0 PUSH1 0x20 DUP3 ADD SWAP1 POP PUSH2 0x1BC PUSH1 0x0 DUP4 ADD DUP5 PUSH2 0x153 JUMP JUMPDEST SWAP3 SWAP2 POP POP JUMP JUMPDEST PUSH1 0x0 PUSH1 0x20 DUP3 ADD SWAP1 POP PUSH2 0x1D7 PUSH1 0x0 DUP4 ADD DUP5 PUSH2 0x162 JUMP JUMPDEST SWAP3 SWAP2 POP POP JUMP JUMPDEST PUSH1 0x0 DUP2 ISZERO ISZERO SWAP1 POP SWAP2 SWAP1 POP JUMP JUMPDEST PUSH1 0x0 DUP2 SWAP1 POP SWAP2 SWAP1 POP JUMP JUMPDEST PUSH1 0x0 DUP2 PUSH1 0x0 SIGNEXTEND SWAP1 POP SWAP2 SWAP1 POP JUMP JUMPDEST PUSH1 0x0 PUSH1 0xFF DUP3 AND SWAP1 POP SWAP2 SWAP1 POP JUMP INVALID LOG2 PUSH5 0x6970667358 0x22 SLT KECCAK256 MSTORE 0xB9 0xC7 0xA9 0x5F 0xFC DUP15 SWAP13 CALL NUMBER SWAP11 0x5E 0xCA PUSH16 0x7797970425B9691C2FFBE2AD9446A01D 0xD9 0xAF PUSH5 0x736F6C6343 STOP ADDMOD MOD STOP CALLER "
				},
				"gasEstimates": {
					"creation": {
						"codeDepositCost": "115800",
						"executionCost": "163709",
						"totalCost": "279509"
					},
					"external": {
						"bool1()": "2534",
						"i8()": "2547",
						"maxint()": "2429",
						"mint()": "2407",
						"u8()": "2565"
					}
				},
				"methodIdentifiers": {
					"bool1()": "ec630c70",
					"i8()": "921cda74",
					"maxint()": "2c23de69",
					"mint()": "1249c58b",
					"u8()": "ab3a58a3"
				}
			},
			"storageLayout": {
				"storage": [
					{
						"astId": 4,
						"contract": "contracts/datatype.sol:datatype",
						"label": "bool1",
						"offset": 0,
						"slot": "0",
						"type": "t_bool"
					},
					{
						"astId": 7,
						"contract": "contracts/datatype.sol:datatype",
						"label": "u8",
						"offset": 1,
						"slot": "0",
						"type": "t_uint8"
					},
					{
						"astId": 11,
						"contract": "contracts/datatype.sol:datatype",
						"label": "i8",
						"offset": 2,
						"slot": "0",
						"type": "t_int8"
					},
					{
						"astId": 14,
						"contract": "contracts/datatype.sol:datatype",
						"label": "u16",
						"offset": 3,
						"slot": "0",
						"type": "t_uint16"
					},
					{
						"astId": 17,
						"contract": "contracts/datatype.sol:datatype",
						"label": "u256",
						"offset": 0,
						"slot": "1",
						"type": "t_uint256"
					},
					{
						"astId": 24,
						"contract": "contracts/datatype.sol:datatype",
						"label": "mint",
						"offset": 0,
						"slot": "2",
						"type": "t_int256"
					},
					{
						"astId": 31,
						"contract": "contracts/datatype.sol:datatype",
						"label": "maxint",
						"offset": 0,
						"slot": "3",
						"type": "t_int256"
					}
				],
				"types": {
					"t_bool": {
						"encoding": "inplace",
						"label": "bool",
						"numberOfBytes": "1"
					},
					"t_int256": {
						"encoding": "inplace",
						"label": "int256",
						"numberOfBytes": "32"
					},
					"t_int8": {
						"encoding": "inplace",
						"label": "int8",
						"numberOfBytes": "1"
					},
					"t_uint16": {
						"encoding": "inplace",
						"label": "uint16",
						"numberOfBytes": "2"
					},
					"t_uint256": {
						"encoding": "inplace",
						"label": "uint256",
						"numberOfBytes": "32"
					},
					"t_uint8": {
						"encoding": "inplace",
						"label": "uint8",
						"numberOfBytes": "1"
					}
				}
			},
			"userdoc": {
				"kind": "user",
				"methods": {},
				"version": 1
			}
		}
	}
}