{
	"contracts/functions123.sol": {
		"SecondFunction": {
			"abi": [
				{
					"inputs": [
						{
							"internalType": "uint256",
							"name": "x",
							"type": "uint256"
						},
						{
							"internalType": "uint256",
							"name": "y",
							"type": "uint256"
						},
						{
							"internalType": "uint256",
							"name": "z",
							"type": "uint256"
						},
						{
							"internalType": "address",
							"name": "a",
							"type": "address"
						},
						{
							"internalType": "bool",
							"name": "b",
							"type": "bool"
						},
						{
							"internalType": "string",
							"name": "c",
							"type": "string"
						}
					],
					"name": "SecondFunctionContract",
					"outputs": [
						{
							"internalType": "uint256",
							"name": "",
							"type": "uint256"
						}
					],
					"stateMutability": "pure",
					"type": "function"
				},
				{
					"inputs": [],
					"name": "callFunction",
					"outputs": [
						{
							"internalType": "address",
							"name": "",
							"type": "address"
						}
					],
					"stateMutability": "view",
					"type": "function"
				}
			],
			"devdoc": {
				"kind": "dev",
				"methods": {},
				"version": 1
			},
			"evm": {
				"assembly": "    /* \"contracts/functions123.sol\":689:943  contract SecondFunction{\r... */\n  mstore(0x40, 0x80)\n  callvalue\n  dup1\n  iszero\n  tag_1\n  jumpi\n  0x00\n  dup1\n  revert\ntag_1:\n  pop\n  dataSize(sub_0)\n  dup1\n  dataOffset(sub_0)\n  0x00\n  codecopy\n  0x00\n  return\nstop\n\nsub_0: assembly {\n        /* \"contracts/functions123.sol\":689:943  contract SecondFunction{\r... */\n      mstore(0x40, 0x80)\n      callvalue\n      dup1\n      iszero\n      tag_1\n      jumpi\n      0x00\n      dup1\n      revert\n    tag_1:\n      pop\n      jumpi(tag_2, lt(calldatasize, 0x04))\n      shr(0xe0, calldataload(0x00))\n      dup1\n      0xbedfc5a1\n      eq\n      tag_3\n      jumpi\n      dup1\n      0xcdc1b06f\n      eq\n      tag_4\n      jumpi\n    tag_2:\n      0x00\n      dup1\n      revert\n        /* \"contracts/functions123.sol\":844:938  function callFunction() external view returns(address){\r... */\n    tag_3:\n      tag_5\n      tag_6\n      jump\t// in\n    tag_5:\n      mload(0x40)\n      tag_7\n      swap2\n      swap1\n      tag_8\n      jump\t// in\n    tag_7:\n      mload(0x40)\n      dup1\n      swap2\n      sub\n      swap1\n      return\n        /* \"contracts/functions123.sol\":720:835  function SecondFunctionContract(uint x,uint y,uint z, address a, bool b,string memory c)public pure returns(uint){} */\n    tag_4:\n      tag_9\n      0x04\n      dup1\n      calldatasize\n      sub\n      dup2\n      add\n      swap1\n      tag_10\n      swap2\n      swap1\n      tag_11\n      jump\t// in\n    tag_10:\n      tag_12\n      jump\t// in\n    tag_9:\n      mload(0x40)\n      tag_13\n      swap2\n      swap1\n      tag_14\n      jump\t// in\n    tag_13:\n      mload(0x40)\n      dup1\n      swap2\n      sub\n      swap1\n      return\n        /* \"contracts/functions123.sol\":844:938  function callFunction() external view returns(address){\r... */\n    tag_6:\n        /* \"contracts/functions123.sol\":890:897  address */\n      0x00\n        /* \"contracts/functions123.sol\":918:928  msg.sender */\n      caller\n        /* \"contracts/functions123.sol\":910:929  return (msg.sender) */\n      swap1\n      pop\n        /* \"contracts/functions123.sol\":844:938  function callFunction() external view returns(address){\r... */\n      swap1\n      jump\t// out\n        /* \"contracts/functions123.sol\":720:835  function SecondFunctionContract(uint x,uint y,uint z, address a, bool b,string memory c)public pure returns(uint){} */\n    tag_12:\n        /* \"contracts/functions123.sol\":828:832  uint */\n      0x00\n        /* \"contracts/functions123.sol\":720:835  function SecondFunctionContract(uint x,uint y,uint z, address a, bool b,string memory c)public pure returns(uint){} */\n      swap7\n      swap6\n      pop\n      pop\n      pop\n      pop\n      pop\n      pop\n      jump\t// out\n        /* \"#utility.yul\":7:419   */\n    tag_18:\n        /* \"#utility.yul\":85:90   */\n      0x00\n        /* \"#utility.yul\":110:176   */\n      tag_20\n        /* \"#utility.yul\":126:175   */\n      tag_21\n        /* \"#utility.yul\":168:174   */\n      dup5\n        /* \"#utility.yul\":126:175   */\n      tag_22\n      jump\t// in\n    tag_21:\n        /* \"#utility.yul\":110:176   */\n      tag_23\n      jump\t// in\n    tag_20:\n        /* \"#utility.yul\":101:176   */\n      swap1\n      pop\n        /* \"#utility.yul\":199:205   */\n      dup3\n        /* \"#utility.yul\":192:197   */\n      dup2\n        /* \"#utility.yul\":185:206   */\n      mstore\n        /* \"#utility.yul\":237:241   */\n      0x20\n        /* \"#utility.yul\":230:235   */\n      dup2\n        /* \"#utility.yul\":226:242   */\n      add\n        /* \"#utility.yul\":275:278   */\n      dup5\n        /* \"#utility.yul\":266:272   */\n      dup5\n        /* \"#utility.yul\":261:264   */\n      dup5\n        /* \"#utility.yul\":257:273   */\n      add\n        /* \"#utility.yul\":254:279   */\n      gt\n        /* \"#utility.yul\":251:253   */\n      iszero\n      tag_24\n      jumpi\n        /* \"#utility.yul\":282:361   */\n      tag_25\n      tag_26\n      jump\t// in\n    tag_25:\n        /* \"#utility.yul\":251:253   */\n    tag_24:\n        /* \"#utility.yul\":372:413   */\n      tag_27\n        /* \"#utility.yul\":406:412   */\n      dup5\n        /* \"#utility.yul\":401:404   */\n      dup3\n        /* \"#utility.yul\":396:399   */\n      dup6\n        /* \"#utility.yul\":372:413   */\n      tag_28\n      jump\t// in\n    tag_27:\n        /* \"#utility.yul\":91:419   */\n      pop\n      swap4\n      swap3\n      pop\n      pop\n      pop\n      jump\t// out\n        /* \"#utility.yul\":425:564   */\n    tag_29:\n        /* \"#utility.yul\":471:476   */\n      0x00\n        /* \"#utility.yul\":509:515   */\n      dup2\n        /* \"#utility.yul\":496:516   */\n      calldataload\n        /* \"#utility.yul\":487:516   */\n      swap1\n      pop\n        /* \"#utility.yul\":525:558   */\n      tag_31\n        /* \"#utility.yul\":552:557   */\n      dup2\n        /* \"#utility.yul\":525:558   */\n      tag_32\n      jump\t// in\n    tag_31:\n        /* \"#utility.yul\":477:564   */\n      swap3\n      swap2\n      pop\n      pop\n      jump\t// out\n        /* \"#utility.yul\":570:703   */\n    tag_33:\n        /* \"#utility.yul\":613:618   */\n      0x00\n        /* \"#utility.yul\":651:657   */\n      dup2\n        /* \"#utility.yul\":638:658   */\n      calldataload\n        /* \"#utility.yul\":629:658   */\n      swap1\n      pop\n        /* \"#utility.yul\":667:697   */\n      tag_35\n        /* \"#utility.yul\":691:696   */\n      dup2\n        /* \"#utility.yul\":667:697   */\n      tag_36\n      jump\t// in\n    tag_35:\n        /* \"#utility.yul\":619:703   */\n      swap3\n      swap2\n      pop\n      pop\n      jump\t// out\n        /* \"#utility.yul\":723:1063   */\n    tag_37:\n        /* \"#utility.yul\":779:784   */\n      0x00\n        /* \"#utility.yul\":828:831   */\n      dup3\n        /* \"#utility.yul\":821:825   */\n      0x1f\n        /* \"#utility.yul\":813:819   */\n      dup4\n        /* \"#utility.yul\":809:826   */\n      add\n        /* \"#utility.yul\":805:832   */\n      slt\n        /* \"#utility.yul\":795:797   */\n      tag_39\n      jumpi\n        /* \"#utility.yul\":836:915   */\n      tag_40\n      tag_41\n      jump\t// in\n    tag_40:\n        /* \"#utility.yul\":795:797   */\n    tag_39:\n        /* \"#utility.yul\":953:959   */\n      dup2\n        /* \"#utility.yul\":940:960   */\n      calldataload\n        /* \"#utility.yul\":978:1057   */\n      tag_42\n        /* \"#utility.yul\":1053:1056   */\n      dup5\n        /* \"#utility.yul\":1045:1051   */\n      dup3\n        /* \"#utility.yul\":1038:1042   */\n      0x20\n        /* \"#utility.yul\":1030:1036   */\n      dup7\n        /* \"#utility.yul\":1026:1043   */\n      add\n        /* \"#utility.yul\":978:1057   */\n      tag_18\n      jump\t// in\n    tag_42:\n        /* \"#utility.yul\":969:1057   */\n      swap2\n      pop\n        /* \"#utility.yul\":785:1063   */\n      pop\n      swap3\n      swap2\n      pop\n      pop\n      jump\t// out\n        /* \"#utility.yul\":1069:1208   */\n    tag_43:\n        /* \"#utility.yul\":1115:1120   */\n      0x00\n        /* \"#utility.yul\":1153:1159   */\n      dup2\n        /* \"#utility.yul\":1140:1160   */\n      calldataload\n        /* \"#utility.yul\":1131:1160   */\n      swap1\n      pop\n        /* \"#utility.yul\":1169:1202   */\n      tag_45\n        /* \"#utility.yul\":1196:1201   */\n      dup2\n        /* \"#utility.yul\":1169:1202   */\n      tag_46\n      jump\t// in\n    tag_45:\n        /* \"#utility.yul\":1121:1208   */\n      swap3\n      swap2\n      pop\n      pop\n      jump\t// out\n        /* \"#utility.yul\":1214:2445   */\n    tag_11:\n        /* \"#utility.yul\":1325:1331   */\n      0x00\n        /* \"#utility.yul\":1333:1339   */\n      dup1\n        /* \"#utility.yul\":1341:1347   */\n      0x00\n        /* \"#utility.yul\":1349:1355   */\n      dup1\n        /* \"#utility.yul\":1357:1363   */\n      0x00\n        /* \"#utility.yul\":1365:1371   */\n      dup1\n        /* \"#utility.yul\":1414:1417   */\n      0xc0\n        /* \"#utility.yul\":1402:1411   */\n      dup8\n        /* \"#utility.yul\":1393:1400   */\n      dup10\n        /* \"#utility.yul\":1389:1412   */\n      sub\n        /* \"#utility.yul\":1385:1418   */\n      slt\n        /* \"#utility.yul\":1382:1384   */\n      iszero\n      tag_48\n      jumpi\n        /* \"#utility.yul\":1421:1500   */\n      tag_49\n      tag_50\n      jump\t// in\n    tag_49:\n        /* \"#utility.yul\":1382:1384   */\n    tag_48:\n        /* \"#utility.yul\":1541:1542   */\n      0x00\n        /* \"#utility.yul\":1566:1619   */\n      tag_51\n        /* \"#utility.yul\":1611:1618   */\n      dup10\n        /* \"#utility.yul\":1602:1608   */\n      dup3\n        /* \"#utility.yul\":1591:1600   */\n      dup11\n        /* \"#utility.yul\":1587:1609   */\n      add\n        /* \"#utility.yul\":1566:1619   */\n      tag_43\n      jump\t// in\n    tag_51:\n        /* \"#utility.yul\":1556:1619   */\n      swap7\n      pop\n        /* \"#utility.yul\":1512:1629   */\n      pop\n        /* \"#utility.yul\":1668:1670   */\n      0x20\n        /* \"#utility.yul\":1694:1747   */\n      tag_52\n        /* \"#utility.yul\":1739:1746   */\n      dup10\n        /* \"#utility.yul\":1730:1736   */\n      dup3\n        /* \"#utility.yul\":1719:1728   */\n      dup11\n        /* \"#utility.yul\":1715:1737   */\n      add\n        /* \"#utility.yul\":1694:1747   */\n      tag_43\n      jump\t// in\n    tag_52:\n        /* \"#utility.yul\":1684:1747   */\n      swap6\n      pop\n        /* \"#utility.yul\":1639:1757   */\n      pop\n        /* \"#utility.yul\":1796:1798   */\n      0x40\n        /* \"#utility.yul\":1822:1875   */\n      tag_53\n        /* \"#utility.yul\":1867:1874   */\n      dup10\n        /* \"#utility.yul\":1858:1864   */\n      dup3\n        /* \"#utility.yul\":1847:1856   */\n      dup11\n        /* \"#utility.yul\":1843:1865   */\n      add\n        /* \"#utility.yul\":1822:1875   */\n      tag_43\n      jump\t// in\n    tag_53:\n        /* \"#utility.yul\":1812:1875   */\n      swap5\n      pop\n        /* \"#utility.yul\":1767:1885   */\n      pop\n        /* \"#utility.yul\":1924:1926   */\n      0x60\n        /* \"#utility.yul\":1950:2003   */\n      tag_54\n        /* \"#utility.yul\":1995:2002   */\n      dup10\n        /* \"#utility.yul\":1986:1992   */\n      dup3\n        /* \"#utility.yul\":1975:1984   */\n      dup11\n        /* \"#utility.yul\":1971:1993   */\n      add\n        /* \"#utility.yul\":1950:2003   */\n      tag_29\n      jump\t// in\n    tag_54:\n        /* \"#utility.yul\":1940:2003   */\n      swap4\n      pop\n        /* \"#utility.yul\":1895:2013   */\n      pop\n        /* \"#utility.yul\":2052:2055   */\n      0x80\n        /* \"#utility.yul\":2079:2129   */\n      tag_55\n        /* \"#utility.yul\":2121:2128   */\n      dup10\n        /* \"#utility.yul\":2112:2118   */\n      dup3\n        /* \"#utility.yul\":2101:2110   */\n      dup11\n        /* \"#utility.yul\":2097:2119   */\n      add\n        /* \"#utility.yul\":2079:2129   */\n      tag_33\n      jump\t// in\n    tag_55:\n        /* \"#utility.yul\":2069:2129   */\n      swap3\n      pop\n        /* \"#utility.yul\":2023:2139   */\n      pop\n        /* \"#utility.yul\":2206:2209   */\n      0xa0\n        /* \"#utility.yul\":2195:2204   */\n      dup8\n        /* \"#utility.yul\":2191:2210   */\n      add\n        /* \"#utility.yul\":2178:2211   */\n      calldataload\n        /* \"#utility.yul\":2238:2256   */\n      0xffffffffffffffff\n        /* \"#utility.yul\":2230:2236   */\n      dup2\n        /* \"#utility.yul\":2227:2257   */\n      gt\n        /* \"#utility.yul\":2224:2226   */\n      iszero\n      tag_56\n      jumpi\n        /* \"#utility.yul\":2260:2339   */\n      tag_57\n      tag_58\n      jump\t// in\n    tag_57:\n        /* \"#utility.yul\":2224:2226   */\n    tag_56:\n        /* \"#utility.yul\":2365:2428   */\n      tag_59\n        /* \"#utility.yul\":2420:2427   */\n      dup10\n        /* \"#utility.yul\":2411:2417   */\n      dup3\n        /* \"#utility.yul\":2400:2409   */\n      dup11\n        /* \"#utility.yul\":2396:2418   */\n      add\n        /* \"#utility.yul\":2365:2428   */\n      tag_37\n      jump\t// in\n    tag_59:\n        /* \"#utility.yul\":2355:2428   */\n      swap2\n      pop\n        /* \"#utility.yul\":2149:2438   */\n      pop\n        /* \"#utility.yul\":1372:2445   */\n      swap3\n      swap6\n      pop\n      swap3\n      swap6\n      pop\n      swap3\n      swap6\n      jump\t// out\n        /* \"#utility.yul\":2451:2569   */\n    tag_60:\n        /* \"#utility.yul\":2538:2562   */\n      tag_62\n        /* \"#utility.yul\":2556:2561   */\n      dup2\n        /* \"#utility.yul\":2538:2562   */\n      tag_63\n      jump\t// in\n    tag_62:\n        /* \"#utility.yul\":2533:2536   */\n      dup3\n        /* \"#utility.yul\":2526:2563   */\n      mstore\n        /* \"#utility.yul\":2516:2569   */\n      pop\n      pop\n      jump\t// out\n        /* \"#utility.yul\":2575:2693   */\n    tag_64:\n        /* \"#utility.yul\":2662:2686   */\n      tag_66\n        /* \"#utility.yul\":2680:2685   */\n      dup2\n        /* \"#utility.yul\":2662:2686   */\n      tag_67\n      jump\t// in\n    tag_66:\n        /* \"#utility.yul\":2657:2660   */\n      dup3\n        /* \"#utility.yul\":2650:2687   */\n      mstore\n        /* \"#utility.yul\":2640:2693   */\n      pop\n      pop\n      jump\t// out\n        /* \"#utility.yul\":2699:2921   */\n    tag_8:\n        /* \"#utility.yul\":2792:2796   */\n      0x00\n        /* \"#utility.yul\":2830:2832   */\n      0x20\n        /* \"#utility.yul\":2819:2828   */\n      dup3\n        /* \"#utility.yul\":2815:2833   */\n      add\n        /* \"#utility.yul\":2807:2833   */\n      swap1\n      pop\n        /* \"#utility.yul\":2843:2914   */\n      tag_69\n        /* \"#utility.yul\":2911:2912   */\n      0x00\n        /* \"#utility.yul\":2900:2909   */\n      dup4\n        /* \"#utility.yul\":2896:2913   */\n      add\n        /* \"#utility.yul\":2887:2893   */\n      dup5\n        /* \"#utility.yul\":2843:2914   */\n      tag_60\n      jump\t// in\n    tag_69:\n        /* \"#utility.yul\":2797:2921   */\n      swap3\n      swap2\n      pop\n      pop\n      jump\t// out\n        /* \"#utility.yul\":2927:3149   */\n    tag_14:\n        /* \"#utility.yul\":3020:3024   */\n      0x00\n        /* \"#utility.yul\":3058:3060   */\n      0x20\n        /* \"#utility.yul\":3047:3056   */\n      dup3\n        /* \"#utility.yul\":3043:3061   */\n      add\n        /* \"#utility.yul\":3035:3061   */\n      swap1\n      pop\n        /* \"#utility.yul\":3071:3142   */\n      tag_71\n        /* \"#utility.yul\":3139:3140   */\n      0x00\n        /* \"#utility.yul\":3128:3137   */\n      dup4\n        /* \"#utility.yul\":3124:3141   */\n      add\n        /* \"#utility.yul\":3115:3121   */\n      dup5\n        /* \"#utility.yul\":3071:3142   */\n      tag_64\n      jump\t// in\n    tag_71:\n        /* \"#utility.yul\":3025:3149   */\n      swap3\n      swap2\n      pop\n      pop\n      jump\t// out\n        /* \"#utility.yul\":3155:3284   */\n    tag_23:\n        /* \"#utility.yul\":3189:3195   */\n      0x00\n        /* \"#utility.yul\":3216:3236   */\n      tag_73\n      tag_74\n      jump\t// in\n    tag_73:\n        /* \"#utility.yul\":3206:3236   */\n      swap1\n      pop\n        /* \"#utility.yul\":3245:3278   */\n      tag_75\n        /* \"#utility.yul\":3273:3277   */\n      dup3\n        /* \"#utility.yul\":3265:3271   */\n      dup3\n        /* \"#utility.yul\":3245:3278   */\n      tag_76\n      jump\t// in\n    tag_75:\n        /* \"#utility.yul\":3196:3284   */\n      swap2\n      swap1\n      pop\n      jump\t// out\n        /* \"#utility.yul\":3290:3365   */\n    tag_74:\n        /* \"#utility.yul\":3323:3329   */\n      0x00\n        /* \"#utility.yul\":3356:3358   */\n      0x40\n        /* \"#utility.yul\":3350:3359   */\n      mload\n        /* \"#utility.yul\":3340:3359   */\n      swap1\n      pop\n        /* \"#utility.yul\":3330:3365   */\n      swap1\n      jump\t// out\n        /* \"#utility.yul\":3371:3679   */\n    tag_22:\n        /* \"#utility.yul\":3433:3437   */\n      0x00\n        /* \"#utility.yul\":3523:3541   */\n      0xffffffffffffffff\n        /* \"#utility.yul\":3515:3521   */\n      dup3\n        /* \"#utility.yul\":3512:3542   */\n      gt\n        /* \"#utility.yul\":3509:3511   */\n      iszero\n      tag_79\n      jumpi\n        /* \"#utility.yul\":3545:3563   */\n      tag_80\n      tag_81\n      jump\t// in\n    tag_80:\n        /* \"#utility.yul\":3509:3511   */\n    tag_79:\n        /* \"#utility.yul\":3583:3612   */\n      tag_82\n        /* \"#utility.yul\":3605:3611   */\n      dup3\n        /* \"#utility.yul\":3583:3612   */\n      tag_83\n      jump\t// in\n    tag_82:\n        /* \"#utility.yul\":3575:3612   */\n      swap1\n      pop\n        /* \"#utility.yul\":3667:3671   */\n      0x20\n        /* \"#utility.yul\":3661:3665   */\n      dup2\n        /* \"#utility.yul\":3657:3672   */\n      add\n        /* \"#utility.yul\":3649:3672   */\n      swap1\n      pop\n        /* \"#utility.yul\":3438:3679   */\n      swap2\n      swap1\n      pop\n      jump\t// out\n        /* \"#utility.yul\":3685:3781   */\n    tag_63:\n        /* \"#utility.yul\":3722:3729   */\n      0x00\n        /* \"#utility.yul\":3751:3775   */\n      tag_85\n        /* \"#utility.yul\":3769:3774   */\n      dup3\n        /* \"#utility.yul\":3751:3775   */\n      tag_86\n      jump\t// in\n    tag_85:\n        /* \"#utility.yul\":3740:3775   */\n      swap1\n      pop\n        /* \"#utility.yul\":3730:3781   */\n      swap2\n      swap1\n      pop\n      jump\t// out\n        /* \"#utility.yul\":3787:3877   */\n    tag_87:\n        /* \"#utility.yul\":3821:3828   */\n      0x00\n        /* \"#utility.yul\":3864:3869   */\n      dup2\n        /* \"#utility.yul\":3857:3870   */\n      iszero\n        /* \"#utility.yul\":3850:3871   */\n      iszero\n        /* \"#utility.yul\":3839:3871   */\n      swap1\n      pop\n        /* \"#utility.yul\":3829:3877   */\n      swap2\n      swap1\n      pop\n      jump\t// out\n        /* \"#utility.yul\":3883:4009   */\n    tag_86:\n        /* \"#utility.yul\":3920:3927   */\n      0x00\n        /* \"#utility.yul\":3960:4002   */\n      0xffffffffffffffffffffffffffffffffffffffff\n        /* \"#utility.yul\":3953:3958   */\n      dup3\n        /* \"#utility.yul\":3949:4003   */\n      and\n        /* \"#utility.yul\":3938:4003   */\n      swap1\n      pop\n        /* \"#utility.yul\":3928:4009   */\n      swap2\n      swap1\n      pop\n      jump\t// out\n        /* \"#utility.yul\":4015:4092   */\n    tag_67:\n        /* \"#utility.yul\":4052:4059   */\n      0x00\n        /* \"#utility.yul\":4081:4086   */\n      dup2\n        /* \"#utility.yul\":4070:4086   */\n      swap1\n      pop\n        /* \"#utility.yul\":4060:4092   */\n      swap2\n      swap1\n      pop\n      jump\t// out\n        /* \"#utility.yul\":4098:4252   */\n    tag_28:\n        /* \"#utility.yul\":4182:4188   */\n      dup3\n        /* \"#utility.yul\":4177:4180   */\n      dup2\n        /* \"#utility.yul\":4172:4175   */\n      dup4\n        /* \"#utility.yul\":4159:4189   */\n      calldatacopy\n        /* \"#utility.yul\":4244:4245   */\n      0x00\n        /* \"#utility.yul\":4235:4241   */\n      dup4\n        /* \"#utility.yul\":4230:4233   */\n      dup4\n        /* \"#utility.yul\":4226:4242   */\n      add\n        /* \"#utility.yul\":4219:4246   */\n      mstore\n        /* \"#utility.yul\":4149:4252   */\n      pop\n      pop\n      pop\n      jump\t// out\n        /* \"#utility.yul\":4258:4539   */\n    tag_76:\n        /* \"#utility.yul\":4341:4368   */\n      tag_93\n        /* \"#utility.yul\":4363:4367   */\n      dup3\n        /* \"#utility.yul\":4341:4368   */\n      tag_83\n      jump\t// in\n    tag_93:\n        /* \"#utility.yul\":4333:4339   */\n      dup2\n        /* \"#utility.yul\":4329:4369   */\n      add\n        /* \"#utility.yul\":4471:4477   */\n      dup2\n        /* \"#utility.yul\":4459:4469   */\n      dup2\n        /* \"#utility.yul\":4456:4478   */\n      lt\n        /* \"#utility.yul\":4435:4453   */\n      0xffffffffffffffff\n        /* \"#utility.yul\":4423:4433   */\n      dup3\n        /* \"#utility.yul\":4420:4454   */\n      gt\n        /* \"#utility.yul\":4417:4479   */\n      or\n        /* \"#utility.yul\":4414:4416   */\n      iszero\n      tag_94\n      jumpi\n        /* \"#utility.yul\":4482:4500   */\n      tag_95\n      tag_81\n      jump\t// in\n    tag_95:\n        /* \"#utility.yul\":4414:4416   */\n    tag_94:\n        /* \"#utility.yul\":4522:4532   */\n      dup1\n        /* \"#utility.yul\":4518:4520   */\n      0x40\n        /* \"#utility.yul\":4511:4533   */\n      mstore\n        /* \"#utility.yul\":4301:4539   */\n      pop\n      pop\n      pop\n      jump\t// out\n        /* \"#utility.yul\":4545:4725   */\n    tag_81:\n        /* \"#utility.yul\":4593:4670   */\n      0x4e487b7100000000000000000000000000000000000000000000000000000000\n        /* \"#utility.yul\":4590:4591   */\n      0x00\n        /* \"#utility.yul\":4583:4671   */\n      mstore\n        /* \"#utility.yul\":4690:4694   */\n      0x41\n        /* \"#utility.yul\":4687:4688   */\n      0x04\n        /* \"#utility.yul\":4680:4695   */\n      mstore\n        /* \"#utility.yul\":4714:4718   */\n      0x24\n        /* \"#utility.yul\":4711:4712   */\n      0x00\n        /* \"#utility.yul\":4704:4719   */\n      revert\n        /* \"#utility.yul\":4731:4848   */\n    tag_41:\n        /* \"#utility.yul\":4840:4841   */\n      0x00\n        /* \"#utility.yul\":4837:4838   */\n      dup1\n        /* \"#utility.yul\":4830:4842   */\n      revert\n        /* \"#utility.yul\":4854:4971   */\n    tag_26:\n        /* \"#utility.yul\":4963:4964   */\n      0x00\n        /* \"#utility.yul\":4960:4961   */\n      dup1\n        /* \"#utility.yul\":4953:4965   */\n      revert\n        /* \"#utility.yul\":4977:5094   */\n    tag_58:\n        /* \"#utility.yul\":5086:5087   */\n      0x00\n        /* \"#utility.yul\":5083:5084   */\n      dup1\n        /* \"#utility.yul\":5076:5088   */\n      revert\n        /* \"#utility.yul\":5100:5217   */\n    tag_50:\n        /* \"#utility.yul\":5209:5210   */\n      0x00\n        /* \"#utility.yul\":5206:5207   */\n      dup1\n        /* \"#utility.yul\":5199:5211   */\n      revert\n        /* \"#utility.yul\":5223:5325   */\n    tag_83:\n        /* \"#utility.yul\":5264:5270   */\n      0x00\n        /* \"#utility.yul\":5315:5317   */\n      0x1f\n        /* \"#utility.yul\":5311:5318   */\n      not\n        /* \"#utility.yul\":5306:5308   */\n      0x1f\n        /* \"#utility.yul\":5299:5304   */\n      dup4\n        /* \"#utility.yul\":5295:5309   */\n      add\n        /* \"#utility.yul\":5291:5319   */\n      and\n        /* \"#utility.yul\":5281:5319   */\n      swap1\n      pop\n        /* \"#utility.yul\":5271:5325   */\n      swap2\n      swap1\n      pop\n      jump\t// out\n        /* \"#utility.yul\":5331:5453   */\n    tag_32:\n        /* \"#utility.yul\":5404:5428   */\n      tag_103\n        /* \"#utility.yul\":5422:5427   */\n      dup2\n        /* \"#utility.yul\":5404:5428   */\n      tag_63\n      jump\t// in\n    tag_103:\n        /* \"#utility.yul\":5397:5402   */\n      dup2\n        /* \"#utility.yul\":5394:5429   */\n      eq\n        /* \"#utility.yul\":5384:5386   */\n      tag_104\n      jumpi\n        /* \"#utility.yul\":5443:5444   */\n      0x00\n        /* \"#utility.yul\":5440:5441   */\n      dup1\n        /* \"#utility.yul\":5433:5445   */\n      revert\n        /* \"#utility.yul\":5384:5386   */\n    tag_104:\n        /* \"#utility.yul\":5374:5453   */\n      pop\n      jump\t// out\n        /* \"#utility.yul\":5459:5575   */\n    tag_36:\n        /* \"#utility.yul\":5529:5550   */\n      tag_106\n        /* \"#utility.yul\":5544:5549   */\n      dup2\n        /* \"#utility.yul\":5529:5550   */\n      tag_87\n      jump\t// in\n    tag_106:\n        /* \"#utility.yul\":5522:5527   */\n      dup2\n        /* \"#utility.yul\":5519:5551   */\n      eq\n        /* \"#utility.yul\":5509:5511   */\n      tag_107\n      jumpi\n        /* \"#utility.yul\":5565:5566   */\n      0x00\n        /* \"#utility.yul\":5562:5563   */\n      dup1\n        /* \"#utility.yul\":5555:5567   */\n      revert\n        /* \"#utility.yul\":5509:5511   */\n    tag_107:\n        /* \"#utility.yul\":5499:5575   */\n      pop\n      jump\t// out\n        /* \"#utility.yul\":5581:5703   */\n    tag_46:\n        /* \"#utility.yul\":5654:5678   */\n      tag_109\n        /* \"#utility.yul\":5672:5677   */\n      dup2\n        /* \"#utility.yul\":5654:5678   */\n      tag_67\n      jump\t// in\n    tag_109:\n        /* \"#utility.yul\":5647:5652   */\n      dup2\n        /* \"#utility.yul\":5644:5679   */\n      eq\n        /* \"#utility.yul\":5634:5636   */\n      tag_110\n      jumpi\n        /* \"#utility.yul\":5693:5694   */\n      0x00\n        /* \"#utility.yul\":5690:5691   */\n      dup1\n        /* \"#utility.yul\":5683:5695   */\n      revert\n        /* \"#utility.yul\":5634:5636   */\n    tag_110:\n        /* \"#utility.yul\":5624:5703   */\n      pop\n      jump\t// out\n\n    auxdata: 0xa26469706673582212206770c337121b475e62b3ea1973f36cda0c4153ba946b857d865b3c6124b0f71864736f6c63430008060033\n}\n",
				"bytecode": {
					"linkReferences": {},
					"object": "608060405234801561001057600080fd5b506103f6806100206000396000f3fe608060405234801561001057600080fd5b50600436106100365760003560e01c8063bedfc5a11461003b578063cdc1b06f14610059575b600080fd5b610043610089565b6040516100509190610213565b60405180910390f35b610073600480360381019061006e919061014c565b610091565b604051610080919061022e565b60405180910390f35b600033905090565b60009695505050505050565b60006100b06100ab8461026e565b610249565b9050828152602081018484840111156100cc576100cb61035b565b5b6100d78482856102e7565b509392505050565b6000813590506100ee8161037b565b92915050565b60008135905061010381610392565b92915050565b600082601f83011261011e5761011d610356565b5b813561012e84826020860161009d565b91505092915050565b600081359050610146816103a9565b92915050565b60008060008060008060c0878903121561016957610168610365565b5b600061017789828a01610137565b965050602061018889828a01610137565b955050604061019989828a01610137565b94505060606101aa89828a016100df565b93505060806101bb89828a016100f4565b92505060a087013567ffffffffffffffff8111156101dc576101db610360565b5b6101e889828a01610109565b9150509295509295509295565b6101fe8161029f565b82525050565b61020d816102dd565b82525050565b600060208201905061022860008301846101f5565b92915050565b60006020820190506102436000830184610204565b92915050565b6000610253610264565b905061025f82826102f6565b919050565b6000604051905090565b600067ffffffffffffffff82111561028957610288610327565b5b6102928261036a565b9050602081019050919050565b60006102aa826102bd565b9050919050565b60008115159050919050565b600073ffffffffffffffffffffffffffffffffffffffff82169050919050565b6000819050919050565b82818337600083830152505050565b6102ff8261036a565b810181811067ffffffffffffffff8211171561031e5761031d610327565b5b80604052505050565b7f4e487b7100000000000000000000000000000000000000000000000000000000600052604160045260246000fd5b600080fd5b600080fd5b600080fd5b600080fd5b6000601f19601f8301169050919050565b6103848161029f565b811461038f57600080fd5b50565b61039b816102b1565b81146103a657600080fd5b50565b6103b2816102dd565b81146103bd57600080fd5b5056fea26469706673582212206770c337121b475e62b3ea1973f36cda0c4153ba946b857d865b3c6124b0f71864736f6c63430008060033",
					"opcodes": "PUSH1 0x80 PUSH1 0x40 MSTORE CALLVALUE DUP1 ISZERO PUSH2 0x10 JUMPI PUSH1 0x0 DUP1 REVERT JUMPDEST POP PUSH2 0x3F6 DUP1 PUSH2 0x20 PUSH1 0x0 CODECOPY PUSH1 0x0 RETURN INVALID PUSH1 0x80 PUSH1 0x40 MSTORE CALLVALUE DUP1 ISZERO PUSH2 0x10 JUMPI PUSH1 0x0 DUP1 REVERT JUMPDEST POP PUSH1 0x4 CALLDATASIZE LT PUSH2 0x36 JUMPI PUSH1 0x0 CALLDATALOAD PUSH1 0xE0 SHR DUP1 PUSH4 0xBEDFC5A1 EQ PUSH2 0x3B JUMPI DUP1 PUSH4 0xCDC1B06F EQ PUSH2 0x59 JUMPI JUMPDEST PUSH1 0x0 DUP1 REVERT JUMPDEST PUSH2 0x43 PUSH2 0x89 JUMP JUMPDEST PUSH1 0x40 MLOAD PUSH2 0x50 SWAP2 SWAP1 PUSH2 0x213 JUMP JUMPDEST PUSH1 0x40 MLOAD DUP1 SWAP2 SUB SWAP1 RETURN JUMPDEST PUSH2 0x73 PUSH1 0x4 DUP1 CALLDATASIZE SUB DUP2 ADD SWAP1 PUSH2 0x6E SWAP2 SWAP1 PUSH2 0x14C JUMP JUMPDEST PUSH2 0x91 JUMP JUMPDEST PUSH1 0x40 MLOAD PUSH2 0x80 SWAP2 SWAP1 PUSH2 0x22E JUMP JUMPDEST PUSH1 0x40 MLOAD DUP1 SWAP2 SUB SWAP1 RETURN JUMPDEST PUSH1 0x0 CALLER SWAP1 POP SWAP1 JUMP JUMPDEST PUSH1 0x0 SWAP7 SWAP6 POP POP POP POP POP POP JUMP JUMPDEST PUSH1 0x0 PUSH2 0xB0 PUSH2 0xAB DUP5 PUSH2 0x26E JUMP JUMPDEST PUSH2 0x249 JUMP JUMPDEST SWAP1 POP DUP3 DUP2 MSTORE PUSH1 0x20 DUP2 ADD DUP5 DUP5 DUP5 ADD GT ISZERO PUSH2 0xCC JUMPI PUSH2 0xCB PUSH2 0x35B JUMP JUMPDEST JUMPDEST PUSH2 0xD7 DUP5 DUP3 DUP6 PUSH2 0x2E7 JUMP JUMPDEST POP SWAP4 SWAP3 POP POP POP JUMP JUMPDEST PUSH1 0x0 DUP2 CALLDATALOAD SWAP1 POP PUSH2 0xEE DUP2 PUSH2 0x37B JUMP JUMPDEST SWAP3 SWAP2 POP POP JUMP JUMPDEST PUSH1 0x0 DUP2 CALLDATALOAD SWAP1 POP PUSH2 0x103 DUP2 PUSH2 0x392 JUMP JUMPDEST SWAP3 SWAP2 POP POP JUMP JUMPDEST PUSH1 0x0 DUP3 PUSH1 0x1F DUP4 ADD SLT PUSH2 0x11E JUMPI PUSH2 0x11D PUSH2 0x356 JUMP JUMPDEST JUMPDEST DUP2 CALLDATALOAD PUSH2 0x12E DUP5 DUP3 PUSH1 0x20 DUP7 ADD PUSH2 0x9D JUMP JUMPDEST SWAP2 POP POP SWAP3 SWAP2 POP POP JUMP JUMPDEST PUSH1 0x0 DUP2 CALLDATALOAD SWAP1 POP PUSH2 0x146 DUP2 PUSH2 0x3A9 JUMP JUMPDEST SWAP3 SWAP2 POP POP JUMP JUMPDEST PUSH1 0x0 DUP1 PUSH1 0x0 DUP1 PUSH1 0x0 DUP1 PUSH1 0xC0 DUP8 DUP10 SUB SLT ISZERO PUSH2 0x169 JUMPI PUSH2 0x168 PUSH2 0x365 JUMP JUMPDEST JUMPDEST PUSH1 0x0 PUSH2 0x177 DUP10 DUP3 DUP11 ADD PUSH2 0x137 JUMP JUMPDEST SWAP7 POP POP PUSH1 0x20 PUSH2 0x188 DUP10 DUP3 DUP11 ADD PUSH2 0x137 JUMP JUMPDEST SWAP6 POP POP PUSH1 0x40 PUSH2 0x199 DUP10 DUP3 DUP11 ADD PUSH2 0x137 JUMP JUMPDEST SWAP5 POP POP PUSH1 0x60 PUSH2 0x1AA DUP10 DUP3 DUP11 ADD PUSH2 0xDF JUMP JUMPDEST SWAP4 POP POP PUSH1 0x80 PUSH2 0x1BB DUP10 DUP3 DUP11 ADD PUSH2 0xF4 JUMP JUMPDEST SWAP3 POP POP PUSH1 0xA0 DUP8 ADD CALLDATALOAD PUSH8 0xFFFFFFFFFFFFFFFF DUP2 GT ISZERO PUSH2 0x1DC JUMPI PUSH2 0x1DB PUSH2 0x360 JUMP JUMPDEST JUMPDEST PUSH2 0x1E8 DUP10 DUP3 DUP11 ADD PUSH2 0x109 JUMP JUMPDEST SWAP2 POP POP SWAP3 SWAP6 POP SWAP3 SWAP6 POP SWAP3 SWAP6 JUMP JUMPDEST PUSH2 0x1FE DUP2 PUSH2 0x29F JUMP JUMPDEST DUP3 MSTORE POP POP JUMP JUMPDEST PUSH2 0x20D DUP2 PUSH2 0x2DD JUMP JUMPDEST DUP3 MSTORE POP POP JUMP JUMPDEST PUSH1 0x0 PUSH1 0x20 DUP3 ADD SWAP1 POP PUSH2 0x228 PUSH1 0x0 DUP4 ADD DUP5 PUSH2 0x1F5 JUMP JUMPDEST SWAP3 SWAP2 POP POP JUMP JUMPDEST PUSH1 0x0 PUSH1 0x20 DUP3 ADD SWAP1 POP PUSH2 0x243 PUSH1 0x0 DUP4 ADD DUP5 PUSH2 0x204 JUMP JUMPDEST SWAP3 SWAP2 POP POP JUMP JUMPDEST PUSH1 0x0 PUSH2 0x253 PUSH2 0x264 JUMP JUMPDEST SWAP1 POP PUSH2 0x25F DUP3 DUP3 PUSH2 0x2F6 JUMP JUMPDEST SWAP2 SWAP1 POP JUMP JUMPDEST PUSH1 0x0 PUSH1 0x40 MLOAD SWAP1 POP SWAP1 JUMP JUMPDEST PUSH1 0x0 PUSH8 0xFFFFFFFFFFFFFFFF DUP3 GT ISZERO PUSH2 0x289 JUMPI PUSH2 0x288 PUSH2 0x327 JUMP JUMPDEST JUMPDEST PUSH2 0x292 DUP3 PUSH2 0x36A JUMP JUMPDEST SWAP1 POP PUSH1 0x20 DUP2 ADD SWAP1 POP SWAP2 SWAP1 POP JUMP JUMPDEST PUSH1 0x0 PUSH2 0x2AA DUP3 PUSH2 0x2BD JUMP JUMPDEST SWAP1 POP SWAP2 SWAP1 POP JUMP JUMPDEST PUSH1 0x0 DUP2 ISZERO ISZERO SWAP1 POP SWAP2 SWAP1 POP JUMP JUMPDEST PUSH1 0x0 PUSH20 0xFFFFFFFFFFFFFFFFFFFFFFFFFFFFFFFFFFFFFFFF DUP3 AND SWAP1 POP SWAP2 SWAP1 POP JUMP JUMPDEST PUSH1 0x0 DUP2 SWAP1 POP SWAP2 SWAP1 POP JUMP JUMPDEST DUP3 DUP2 DUP4 CALLDATACOPY PUSH1 0x0 DUP4 DUP4 ADD MSTORE POP POP POP JUMP JUMPDEST PUSH2 0x2FF DUP3 PUSH2 0x36A JUMP JUMPDEST DUP2 ADD DUP2 DUP2 LT PUSH8 0xFFFFFFFFFFFFFFFF DUP3 GT OR ISZERO PUSH2 0x31E JUMPI PUSH2 0x31D PUSH2 0x327 JUMP JUMPDEST JUMPDEST DUP1 PUSH1 0x40 MSTORE POP POP POP JUMP JUMPDEST PUSH32 0x4E487B7100000000000000000000000000000000000000000000000000000000 PUSH1 0x0 MSTORE PUSH1 0x41 PUSH1 0x4 MSTORE PUSH1 0x24 PUSH1 0x0 REVERT JUMPDEST PUSH1 0x0 DUP1 REVERT JUMPDEST PUSH1 0x0 DUP1 REVERT JUMPDEST PUSH1 0x0 DUP1 REVERT JUMPDEST PUSH1 0x0 DUP1 REVERT JUMPDEST PUSH1 0x0 PUSH1 0x1F NOT PUSH1 0x1F DUP4 ADD AND SWAP1 POP SWAP2 SWAP1 POP JUMP JUMPDEST PUSH2 0x384 DUP2 PUSH2 0x29F JUMP JUMPDEST DUP2 EQ PUSH2 0x38F JUMPI PUSH1 0x0 DUP1 REVERT JUMPDEST POP JUMP JUMPDEST PUSH2 0x39B DUP2 PUSH2 0x2B1 JUMP JUMPDEST DUP2 EQ PUSH2 0x3A6 JUMPI PUSH1 0x0 DUP1 REVERT JUMPDEST POP JUMP JUMPDEST PUSH2 0x3B2 DUP2 PUSH2 0x2DD JUMP JUMPDEST DUP2 EQ PUSH2 0x3BD JUMPI PUSH1 0x0 DUP1 REVERT JUMPDEST POP JUMP INVALID LOG2 PUSH5 0x6970667358 0x22 SLT KECCAK256 PUSH8 0x70C337121B475E62 0xB3 0xEA NOT PUSH20 0xF36CDA0C4153BA946B857D865B3C6124B0F71864 PUSH20 0x6F6C634300080600330000000000000000000000 "
				},
				"gasEstimates": {
					"creation": {
						"codeDepositCost": "202800",
						"executionCost": "245",
						"totalCost": "203045"
					},
					"external": {
						"SecondFunctionContract(uint256,uint256,uint256,address,bool,string)": "infinite",
						"callFunction()": "363"
					}
				},
				"methodIdentifiers": {
					"SecondFunctionContract(uint256,uint256,uint256,address,bool,string)": "cdc1b06f",
					"callFunction()": "bedfc5a1"
				}
			},
			"storageLayout": {
				"storage": [],
				"types": null
			},
			"userdoc": {
				"kind": "user",
				"methods": {},
				"version": 1
			}
		}
	}
}