{
	"contracts/counter.sol": {
		"Counter": {
			"abi": [
				{
					"inputs": [],
					"name": "addition",
					"outputs": [],
					"stateMutability": "nonpayable",
					"type": "function"
				}
			],
			"devdoc": {
				"kind": "dev",
				"methods": {},
				"version": 1
			},
			"evm": {
				"assembly": "    /* \"contracts/counter.sol\":433:635  contract Counter\r... */\n  mstore(0x40, 0x80)\n  callvalue\n  dup1\n  iszero\n  tag_1\n  jumpi\n  0x00\n  dup1\n  revert\ntag_1:\n  pop\n  dataSize(sub_0)\n  dup1\n  dataOffset(sub_0)\n  0x00\n  codecopy\n  0x00\n  return\nstop\n\nsub_0: assembly {\n        /* \"contracts/counter.sol\":433:635  contract Counter\r... */\n      mstore(0x40, 0x80)\n      callvalue\n      dup1\n      iszero\n      tag_1\n      jumpi\n      0x00\n      dup1\n      revert\n    tag_1:\n      pop\n      jumpi(tag_2, lt(calldatasize, 0x04))\n      shr(0xe0, calldataload(0x00))\n      dup1\n      0xec597128\n      eq\n      tag_3\n      jumpi\n    tag_2:\n      0x00\n      dup1\n      revert\n        /* \"contracts/counter.sol\":577:622  function addition() public \r... */\n    tag_3:\n      tag_4\n      tag_5\n      jump\t// in\n    tag_4:\n      stop\n    tag_5:\n        /* \"contracts/counter.sol\":617:618  b */\n      sload(0x01)\n        /* \"contracts/counter.sol\":615:616  a */\n      sload(0x00)\n        /* \"contracts/counter.sol\":615:618  a+b */\n      tag_7\n      swap2\n      swap1\n      tag_8\n      jump\t// in\n    tag_7:\n        /* \"contracts/counter.sol\":613:614  c */\n      0x02\n        /* \"contracts/counter.sol\":613:618  c=a+b */\n      dup2\n      swap1\n      sstore\n      pop\n        /* \"contracts/counter.sol\":577:622  function addition() public \r... */\n      jump\t// out\n        /* \"#utility.yul\":7:532   */\n    tag_8:\n        /* \"#utility.yul\":46:49   */\n      0x00\n        /* \"#utility.yul\":65:84   */\n      tag_11\n        /* \"#utility.yul\":82:83   */\n      dup3\n        /* \"#utility.yul\":65:84   */\n      tag_12\n      jump\t// in\n    tag_11:\n        /* \"#utility.yul\":60:84   */\n      swap2\n      pop\n        /* \"#utility.yul\":98:117   */\n      tag_13\n        /* \"#utility.yul\":115:116   */\n      dup4\n        /* \"#utility.yul\":98:117   */\n      tag_12\n      jump\t// in\n    tag_13:\n        /* \"#utility.yul\":93:117   */\n      swap3\n      pop\n        /* \"#utility.yul\":286:287   */\n      dup2\n        /* \"#utility.yul\":218:284   */\n      0x7fffffffffffffffffffffffffffffffffffffffffffffffffffffffffffffff\n        /* \"#utility.yul\":214:288   */\n      sub\n        /* \"#utility.yul\":211:212   */\n      dup4\n        /* \"#utility.yul\":207:289   */\n      sgt\n        /* \"#utility.yul\":202:203   */\n      0x00\n        /* \"#utility.yul\":199:200   */\n      dup4\n        /* \"#utility.yul\":195:204   */\n      slt\n        /* \"#utility.yul\":188:205   */\n      iszero\n        /* \"#utility.yul\":184:290   */\n      and\n        /* \"#utility.yul\":181:313   */\n      iszero\n      tag_14\n      jumpi\n        /* \"#utility.yul\":293:311   */\n      tag_15\n      tag_16\n      jump\t// in\n    tag_15:\n        /* \"#utility.yul\":181:313   */\n    tag_14:\n        /* \"#utility.yul\":473:474   */\n      dup2\n        /* \"#utility.yul\":405:471   */\n      0x8000000000000000000000000000000000000000000000000000000000000000\n        /* \"#utility.yul\":401:475   */\n      sub\n        /* \"#utility.yul\":398:399   */\n      dup4\n        /* \"#utility.yul\":394:476   */\n      slt\n        /* \"#utility.yul\":390:391   */\n      0x00\n        /* \"#utility.yul\":387:388   */\n      dup4\n        /* \"#utility.yul\":383:392   */\n      slt\n        /* \"#utility.yul\":379:477   */\n      and\n        /* \"#utility.yul\":376:500   */\n      iszero\n      tag_17\n      jumpi\n        /* \"#utility.yul\":480:498   */\n      tag_18\n      tag_16\n      jump\t// in\n    tag_18:\n        /* \"#utility.yul\":376:500   */\n    tag_17:\n        /* \"#utility.yul\":524:525   */\n      dup3\n        /* \"#utility.yul\":521:522   */\n      dup3\n        /* \"#utility.yul\":517:526   */\n      add\n        /* \"#utility.yul\":510:526   */\n      swap1\n      pop\n        /* \"#utility.yul\":7:532   */\n      swap3\n      swap2\n      pop\n      pop\n      jump\t// out\n        /* \"#utility.yul\":538:614   */\n    tag_12:\n        /* \"#utility.yul\":574:581   */\n      0x00\n        /* \"#utility.yul\":603:608   */\n      dup2\n        /* \"#utility.yul\":592:608   */\n      swap1\n      pop\n        /* \"#utility.yul\":538:614   */\n      swap2\n      swap1\n      pop\n      jump\t// out\n        /* \"#utility.yul\":620:800   */\n    tag_16:\n        /* \"#utility.yul\":668:745   */\n      0x4e487b7100000000000000000000000000000000000000000000000000000000\n        /* \"#utility.yul\":665:666   */\n      0x00\n        /* \"#utility.yul\":658:746   */\n      mstore\n        /* \"#utility.yul\":765:769   */\n      0x11\n        /* \"#utility.yul\":762:763   */\n      0x04\n        /* \"#utility.yul\":755:770   */\n      mstore\n        /* \"#utility.yul\":789:793   */\n      0x24\n        /* \"#utility.yul\":786:787   */\n      0x00\n        /* \"#utility.yul\":779:794   */\n      revert\n\n    auxdata: 0xa26469706673582212200eb26f33a2fc83d9f7efe6ab4b963254505417af5198409f973995211bde9df464736f6c63430008070033\n}\n",
				"bytecode": {
					"linkReferences": {},
					"object": "608060405234801561001057600080fd5b50610155806100206000396000f3fe608060405234801561001057600080fd5b506004361061002b5760003560e01c8063ec59712814610030575b600080fd5b61003861003a565b005b60015460005461004a9190610052565b600281905550565b600061005d826100e6565b9150610068836100e6565b9250817f7fffffffffffffffffffffffffffffffffffffffffffffffffffffffffffffff038313600083121516156100a3576100a26100f0565b5b817f80000000000000000000000000000000000000000000000000000000000000000383126000831216156100db576100da6100f0565b5b828201905092915050565b6000819050919050565b7f4e487b7100000000000000000000000000000000000000000000000000000000600052601160045260246000fdfea26469706673582212200eb26f33a2fc83d9f7efe6ab4b963254505417af5198409f973995211bde9df464736f6c63430008070033",
					"opcodes": "PUSH1 0x80 PUSH1 0x40 MSTORE CALLVALUE DUP1 ISZERO PUSH2 0x10 JUMPI PUSH1 0x0 DUP1 REVERT JUMPDEST POP PUSH2 0x155 DUP1 PUSH2 0x20 PUSH1 0x0 CODECOPY PUSH1 0x0 RETURN INVALID PUSH1 0x80 PUSH1 0x40 MSTORE CALLVALUE DUP1 ISZERO PUSH2 0x10 JUMPI PUSH1 0x0 DUP1 REVERT JUMPDEST POP PUSH1 0x4 CALLDATASIZE LT PUSH2 0x2B JUMPI PUSH1 0x0 CALLDATALOAD PUSH1 0xE0 SHR DUP1 PUSH4 0xEC597128 EQ PUSH2 0x30 JUMPI JUMPDEST PUSH1 0x0 DUP1 REVERT JUMPDEST PUSH2 0x38 PUSH2 0x3A JUMP JUMPDEST STOP JUMPDEST PUSH1 0x1 SLOAD PUSH1 0x0 SLOAD PUSH2 0x4A SWAP2 SWAP1 PUSH2 0x52 JUMP JUMPDEST PUSH1 0x2 DUP2 SWAP1 SSTORE POP JUMP JUMPDEST PUSH1 0x0 PUSH2 0x5D DUP3 PUSH2 0xE6 JUMP JUMPDEST SWAP2 POP PUSH2 0x68 DUP4 PUSH2 0xE6 JUMP JUMPDEST SWAP3 POP DUP2 PUSH32 0x7FFFFFFFFFFFFFFFFFFFFFFFFFFFFFFFFFFFFFFFFFFFFFFFFFFFFFFFFFFFFFFF SUB DUP4 SGT PUSH1 0x0 DUP4 SLT ISZERO AND ISZERO PUSH2 0xA3 JUMPI PUSH2 0xA2 PUSH2 0xF0 JUMP JUMPDEST JUMPDEST DUP2 PUSH32 0x8000000000000000000000000000000000000000000000000000000000000000 SUB DUP4 SLT PUSH1 0x0 DUP4 SLT AND ISZERO PUSH2 0xDB JUMPI PUSH2 0xDA PUSH2 0xF0 JUMP JUMPDEST JUMPDEST DUP3 DUP3 ADD SWAP1 POP SWAP3 SWAP2 POP POP JUMP JUMPDEST PUSH1 0x0 DUP2 SWAP1 POP SWAP2 SWAP1 POP JUMP JUMPDEST PUSH32 0x4E487B7100000000000000000000000000000000000000000000000000000000 PUSH1 0x0 MSTORE PUSH1 0x11 PUSH1 0x4 MSTORE PUSH1 0x24 PUSH1 0x0 REVERT INVALID LOG2 PUSH5 0x6970667358 0x22 SLT KECCAK256 0xE 0xB2 PUSH16 0x33A2FC83D9F7EFE6AB4B963254505417 0xAF MLOAD SWAP9 BLOCKHASH SWAP16 SWAP8 CODECOPY SWAP6 0x21 SHL 0xDE SWAP14 DELEGATECALL PUSH5 0x736F6C6343 STOP ADDMOD SMOD STOP CALLER "
				},
				"gasEstimates": {
					"creation": {
						"codeDepositCost": "68200",
						"executionCost": "117",
						"totalCost": "68317"
					},
					"external": {
						"addition()": "infinite"
					}
				},
				"methodIdentifiers": {
					"addition()": "ec597128"
				}
			},
			"storageLayout": {
				"storage": [
					{
						"astId": 3,
						"contract": "contracts/counter.sol:Counter",
						"label": "a",
						"offset": 0,
						"slot": "0",
						"type": "t_int256"
					},
					{
						"astId": 5,
						"contract": "contracts/counter.sol:Counter",
						"label": "b",
						"offset": 0,
						"slot": "1",
						"type": "t_int256"
					},
					{
						"astId": 7,
						"contract": "contracts/counter.sol:Counter",
						"label": "c",
						"offset": 0,
						"slot": "2",
						"type": "t_int256"
					}
				],
				"types": {
					"t_int256": {
						"encoding": "inplace",
						"label": "int256",
						"numberOfBytes": "32"
					}
				}
			},
			"userdoc": {
				"kind": "user",
				"methods": {},
				"version": 1
			}
		}
	}
}