{
	"contracts/fallBack.sol": {
		"fallBackRecive": {
			"abi": [
				{
					"stateMutability": "payable",
					"type": "fallback"
				},
				{
					"inputs": [],
					"name": "amount",
					"outputs": [
						{
							"internalType": "uint256",
							"name": "",
							"type": "uint256"
						}
					],
					"stateMutability": "view",
					"type": "function"
				},
				{
					"inputs": [],
					"name": "called",
					"outputs": [
						{
							"internalType": "string",
							"name": "",
							"type": "string"
						}
					],
					"stateMutability": "view",
					"type": "function"
				},
				{
					"inputs": [],
					"name": "data",
					"outputs": [
						{
							"internalType": "bytes",
							"name": "",
							"type": "bytes"
						}
					],
					"stateMutability": "view",
					"type": "function"
				},
				{
					"stateMutability": "payable",
					"type": "receive"
				}
			],
			"devdoc": {
				"kind": "dev",
				"methods": {},
				"version": 1
			},
			"evm": {
				"assembly": "    /* \"contracts/fallBack.sol\":55:385  contract fallBackRecive {... */\n  mstore(0x40, 0x80)\n    /* \"contracts/fallBack.sol\":85:110  string public called = \"\" */\n  mload(0x40)\n  dup1\n  0x20\n  add\n  0x40\n  mstore\n  dup1\n  0x00\n  dup2\n  mstore\n  pop\n  0x00\n  swap1\n  dup2\n  tag_1\n  swap2\n  swap1\n  tag_2\n  jump\t// in\ntag_1:\n  pop\n    /* \"contracts/fallBack.sol\":140:141  0 */\n  0x00\n    /* \"contracts/fallBack.sol\":116:141  uint256 public amount = 0 */\n  0x01\n  sstore\n    /* \"contracts/fallBack.sol\":55:385  contract fallBackRecive {... */\n  callvalue\n  dup1\n  iszero\n  tag_3\n  jumpi\n  0x00\n  dup1\n  revert\ntag_3:\n  pop\n  jump(tag_4)\n    /* \"#utility.yul\":7:106   */\ntag_5:\n    /* \"#utility.yul\":59:65   */\n  0x00\n    /* \"#utility.yul\":93:98   */\n  dup2\n    /* \"#utility.yul\":87:99   */\n  mload\n    /* \"#utility.yul\":77:99   */\n  swap1\n  pop\n    /* \"#utility.yul\":7:106   */\n  swap2\n  swap1\n  pop\n  jump\t// out\n    /* \"#utility.yul\":112:292   */\ntag_6:\n    /* \"#utility.yul\":160:237   */\n  0x4e487b7100000000000000000000000000000000000000000000000000000000\n    /* \"#utility.yul\":157:158   */\n  0x00\n    /* \"#utility.yul\":150:238   */\n  mstore\n    /* \"#utility.yul\":257:261   */\n  0x41\n    /* \"#utility.yul\":254:255   */\n  0x04\n    /* \"#utility.yul\":247:262   */\n  mstore\n    /* \"#utility.yul\":281:285   */\n  0x24\n    /* \"#utility.yul\":278:279   */\n  0x00\n    /* \"#utility.yul\":271:286   */\n  revert\n    /* \"#utility.yul\":298:478   */\ntag_7:\n    /* \"#utility.yul\":346:423   */\n  0x4e487b7100000000000000000000000000000000000000000000000000000000\n    /* \"#utility.yul\":343:344   */\n  0x00\n    /* \"#utility.yul\":336:424   */\n  mstore\n    /* \"#utility.yul\":443:447   */\n  0x22\n    /* \"#utility.yul\":440:441   */\n  0x04\n    /* \"#utility.yul\":433:448   */\n  mstore\n    /* \"#utility.yul\":467:471   */\n  0x24\n    /* \"#utility.yul\":464:465   */\n  0x00\n    /* \"#utility.yul\":457:472   */\n  revert\n    /* \"#utility.yul\":484:804   */\ntag_8:\n    /* \"#utility.yul\":528:534   */\n  0x00\n    /* \"#utility.yul\":565:566   */\n  0x02\n    /* \"#utility.yul\":559:563   */\n  dup3\n    /* \"#utility.yul\":555:567   */\n  div\n    /* \"#utility.yul\":545:567   */\n  swap1\n  pop\n    /* \"#utility.yul\":612:613   */\n  0x01\n    /* \"#utility.yul\":606:610   */\n  dup3\n    /* \"#utility.yul\":602:614   */\n  and\n    /* \"#utility.yul\":633:651   */\n  dup1\n    /* \"#utility.yul\":623:704   */\n  tag_30\n  jumpi\n    /* \"#utility.yul\":689:693   */\n  0x7f\n    /* \"#utility.yul\":681:687   */\n  dup3\n    /* \"#utility.yul\":677:694   */\n  and\n    /* \"#utility.yul\":667:694   */\n  swap2\n  pop\n    /* \"#utility.yul\":623:704   */\ntag_30:\n    /* \"#utility.yul\":751:753   */\n  0x20\n    /* \"#utility.yul\":743:749   */\n  dup3\n    /* \"#utility.yul\":740:754   */\n  lt\n    /* \"#utility.yul\":720:738   */\n  dup2\n    /* \"#utility.yul\":717:755   */\n  sub\n    /* \"#utility.yul\":714:798   */\n  tag_31\n  jumpi\n    /* \"#utility.yul\":770:788   */\n  tag_32\n  tag_7\n  jump\t// in\ntag_32:\n    /* \"#utility.yul\":714:798   */\ntag_31:\n    /* \"#utility.yul\":535:804   */\n  pop\n    /* \"#utility.yul\":484:804   */\n  swap2\n  swap1\n  pop\n  jump\t// out\n    /* \"#utility.yul\":810:951   */\ntag_9:\n    /* \"#utility.yul\":859:863   */\n  0x00\n    /* \"#utility.yul\":882:885   */\n  dup2\n    /* \"#utility.yul\":874:885   */\n  swap1\n  pop\n    /* \"#utility.yul\":905:908   */\n  dup2\n    /* \"#utility.yul\":902:903   */\n  0x00\n    /* \"#utility.yul\":895:909   */\n  mstore\n    /* \"#utility.yul\":939:943   */\n  0x20\n    /* \"#utility.yul\":936:937   */\n  0x00\n    /* \"#utility.yul\":926:944   */\n  keccak256\n    /* \"#utility.yul\":918:944   */\n  swap1\n  pop\n    /* \"#utility.yul\":810:951   */\n  swap2\n  swap1\n  pop\n  jump\t// out\n    /* \"#utility.yul\":957:1050   */\ntag_10:\n    /* \"#utility.yul\":994:1000   */\n  0x00\n    /* \"#utility.yul\":1041:1043   */\n  0x20\n    /* \"#utility.yul\":1036:1038   */\n  0x1f\n    /* \"#utility.yul\":1029:1034   */\n  dup4\n    /* \"#utility.yul\":1025:1039   */\n  add\n    /* \"#utility.yul\":1021:1044   */\n  div\n    /* \"#utility.yul\":1011:1044   */\n  swap1\n  pop\n    /* \"#utility.yul\":957:1050   */\n  swap2\n  swap1\n  pop\n  jump\t// out\n    /* \"#utility.yul\":1056:1163   */\ntag_11:\n    /* \"#utility.yul\":1100:1108   */\n  0x00\n    /* \"#utility.yul\":1150:1155   */\n  dup3\n    /* \"#utility.yul\":1144:1148   */\n  dup3\n    /* \"#utility.yul\":1140:1156   */\n  shl\n    /* \"#utility.yul\":1119:1156   */\n  swap1\n  pop\n    /* \"#utility.yul\":1056:1163   */\n  swap3\n  swap2\n  pop\n  pop\n  jump\t// out\n    /* \"#utility.yul\":1169:1562   */\ntag_12:\n    /* \"#utility.yul\":1238:1244   */\n  0x00\n    /* \"#utility.yul\":1288:1289   */\n  0x08\n    /* \"#utility.yul\":1276:1286   */\n  dup4\n    /* \"#utility.yul\":1272:1290   */\n  mul\n    /* \"#utility.yul\":1311:1408   */\n  tag_37\n    /* \"#utility.yul\":1341:1407   */\n  0xffffffffffffffffffffffffffffffffffffffffffffffffffffffffffffffff\n    /* \"#utility.yul\":1330:1339   */\n  dup3\n    /* \"#utility.yul\":1311:1408   */\n  tag_11\n  jump\t// in\ntag_37:\n    /* \"#utility.yul\":1429:1468   */\n  tag_38\n    /* \"#utility.yul\":1459:1467   */\n  dup7\n    /* \"#utility.yul\":1448:1457   */\n  dup4\n    /* \"#utility.yul\":1429:1468   */\n  tag_11\n  jump\t// in\ntag_38:\n    /* \"#utility.yul\":1417:1468   */\n  swap6\n  pop\n    /* \"#utility.yul\":1501:1505   */\n  dup1\n    /* \"#utility.yul\":1497:1506   */\n  not\n    /* \"#utility.yul\":1490:1495   */\n  dup5\n    /* \"#utility.yul\":1486:1507   */\n  and\n    /* \"#utility.yul\":1477:1507   */\n  swap4\n  pop\n    /* \"#utility.yul\":1550:1554   */\n  dup1\n    /* \"#utility.yul\":1540:1548   */\n  dup7\n    /* \"#utility.yul\":1536:1555   */\n  and\n    /* \"#utility.yul\":1529:1534   */\n  dup5\n    /* \"#utility.yul\":1526:1556   */\n  or\n    /* \"#utility.yul\":1516:1556   */\n  swap3\n  pop\n    /* \"#utility.yul\":1245:1562   */\n  pop\n  pop\n    /* \"#utility.yul\":1169:1562   */\n  swap4\n  swap3\n  pop\n  pop\n  pop\n  jump\t// out\n    /* \"#utility.yul\":1568:1645   */\ntag_13:\n    /* \"#utility.yul\":1605:1612   */\n  0x00\n    /* \"#utility.yul\":1634:1639   */\n  dup2\n    /* \"#utility.yul\":1623:1639   */\n  swap1\n  pop\n    /* \"#utility.yul\":1568:1645   */\n  swap2\n  swap1\n  pop\n  jump\t// out\n    /* \"#utility.yul\":1651:1711   */\ntag_14:\n    /* \"#utility.yul\":1679:1682   */\n  0x00\n    /* \"#utility.yul\":1700:1705   */\n  dup2\n    /* \"#utility.yul\":1693:1705   */\n  swap1\n  pop\n    /* \"#utility.yul\":1651:1711   */\n  swap2\n  swap1\n  pop\n  jump\t// out\n    /* \"#utility.yul\":1717:1859   */\ntag_15:\n    /* \"#utility.yul\":1767:1776   */\n  0x00\n    /* \"#utility.yul\":1800:1853   */\n  tag_42\n    /* \"#utility.yul\":1818:1852   */\n  tag_43\n    /* \"#utility.yul\":1827:1851   */\n  tag_44\n    /* \"#utility.yul\":1845:1850   */\n  dup5\n    /* \"#utility.yul\":1827:1851   */\n  tag_13\n  jump\t// in\ntag_44:\n    /* \"#utility.yul\":1818:1852   */\n  tag_14\n  jump\t// in\ntag_43:\n    /* \"#utility.yul\":1800:1853   */\n  tag_13\n  jump\t// in\ntag_42:\n    /* \"#utility.yul\":1787:1853   */\n  swap1\n  pop\n    /* \"#utility.yul\":1717:1859   */\n  swap2\n  swap1\n  pop\n  jump\t// out\n    /* \"#utility.yul\":1865:1940   */\ntag_16:\n    /* \"#utility.yul\":1908:1911   */\n  0x00\n    /* \"#utility.yul\":1929:1934   */\n  dup2\n    /* \"#utility.yul\":1922:1934   */\n  swap1\n  pop\n    /* \"#utility.yul\":1865:1940   */\n  swap2\n  swap1\n  pop\n  jump\t// out\n    /* \"#utility.yul\":1946:2215   */\ntag_17:\n    /* \"#utility.yul\":2056:2095   */\n  tag_47\n    /* \"#utility.yul\":2087:2094   */\n  dup4\n    /* \"#utility.yul\":2056:2095   */\n  tag_15\n  jump\t// in\ntag_47:\n    /* \"#utility.yul\":2117:2208   */\n  tag_48\n    /* \"#utility.yul\":2166:2207   */\n  tag_49\n    /* \"#utility.yul\":2190:2206   */\n  dup3\n    /* \"#utility.yul\":2166:2207   */\n  tag_16\n  jump\t// in\ntag_49:\n    /* \"#utility.yul\":2158:2164   */\n  dup5\n    /* \"#utility.yul\":2151:2155   */\n  dup5\n    /* \"#utility.yul\":2145:2156   */\n  sload\n    /* \"#utility.yul\":2117:2208   */\n  tag_12\n  jump\t// in\ntag_48:\n    /* \"#utility.yul\":2111:2115   */\n  dup3\n    /* \"#utility.yul\":2104:2209   */\n  sstore\n    /* \"#utility.yul\":2022:2215   */\n  pop\n    /* \"#utility.yul\":1946:2215   */\n  pop\n  pop\n  pop\n  jump\t// out\n    /* \"#utility.yul\":2221:2294   */\ntag_18:\n    /* \"#utility.yul\":2266:2269   */\n  0x00\n    /* \"#utility.yul\":2221:2294   */\n  swap1\n  jump\t// out\n    /* \"#utility.yul\":2300:2489   */\ntag_19:\n    /* \"#utility.yul\":2377:2409   */\n  tag_52\n  tag_18\n  jump\t// in\ntag_52:\n    /* \"#utility.yul\":2418:2483   */\n  tag_53\n    /* \"#utility.yul\":2476:2482   */\n  dup2\n    /* \"#utility.yul\":2468:2474   */\n  dup5\n    /* \"#utility.yul\":2462:2466   */\n  dup5\n    /* \"#utility.yul\":2418:2483   */\n  tag_17\n  jump\t// in\ntag_53:\n    /* \"#utility.yul\":2353:2489   */\n  pop\n    /* \"#utility.yul\":2300:2489   */\n  pop\n  pop\n  jump\t// out\n    /* \"#utility.yul\":2495:2681   */\ntag_20:\n    /* \"#utility.yul\":2555:2675   */\ntag_55:\n    /* \"#utility.yul\":2572:2575   */\n  dup2\n    /* \"#utility.yul\":2565:2570   */\n  dup2\n    /* \"#utility.yul\":2562:2576   */\n  lt\n    /* \"#utility.yul\":2555:2675   */\n  iszero\n  tag_57\n  jumpi\n    /* \"#utility.yul\":2626:2665   */\n  tag_58\n    /* \"#utility.yul\":2663:2664   */\n  0x00\n    /* \"#utility.yul\":2656:2661   */\n  dup3\n    /* \"#utility.yul\":2626:2665   */\n  tag_19\n  jump\t// in\ntag_58:\n    /* \"#utility.yul\":2599:2600   */\n  0x01\n    /* \"#utility.yul\":2592:2597   */\n  dup2\n    /* \"#utility.yul\":2588:2601   */\n  add\n    /* \"#utility.yul\":2579:2601   */\n  swap1\n  pop\n    /* \"#utility.yul\":2555:2675   */\n  jump(tag_55)\ntag_57:\n    /* \"#utility.yul\":2495:2681   */\n  pop\n  pop\n  jump\t// out\n    /* \"#utility.yul\":2687:3230   */\ntag_21:\n    /* \"#utility.yul\":2788:2790   */\n  0x1f\n    /* \"#utility.yul\":2783:2786   */\n  dup3\n    /* \"#utility.yul\":2780:2791   */\n  gt\n    /* \"#utility.yul\":2777:3223   */\n  iszero\n  tag_60\n  jumpi\n    /* \"#utility.yul\":2822:2860   */\n  tag_61\n    /* \"#utility.yul\":2854:2859   */\n  dup2\n    /* \"#utility.yul\":2822:2860   */\n  tag_9\n  jump\t// in\ntag_61:\n    /* \"#utility.yul\":2906:2935   */\n  tag_62\n    /* \"#utility.yul\":2924:2934   */\n  dup5\n    /* \"#utility.yul\":2906:2935   */\n  tag_10\n  jump\t// in\ntag_62:\n    /* \"#utility.yul\":2896:2904   */\n  dup2\n    /* \"#utility.yul\":2892:2936   */\n  add\n    /* \"#utility.yul\":3089:3091   */\n  0x20\n    /* \"#utility.yul\":3077:3087   */\n  dup6\n    /* \"#utility.yul\":3074:3092   */\n  lt\n    /* \"#utility.yul\":3071:3120   */\n  iszero\n  tag_63\n  jumpi\n    /* \"#utility.yul\":3110:3118   */\n  dup2\n    /* \"#utility.yul\":3095:3118   */\n  swap1\n  pop\n    /* \"#utility.yul\":3071:3120   */\ntag_63:\n    /* \"#utility.yul\":3133:3213   */\n  tag_64\n    /* \"#utility.yul\":3189:3211   */\n  tag_65\n    /* \"#utility.yul\":3207:3210   */\n  dup6\n    /* \"#utility.yul\":3189:3211   */\n  tag_10\n  jump\t// in\ntag_65:\n    /* \"#utility.yul\":3179:3187   */\n  dup4\n    /* \"#utility.yul\":3175:3212   */\n  add\n    /* \"#utility.yul\":3162:3173   */\n  dup3\n    /* \"#utility.yul\":3133:3213   */\n  tag_20\n  jump\t// in\ntag_64:\n    /* \"#utility.yul\":2792:3223   */\n  pop\n  pop\n    /* \"#utility.yul\":2777:3223   */\ntag_60:\n    /* \"#utility.yul\":2687:3230   */\n  pop\n  pop\n  pop\n  jump\t// out\n    /* \"#utility.yul\":3236:3353   */\ntag_22:\n    /* \"#utility.yul\":3290:3298   */\n  0x00\n    /* \"#utility.yul\":3340:3345   */\n  dup3\n    /* \"#utility.yul\":3334:3338   */\n  dup3\n    /* \"#utility.yul\":3330:3346   */\n  shr\n    /* \"#utility.yul\":3309:3346   */\n  swap1\n  pop\n    /* \"#utility.yul\":3236:3353   */\n  swap3\n  swap2\n  pop\n  pop\n  jump\t// out\n    /* \"#utility.yul\":3359:3528   */\ntag_23:\n    /* \"#utility.yul\":3403:3409   */\n  0x00\n    /* \"#utility.yul\":3436:3487   */\n  tag_68\n    /* \"#utility.yul\":3484:3485   */\n  0x00\n    /* \"#utility.yul\":3480:3486   */\n  not\n    /* \"#utility.yul\":3472:3477   */\n  dup5\n    /* \"#utility.yul\":3469:3470   */\n  0x08\n    /* \"#utility.yul\":3465:3478   */\n  mul\n    /* \"#utility.yul\":3436:3487   */\n  tag_22\n  jump\t// in\ntag_68:\n    /* \"#utility.yul\":3432:3488   */\n  not\n    /* \"#utility.yul\":3517:3521   */\n  dup1\n    /* \"#utility.yul\":3511:3515   */\n  dup4\n    /* \"#utility.yul\":3507:3522   */\n  and\n    /* \"#utility.yul\":3497:3522   */\n  swap2\n  pop\n    /* \"#utility.yul\":3410:3528   */\n  pop\n    /* \"#utility.yul\":3359:3528   */\n  swap3\n  swap2\n  pop\n  pop\n  jump\t// out\n    /* \"#utility.yul\":3533:3828   */\ntag_24:\n    /* \"#utility.yul\":3609:3613   */\n  0x00\n    /* \"#utility.yul\":3755:3784   */\n  tag_70\n    /* \"#utility.yul\":3780:3783   */\n  dup4\n    /* \"#utility.yul\":3774:3778   */\n  dup4\n    /* \"#utility.yul\":3755:3784   */\n  tag_23\n  jump\t// in\ntag_70:\n    /* \"#utility.yul\":3747:3784   */\n  swap2\n  pop\n    /* \"#utility.yul\":3817:3820   */\n  dup3\n    /* \"#utility.yul\":3814:3815   */\n  0x02\n    /* \"#utility.yul\":3810:3821   */\n  mul\n    /* \"#utility.yul\":3804:3808   */\n  dup3\n    /* \"#utility.yul\":3801:3822   */\n  or\n    /* \"#utility.yul\":3793:3822   */\n  swap1\n  pop\n    /* \"#utility.yul\":3533:3828   */\n  swap3\n  swap2\n  pop\n  pop\n  jump\t// out\n    /* \"#utility.yul\":3833:5228   */\ntag_2:\n    /* \"#utility.yul\":3950:3987   */\n  tag_72\n    /* \"#utility.yul\":3983:3986   */\n  dup3\n    /* \"#utility.yul\":3950:3987   */\n  tag_5\n  jump\t// in\ntag_72:\n    /* \"#utility.yul\":4052:4070   */\n  0xffffffffffffffff\n    /* \"#utility.yul\":4044:4050   */\n  dup2\n    /* \"#utility.yul\":4041:4071   */\n  gt\n    /* \"#utility.yul\":4038:4094   */\n  iszero\n  tag_73\n  jumpi\n    /* \"#utility.yul\":4074:4092   */\n  tag_74\n  tag_6\n  jump\t// in\ntag_74:\n    /* \"#utility.yul\":4038:4094   */\ntag_73:\n    /* \"#utility.yul\":4118:4156   */\n  tag_75\n    /* \"#utility.yul\":4150:4154   */\n  dup3\n    /* \"#utility.yul\":4144:4155   */\n  sload\n    /* \"#utility.yul\":4118:4156   */\n  tag_8\n  jump\t// in\ntag_75:\n    /* \"#utility.yul\":4203:4270   */\n  tag_76\n    /* \"#utility.yul\":4263:4269   */\n  dup3\n    /* \"#utility.yul\":4255:4261   */\n  dup3\n    /* \"#utility.yul\":4249:4253   */\n  dup6\n    /* \"#utility.yul\":4203:4270   */\n  tag_21\n  jump\t// in\ntag_76:\n    /* \"#utility.yul\":4297:4298   */\n  0x00\n    /* \"#utility.yul\":4321:4325   */\n  0x20\n    /* \"#utility.yul\":4308:4325   */\n  swap1\n  pop\n    /* \"#utility.yul\":4353:4355   */\n  0x1f\n    /* \"#utility.yul\":4345:4351   */\n  dup4\n    /* \"#utility.yul\":4342:4356   */\n  gt\n    /* \"#utility.yul\":4370:4371   */\n  0x01\n    /* \"#utility.yul\":4365:4983   */\n  dup2\n  eq\n  tag_78\n  jumpi\n    /* \"#utility.yul\":5027:5028   */\n  0x00\n    /* \"#utility.yul\":5044:5050   */\n  dup5\n    /* \"#utility.yul\":5041:5118   */\n  iszero\n  tag_79\n  jumpi\n    /* \"#utility.yul\":5093:5102   */\n  dup3\n    /* \"#utility.yul\":5088:5091   */\n  dup8\n    /* \"#utility.yul\":5084:5103   */\n  add\n    /* \"#utility.yul\":5078:5104   */\n  mload\n    /* \"#utility.yul\":5069:5104   */\n  swap1\n  pop\n    /* \"#utility.yul\":5041:5118   */\ntag_79:\n    /* \"#utility.yul\":5144:5211   */\n  tag_80\n    /* \"#utility.yul\":5204:5210   */\n  dup6\n    /* \"#utility.yul\":5197:5202   */\n  dup3\n    /* \"#utility.yul\":5144:5211   */\n  tag_24\n  jump\t// in\ntag_80:\n    /* \"#utility.yul\":5138:5142   */\n  dup7\n    /* \"#utility.yul\":5131:5212   */\n  sstore\n    /* \"#utility.yul\":5000:5222   */\n  pop\n    /* \"#utility.yul\":4335:5222   */\n  jump(tag_77)\n    /* \"#utility.yul\":4365:4983   */\ntag_78:\n    /* \"#utility.yul\":4417:4421   */\n  0x1f\n    /* \"#utility.yul\":4413:4422   */\n  not\n    /* \"#utility.yul\":4405:4411   */\n  dup5\n    /* \"#utility.yul\":4401:4423   */\n  and\n    /* \"#utility.yul\":4451:4488   */\n  tag_81\n    /* \"#utility.yul\":4483:4487   */\n  dup7\n    /* \"#utility.yul\":4451:4488   */\n  tag_9\n  jump\t// in\ntag_81:\n    /* \"#utility.yul\":4510:4511   */\n  0x00\n    /* \"#utility.yul\":4524:4732   */\ntag_82:\n    /* \"#utility.yul\":4538:4545   */\n  dup3\n    /* \"#utility.yul\":4535:4536   */\n  dup2\n    /* \"#utility.yul\":4532:4546   */\n  lt\n    /* \"#utility.yul\":4524:4732   */\n  iszero\n  tag_84\n  jumpi\n    /* \"#utility.yul\":4617:4626   */\n  dup5\n    /* \"#utility.yul\":4612:4615   */\n  dup10\n    /* \"#utility.yul\":4608:4627   */\n  add\n    /* \"#utility.yul\":4602:4628   */\n  mload\n    /* \"#utility.yul\":4594:4600   */\n  dup3\n    /* \"#utility.yul\":4587:4629   */\n  sstore\n    /* \"#utility.yul\":4668:4669   */\n  0x01\n    /* \"#utility.yul\":4660:4666   */\n  dup3\n    /* \"#utility.yul\":4656:4670   */\n  add\n    /* \"#utility.yul\":4646:4670   */\n  swap2\n  pop\n    /* \"#utility.yul\":4715:4717   */\n  0x20\n    /* \"#utility.yul\":4704:4713   */\n  dup6\n    /* \"#utility.yul\":4700:4718   */\n  add\n    /* \"#utility.yul\":4687:4718   */\n  swap5\n  pop\n    /* \"#utility.yul\":4561:4565   */\n  0x20\n    /* \"#utility.yul\":4558:4559   */\n  dup2\n    /* \"#utility.yul\":4554:4566   */\n  add\n    /* \"#utility.yul\":4549:4566   */\n  swap1\n  pop\n    /* \"#utility.yul\":4524:4732   */\n  jump(tag_82)\ntag_84:\n    /* \"#utility.yul\":4760:4766   */\n  dup7\n    /* \"#utility.yul\":4751:4758   */\n  dup4\n    /* \"#utility.yul\":4748:4767   */\n  lt\n    /* \"#utility.yul\":4745:4924   */\n  iszero\n  tag_85\n  jumpi\n    /* \"#utility.yul\":4818:4827   */\n  dup5\n    /* \"#utility.yul\":4813:4816   */\n  dup10\n    /* \"#utility.yul\":4809:4828   */\n  add\n    /* \"#utility.yul\":4803:4829   */\n  mload\n    /* \"#utility.yul\":4861:4909   */\n  tag_86\n    /* \"#utility.yul\":4903:4907   */\n  0x1f\n    /* \"#utility.yul\":4895:4901   */\n  dup10\n    /* \"#utility.yul\":4891:4908   */\n  and\n    /* \"#utility.yul\":4880:4889   */\n  dup3\n    /* \"#utility.yul\":4861:4909   */\n  tag_23\n  jump\t// in\ntag_86:\n    /* \"#utility.yul\":4853:4859   */\n  dup4\n    /* \"#utility.yul\":4846:4910   */\n  sstore\n    /* \"#utility.yul\":4768:4924   */\n  pop\n    /* \"#utility.yul\":4745:4924   */\ntag_85:\n    /* \"#utility.yul\":4970:4971   */\n  0x01\n    /* \"#utility.yul\":4966:4967   */\n  0x02\n    /* \"#utility.yul\":4958:4964   */\n  dup9\n    /* \"#utility.yul\":4954:4968   */\n  mul\n    /* \"#utility.yul\":4950:4972   */\n  add\n    /* \"#utility.yul\":4944:4948   */\n  dup9\n    /* \"#utility.yul\":4937:4973   */\n  sstore\n    /* \"#utility.yul\":4372:4983   */\n  pop\n  pop\n  pop\n    /* \"#utility.yul\":4335:5222   */\ntag_77:\n  pop\n    /* \"#utility.yul\":3925:5228   */\n  pop\n  pop\n  pop\n    /* \"#utility.yul\":3833:5228   */\n  pop\n  pop\n  jump\t// out\n    /* \"contracts/fallBack.sol\":55:385  contract fallBackRecive {... */\ntag_4:\n  dataSize(sub_0)\n  dup1\n  dataOffset(sub_0)\n  0x00\n  codecopy\n  0x00\n  return\nstop\n\nsub_0: assembly {\n        /* \"contracts/fallBack.sol\":55:385  contract fallBackRecive {... */\n      mstore(0x40, 0x80)\n      jumpi(tag_1, lt(calldatasize, 0x04))\n      shr(0xe0, calldataload(0x00))\n      dup1\n      0x50f9b6cd\n      eq\n      tag_3\n      jumpi\n      dup1\n      0x73d4a13a\n      eq\n      tag_4\n      jumpi\n      dup1\n      0xaa8c217c\n      eq\n      tag_5\n      jumpi\n      jump(tag_2)\n    tag_1:\n      jumpi(tag_2, calldatasize)\n        /* \"contracts/fallBack.sol\":208:225  called = \"recive\" */\n      mload(0x40)\n      dup1\n      0x40\n      add\n      0x40\n      mstore\n      dup1\n      0x06\n      dup2\n      mstore\n      0x20\n      add\n      0x7265636976650000000000000000000000000000000000000000000000000000\n      dup2\n      mstore\n      pop\n        /* \"contracts/fallBack.sol\":208:214  called */\n      0x00\n        /* \"contracts/fallBack.sol\":208:225  called = \"recive\" */\n      swap1\n      dup2\n      tag_8\n      swap2\n      swap1\n      tag_9\n      jump\t// in\n    tag_8:\n      pop\n        /* \"contracts/fallBack.sol\":244:253  msg.value */\n      callvalue\n        /* \"contracts/fallBack.sol\":235:241  amount */\n      0x01\n        /* \"contracts/fallBack.sol\":235:253  amount = msg.value */\n      dup2\n      swap1\n      sstore\n      stop\n        /* \"contracts/fallBack.sol\":55:385  contract fallBackRecive {... */\n    tag_2:\n        /* \"contracts/fallBack.sol\":304:323  called = \"fallback\" */\n      mload(0x40)\n      dup1\n      0x40\n      add\n      0x40\n      mstore\n      dup1\n      0x08\n      dup2\n      mstore\n      0x20\n      add\n      0x66616c6c6261636b000000000000000000000000000000000000000000000000\n      dup2\n      mstore\n      pop\n        /* \"contracts/fallBack.sol\":304:310  called */\n      0x00\n        /* \"contracts/fallBack.sol\":304:323  called = \"fallback\" */\n      swap1\n      dup2\n      tag_12\n      swap2\n      swap1\n      tag_9\n      jump\t// in\n    tag_12:\n      pop\n        /* \"contracts/fallBack.sol\":342:351  msg.value */\n      callvalue\n        /* \"contracts/fallBack.sol\":333:339  amount */\n      0x01\n        /* \"contracts/fallBack.sol\":333:351  amount = msg.value */\n      dup2\n      swap1\n      sstore\n      pop\n        /* \"contracts/fallBack.sol\":368:376  msg.data */\n      0x00\n      calldatasize\n        /* \"contracts/fallBack.sol\":361:365  data */\n      0x02\n        /* \"contracts/fallBack.sol\":361:376  data = msg.data */\n      swap2\n      dup3\n      tag_13\n      swap3\n      swap2\n      swap1\n      tag_14\n      jump\t// in\n    tag_13:\n      stop\n        /* \"contracts/fallBack.sol\":85:110  string public called = \"\" */\n    tag_3:\n      callvalue\n      dup1\n      iszero\n      tag_15\n      jumpi\n      0x00\n      dup1\n      revert\n    tag_15:\n      pop\n      tag_16\n      tag_17\n      jump\t// in\n    tag_16:\n      mload(0x40)\n      tag_18\n      swap2\n      swap1\n      tag_19\n      jump\t// in\n    tag_18:\n      mload(0x40)\n      dup1\n      swap2\n      sub\n      swap1\n      return\n        /* \"contracts/fallBack.sol\":147:164  bytes public data */\n    tag_4:\n      callvalue\n      dup1\n      iszero\n      tag_20\n      jumpi\n      0x00\n      dup1\n      revert\n    tag_20:\n      pop\n      tag_21\n      tag_22\n      jump\t// in\n    tag_21:\n      mload(0x40)\n      tag_23\n      swap2\n      swap1\n      tag_24\n      jump\t// in\n    tag_23:\n      mload(0x40)\n      dup1\n      swap2\n      sub\n      swap1\n      return\n        /* \"contracts/fallBack.sol\":116:141  uint256 public amount = 0 */\n    tag_5:\n      callvalue\n      dup1\n      iszero\n      tag_25\n      jumpi\n      0x00\n      dup1\n      revert\n    tag_25:\n      pop\n      tag_26\n      tag_27\n      jump\t// in\n    tag_26:\n      mload(0x40)\n      tag_28\n      swap2\n      swap1\n      tag_29\n      jump\t// in\n    tag_28:\n      mload(0x40)\n      dup1\n      swap2\n      sub\n      swap1\n      return\n        /* \"contracts/fallBack.sol\":85:110  string public called = \"\" */\n    tag_17:\n      0x00\n      dup1\n      sload\n      tag_30\n      swap1\n      tag_31\n      jump\t// in\n    tag_30:\n      dup1\n      0x1f\n      add\n      0x20\n      dup1\n      swap2\n      div\n      mul\n      0x20\n      add\n      mload(0x40)\n      swap1\n      dup2\n      add\n      0x40\n      mstore\n      dup1\n      swap3\n      swap2\n      swap1\n      dup2\n      dup2\n      mstore\n      0x20\n      add\n      dup3\n      dup1\n      sload\n      tag_32\n      swap1\n      tag_31\n      jump\t// in\n    tag_32:\n      dup1\n      iszero\n      tag_33\n      jumpi\n      dup1\n      0x1f\n      lt\n      tag_34\n      jumpi\n      0x0100\n      dup1\n      dup4\n      sload\n      div\n      mul\n      dup4\n      mstore\n      swap2\n      0x20\n      add\n      swap2\n      jump(tag_33)\n    tag_34:\n      dup3\n      add\n      swap2\n      swap1\n      0x00\n      mstore\n      keccak256(0x00, 0x20)\n      swap1\n    tag_35:\n      dup2\n      sload\n      dup2\n      mstore\n      swap1\n      0x01\n      add\n      swap1\n      0x20\n      add\n      dup1\n      dup4\n      gt\n      tag_35\n      jumpi\n      dup3\n      swap1\n      sub\n      0x1f\n      and\n      dup3\n      add\n      swap2\n    tag_33:\n      pop\n      pop\n      pop\n      pop\n      pop\n      dup2\n      jump\t// out\n        /* \"contracts/fallBack.sol\":147:164  bytes public data */\n    tag_22:\n      0x02\n      dup1\n      sload\n      tag_36\n      swap1\n      tag_31\n      jump\t// in\n    tag_36:\n      dup1\n      0x1f\n      add\n      0x20\n      dup1\n      swap2\n      div\n      mul\n      0x20\n      add\n      mload(0x40)\n      swap1\n      dup2\n      add\n      0x40\n      mstore\n      dup1\n      swap3\n      swap2\n      swap1\n      dup2\n      dup2\n      mstore\n      0x20\n      add\n      dup3\n      dup1\n      sload\n      tag_37\n      swap1\n      tag_31\n      jump\t// in\n    tag_37:\n      dup1\n      iszero\n      tag_38\n      jumpi\n      dup1\n      0x1f\n      lt\n      tag_39\n      jumpi\n      0x0100\n      dup1\n      dup4\n      sload\n      div\n      mul\n      dup4\n      mstore\n      swap2\n      0x20\n      add\n      swap2\n      jump(tag_38)\n    tag_39:\n      dup3\n      add\n      swap2\n      swap1\n      0x00\n      mstore\n      keccak256(0x00, 0x20)\n      swap1\n    tag_40:\n      dup2\n      sload\n      dup2\n      mstore\n      swap1\n      0x01\n      add\n      swap1\n      0x20\n      add\n      dup1\n      dup4\n      gt\n      tag_40\n      jumpi\n      dup3\n      swap1\n      sub\n      0x1f\n      and\n      dup3\n      add\n      swap2\n    tag_38:\n      pop\n      pop\n      pop\n      pop\n      pop\n      dup2\n      jump\t// out\n        /* \"contracts/fallBack.sol\":116:141  uint256 public amount = 0 */\n    tag_27:\n      sload(0x01)\n      dup2\n      jump\t// out\n        /* \"#utility.yul\":7:106   */\n    tag_41:\n        /* \"#utility.yul\":59:65   */\n      0x00\n        /* \"#utility.yul\":93:98   */\n      dup2\n        /* \"#utility.yul\":87:99   */\n      mload\n        /* \"#utility.yul\":77:99   */\n      swap1\n      pop\n        /* \"#utility.yul\":7:106   */\n      swap2\n      swap1\n      pop\n      jump\t// out\n        /* \"#utility.yul\":112:292   */\n    tag_42:\n        /* \"#utility.yul\":160:237   */\n      0x4e487b7100000000000000000000000000000000000000000000000000000000\n        /* \"#utility.yul\":157:158   */\n      0x00\n        /* \"#utility.yul\":150:238   */\n      mstore\n        /* \"#utility.yul\":257:261   */\n      0x41\n        /* \"#utility.yul\":254:255   */\n      0x04\n        /* \"#utility.yul\":247:262   */\n      mstore\n        /* \"#utility.yul\":281:285   */\n      0x24\n        /* \"#utility.yul\":278:279   */\n      0x00\n        /* \"#utility.yul\":271:286   */\n      revert\n        /* \"#utility.yul\":298:478   */\n    tag_43:\n        /* \"#utility.yul\":346:423   */\n      0x4e487b7100000000000000000000000000000000000000000000000000000000\n        /* \"#utility.yul\":343:344   */\n      0x00\n        /* \"#utility.yul\":336:424   */\n      mstore\n        /* \"#utility.yul\":443:447   */\n      0x22\n        /* \"#utility.yul\":440:441   */\n      0x04\n        /* \"#utility.yul\":433:448   */\n      mstore\n        /* \"#utility.yul\":467:471   */\n      0x24\n        /* \"#utility.yul\":464:465   */\n      0x00\n        /* \"#utility.yul\":457:472   */\n      revert\n        /* \"#utility.yul\":484:804   */\n    tag_31:\n        /* \"#utility.yul\":528:534   */\n      0x00\n        /* \"#utility.yul\":565:566   */\n      0x02\n        /* \"#utility.yul\":559:563   */\n      dup3\n        /* \"#utility.yul\":555:567   */\n      div\n        /* \"#utility.yul\":545:567   */\n      swap1\n      pop\n        /* \"#utility.yul\":612:613   */\n      0x01\n        /* \"#utility.yul\":606:610   */\n      dup3\n        /* \"#utility.yul\":602:614   */\n      and\n        /* \"#utility.yul\":633:651   */\n      dup1\n        /* \"#utility.yul\":623:704   */\n      tag_76\n      jumpi\n        /* \"#utility.yul\":689:693   */\n      0x7f\n        /* \"#utility.yul\":681:687   */\n      dup3\n        /* \"#utility.yul\":677:694   */\n      and\n        /* \"#utility.yul\":667:694   */\n      swap2\n      pop\n        /* \"#utility.yul\":623:704   */\n    tag_76:\n        /* \"#utility.yul\":751:753   */\n      0x20\n        /* \"#utility.yul\":743:749   */\n      dup3\n        /* \"#utility.yul\":740:754   */\n      lt\n        /* \"#utility.yul\":720:738   */\n      dup2\n        /* \"#utility.yul\":717:755   */\n      sub\n        /* \"#utility.yul\":714:798   */\n      tag_77\n      jumpi\n        /* \"#utility.yul\":770:788   */\n      tag_78\n      tag_43\n      jump\t// in\n    tag_78:\n        /* \"#utility.yul\":714:798   */\n    tag_77:\n        /* \"#utility.yul\":535:804   */\n      pop\n        /* \"#utility.yul\":484:804   */\n      swap2\n      swap1\n      pop\n      jump\t// out\n        /* \"#utility.yul\":810:951   */\n    tag_44:\n        /* \"#utility.yul\":859:863   */\n      0x00\n        /* \"#utility.yul\":882:885   */\n      dup2\n        /* \"#utility.yul\":874:885   */\n      swap1\n      pop\n        /* \"#utility.yul\":905:908   */\n      dup2\n        /* \"#utility.yul\":902:903   */\n      0x00\n        /* \"#utility.yul\":895:909   */\n      mstore\n        /* \"#utility.yul\":939:943   */\n      0x20\n        /* \"#utility.yul\":936:937   */\n      0x00\n        /* \"#utility.yul\":926:944   */\n      keccak256\n        /* \"#utility.yul\":918:944   */\n      swap1\n      pop\n        /* \"#utility.yul\":810:951   */\n      swap2\n      swap1\n      pop\n      jump\t// out\n        /* \"#utility.yul\":957:1050   */\n    tag_45:\n        /* \"#utility.yul\":994:1000   */\n      0x00\n        /* \"#utility.yul\":1041:1043   */\n      0x20\n        /* \"#utility.yul\":1036:1038   */\n      0x1f\n        /* \"#utility.yul\":1029:1034   */\n      dup4\n        /* \"#utility.yul\":1025:1039   */\n      add\n        /* \"#utility.yul\":1021:1044   */\n      div\n        /* \"#utility.yul\":1011:1044   */\n      swap1\n      pop\n        /* \"#utility.yul\":957:1050   */\n      swap2\n      swap1\n      pop\n      jump\t// out\n        /* \"#utility.yul\":1056:1163   */\n    tag_46:\n        /* \"#utility.yul\":1100:1108   */\n      0x00\n        /* \"#utility.yul\":1150:1155   */\n      dup3\n        /* \"#utility.yul\":1144:1148   */\n      dup3\n        /* \"#utility.yul\":1140:1156   */\n      shl\n        /* \"#utility.yul\":1119:1156   */\n      swap1\n      pop\n        /* \"#utility.yul\":1056:1163   */\n      swap3\n      swap2\n      pop\n      pop\n      jump\t// out\n        /* \"#utility.yul\":1169:1562   */\n    tag_47:\n        /* \"#utility.yul\":1238:1244   */\n      0x00\n        /* \"#utility.yul\":1288:1289   */\n      0x08\n        /* \"#utility.yul\":1276:1286   */\n      dup4\n        /* \"#utility.yul\":1272:1290   */\n      mul\n        /* \"#utility.yul\":1311:1408   */\n      tag_83\n        /* \"#utility.yul\":1341:1407   */\n      0xffffffffffffffffffffffffffffffffffffffffffffffffffffffffffffffff\n        /* \"#utility.yul\":1330:1339   */\n      dup3\n        /* \"#utility.yul\":1311:1408   */\n      tag_46\n      jump\t// in\n    tag_83:\n        /* \"#utility.yul\":1429:1468   */\n      tag_84\n        /* \"#utility.yul\":1459:1467   */\n      dup7\n        /* \"#utility.yul\":1448:1457   */\n      dup4\n        /* \"#utility.yul\":1429:1468   */\n      tag_46\n      jump\t// in\n    tag_84:\n        /* \"#utility.yul\":1417:1468   */\n      swap6\n      pop\n        /* \"#utility.yul\":1501:1505   */\n      dup1\n        /* \"#utility.yul\":1497:1506   */\n      not\n        /* \"#utility.yul\":1490:1495   */\n      dup5\n        /* \"#utility.yul\":1486:1507   */\n      and\n        /* \"#utility.yul\":1477:1507   */\n      swap4\n      pop\n        /* \"#utility.yul\":1550:1554   */\n      dup1\n        /* \"#utility.yul\":1540:1548   */\n      dup7\n        /* \"#utility.yul\":1536:1555   */\n      and\n        /* \"#utility.yul\":1529:1534   */\n      dup5\n        /* \"#utility.yul\":1526:1556   */\n      or\n        /* \"#utility.yul\":1516:1556   */\n      swap3\n      pop\n        /* \"#utility.yul\":1245:1562   */\n      pop\n      pop\n        /* \"#utility.yul\":1169:1562   */\n      swap4\n      swap3\n      pop\n      pop\n      pop\n      jump\t// out\n        /* \"#utility.yul\":1568:1645   */\n    tag_48:\n        /* \"#utility.yul\":1605:1612   */\n      0x00\n        /* \"#utility.yul\":1634:1639   */\n      dup2\n        /* \"#utility.yul\":1623:1639   */\n      swap1\n      pop\n        /* \"#utility.yul\":1568:1645   */\n      swap2\n      swap1\n      pop\n      jump\t// out\n        /* \"#utility.yul\":1651:1711   */\n    tag_49:\n        /* \"#utility.yul\":1679:1682   */\n      0x00\n        /* \"#utility.yul\":1700:1705   */\n      dup2\n        /* \"#utility.yul\":1693:1705   */\n      swap1\n      pop\n        /* \"#utility.yul\":1651:1711   */\n      swap2\n      swap1\n      pop\n      jump\t// out\n        /* \"#utility.yul\":1717:1859   */\n    tag_50:\n        /* \"#utility.yul\":1767:1776   */\n      0x00\n        /* \"#utility.yul\":1800:1853   */\n      tag_88\n        /* \"#utility.yul\":1818:1852   */\n      tag_89\n        /* \"#utility.yul\":1827:1851   */\n      tag_90\n        /* \"#utility.yul\":1845:1850   */\n      dup5\n        /* \"#utility.yul\":1827:1851   */\n      tag_48\n      jump\t// in\n    tag_90:\n        /* \"#utility.yul\":1818:1852   */\n      tag_49\n      jump\t// in\n    tag_89:\n        /* \"#utility.yul\":1800:1853   */\n      tag_48\n      jump\t// in\n    tag_88:\n        /* \"#utility.yul\":1787:1853   */\n      swap1\n      pop\n        /* \"#utility.yul\":1717:1859   */\n      swap2\n      swap1\n      pop\n      jump\t// out\n        /* \"#utility.yul\":1865:1940   */\n    tag_51:\n        /* \"#utility.yul\":1908:1911   */\n      0x00\n        /* \"#utility.yul\":1929:1934   */\n      dup2\n        /* \"#utility.yul\":1922:1934   */\n      swap1\n      pop\n        /* \"#utility.yul\":1865:1940   */\n      swap2\n      swap1\n      pop\n      jump\t// out\n        /* \"#utility.yul\":1946:2215   */\n    tag_52:\n        /* \"#utility.yul\":2056:2095   */\n      tag_93\n        /* \"#utility.yul\":2087:2094   */\n      dup4\n        /* \"#utility.yul\":2056:2095   */\n      tag_50\n      jump\t// in\n    tag_93:\n        /* \"#utility.yul\":2117:2208   */\n      tag_94\n        /* \"#utility.yul\":2166:2207   */\n      tag_95\n        /* \"#utility.yul\":2190:2206   */\n      dup3\n        /* \"#utility.yul\":2166:2207   */\n      tag_51\n      jump\t// in\n    tag_95:\n        /* \"#utility.yul\":2158:2164   */\n      dup5\n        /* \"#utility.yul\":2151:2155   */\n      dup5\n        /* \"#utility.yul\":2145:2156   */\n      sload\n        /* \"#utility.yul\":2117:2208   */\n      tag_47\n      jump\t// in\n    tag_94:\n        /* \"#utility.yul\":2111:2115   */\n      dup3\n        /* \"#utility.yul\":2104:2209   */\n      sstore\n        /* \"#utility.yul\":2022:2215   */\n      pop\n        /* \"#utility.yul\":1946:2215   */\n      pop\n      pop\n      pop\n      jump\t// out\n        /* \"#utility.yul\":2221:2294   */\n    tag_53:\n        /* \"#utility.yul\":2266:2269   */\n      0x00\n        /* \"#utility.yul\":2221:2294   */\n      swap1\n      jump\t// out\n        /* \"#utility.yul\":2300:2489   */\n    tag_54:\n        /* \"#utility.yul\":2377:2409   */\n      tag_98\n      tag_53\n      jump\t// in\n    tag_98:\n        /* \"#utility.yul\":2418:2483   */\n      tag_99\n        /* \"#utility.yul\":2476:2482   */\n      dup2\n        /* \"#utility.yul\":2468:2474   */\n      dup5\n        /* \"#utility.yul\":2462:2466   */\n      dup5\n        /* \"#utility.yul\":2418:2483   */\n      tag_52\n      jump\t// in\n    tag_99:\n        /* \"#utility.yul\":2353:2489   */\n      pop\n        /* \"#utility.yul\":2300:2489   */\n      pop\n      pop\n      jump\t// out\n        /* \"#utility.yul\":2495:2681   */\n    tag_55:\n        /* \"#utility.yul\":2555:2675   */\n    tag_101:\n        /* \"#utility.yul\":2572:2575   */\n      dup2\n        /* \"#utility.yul\":2565:2570   */\n      dup2\n        /* \"#utility.yul\":2562:2576   */\n      lt\n        /* \"#utility.yul\":2555:2675   */\n      iszero\n      tag_103\n      jumpi\n        /* \"#utility.yul\":2626:2665   */\n      tag_104\n        /* \"#utility.yul\":2663:2664   */\n      0x00\n        /* \"#utility.yul\":2656:2661   */\n      dup3\n        /* \"#utility.yul\":2626:2665   */\n      tag_54\n      jump\t// in\n    tag_104:\n        /* \"#utility.yul\":2599:2600   */\n      0x01\n        /* \"#utility.yul\":2592:2597   */\n      dup2\n        /* \"#utility.yul\":2588:2601   */\n      add\n        /* \"#utility.yul\":2579:2601   */\n      swap1\n      pop\n        /* \"#utility.yul\":2555:2675   */\n      jump(tag_101)\n    tag_103:\n        /* \"#utility.yul\":2495:2681   */\n      pop\n      pop\n      jump\t// out\n        /* \"#utility.yul\":2687:3230   */\n    tag_56:\n        /* \"#utility.yul\":2788:2790   */\n      0x1f\n        /* \"#utility.yul\":2783:2786   */\n      dup3\n        /* \"#utility.yul\":2780:2791   */\n      gt\n        /* \"#utility.yul\":2777:3223   */\n      iszero\n      tag_106\n      jumpi\n        /* \"#utility.yul\":2822:2860   */\n      tag_107\n        /* \"#utility.yul\":2854:2859   */\n      dup2\n        /* \"#utility.yul\":2822:2860   */\n      tag_44\n      jump\t// in\n    tag_107:\n        /* \"#utility.yul\":2906:2935   */\n      tag_108\n        /* \"#utility.yul\":2924:2934   */\n      dup5\n        /* \"#utility.yul\":2906:2935   */\n      tag_45\n      jump\t// in\n    tag_108:\n        /* \"#utility.yul\":2896:2904   */\n      dup2\n        /* \"#utility.yul\":2892:2936   */\n      add\n        /* \"#utility.yul\":3089:3091   */\n      0x20\n        /* \"#utility.yul\":3077:3087   */\n      dup6\n        /* \"#utility.yul\":3074:3092   */\n      lt\n        /* \"#utility.yul\":3071:3120   */\n      iszero\n      tag_109\n      jumpi\n        /* \"#utility.yul\":3110:3118   */\n      dup2\n        /* \"#utility.yul\":3095:3118   */\n      swap1\n      pop\n        /* \"#utility.yul\":3071:3120   */\n    tag_109:\n        /* \"#utility.yul\":3133:3213   */\n      tag_110\n        /* \"#utility.yul\":3189:3211   */\n      tag_111\n        /* \"#utility.yul\":3207:3210   */\n      dup6\n        /* \"#utility.yul\":3189:3211   */\n      tag_45\n      jump\t// in\n    tag_111:\n        /* \"#utility.yul\":3179:3187   */\n      dup4\n        /* \"#utility.yul\":3175:3212   */\n      add\n        /* \"#utility.yul\":3162:3173   */\n      dup3\n        /* \"#utility.yul\":3133:3213   */\n      tag_55\n      jump\t// in\n    tag_110:\n        /* \"#utility.yul\":2792:3223   */\n      pop\n      pop\n        /* \"#utility.yul\":2777:3223   */\n    tag_106:\n        /* \"#utility.yul\":2687:3230   */\n      pop\n      pop\n      pop\n      jump\t// out\n        /* \"#utility.yul\":3236:3353   */\n    tag_57:\n        /* \"#utility.yul\":3290:3298   */\n      0x00\n        /* \"#utility.yul\":3340:3345   */\n      dup3\n        /* \"#utility.yul\":3334:3338   */\n      dup3\n        /* \"#utility.yul\":3330:3346   */\n      shr\n        /* \"#utility.yul\":3309:3346   */\n      swap1\n      pop\n        /* \"#utility.yul\":3236:3353   */\n      swap3\n      swap2\n      pop\n      pop\n      jump\t// out\n        /* \"#utility.yul\":3359:3528   */\n    tag_58:\n        /* \"#utility.yul\":3403:3409   */\n      0x00\n        /* \"#utility.yul\":3436:3487   */\n      tag_114\n        /* \"#utility.yul\":3484:3485   */\n      0x00\n        /* \"#utility.yul\":3480:3486   */\n      not\n        /* \"#utility.yul\":3472:3477   */\n      dup5\n        /* \"#utility.yul\":3469:3470   */\n      0x08\n        /* \"#utility.yul\":3465:3478   */\n      mul\n        /* \"#utility.yul\":3436:3487   */\n      tag_57\n      jump\t// in\n    tag_114:\n        /* \"#utility.yul\":3432:3488   */\n      not\n        /* \"#utility.yul\":3517:3521   */\n      dup1\n        /* \"#utility.yul\":3511:3515   */\n      dup4\n        /* \"#utility.yul\":3507:3522   */\n      and\n        /* \"#utility.yul\":3497:3522   */\n      swap2\n      pop\n        /* \"#utility.yul\":3410:3528   */\n      pop\n        /* \"#utility.yul\":3359:3528   */\n      swap3\n      swap2\n      pop\n      pop\n      jump\t// out\n        /* \"#utility.yul\":3533:3828   */\n    tag_59:\n        /* \"#utility.yul\":3609:3613   */\n      0x00\n        /* \"#utility.yul\":3755:3784   */\n      tag_116\n        /* \"#utility.yul\":3780:3783   */\n      dup4\n        /* \"#utility.yul\":3774:3778   */\n      dup4\n        /* \"#utility.yul\":3755:3784   */\n      tag_58\n      jump\t// in\n    tag_116:\n        /* \"#utility.yul\":3747:3784   */\n      swap2\n      pop\n        /* \"#utility.yul\":3817:3820   */\n      dup3\n        /* \"#utility.yul\":3814:3815   */\n      0x02\n        /* \"#utility.yul\":3810:3821   */\n      mul\n        /* \"#utility.yul\":3804:3808   */\n      dup3\n        /* \"#utility.yul\":3801:3822   */\n      or\n        /* \"#utility.yul\":3793:3822   */\n      swap1\n      pop\n        /* \"#utility.yul\":3533:3828   */\n      swap3\n      swap2\n      pop\n      pop\n      jump\t// out\n        /* \"#utility.yul\":3833:5228   */\n    tag_9:\n        /* \"#utility.yul\":3950:3987   */\n      tag_118\n        /* \"#utility.yul\":3983:3986   */\n      dup3\n        /* \"#utility.yul\":3950:3987   */\n      tag_41\n      jump\t// in\n    tag_118:\n        /* \"#utility.yul\":4052:4070   */\n      0xffffffffffffffff\n        /* \"#utility.yul\":4044:4050   */\n      dup2\n        /* \"#utility.yul\":4041:4071   */\n      gt\n        /* \"#utility.yul\":4038:4094   */\n      iszero\n      tag_119\n      jumpi\n        /* \"#utility.yul\":4074:4092   */\n      tag_120\n      tag_42\n      jump\t// in\n    tag_120:\n        /* \"#utility.yul\":4038:4094   */\n    tag_119:\n        /* \"#utility.yul\":4118:4156   */\n      tag_121\n        /* \"#utility.yul\":4150:4154   */\n      dup3\n        /* \"#utility.yul\":4144:4155   */\n      sload\n        /* \"#utility.yul\":4118:4156   */\n      tag_31\n      jump\t// in\n    tag_121:\n        /* \"#utility.yul\":4203:4270   */\n      tag_122\n        /* \"#utility.yul\":4263:4269   */\n      dup3\n        /* \"#utility.yul\":4255:4261   */\n      dup3\n        /* \"#utility.yul\":4249:4253   */\n      dup6\n        /* \"#utility.yul\":4203:4270   */\n      tag_56\n      jump\t// in\n    tag_122:\n        /* \"#utility.yul\":4297:4298   */\n      0x00\n        /* \"#utility.yul\":4321:4325   */\n      0x20\n        /* \"#utility.yul\":4308:4325   */\n      swap1\n      pop\n        /* \"#utility.yul\":4353:4355   */\n      0x1f\n        /* \"#utility.yul\":4345:4351   */\n      dup4\n        /* \"#utility.yul\":4342:4356   */\n      gt\n        /* \"#utility.yul\":4370:4371   */\n      0x01\n        /* \"#utility.yul\":4365:4983   */\n      dup2\n      eq\n      tag_124\n      jumpi\n        /* \"#utility.yul\":5027:5028   */\n      0x00\n        /* \"#utility.yul\":5044:5050   */\n      dup5\n        /* \"#utility.yul\":5041:5118   */\n      iszero\n      tag_125\n      jumpi\n        /* \"#utility.yul\":5093:5102   */\n      dup3\n        /* \"#utility.yul\":5088:5091   */\n      dup8\n        /* \"#utility.yul\":5084:5103   */\n      add\n        /* \"#utility.yul\":5078:5104   */\n      mload\n        /* \"#utility.yul\":5069:5104   */\n      swap1\n      pop\n        /* \"#utility.yul\":5041:5118   */\n    tag_125:\n        /* \"#utility.yul\":5144:5211   */\n      tag_126\n        /* \"#utility.yul\":5204:5210   */\n      dup6\n        /* \"#utility.yul\":5197:5202   */\n      dup3\n        /* \"#utility.yul\":5144:5211   */\n      tag_59\n      jump\t// in\n    tag_126:\n        /* \"#utility.yul\":5138:5142   */\n      dup7\n        /* \"#utility.yul\":5131:5212   */\n      sstore\n        /* \"#utility.yul\":5000:5222   */\n      pop\n        /* \"#utility.yul\":4335:5222   */\n      jump(tag_123)\n        /* \"#utility.yul\":4365:4983   */\n    tag_124:\n        /* \"#utility.yul\":4417:4421   */\n      0x1f\n        /* \"#utility.yul\":4413:4422   */\n      not\n        /* \"#utility.yul\":4405:4411   */\n      dup5\n        /* \"#utility.yul\":4401:4423   */\n      and\n        /* \"#utility.yul\":4451:4488   */\n      tag_127\n        /* \"#utility.yul\":4483:4487   */\n      dup7\n        /* \"#utility.yul\":4451:4488   */\n      tag_44\n      jump\t// in\n    tag_127:\n        /* \"#utility.yul\":4510:4511   */\n      0x00\n        /* \"#utility.yul\":4524:4732   */\n    tag_128:\n        /* \"#utility.yul\":4538:4545   */\n      dup3\n        /* \"#utility.yul\":4535:4536   */\n      dup2\n        /* \"#utility.yul\":4532:4546   */\n      lt\n        /* \"#utility.yul\":4524:4732   */\n      iszero\n      tag_130\n      jumpi\n        /* \"#utility.yul\":4617:4626   */\n      dup5\n        /* \"#utility.yul\":4612:4615   */\n      dup10\n        /* \"#utility.yul\":4608:4627   */\n      add\n        /* \"#utility.yul\":4602:4628   */\n      mload\n        /* \"#utility.yul\":4594:4600   */\n      dup3\n        /* \"#utility.yul\":4587:4629   */\n      sstore\n        /* \"#utility.yul\":4668:4669   */\n      0x01\n        /* \"#utility.yul\":4660:4666   */\n      dup3\n        /* \"#utility.yul\":4656:4670   */\n      add\n        /* \"#utility.yul\":4646:4670   */\n      swap2\n      pop\n        /* \"#utility.yul\":4715:4717   */\n      0x20\n        /* \"#utility.yul\":4704:4713   */\n      dup6\n        /* \"#utility.yul\":4700:4718   */\n      add\n        /* \"#utility.yul\":4687:4718   */\n      swap5\n      pop\n        /* \"#utility.yul\":4561:4565   */\n      0x20\n        /* \"#utility.yul\":4558:4559   */\n      dup2\n        /* \"#utility.yul\":4554:4566   */\n      add\n        /* \"#utility.yul\":4549:4566   */\n      swap1\n      pop\n        /* \"#utility.yul\":4524:4732   */\n      jump(tag_128)\n    tag_130:\n        /* \"#utility.yul\":4760:4766   */\n      dup7\n        /* \"#utility.yul\":4751:4758   */\n      dup4\n        /* \"#utility.yul\":4748:4767   */\n      lt\n        /* \"#utility.yul\":4745:4924   */\n      iszero\n      tag_131\n      jumpi\n        /* \"#utility.yul\":4818:4827   */\n      dup5\n        /* \"#utility.yul\":4813:4816   */\n      dup10\n        /* \"#utility.yul\":4809:4828   */\n      add\n        /* \"#utility.yul\":4803:4829   */\n      mload\n        /* \"#utility.yul\":4861:4909   */\n      tag_132\n        /* \"#utility.yul\":4903:4907   */\n      0x1f\n        /* \"#utility.yul\":4895:4901   */\n      dup10\n        /* \"#utility.yul\":4891:4908   */\n      and\n        /* \"#utility.yul\":4880:4889   */\n      dup3\n        /* \"#utility.yul\":4861:4909   */\n      tag_58\n      jump\t// in\n    tag_132:\n        /* \"#utility.yul\":4853:4859   */\n      dup4\n        /* \"#utility.yul\":4846:4910   */\n      sstore\n        /* \"#utility.yul\":4768:4924   */\n      pop\n        /* \"#utility.yul\":4745:4924   */\n    tag_131:\n        /* \"#utility.yul\":4970:4971   */\n      0x01\n        /* \"#utility.yul\":4966:4967   */\n      0x02\n        /* \"#utility.yul\":4958:4964   */\n      dup9\n        /* \"#utility.yul\":4954:4968   */\n      mul\n        /* \"#utility.yul\":4950:4972   */\n      add\n        /* \"#utility.yul\":4944:4948   */\n      dup9\n        /* \"#utility.yul\":4937:4973   */\n      sstore\n        /* \"#utility.yul\":4372:4983   */\n      pop\n      pop\n      pop\n        /* \"#utility.yul\":4335:5222   */\n    tag_123:\n      pop\n        /* \"#utility.yul\":3925:5228   */\n      pop\n      pop\n      pop\n        /* \"#utility.yul\":3833:5228   */\n      pop\n      pop\n      jump\t// out\n        /* \"#utility.yul\":5234:5330   */\n    tag_60:\n        /* \"#utility.yul\":5292:5298   */\n      0x00\n        /* \"#utility.yul\":5320:5323   */\n      dup3\n        /* \"#utility.yul\":5310:5323   */\n      swap1\n      pop\n        /* \"#utility.yul\":5234:5330   */\n      swap3\n      swap2\n      pop\n      pop\n      jump\t// out\n        /* \"#utility.yul\":5336:5476   */\n    tag_61:\n        /* \"#utility.yul\":5384:5388   */\n      0x00\n        /* \"#utility.yul\":5407:5410   */\n      dup2\n        /* \"#utility.yul\":5399:5410   */\n      swap1\n      pop\n        /* \"#utility.yul\":5430:5433   */\n      dup2\n        /* \"#utility.yul\":5427:5428   */\n      0x00\n        /* \"#utility.yul\":5420:5434   */\n      mstore\n        /* \"#utility.yul\":5464:5468   */\n      0x20\n        /* \"#utility.yul\":5461:5462   */\n      0x00\n        /* \"#utility.yul\":5451:5469   */\n      keccak256\n        /* \"#utility.yul\":5443:5469   */\n      swap1\n      pop\n        /* \"#utility.yul\":5336:5476   */\n      swap2\n      swap1\n      pop\n      jump\t// out\n        /* \"#utility.yul\":5482:6023   */\n    tag_62:\n        /* \"#utility.yul\":5582:5584   */\n      0x1f\n        /* \"#utility.yul\":5577:5580   */\n      dup3\n        /* \"#utility.yul\":5574:5585   */\n      gt\n        /* \"#utility.yul\":5571:6016   */\n      iszero\n      tag_136\n      jumpi\n        /* \"#utility.yul\":5616:5653   */\n      tag_137\n        /* \"#utility.yul\":5647:5652   */\n      dup2\n        /* \"#utility.yul\":5616:5653   */\n      tag_61\n      jump\t// in\n    tag_137:\n        /* \"#utility.yul\":5699:5728   */\n      tag_138\n        /* \"#utility.yul\":5717:5727   */\n      dup5\n        /* \"#utility.yul\":5699:5728   */\n      tag_45\n      jump\t// in\n    tag_138:\n        /* \"#utility.yul\":5689:5697   */\n      dup2\n        /* \"#utility.yul\":5685:5729   */\n      add\n        /* \"#utility.yul\":5882:5884   */\n      0x20\n        /* \"#utility.yul\":5870:5880   */\n      dup6\n        /* \"#utility.yul\":5867:5885   */\n      lt\n        /* \"#utility.yul\":5864:5913   */\n      iszero\n      tag_139\n      jumpi\n        /* \"#utility.yul\":5903:5911   */\n      dup2\n        /* \"#utility.yul\":5888:5911   */\n      swap1\n      pop\n        /* \"#utility.yul\":5864:5913   */\n    tag_139:\n        /* \"#utility.yul\":5926:6006   */\n      tag_140\n        /* \"#utility.yul\":5982:6004   */\n      tag_141\n        /* \"#utility.yul\":6000:6003   */\n      dup6\n        /* \"#utility.yul\":5982:6004   */\n      tag_45\n      jump\t// in\n    tag_141:\n        /* \"#utility.yul\":5972:5980   */\n      dup4\n        /* \"#utility.yul\":5968:6005   */\n      add\n        /* \"#utility.yul\":5955:5966   */\n      dup3\n        /* \"#utility.yul\":5926:6006   */\n      tag_55\n      jump\t// in\n    tag_140:\n        /* \"#utility.yul\":5586:6016   */\n      pop\n      pop\n        /* \"#utility.yul\":5571:6016   */\n    tag_136:\n        /* \"#utility.yul\":5482:6023   */\n      pop\n      pop\n      pop\n      jump\t// out\n        /* \"#utility.yul\":6029:7427   */\n    tag_14:\n        /* \"#utility.yul\":6151:6194   */\n      tag_143\n        /* \"#utility.yul\":6190:6193   */\n      dup4\n        /* \"#utility.yul\":6185:6188   */\n      dup4\n        /* \"#utility.yul\":6151:6194   */\n      tag_60\n      jump\t// in\n    tag_143:\n        /* \"#utility.yul\":6259:6277   */\n      0xffffffffffffffff\n        /* \"#utility.yul\":6251:6257   */\n      dup2\n        /* \"#utility.yul\":6248:6278   */\n      gt\n        /* \"#utility.yul\":6245:6301   */\n      iszero\n      tag_144\n      jumpi\n        /* \"#utility.yul\":6281:6299   */\n      tag_145\n      tag_42\n      jump\t// in\n    tag_145:\n        /* \"#utility.yul\":6245:6301   */\n    tag_144:\n        /* \"#utility.yul\":6325:6363   */\n      tag_146\n        /* \"#utility.yul\":6357:6361   */\n      dup3\n        /* \"#utility.yul\":6351:6362   */\n      sload\n        /* \"#utility.yul\":6325:6363   */\n      tag_31\n      jump\t// in\n    tag_146:\n        /* \"#utility.yul\":6410:6476   */\n      tag_147\n        /* \"#utility.yul\":6469:6475   */\n      dup3\n        /* \"#utility.yul\":6461:6467   */\n      dup3\n        /* \"#utility.yul\":6455:6459   */\n      dup6\n        /* \"#utility.yul\":6410:6476   */\n      tag_62\n      jump\t// in\n    tag_147:\n        /* \"#utility.yul\":6503:6504   */\n      0x00\n        /* \"#utility.yul\":6532:6534   */\n      0x1f\n        /* \"#utility.yul\":6524:6530   */\n      dup4\n        /* \"#utility.yul\":6521:6535   */\n      gt\n        /* \"#utility.yul\":6549:6550   */\n      0x01\n        /* \"#utility.yul\":6544:7175   */\n      dup2\n      eq\n      tag_149\n      jumpi\n        /* \"#utility.yul\":7219:7220   */\n      0x00\n        /* \"#utility.yul\":7236:7242   */\n      dup5\n        /* \"#utility.yul\":7233:7317   */\n      iszero\n      tag_150\n      jumpi\n        /* \"#utility.yul\":7292:7301   */\n      dup3\n        /* \"#utility.yul\":7287:7290   */\n      dup8\n        /* \"#utility.yul\":7283:7302   */\n      add\n        /* \"#utility.yul\":7270:7303   */\n      calldataload\n        /* \"#utility.yul\":7261:7303   */\n      swap1\n      pop\n        /* \"#utility.yul\":7233:7317   */\n    tag_150:\n        /* \"#utility.yul\":7343:7410   */\n      tag_151\n        /* \"#utility.yul\":7403:7409   */\n      dup6\n        /* \"#utility.yul\":7396:7401   */\n      dup3\n        /* \"#utility.yul\":7343:7410   */\n      tag_59\n      jump\t// in\n    tag_151:\n        /* \"#utility.yul\":7337:7341   */\n      dup7\n        /* \"#utility.yul\":7330:7411   */\n      sstore\n        /* \"#utility.yul\":7192:7421   */\n      pop\n        /* \"#utility.yul\":6514:7421   */\n      jump(tag_148)\n        /* \"#utility.yul\":6544:7175   */\n    tag_149:\n        /* \"#utility.yul\":6596:6600   */\n      0x1f\n        /* \"#utility.yul\":6592:6601   */\n      not\n        /* \"#utility.yul\":6584:6590   */\n      dup5\n        /* \"#utility.yul\":6580:6602   */\n      and\n        /* \"#utility.yul\":6630:6666   */\n      tag_152\n        /* \"#utility.yul\":6661:6665   */\n      dup7\n        /* \"#utility.yul\":6630:6666   */\n      tag_61\n      jump\t// in\n    tag_152:\n        /* \"#utility.yul\":6688:6689   */\n      0x00\n        /* \"#utility.yul\":6702:6917   */\n    tag_153:\n        /* \"#utility.yul\":6716:6723   */\n      dup3\n        /* \"#utility.yul\":6713:6714   */\n      dup2\n        /* \"#utility.yul\":6710:6724   */\n      lt\n        /* \"#utility.yul\":6702:6917   */\n      iszero\n      tag_155\n      jumpi\n        /* \"#utility.yul\":6802:6811   */\n      dup5\n        /* \"#utility.yul\":6797:6800   */\n      dup10\n        /* \"#utility.yul\":6793:6812   */\n      add\n        /* \"#utility.yul\":6780:6813   */\n      calldataload\n        /* \"#utility.yul\":6772:6778   */\n      dup3\n        /* \"#utility.yul\":6765:6814   */\n      sstore\n        /* \"#utility.yul\":6853:6854   */\n      0x01\n        /* \"#utility.yul\":6845:6851   */\n      dup3\n        /* \"#utility.yul\":6841:6855   */\n      add\n        /* \"#utility.yul\":6831:6855   */\n      swap2\n      pop\n        /* \"#utility.yul\":6900:6902   */\n      0x20\n        /* \"#utility.yul\":6889:6898   */\n      dup6\n        /* \"#utility.yul\":6885:6903   */\n      add\n        /* \"#utility.yul\":6872:6903   */\n      swap5\n      pop\n        /* \"#utility.yul\":6739:6743   */\n      0x20\n        /* \"#utility.yul\":6736:6737   */\n      dup2\n        /* \"#utility.yul\":6732:6744   */\n      add\n        /* \"#utility.yul\":6727:6744   */\n      swap1\n      pop\n        /* \"#utility.yul\":6702:6917   */\n      jump(tag_153)\n    tag_155:\n        /* \"#utility.yul\":6945:6951   */\n      dup7\n        /* \"#utility.yul\":6936:6943   */\n      dup4\n        /* \"#utility.yul\":6933:6952   */\n      lt\n        /* \"#utility.yul\":6930:7116   */\n      iszero\n      tag_156\n      jumpi\n        /* \"#utility.yul\":7010:7019   */\n      dup5\n        /* \"#utility.yul\":7005:7008   */\n      dup10\n        /* \"#utility.yul\":7001:7020   */\n      add\n        /* \"#utility.yul\":6988:7021   */\n      calldataload\n        /* \"#utility.yul\":7053:7101   */\n      tag_157\n        /* \"#utility.yul\":7095:7099   */\n      0x1f\n        /* \"#utility.yul\":7087:7093   */\n      dup10\n        /* \"#utility.yul\":7083:7100   */\n      and\n        /* \"#utility.yul\":7072:7081   */\n      dup3\n        /* \"#utility.yul\":7053:7101   */\n      tag_58\n      jump\t// in\n    tag_157:\n        /* \"#utility.yul\":7045:7051   */\n      dup4\n        /* \"#utility.yul\":7038:7102   */\n      sstore\n        /* \"#utility.yul\":6953:7116   */\n      pop\n        /* \"#utility.yul\":6930:7116   */\n    tag_156:\n        /* \"#utility.yul\":7162:7163   */\n      0x01\n        /* \"#utility.yul\":7158:7159   */\n      0x02\n        /* \"#utility.yul\":7150:7156   */\n      dup9\n        /* \"#utility.yul\":7146:7160   */\n      mul\n        /* \"#utility.yul\":7142:7164   */\n      add\n        /* \"#utility.yul\":7136:7140   */\n      dup9\n        /* \"#utility.yul\":7129:7165   */\n      sstore\n        /* \"#utility.yul\":6551:7175   */\n      pop\n      pop\n      pop\n        /* \"#utility.yul\":6514:7421   */\n    tag_148:\n      pop\n        /* \"#utility.yul\":6126:7427   */\n      pop\n      pop\n      pop\n        /* \"#utility.yul\":6029:7427   */\n      pop\n      pop\n      pop\n      jump\t// out\n        /* \"#utility.yul\":7433:7602   */\n    tag_63:\n        /* \"#utility.yul\":7517:7528   */\n      0x00\n        /* \"#utility.yul\":7551:7557   */\n      dup3\n        /* \"#utility.yul\":7546:7549   */\n      dup3\n        /* \"#utility.yul\":7539:7558   */\n      mstore\n        /* \"#utility.yul\":7591:7595   */\n      0x20\n        /* \"#utility.yul\":7586:7589   */\n      dup3\n        /* \"#utility.yul\":7582:7596   */\n      add\n        /* \"#utility.yul\":7567:7596   */\n      swap1\n      pop\n        /* \"#utility.yul\":7433:7602   */\n      swap3\n      swap2\n      pop\n      pop\n      jump\t// out\n        /* \"#utility.yul\":7608:7854   */\n    tag_64:\n        /* \"#utility.yul\":7689:7690   */\n      0x00\n        /* \"#utility.yul\":7699:7812   */\n    tag_160:\n        /* \"#utility.yul\":7713:7719   */\n      dup4\n        /* \"#utility.yul\":7710:7711   */\n      dup2\n        /* \"#utility.yul\":7707:7720   */\n      lt\n        /* \"#utility.yul\":7699:7812   */\n      iszero\n      tag_162\n      jumpi\n        /* \"#utility.yul\":7798:7799   */\n      dup1\n        /* \"#utility.yul\":7793:7796   */\n      dup3\n        /* \"#utility.yul\":7789:7800   */\n      add\n        /* \"#utility.yul\":7783:7801   */\n      mload\n        /* \"#utility.yul\":7779:7780   */\n      dup2\n        /* \"#utility.yul\":7774:7777   */\n      dup5\n        /* \"#utility.yul\":7770:7781   */\n      add\n        /* \"#utility.yul\":7763:7802   */\n      mstore\n        /* \"#utility.yul\":7735:7737   */\n      0x20\n        /* \"#utility.yul\":7732:7733   */\n      dup2\n        /* \"#utility.yul\":7728:7738   */\n      add\n        /* \"#utility.yul\":7723:7738   */\n      swap1\n      pop\n        /* \"#utility.yul\":7699:7812   */\n      jump(tag_160)\n    tag_162:\n        /* \"#utility.yul\":7846:7847   */\n      0x00\n        /* \"#utility.yul\":7837:7843   */\n      dup5\n        /* \"#utility.yul\":7832:7835   */\n      dup5\n        /* \"#utility.yul\":7828:7844   */\n      add\n        /* \"#utility.yul\":7821:7848   */\n      mstore\n        /* \"#utility.yul\":7670:7854   */\n      pop\n        /* \"#utility.yul\":7608:7854   */\n      pop\n      pop\n      pop\n      jump\t// out\n        /* \"#utility.yul\":7860:7962   */\n    tag_65:\n        /* \"#utility.yul\":7901:7907   */\n      0x00\n        /* \"#utility.yul\":7952:7954   */\n      0x1f\n        /* \"#utility.yul\":7948:7955   */\n      not\n        /* \"#utility.yul\":7943:7945   */\n      0x1f\n        /* \"#utility.yul\":7936:7941   */\n      dup4\n        /* \"#utility.yul\":7932:7946   */\n      add\n        /* \"#utility.yul\":7928:7956   */\n      and\n        /* \"#utility.yul\":7918:7956   */\n      swap1\n      pop\n        /* \"#utility.yul\":7860:7962   */\n      swap2\n      swap1\n      pop\n      jump\t// out\n        /* \"#utility.yul\":7968:8345   */\n    tag_66:\n        /* \"#utility.yul\":8056:8059   */\n      0x00\n        /* \"#utility.yul\":8084:8123   */\n      tag_165\n        /* \"#utility.yul\":8117:8122   */\n      dup3\n        /* \"#utility.yul\":8084:8123   */\n      tag_41\n      jump\t// in\n    tag_165:\n        /* \"#utility.yul\":8139:8210   */\n      tag_166\n        /* \"#utility.yul\":8203:8209   */\n      dup2\n        /* \"#utility.yul\":8198:8201   */\n      dup6\n        /* \"#utility.yul\":8139:8210   */\n      tag_63\n      jump\t// in\n    tag_166:\n        /* \"#utility.yul\":8132:8210   */\n      swap4\n      pop\n        /* \"#utility.yul\":8219:8284   */\n      tag_167\n        /* \"#utility.yul\":8277:8283   */\n      dup2\n        /* \"#utility.yul\":8272:8275   */\n      dup6\n        /* \"#utility.yul\":8265:8269   */\n      0x20\n        /* \"#utility.yul\":8258:8263   */\n      dup7\n        /* \"#utility.yul\":8254:8270   */\n      add\n        /* \"#utility.yul\":8219:8284   */\n      tag_64\n      jump\t// in\n    tag_167:\n        /* \"#utility.yul\":8309:8338   */\n      tag_168\n        /* \"#utility.yul\":8331:8337   */\n      dup2\n        /* \"#utility.yul\":8309:8338   */\n      tag_65\n      jump\t// in\n    tag_168:\n        /* \"#utility.yul\":8304:8307   */\n      dup5\n        /* \"#utility.yul\":8300:8339   */\n      add\n        /* \"#utility.yul\":8293:8339   */\n      swap2\n      pop\n        /* \"#utility.yul\":8060:8345   */\n      pop\n        /* \"#utility.yul\":7968:8345   */\n      swap3\n      swap2\n      pop\n      pop\n      jump\t// out\n        /* \"#utility.yul\":8351:8664   */\n    tag_19:\n        /* \"#utility.yul\":8464:8468   */\n      0x00\n        /* \"#utility.yul\":8502:8504   */\n      0x20\n        /* \"#utility.yul\":8491:8500   */\n      dup3\n        /* \"#utility.yul\":8487:8505   */\n      add\n        /* \"#utility.yul\":8479:8505   */\n      swap1\n      pop\n        /* \"#utility.yul\":8551:8560   */\n      dup2\n        /* \"#utility.yul\":8545:8549   */\n      dup2\n        /* \"#utility.yul\":8541:8561   */\n      sub\n        /* \"#utility.yul\":8537:8538   */\n      0x00\n        /* \"#utility.yul\":8526:8535   */\n      dup4\n        /* \"#utility.yul\":8522:8539   */\n      add\n        /* \"#utility.yul\":8515:8562   */\n      mstore\n        /* \"#utility.yul\":8579:8657   */\n      tag_170\n        /* \"#utility.yul\":8652:8656   */\n      dup2\n        /* \"#utility.yul\":8643:8649   */\n      dup5\n        /* \"#utility.yul\":8579:8657   */\n      tag_66\n      jump\t// in\n    tag_170:\n        /* \"#utility.yul\":8571:8657   */\n      swap1\n      pop\n        /* \"#utility.yul\":8351:8664   */\n      swap3\n      swap2\n      pop\n      pop\n      jump\t// out\n        /* \"#utility.yul\":8670:8768   */\n    tag_67:\n        /* \"#utility.yul\":8721:8727   */\n      0x00\n        /* \"#utility.yul\":8755:8760   */\n      dup2\n        /* \"#utility.yul\":8749:8761   */\n      mload\n        /* \"#utility.yul\":8739:8761   */\n      swap1\n      pop\n        /* \"#utility.yul\":8670:8768   */\n      swap2\n      swap1\n      pop\n      jump\t// out\n        /* \"#utility.yul\":8774:8942   */\n    tag_68:\n        /* \"#utility.yul\":8857:8868   */\n      0x00\n        /* \"#utility.yul\":8891:8897   */\n      dup3\n        /* \"#utility.yul\":8886:8889   */\n      dup3\n        /* \"#utility.yul\":8879:8898   */\n      mstore\n        /* \"#utility.yul\":8931:8935   */\n      0x20\n        /* \"#utility.yul\":8926:8929   */\n      dup3\n        /* \"#utility.yul\":8922:8936   */\n      add\n        /* \"#utility.yul\":8907:8936   */\n      swap1\n      pop\n        /* \"#utility.yul\":8774:8942   */\n      swap3\n      swap2\n      pop\n      pop\n      jump\t// out\n        /* \"#utility.yul\":8948:9321   */\n    tag_69:\n        /* \"#utility.yul\":9034:9037   */\n      0x00\n        /* \"#utility.yul\":9062:9100   */\n      tag_174\n        /* \"#utility.yul\":9094:9099   */\n      dup3\n        /* \"#utility.yul\":9062:9100   */\n      tag_67\n      jump\t// in\n    tag_174:\n        /* \"#utility.yul\":9116:9186   */\n      tag_175\n        /* \"#utility.yul\":9179:9185   */\n      dup2\n        /* \"#utility.yul\":9174:9177   */\n      dup6\n        /* \"#utility.yul\":9116:9186   */\n      tag_68\n      jump\t// in\n    tag_175:\n        /* \"#utility.yul\":9109:9186   */\n      swap4\n      pop\n        /* \"#utility.yul\":9195:9260   */\n      tag_176\n        /* \"#utility.yul\":9253:9259   */\n      dup2\n        /* \"#utility.yul\":9248:9251   */\n      dup6\n        /* \"#utility.yul\":9241:9245   */\n      0x20\n        /* \"#utility.yul\":9234:9239   */\n      dup7\n        /* \"#utility.yul\":9230:9246   */\n      add\n        /* \"#utility.yul\":9195:9260   */\n      tag_64\n      jump\t// in\n    tag_176:\n        /* \"#utility.yul\":9285:9314   */\n      tag_177\n        /* \"#utility.yul\":9307:9313   */\n      dup2\n        /* \"#utility.yul\":9285:9314   */\n      tag_65\n      jump\t// in\n    tag_177:\n        /* \"#utility.yul\":9280:9283   */\n      dup5\n        /* \"#utility.yul\":9276:9315   */\n      add\n        /* \"#utility.yul\":9269:9315   */\n      swap2\n      pop\n        /* \"#utility.yul\":9038:9321   */\n      pop\n        /* \"#utility.yul\":8948:9321   */\n      swap3\n      swap2\n      pop\n      pop\n      jump\t// out\n        /* \"#utility.yul\":9327:9636   */\n    tag_24:\n        /* \"#utility.yul\":9438:9442   */\n      0x00\n        /* \"#utility.yul\":9476:9478   */\n      0x20\n        /* \"#utility.yul\":9465:9474   */\n      dup3\n        /* \"#utility.yul\":9461:9479   */\n      add\n        /* \"#utility.yul\":9453:9479   */\n      swap1\n      pop\n        /* \"#utility.yul\":9525:9534   */\n      dup2\n        /* \"#utility.yul\":9519:9523   */\n      dup2\n        /* \"#utility.yul\":9515:9535   */\n      sub\n        /* \"#utility.yul\":9511:9512   */\n      0x00\n        /* \"#utility.yul\":9500:9509   */\n      dup4\n        /* \"#utility.yul\":9496:9513   */\n      add\n        /* \"#utility.yul\":9489:9536   */\n      mstore\n        /* \"#utility.yul\":9553:9629   */\n      tag_179\n        /* \"#utility.yul\":9624:9628   */\n      dup2\n        /* \"#utility.yul\":9615:9621   */\n      dup5\n        /* \"#utility.yul\":9553:9629   */\n      tag_69\n      jump\t// in\n    tag_179:\n        /* \"#utility.yul\":9545:9629   */\n      swap1\n      pop\n        /* \"#utility.yul\":9327:9636   */\n      swap3\n      swap2\n      pop\n      pop\n      jump\t// out\n        /* \"#utility.yul\":9642:9760   */\n    tag_70:\n        /* \"#utility.yul\":9729:9753   */\n      tag_181\n        /* \"#utility.yul\":9747:9752   */\n      dup2\n        /* \"#utility.yul\":9729:9753   */\n      tag_48\n      jump\t// in\n    tag_181:\n        /* \"#utility.yul\":9724:9727   */\n      dup3\n        /* \"#utility.yul\":9717:9754   */\n      mstore\n        /* \"#utility.yul\":9642:9760   */\n      pop\n      pop\n      jump\t// out\n        /* \"#utility.yul\":9766:9988   */\n    tag_29:\n        /* \"#utility.yul\":9859:9863   */\n      0x00\n        /* \"#utility.yul\":9897:9899   */\n      0x20\n        /* \"#utility.yul\":9886:9895   */\n      dup3\n        /* \"#utility.yul\":9882:9900   */\n      add\n        /* \"#utility.yul\":9874:9900   */\n      swap1\n      pop\n        /* \"#utility.yul\":9910:9981   */\n      tag_183\n        /* \"#utility.yul\":9978:9979   */\n      0x00\n        /* \"#utility.yul\":9967:9976   */\n      dup4\n        /* \"#utility.yul\":9963:9980   */\n      add\n        /* \"#utility.yul\":9954:9960   */\n      dup5\n        /* \"#utility.yul\":9910:9981   */\n      tag_70\n      jump\t// in\n    tag_183:\n        /* \"#utility.yul\":9766:9988   */\n      swap3\n      swap2\n      pop\n      pop\n      jump\t// out\n\n    auxdata: 0xa264697066735822122012c7ae07df6004da9021c3f5d5c59c5f7af1f6c0a03ed39f65052b07b633b40664736f6c63430008110033\n}\n",
				"bytecode": {
					"linkReferences": {},
					"object": "60806040526040518060200160405280600081525060009081620000249190620002b8565b5060006001553480156200003757600080fd5b506200039f565b600081519050919050565b7f4e487b7100000000000000000000000000000000000000000000000000000000600052604160045260246000fd5b7f4e487b7100000000000000000000000000000000000000000000000000000000600052602260045260246000fd5b60006002820490506001821680620000c057607f821691505b602082108103620000d657620000d562000078565b5b50919050565b60008190508160005260206000209050919050565b60006020601f8301049050919050565b600082821b905092915050565b600060088302620001407fffffffffffffffffffffffffffffffffffffffffffffffffffffffffffffffff8262000101565b6200014c868362000101565b95508019841693508086168417925050509392505050565b6000819050919050565b6000819050919050565b600062000199620001936200018d8462000164565b6200016e565b62000164565b9050919050565b6000819050919050565b620001b58362000178565b620001cd620001c482620001a0565b8484546200010e565b825550505050565b600090565b620001e4620001d5565b620001f1818484620001aa565b505050565b5b8181101562000219576200020d600082620001da565b600181019050620001f7565b5050565b601f82111562000268576200023281620000dc565b6200023d84620000f1565b810160208510156200024d578190505b620002656200025c85620000f1565b830182620001f6565b50505b505050565b600082821c905092915050565b60006200028d600019846008026200026d565b1980831691505092915050565b6000620002a883836200027a565b9150826002028217905092915050565b620002c3826200003e565b67ffffffffffffffff811115620002df57620002de62000049565b5b620002eb8254620000a7565b620002f88282856200021d565b600060209050601f8311600181146200033057600084156200031b578287015190505b6200032785826200029a565b86555062000397565b601f1984166200034086620000dc565b60005b828110156200036a5784890151825560018201915060208501945060208101905062000343565b868310156200038a578489015162000386601f8916826200027a565b8355505b6001600288020188555050505b505050505050565b61086380620003af6000396000f3fe6080604052600436106100385760003560e01c806350f9b6cd146100ea57806373d4a13a14610115578063aa8c217c146101405761008a565b3661008a576040518060400160405280600681526020017f72656369766500000000000000000000000000000000000000000000000000008152506000908161008191906104dd565b50346001819055005b6040518060400160405280600881526020017f66616c6c6261636b000000000000000000000000000000000000000000000000815250600090816100ce91906104dd565b5034600181905550600036600291826100e8929190610615565b005b3480156100f657600080fd5b506100ff61016b565b60405161010c919061076a565b60405180910390f35b34801561012157600080fd5b5061012a6101f9565b60405161013791906107e1565b60405180910390f35b34801561014c57600080fd5b50610155610287565b6040516101629190610812565b60405180910390f35b60008054610178906102f6565b80601f01602080910402602001604051908101604052809291908181526020018280546101a4906102f6565b80156101f15780601f106101c6576101008083540402835291602001916101f1565b820191906000526020600020905b8154815290600101906020018083116101d457829003601f168201915b505050505081565b60028054610206906102f6565b80601f0160208091040260200160405190810160405280929190818152602001828054610232906102f6565b801561027f5780601f106102545761010080835404028352916020019161027f565b820191906000526020600020905b81548152906001019060200180831161026257829003601f168201915b505050505081565b60015481565b600081519050919050565b7f4e487b7100000000000000000000000000000000000000000000000000000000600052604160045260246000fd5b7f4e487b7100000000000000000000000000000000000000000000000000000000600052602260045260246000fd5b6000600282049050600182168061030e57607f821691505b602082108103610321576103206102c7565b5b50919050565b60008190508160005260206000209050919050565b60006020601f8301049050919050565b600082821b905092915050565b6000600883026103897fffffffffffffffffffffffffffffffffffffffffffffffffffffffffffffffff8261034c565b610393868361034c565b95508019841693508086168417925050509392505050565b6000819050919050565b6000819050919050565b60006103da6103d56103d0846103ab565b6103b5565b6103ab565b9050919050565b6000819050919050565b6103f4836103bf565b610408610400826103e1565b848454610359565b825550505050565b600090565b61041d610410565b6104288184846103eb565b505050565b5b8181101561044c57610441600082610415565b60018101905061042e565b5050565b601f8211156104915761046281610327565b61046b8461033c565b8101602085101561047a578190505b61048e6104868561033c565b83018261042d565b50505b505050565b600082821c905092915050565b60006104b460001984600802610496565b1980831691505092915050565b60006104cd83836104a3565b9150826002028217905092915050565b6104e68261028d565b67ffffffffffffffff8111156104ff576104fe610298565b5b61050982546102f6565b610514828285610450565b600060209050601f8311600181146105475760008415610535578287015190505b61053f85826104c1565b8655506105a7565b601f19841661055586610327565b60005b8281101561057d57848901518255600182019150602085019450602081019050610558565b8683101561059a5784890151610596601f8916826104a3565b8355505b6001600288020188555050505b505050505050565b600082905092915050565b60008190508160005260206000209050919050565b601f821115610610576105e1816105ba565b6105ea8461033c565b810160208510156105f9578190505b61060d6106058561033c565b83018261042d565b50505b505050565b61061f83836105af565b67ffffffffffffffff81111561063857610637610298565b5b61064282546102f6565b61064d8282856105cf565b6000601f83116001811461067c576000841561066a578287013590505b61067485826104c1565b8655506106dc565b601f19841661068a866105ba565b60005b828110156106b25784890135825560018201915060208501945060208101905061068d565b868310156106cf57848901356106cb601f8916826104a3565b8355505b6001600288020188555050505b50505050505050565b600082825260208201905092915050565b60005b838110156107145780820151818401526020810190506106f9565b60008484015250505050565b6000601f19601f8301169050919050565b600061073c8261028d565b61074681856106e5565b93506107568185602086016106f6565b61075f81610720565b840191505092915050565b600060208201905081810360008301526107848184610731565b905092915050565b600081519050919050565b600082825260208201905092915050565b60006107b38261078c565b6107bd8185610797565b93506107cd8185602086016106f6565b6107d681610720565b840191505092915050565b600060208201905081810360008301526107fb81846107a8565b905092915050565b61080c816103ab565b82525050565b60006020820190506108276000830184610803565b9291505056fea264697066735822122012c7ae07df6004da9021c3f5d5c59c5f7af1f6c0a03ed39f65052b07b633b40664736f6c63430008110033",
					"opcodes": "PUSH1 0x80 PUSH1 0x40 MSTORE PUSH1 0x40 MLOAD DUP1 PUSH1 0x20 ADD PUSH1 0x40 MSTORE DUP1 PUSH1 0x0 DUP2 MSTORE POP PUSH1 0x0 SWAP1 DUP2 PUSH3 0x24 SWAP2 SWAP1 PUSH3 0x2B8 JUMP JUMPDEST POP PUSH1 0x0 PUSH1 0x1 SSTORE CALLVALUE DUP1 ISZERO PUSH3 0x37 JUMPI PUSH1 0x0 DUP1 REVERT JUMPDEST POP PUSH3 0x39F JUMP JUMPDEST PUSH1 0x0 DUP2 MLOAD SWAP1 POP SWAP2 SWAP1 POP JUMP JUMPDEST PUSH32 0x4E487B7100000000000000000000000000000000000000000000000000000000 PUSH1 0x0 MSTORE PUSH1 0x41 PUSH1 0x4 MSTORE PUSH1 0x24 PUSH1 0x0 REVERT JUMPDEST PUSH32 0x4E487B7100000000000000000000000000000000000000000000000000000000 PUSH1 0x0 MSTORE PUSH1 0x22 PUSH1 0x4 MSTORE PUSH1 0x24 PUSH1 0x0 REVERT JUMPDEST PUSH1 0x0 PUSH1 0x2 DUP3 DIV SWAP1 POP PUSH1 0x1 DUP3 AND DUP1 PUSH3 0xC0 JUMPI PUSH1 0x7F DUP3 AND SWAP2 POP JUMPDEST PUSH1 0x20 DUP3 LT DUP2 SUB PUSH3 0xD6 JUMPI PUSH3 0xD5 PUSH3 0x78 JUMP JUMPDEST JUMPDEST POP SWAP2 SWAP1 POP JUMP JUMPDEST PUSH1 0x0 DUP2 SWAP1 POP DUP2 PUSH1 0x0 MSTORE PUSH1 0x20 PUSH1 0x0 KECCAK256 SWAP1 POP SWAP2 SWAP1 POP JUMP JUMPDEST PUSH1 0x0 PUSH1 0x20 PUSH1 0x1F DUP4 ADD DIV SWAP1 POP SWAP2 SWAP1 POP JUMP JUMPDEST PUSH1 0x0 DUP3 DUP3 SHL SWAP1 POP SWAP3 SWAP2 POP POP JUMP JUMPDEST PUSH1 0x0 PUSH1 0x8 DUP4 MUL PUSH3 0x140 PUSH32 0xFFFFFFFFFFFFFFFFFFFFFFFFFFFFFFFFFFFFFFFFFFFFFFFFFFFFFFFFFFFFFFFF DUP3 PUSH3 0x101 JUMP JUMPDEST PUSH3 0x14C DUP7 DUP4 PUSH3 0x101 JUMP JUMPDEST SWAP6 POP DUP1 NOT DUP5 AND SWAP4 POP DUP1 DUP7 AND DUP5 OR SWAP3 POP POP POP SWAP4 SWAP3 POP POP POP JUMP JUMPDEST PUSH1 0x0 DUP2 SWAP1 POP SWAP2 SWAP1 POP JUMP JUMPDEST PUSH1 0x0 DUP2 SWAP1 POP SWAP2 SWAP1 POP JUMP JUMPDEST PUSH1 0x0 PUSH3 0x199 PUSH3 0x193 PUSH3 0x18D DUP5 PUSH3 0x164 JUMP JUMPDEST PUSH3 0x16E JUMP JUMPDEST PUSH3 0x164 JUMP JUMPDEST SWAP1 POP SWAP2 SWAP1 POP JUMP JUMPDEST PUSH1 0x0 DUP2 SWAP1 POP SWAP2 SWAP1 POP JUMP JUMPDEST PUSH3 0x1B5 DUP4 PUSH3 0x178 JUMP JUMPDEST PUSH3 0x1CD PUSH3 0x1C4 DUP3 PUSH3 0x1A0 JUMP JUMPDEST DUP5 DUP5 SLOAD PUSH3 0x10E JUMP JUMPDEST DUP3 SSTORE POP POP POP POP JUMP JUMPDEST PUSH1 0x0 SWAP1 JUMP JUMPDEST PUSH3 0x1E4 PUSH3 0x1D5 JUMP JUMPDEST PUSH3 0x1F1 DUP2 DUP5 DUP5 PUSH3 0x1AA JUMP JUMPDEST POP POP POP JUMP JUMPDEST JUMPDEST DUP2 DUP2 LT ISZERO PUSH3 0x219 JUMPI PUSH3 0x20D PUSH1 0x0 DUP3 PUSH3 0x1DA JUMP JUMPDEST PUSH1 0x1 DUP2 ADD SWAP1 POP PUSH3 0x1F7 JUMP JUMPDEST POP POP JUMP JUMPDEST PUSH1 0x1F DUP3 GT ISZERO PUSH3 0x268 JUMPI PUSH3 0x232 DUP2 PUSH3 0xDC JUMP JUMPDEST PUSH3 0x23D DUP5 PUSH3 0xF1 JUMP JUMPDEST DUP2 ADD PUSH1 0x20 DUP6 LT ISZERO PUSH3 0x24D JUMPI DUP2 SWAP1 POP JUMPDEST PUSH3 0x265 PUSH3 0x25C DUP6 PUSH3 0xF1 JUMP JUMPDEST DUP4 ADD DUP3 PUSH3 0x1F6 JUMP JUMPDEST POP POP JUMPDEST POP POP POP JUMP JUMPDEST PUSH1 0x0 DUP3 DUP3 SHR SWAP1 POP SWAP3 SWAP2 POP POP JUMP JUMPDEST PUSH1 0x0 PUSH3 0x28D PUSH1 0x0 NOT DUP5 PUSH1 0x8 MUL PUSH3 0x26D JUMP JUMPDEST NOT DUP1 DUP4 AND SWAP2 POP POP SWAP3 SWAP2 POP POP JUMP JUMPDEST PUSH1 0x0 PUSH3 0x2A8 DUP4 DUP4 PUSH3 0x27A JUMP JUMPDEST SWAP2 POP DUP3 PUSH1 0x2 MUL DUP3 OR SWAP1 POP SWAP3 SWAP2 POP POP JUMP JUMPDEST PUSH3 0x2C3 DUP3 PUSH3 0x3E JUMP JUMPDEST PUSH8 0xFFFFFFFFFFFFFFFF DUP2 GT ISZERO PUSH3 0x2DF JUMPI PUSH3 0x2DE PUSH3 0x49 JUMP JUMPDEST JUMPDEST PUSH3 0x2EB DUP3 SLOAD PUSH3 0xA7 JUMP JUMPDEST PUSH3 0x2F8 DUP3 DUP3 DUP6 PUSH3 0x21D JUMP JUMPDEST PUSH1 0x0 PUSH1 0x20 SWAP1 POP PUSH1 0x1F DUP4 GT PUSH1 0x1 DUP2 EQ PUSH3 0x330 JUMPI PUSH1 0x0 DUP5 ISZERO PUSH3 0x31B JUMPI DUP3 DUP8 ADD MLOAD SWAP1 POP JUMPDEST PUSH3 0x327 DUP6 DUP3 PUSH3 0x29A JUMP JUMPDEST DUP7 SSTORE POP PUSH3 0x397 JUMP JUMPDEST PUSH1 0x1F NOT DUP5 AND PUSH3 0x340 DUP7 PUSH3 0xDC JUMP JUMPDEST PUSH1 0x0 JUMPDEST DUP3 DUP2 LT ISZERO PUSH3 0x36A JUMPI DUP5 DUP10 ADD MLOAD DUP3 SSTORE PUSH1 0x1 DUP3 ADD SWAP2 POP PUSH1 0x20 DUP6 ADD SWAP5 POP PUSH1 0x20 DUP2 ADD SWAP1 POP PUSH3 0x343 JUMP JUMPDEST DUP7 DUP4 LT ISZERO PUSH3 0x38A JUMPI DUP5 DUP10 ADD MLOAD PUSH3 0x386 PUSH1 0x1F DUP10 AND DUP3 PUSH3 0x27A JUMP JUMPDEST DUP4 SSTORE POP JUMPDEST PUSH1 0x1 PUSH1 0x2 DUP9 MUL ADD DUP9 SSTORE POP POP POP JUMPDEST POP POP POP POP POP POP JUMP JUMPDEST PUSH2 0x863 DUP1 PUSH3 0x3AF PUSH1 0x0 CODECOPY PUSH1 0x0 RETURN INVALID PUSH1 0x80 PUSH1 0x40 MSTORE PUSH1 0x4 CALLDATASIZE LT PUSH2 0x38 JUMPI PUSH1 0x0 CALLDATALOAD PUSH1 0xE0 SHR DUP1 PUSH4 0x50F9B6CD EQ PUSH2 0xEA JUMPI DUP1 PUSH4 0x73D4A13A EQ PUSH2 0x115 JUMPI DUP1 PUSH4 0xAA8C217C EQ PUSH2 0x140 JUMPI PUSH2 0x8A JUMP JUMPDEST CALLDATASIZE PUSH2 0x8A JUMPI PUSH1 0x40 MLOAD DUP1 PUSH1 0x40 ADD PUSH1 0x40 MSTORE DUP1 PUSH1 0x6 DUP2 MSTORE PUSH1 0x20 ADD PUSH32 0x7265636976650000000000000000000000000000000000000000000000000000 DUP2 MSTORE POP PUSH1 0x0 SWAP1 DUP2 PUSH2 0x81 SWAP2 SWAP1 PUSH2 0x4DD JUMP JUMPDEST POP CALLVALUE PUSH1 0x1 DUP2 SWAP1 SSTORE STOP JUMPDEST PUSH1 0x40 MLOAD DUP1 PUSH1 0x40 ADD PUSH1 0x40 MSTORE DUP1 PUSH1 0x8 DUP2 MSTORE PUSH1 0x20 ADD PUSH32 0x66616C6C6261636B000000000000000000000000000000000000000000000000 DUP2 MSTORE POP PUSH1 0x0 SWAP1 DUP2 PUSH2 0xCE SWAP2 SWAP1 PUSH2 0x4DD JUMP JUMPDEST POP CALLVALUE PUSH1 0x1 DUP2 SWAP1 SSTORE POP PUSH1 0x0 CALLDATASIZE PUSH1 0x2 SWAP2 DUP3 PUSH2 0xE8 SWAP3 SWAP2 SWAP1 PUSH2 0x615 JUMP JUMPDEST STOP JUMPDEST CALLVALUE DUP1 ISZERO PUSH2 0xF6 JUMPI PUSH1 0x0 DUP1 REVERT JUMPDEST POP PUSH2 0xFF PUSH2 0x16B JUMP JUMPDEST PUSH1 0x40 MLOAD PUSH2 0x10C SWAP2 SWAP1 PUSH2 0x76A JUMP JUMPDEST PUSH1 0x40 MLOAD DUP1 SWAP2 SUB SWAP1 RETURN JUMPDEST CALLVALUE DUP1 ISZERO PUSH2 0x121 JUMPI PUSH1 0x0 DUP1 REVERT JUMPDEST POP PUSH2 0x12A PUSH2 0x1F9 JUMP JUMPDEST PUSH1 0x40 MLOAD PUSH2 0x137 SWAP2 SWAP1 PUSH2 0x7E1 JUMP JUMPDEST PUSH1 0x40 MLOAD DUP1 SWAP2 SUB SWAP1 RETURN JUMPDEST CALLVALUE DUP1 ISZERO PUSH2 0x14C JUMPI PUSH1 0x0 DUP1 REVERT JUMPDEST POP PUSH2 0x155 PUSH2 0x287 JUMP JUMPDEST PUSH1 0x40 MLOAD PUSH2 0x162 SWAP2 SWAP1 PUSH2 0x812 JUMP JUMPDEST PUSH1 0x40 MLOAD DUP1 SWAP2 SUB SWAP1 RETURN JUMPDEST PUSH1 0x0 DUP1 SLOAD PUSH2 0x178 SWAP1 PUSH2 0x2F6 JUMP JUMPDEST DUP1 PUSH1 0x1F ADD PUSH1 0x20 DUP1 SWAP2 DIV MUL PUSH1 0x20 ADD PUSH1 0x40 MLOAD SWAP1 DUP2 ADD PUSH1 0x40 MSTORE DUP1 SWAP3 SWAP2 SWAP1 DUP2 DUP2 MSTORE PUSH1 0x20 ADD DUP3 DUP1 SLOAD PUSH2 0x1A4 SWAP1 PUSH2 0x2F6 JUMP JUMPDEST DUP1 ISZERO PUSH2 0x1F1 JUMPI DUP1 PUSH1 0x1F LT PUSH2 0x1C6 JUMPI PUSH2 0x100 DUP1 DUP4 SLOAD DIV MUL DUP4 MSTORE SWAP2 PUSH1 0x20 ADD SWAP2 PUSH2 0x1F1 JUMP JUMPDEST DUP3 ADD SWAP2 SWAP1 PUSH1 0x0 MSTORE PUSH1 0x20 PUSH1 0x0 KECCAK256 SWAP1 JUMPDEST DUP2 SLOAD DUP2 MSTORE SWAP1 PUSH1 0x1 ADD SWAP1 PUSH1 0x20 ADD DUP1 DUP4 GT PUSH2 0x1D4 JUMPI DUP3 SWAP1 SUB PUSH1 0x1F AND DUP3 ADD SWAP2 JUMPDEST POP POP POP POP POP DUP2 JUMP JUMPDEST PUSH1 0x2 DUP1 SLOAD PUSH2 0x206 SWAP1 PUSH2 0x2F6 JUMP JUMPDEST DUP1 PUSH1 0x1F ADD PUSH1 0x20 DUP1 SWAP2 DIV MUL PUSH1 0x20 ADD PUSH1 0x40 MLOAD SWAP1 DUP2 ADD PUSH1 0x40 MSTORE DUP1 SWAP3 SWAP2 SWAP1 DUP2 DUP2 MSTORE PUSH1 0x20 ADD DUP3 DUP1 SLOAD PUSH2 0x232 SWAP1 PUSH2 0x2F6 JUMP JUMPDEST DUP1 ISZERO PUSH2 0x27F JUMPI DUP1 PUSH1 0x1F LT PUSH2 0x254 JUMPI PUSH2 0x100 DUP1 DUP4 SLOAD DIV MUL DUP4 MSTORE SWAP2 PUSH1 0x20 ADD SWAP2 PUSH2 0x27F JUMP JUMPDEST DUP3 ADD SWAP2 SWAP1 PUSH1 0x0 MSTORE PUSH1 0x20 PUSH1 0x0 KECCAK256 SWAP1 JUMPDEST DUP2 SLOAD DUP2 MSTORE SWAP1 PUSH1 0x1 ADD SWAP1 PUSH1 0x20 ADD DUP1 DUP4 GT PUSH2 0x262 JUMPI DUP3 SWAP1 SUB PUSH1 0x1F AND DUP3 ADD SWAP2 JUMPDEST POP POP POP POP POP DUP2 JUMP JUMPDEST PUSH1 0x1 SLOAD DUP2 JUMP JUMPDEST PUSH1 0x0 DUP2 MLOAD SWAP1 POP SWAP2 SWAP1 POP JUMP JUMPDEST PUSH32 0x4E487B7100000000000000000000000000000000000000000000000000000000 PUSH1 0x0 MSTORE PUSH1 0x41 PUSH1 0x4 MSTORE PUSH1 0x24 PUSH1 0x0 REVERT JUMPDEST PUSH32 0x4E487B7100000000000000000000000000000000000000000000000000000000 PUSH1 0x0 MSTORE PUSH1 0x22 PUSH1 0x4 MSTORE PUSH1 0x24 PUSH1 0x0 REVERT JUMPDEST PUSH1 0x0 PUSH1 0x2 DUP3 DIV SWAP1 POP PUSH1 0x1 DUP3 AND DUP1 PUSH2 0x30E JUMPI PUSH1 0x7F DUP3 AND SWAP2 POP JUMPDEST PUSH1 0x20 DUP3 LT DUP2 SUB PUSH2 0x321 JUMPI PUSH2 0x320 PUSH2 0x2C7 JUMP JUMPDEST JUMPDEST POP SWAP2 SWAP1 POP JUMP JUMPDEST PUSH1 0x0 DUP2 SWAP1 POP DUP2 PUSH1 0x0 MSTORE PUSH1 0x20 PUSH1 0x0 KECCAK256 SWAP1 POP SWAP2 SWAP1 POP JUMP JUMPDEST PUSH1 0x0 PUSH1 0x20 PUSH1 0x1F DUP4 ADD DIV SWAP1 POP SWAP2 SWAP1 POP JUMP JUMPDEST PUSH1 0x0 DUP3 DUP3 SHL SWAP1 POP SWAP3 SWAP2 POP POP JUMP JUMPDEST PUSH1 0x0 PUSH1 0x8 DUP4 MUL PUSH2 0x389 PUSH32 0xFFFFFFFFFFFFFFFFFFFFFFFFFFFFFFFFFFFFFFFFFFFFFFFFFFFFFFFFFFFFFFFF DUP3 PUSH2 0x34C JUMP JUMPDEST PUSH2 0x393 DUP7 DUP4 PUSH2 0x34C JUMP JUMPDEST SWAP6 POP DUP1 NOT DUP5 AND SWAP4 POP DUP1 DUP7 AND DUP5 OR SWAP3 POP POP POP SWAP4 SWAP3 POP POP POP JUMP JUMPDEST PUSH1 0x0 DUP2 SWAP1 POP SWAP2 SWAP1 POP JUMP JUMPDEST PUSH1 0x0 DUP2 SWAP1 POP SWAP2 SWAP1 POP JUMP JUMPDEST PUSH1 0x0 PUSH2 0x3DA PUSH2 0x3D5 PUSH2 0x3D0 DUP5 PUSH2 0x3AB JUMP JUMPDEST PUSH2 0x3B5 JUMP JUMPDEST PUSH2 0x3AB JUMP JUMPDEST SWAP1 POP SWAP2 SWAP1 POP JUMP JUMPDEST PUSH1 0x0 DUP2 SWAP1 POP SWAP2 SWAP1 POP JUMP JUMPDEST PUSH2 0x3F4 DUP4 PUSH2 0x3BF JUMP JUMPDEST PUSH2 0x408 PUSH2 0x400 DUP3 PUSH2 0x3E1 JUMP JUMPDEST DUP5 DUP5 SLOAD PUSH2 0x359 JUMP JUMPDEST DUP3 SSTORE POP POP POP POP JUMP JUMPDEST PUSH1 0x0 SWAP1 JUMP JUMPDEST PUSH2 0x41D PUSH2 0x410 JUMP JUMPDEST PUSH2 0x428 DUP2 DUP5 DUP5 PUSH2 0x3EB JUMP JUMPDEST POP POP POP JUMP JUMPDEST JUMPDEST DUP2 DUP2 LT ISZERO PUSH2 0x44C JUMPI PUSH2 0x441 PUSH1 0x0 DUP3 PUSH2 0x415 JUMP JUMPDEST PUSH1 0x1 DUP2 ADD SWAP1 POP PUSH2 0x42E JUMP JUMPDEST POP POP JUMP JUMPDEST PUSH1 0x1F DUP3 GT ISZERO PUSH2 0x491 JUMPI PUSH2 0x462 DUP2 PUSH2 0x327 JUMP JUMPDEST PUSH2 0x46B DUP5 PUSH2 0x33C JUMP JUMPDEST DUP2 ADD PUSH1 0x20 DUP6 LT ISZERO PUSH2 0x47A JUMPI DUP2 SWAP1 POP JUMPDEST PUSH2 0x48E PUSH2 0x486 DUP6 PUSH2 0x33C JUMP JUMPDEST DUP4 ADD DUP3 PUSH2 0x42D JUMP JUMPDEST POP POP JUMPDEST POP POP POP JUMP JUMPDEST PUSH1 0x0 DUP3 DUP3 SHR SWAP1 POP SWAP3 SWAP2 POP POP JUMP JUMPDEST PUSH1 0x0 PUSH2 0x4B4 PUSH1 0x0 NOT DUP5 PUSH1 0x8 MUL PUSH2 0x496 JUMP JUMPDEST NOT DUP1 DUP4 AND SWAP2 POP POP SWAP3 SWAP2 POP POP JUMP JUMPDEST PUSH1 0x0 PUSH2 0x4CD DUP4 DUP4 PUSH2 0x4A3 JUMP JUMPDEST SWAP2 POP DUP3 PUSH1 0x2 MUL DUP3 OR SWAP1 POP SWAP3 SWAP2 POP POP JUMP JUMPDEST PUSH2 0x4E6 DUP3 PUSH2 0x28D JUMP JUMPDEST PUSH8 0xFFFFFFFFFFFFFFFF DUP2 GT ISZERO PUSH2 0x4FF JUMPI PUSH2 0x4FE PUSH2 0x298 JUMP JUMPDEST JUMPDEST PUSH2 0x509 DUP3 SLOAD PUSH2 0x2F6 JUMP JUMPDEST PUSH2 0x514 DUP3 DUP3 DUP6 PUSH2 0x450 JUMP JUMPDEST PUSH1 0x0 PUSH1 0x20 SWAP1 POP PUSH1 0x1F DUP4 GT PUSH1 0x1 DUP2 EQ PUSH2 0x547 JUMPI PUSH1 0x0 DUP5 ISZERO PUSH2 0x535 JUMPI DUP3 DUP8 ADD MLOAD SWAP1 POP JUMPDEST PUSH2 0x53F DUP6 DUP3 PUSH2 0x4C1 JUMP JUMPDEST DUP7 SSTORE POP PUSH2 0x5A7 JUMP JUMPDEST PUSH1 0x1F NOT DUP5 AND PUSH2 0x555 DUP7 PUSH2 0x327 JUMP JUMPDEST PUSH1 0x0 JUMPDEST DUP3 DUP2 LT ISZERO PUSH2 0x57D JUMPI DUP5 DUP10 ADD MLOAD DUP3 SSTORE PUSH1 0x1 DUP3 ADD SWAP2 POP PUSH1 0x20 DUP6 ADD SWAP5 POP PUSH1 0x20 DUP2 ADD SWAP1 POP PUSH2 0x558 JUMP JUMPDEST DUP7 DUP4 LT ISZERO PUSH2 0x59A JUMPI DUP5 DUP10 ADD MLOAD PUSH2 0x596 PUSH1 0x1F DUP10 AND DUP3 PUSH2 0x4A3 JUMP JUMPDEST DUP4 SSTORE POP JUMPDEST PUSH1 0x1 PUSH1 0x2 DUP9 MUL ADD DUP9 SSTORE POP POP POP JUMPDEST POP POP POP POP POP POP JUMP JUMPDEST PUSH1 0x0 DUP3 SWAP1 POP SWAP3 SWAP2 POP POP JUMP JUMPDEST PUSH1 0x0 DUP2 SWAP1 POP DUP2 PUSH1 0x0 MSTORE PUSH1 0x20 PUSH1 0x0 KECCAK256 SWAP1 POP SWAP2 SWAP1 POP JUMP JUMPDEST PUSH1 0x1F DUP3 GT ISZERO PUSH2 0x610 JUMPI PUSH2 0x5E1 DUP2 PUSH2 0x5BA JUMP JUMPDEST PUSH2 0x5EA DUP5 PUSH2 0x33C JUMP JUMPDEST DUP2 ADD PUSH1 0x20 DUP6 LT ISZERO PUSH2 0x5F9 JUMPI DUP2 SWAP1 POP JUMPDEST PUSH2 0x60D PUSH2 0x605 DUP6 PUSH2 0x33C JUMP JUMPDEST DUP4 ADD DUP3 PUSH2 0x42D JUMP JUMPDEST POP POP JUMPDEST POP POP POP JUMP JUMPDEST PUSH2 0x61F DUP4 DUP4 PUSH2 0x5AF JUMP JUMPDEST PUSH8 0xFFFFFFFFFFFFFFFF DUP2 GT ISZERO PUSH2 0x638 JUMPI PUSH2 0x637 PUSH2 0x298 JUMP JUMPDEST JUMPDEST PUSH2 0x642 DUP3 SLOAD PUSH2 0x2F6 JUMP JUMPDEST PUSH2 0x64D DUP3 DUP3 DUP6 PUSH2 0x5CF JUMP JUMPDEST PUSH1 0x0 PUSH1 0x1F DUP4 GT PUSH1 0x1 DUP2 EQ PUSH2 0x67C JUMPI PUSH1 0x0 DUP5 ISZERO PUSH2 0x66A JUMPI DUP3 DUP8 ADD CALLDATALOAD SWAP1 POP JUMPDEST PUSH2 0x674 DUP6 DUP3 PUSH2 0x4C1 JUMP JUMPDEST DUP7 SSTORE POP PUSH2 0x6DC JUMP JUMPDEST PUSH1 0x1F NOT DUP5 AND PUSH2 0x68A DUP7 PUSH2 0x5BA JUMP JUMPDEST PUSH1 0x0 JUMPDEST DUP3 DUP2 LT ISZERO PUSH2 0x6B2 JUMPI DUP5 DUP10 ADD CALLDATALOAD DUP3 SSTORE PUSH1 0x1 DUP3 ADD SWAP2 POP PUSH1 0x20 DUP6 ADD SWAP5 POP PUSH1 0x20 DUP2 ADD SWAP1 POP PUSH2 0x68D JUMP JUMPDEST DUP7 DUP4 LT ISZERO PUSH2 0x6CF JUMPI DUP5 DUP10 ADD CALLDATALOAD PUSH2 0x6CB PUSH1 0x1F DUP10 AND DUP3 PUSH2 0x4A3 JUMP JUMPDEST DUP4 SSTORE POP JUMPDEST PUSH1 0x1 PUSH1 0x2 DUP9 MUL ADD DUP9 SSTORE POP POP POP JUMPDEST POP POP POP POP POP POP POP JUMP JUMPDEST PUSH1 0x0 DUP3 DUP3 MSTORE PUSH1 0x20 DUP3 ADD SWAP1 POP SWAP3 SWAP2 POP POP JUMP JUMPDEST PUSH1 0x0 JUMPDEST DUP4 DUP2 LT ISZERO PUSH2 0x714 JUMPI DUP1 DUP3 ADD MLOAD DUP2 DUP5 ADD MSTORE PUSH1 0x20 DUP2 ADD SWAP1 POP PUSH2 0x6F9 JUMP JUMPDEST PUSH1 0x0 DUP5 DUP5 ADD MSTORE POP POP POP POP JUMP JUMPDEST PUSH1 0x0 PUSH1 0x1F NOT PUSH1 0x1F DUP4 ADD AND SWAP1 POP SWAP2 SWAP1 POP JUMP JUMPDEST PUSH1 0x0 PUSH2 0x73C DUP3 PUSH2 0x28D JUMP JUMPDEST PUSH2 0x746 DUP2 DUP6 PUSH2 0x6E5 JUMP JUMPDEST SWAP4 POP PUSH2 0x756 DUP2 DUP6 PUSH1 0x20 DUP7 ADD PUSH2 0x6F6 JUMP JUMPDEST PUSH2 0x75F DUP2 PUSH2 0x720 JUMP JUMPDEST DUP5 ADD SWAP2 POP POP SWAP3 SWAP2 POP POP JUMP JUMPDEST PUSH1 0x0 PUSH1 0x20 DUP3 ADD SWAP1 POP DUP2 DUP2 SUB PUSH1 0x0 DUP4 ADD MSTORE PUSH2 0x784 DUP2 DUP5 PUSH2 0x731 JUMP JUMPDEST SWAP1 POP SWAP3 SWAP2 POP POP JUMP JUMPDEST PUSH1 0x0 DUP2 MLOAD SWAP1 POP SWAP2 SWAP1 POP JUMP JUMPDEST PUSH1 0x0 DUP3 DUP3 MSTORE PUSH1 0x20 DUP3 ADD SWAP1 POP SWAP3 SWAP2 POP POP JUMP JUMPDEST PUSH1 0x0 PUSH2 0x7B3 DUP3 PUSH2 0x78C JUMP JUMPDEST PUSH2 0x7BD DUP2 DUP6 PUSH2 0x797 JUMP JUMPDEST SWAP4 POP PUSH2 0x7CD DUP2 DUP6 PUSH1 0x20 DUP7 ADD PUSH2 0x6F6 JUMP JUMPDEST PUSH2 0x7D6 DUP2 PUSH2 0x720 JUMP JUMPDEST DUP5 ADD SWAP2 POP POP SWAP3 SWAP2 POP POP JUMP JUMPDEST PUSH1 0x0 PUSH1 0x20 DUP3 ADD SWAP1 POP DUP2 DUP2 SUB PUSH1 0x0 DUP4 ADD MSTORE PUSH2 0x7FB DUP2 DUP5 PUSH2 0x7A8 JUMP JUMPDEST SWAP1 POP SWAP3 SWAP2 POP POP JUMP JUMPDEST PUSH2 0x80C DUP2 PUSH2 0x3AB JUMP JUMPDEST DUP3 MSTORE POP POP JUMP JUMPDEST PUSH1 0x0 PUSH1 0x20 DUP3 ADD SWAP1 POP PUSH2 0x827 PUSH1 0x0 DUP4 ADD DUP5 PUSH2 0x803 JUMP JUMPDEST SWAP3 SWAP2 POP POP JUMP INVALID LOG2 PUSH5 0x6970667358 0x22 SLT KECCAK256 SLT 0xC7 0xAE SMOD 0xDF PUSH1 0x4 0xDA SWAP1 0x21 0xC3 CREATE2 0xD5 0xC5 SWAP13 0x5F PUSH27 0xF1F6C0A03ED39F65052B07B633B40664736F6C6343000811003300 "
				},
				"gasEstimates": {
					"creation": {
						"codeDepositCost": "429400",
						"executionCost": "infinite",
						"totalCost": "infinite"
					},
					"external": {
						"": "infinite",
						"amount()": "2451",
						"called()": "infinite",
						"data()": "infinite"
					}
				},
				"methodIdentifiers": {
					"amount()": "aa8c217c",
					"called()": "50f9b6cd",
					"data()": "73d4a13a"
				}
			},
			"storageLayout": {
				"storage": [
					{
						"astId": 4,
						"contract": "contracts/fallBack.sol:fallBackRecive",
						"label": "called",
						"offset": 0,
						"slot": "0",
						"type": "t_string_storage"
					},
					{
						"astId": 7,
						"contract": "contracts/fallBack.sol:fallBackRecive",
						"label": "amount",
						"offset": 0,
						"slot": "1",
						"type": "t_uint256"
					},
					{
						"astId": 9,
						"contract": "contracts/fallBack.sol:fallBackRecive",
						"label": "data",
						"offset": 0,
						"slot": "2",
						"type": "t_bytes_storage"
					}
				],
				"types": {
					"t_bytes_storage": {
						"encoding": "bytes",
						"label": "bytes",
						"numberOfBytes": "32"
					},
					"t_string_storage": {
						"encoding": "bytes",
						"label": "string",
						"numberOfBytes": "32"
					},
					"t_uint256": {
						"encoding": "inplace",
						"label": "uint256",
						"numberOfBytes": "32"
					}
				}
			},
			"userdoc": {
				"kind": "user",
				"methods": {},
				"version": 1
			}
		}
	}
}