{
	"contracts/viewpure2.sol": {
		"viewpure2": {
			"abi": [
				{
					"inputs": [
						{
							"internalType": "int256",
							"name": "k",
							"type": "int256"
						},
						{
							"internalType": "int256",
							"name": "l",
							"type": "int256"
						}
					],
					"name": "addX",
					"outputs": [
						{
							"internalType": "int256",
							"name": "",
							"type": "int256"
						}
					],
					"stateMutability": "pure",
					"type": "function"
				},
				{
					"inputs": [],
					"name": "dis",
					"outputs": [
						{
							"internalType": "int256",
							"name": "",
							"type": "int256"
						},
						{
							"internalType": "int256",
							"name": "",
							"type": "int256"
						}
					],
					"stateMutability": "view",
					"type": "function"
				},
				{
					"inputs": [
						{
							"internalType": "int256",
							"name": "m",
							"type": "int256"
						},
						{
							"internalType": "int256",
							"name": "n",
							"type": "int256"
						}
					],
					"name": "get",
					"outputs": [],
					"stateMutability": "nonpayable",
					"type": "function"
				}
			],
			"devdoc": {
				"kind": "dev",
				"methods": {},
				"version": 1
			},
			"evm": {
				"assembly": "    /* \"contracts/viewpure2.sol\":55:308  contract viewpure2{\r... */\n  mstore(0x40, 0x80)\n  callvalue\n  dup1\n  iszero\n  tag_1\n  jumpi\n  0x00\n  dup1\n  revert\ntag_1:\n  pop\n  dataSize(sub_0)\n  dup1\n  dataOffset(sub_0)\n  0x00\n  codecopy\n  0x00\n  return\nstop\n\nsub_0: assembly {\n        /* \"contracts/viewpure2.sol\":55:308  contract viewpure2{\r... */\n      mstore(0x40, 0x80)\n      callvalue\n      dup1\n      iszero\n      tag_1\n      jumpi\n      0x00\n      dup1\n      revert\n    tag_1:\n      pop\n      jumpi(tag_2, lt(calldatasize, 0x04))\n      shr(0xe0, calldataload(0x00))\n      dup1\n      0x224dc278\n      eq\n      tag_3\n      jumpi\n      dup1\n      0x27cefa37\n      eq\n      tag_4\n      jumpi\n      dup1\n      0x8f189b71\n      eq\n      tag_5\n      jumpi\n    tag_2:\n      0x00\n      dup1\n      revert\n        /* \"contracts/viewpure2.sol\":234:303  function dis() public view returns( int,int )\r... */\n    tag_3:\n      tag_6\n      tag_7\n      jump\t// in\n    tag_6:\n      mload(0x40)\n      tag_8\n      swap3\n      swap2\n      swap1\n      tag_9\n      jump\t// in\n    tag_8:\n      mload(0x40)\n      dup1\n      swap2\n      sub\n      swap1\n      return\n        /* \"contracts/viewpure2.sol\":182:232  function get(int m,int n)public \r... */\n    tag_4:\n      tag_10\n      0x04\n      dup1\n      calldatasize\n      sub\n      dup2\n      add\n      swap1\n      tag_11\n      swap2\n      swap1\n      tag_12\n      jump\t// in\n    tag_11:\n      tag_13\n      jump\t// in\n    tag_10:\n      stop\n        /* \"contracts/viewpure2.sol\":92:180  function addX(int k,int l) public pure returns(int)\r... */\n    tag_5:\n      tag_14\n      0x04\n      dup1\n      calldatasize\n      sub\n      dup2\n      add\n      swap1\n      tag_15\n      swap2\n      swap1\n      tag_12\n      jump\t// in\n    tag_15:\n      tag_16\n      jump\t// in\n    tag_14:\n      mload(0x40)\n      tag_17\n      swap2\n      swap1\n      tag_18\n      jump\t// in\n    tag_17:\n      mload(0x40)\n      dup1\n      swap2\n      sub\n      swap1\n      return\n        /* \"contracts/viewpure2.sol\":234:303  function dis() public view returns( int,int )\r... */\n    tag_7:\n        /* \"contracts/viewpure2.sol\":270:273  int */\n      0x00\n        /* \"contracts/viewpure2.sol\":274:277  int */\n      dup1\n        /* \"contracts/viewpure2.sol\":295:296  x */\n      sload(0x00)\n        /* \"contracts/viewpure2.sol\":297:298  y */\n      sload(0x01)\n        /* \"contracts/viewpure2.sol\":288:299  return(x,y) */\n      swap2\n      pop\n      swap2\n      pop\n        /* \"contracts/viewpure2.sol\":234:303  function dis() public view returns( int,int )\r... */\n      swap1\n      swap2\n      jump\t// out\n        /* \"contracts/viewpure2.sol\":182:232  function get(int m,int n)public \r... */\n    tag_13:\n        /* \"contracts/viewpure2.sol\":221:222  m */\n      dup2\n        /* \"contracts/viewpure2.sol\":219:220  x */\n      0x00\n        /* \"contracts/viewpure2.sol\":219:222  x=m */\n      dup2\n      swap1\n      sstore\n      pop\n        /* \"contracts/viewpure2.sol\":227:228  n */\n      dup1\n        /* \"contracts/viewpure2.sol\":225:226  y */\n      0x01\n        /* \"contracts/viewpure2.sol\":225:228  y=n */\n      dup2\n      swap1\n      sstore\n      pop\n        /* \"contracts/viewpure2.sol\":182:232  function get(int m,int n)public \r... */\n      pop\n      pop\n      jump\t// out\n        /* \"contracts/viewpure2.sol\":92:180  function addX(int k,int l) public pure returns(int)\r... */\n    tag_16:\n        /* \"contracts/viewpure2.sol\":139:142  int */\n      0x00\n        /* \"contracts/viewpure2.sol\":152:157  int z */\n      dup1\n        /* \"contracts/viewpure2.sol\":175:176  l */\n      dup3\n        /* \"contracts/viewpure2.sol\":173:174  k */\n      dup5\n        /* \"contracts/viewpure2.sol\":173:176  k+l */\n      tag_22\n      swap2\n      swap1\n      tag_23\n      jump\t// in\n    tag_22:\n        /* \"contracts/viewpure2.sol\":171:176  z=k+l */\n      swap1\n      pop\n      dup1\n        /* \"contracts/viewpure2.sol\":164:176  return z=k+l */\n      swap2\n      pop\n      pop\n        /* \"contracts/viewpure2.sol\":92:180  function addX(int k,int l) public pure returns(int)\r... */\n      swap3\n      swap2\n      pop\n      pop\n      jump\t// out\n        /* \"#utility.yul\":7:144   */\n    tag_25:\n        /* \"#utility.yul\":52:57   */\n      0x00\n        /* \"#utility.yul\":90:96   */\n      dup2\n        /* \"#utility.yul\":77:97   */\n      calldataload\n        /* \"#utility.yul\":68:97   */\n      swap1\n      pop\n        /* \"#utility.yul\":106:138   */\n      tag_27\n        /* \"#utility.yul\":132:137   */\n      dup2\n        /* \"#utility.yul\":106:138   */\n      tag_28\n      jump\t// in\n    tag_27:\n        /* \"#utility.yul\":58:144   */\n      swap3\n      swap2\n      pop\n      pop\n      jump\t// out\n        /* \"#utility.yul\":150:620   */\n    tag_12:\n        /* \"#utility.yul\":216:222   */\n      0x00\n        /* \"#utility.yul\":224:230   */\n      dup1\n        /* \"#utility.yul\":273:275   */\n      0x40\n        /* \"#utility.yul\":261:270   */\n      dup4\n        /* \"#utility.yul\":252:259   */\n      dup6\n        /* \"#utility.yul\":248:271   */\n      sub\n        /* \"#utility.yul\":244:276   */\n      slt\n        /* \"#utility.yul\":241:243   */\n      iszero\n      tag_30\n      jumpi\n        /* \"#utility.yul\":279:358   */\n      tag_31\n      tag_32\n      jump\t// in\n    tag_31:\n        /* \"#utility.yul\":241:243   */\n    tag_30:\n        /* \"#utility.yul\":399:400   */\n      0x00\n        /* \"#utility.yul\":424:476   */\n      tag_33\n        /* \"#utility.yul\":468:475   */\n      dup6\n        /* \"#utility.yul\":459:465   */\n      dup3\n        /* \"#utility.yul\":448:457   */\n      dup7\n        /* \"#utility.yul\":444:466   */\n      add\n        /* \"#utility.yul\":424:476   */\n      tag_25\n      jump\t// in\n    tag_33:\n        /* \"#utility.yul\":414:476   */\n      swap3\n      pop\n        /* \"#utility.yul\":370:486   */\n      pop\n        /* \"#utility.yul\":525:527   */\n      0x20\n        /* \"#utility.yul\":551:603   */\n      tag_34\n        /* \"#utility.yul\":595:602   */\n      dup6\n        /* \"#utility.yul\":586:592   */\n      dup3\n        /* \"#utility.yul\":575:584   */\n      dup7\n        /* \"#utility.yul\":571:593   */\n      add\n        /* \"#utility.yul\":551:603   */\n      tag_25\n      jump\t// in\n    tag_34:\n        /* \"#utility.yul\":541:603   */\n      swap2\n      pop\n        /* \"#utility.yul\":496:613   */\n      pop\n        /* \"#utility.yul\":231:620   */\n      swap3\n      pop\n      swap3\n      swap1\n      pop\n      jump\t// out\n        /* \"#utility.yul\":626:741   */\n    tag_35:\n        /* \"#utility.yul\":711:734   */\n      tag_37\n        /* \"#utility.yul\":728:733   */\n      dup2\n        /* \"#utility.yul\":711:734   */\n      tag_38\n      jump\t// in\n    tag_37:\n        /* \"#utility.yul\":706:709   */\n      dup3\n        /* \"#utility.yul\":699:735   */\n      mstore\n        /* \"#utility.yul\":689:741   */\n      pop\n      pop\n      jump\t// out\n        /* \"#utility.yul\":747:965   */\n    tag_18:\n        /* \"#utility.yul\":838:842   */\n      0x00\n        /* \"#utility.yul\":876:878   */\n      0x20\n        /* \"#utility.yul\":865:874   */\n      dup3\n        /* \"#utility.yul\":861:879   */\n      add\n        /* \"#utility.yul\":853:879   */\n      swap1\n      pop\n        /* \"#utility.yul\":889:958   */\n      tag_40\n        /* \"#utility.yul\":955:956   */\n      0x00\n        /* \"#utility.yul\":944:953   */\n      dup4\n        /* \"#utility.yul\":940:957   */\n      add\n        /* \"#utility.yul\":931:937   */\n      dup5\n        /* \"#utility.yul\":889:958   */\n      tag_35\n      jump\t// in\n    tag_40:\n        /* \"#utility.yul\":843:965   */\n      swap3\n      swap2\n      pop\n      pop\n      jump\t// out\n        /* \"#utility.yul\":971:1295   */\n    tag_9:\n        /* \"#utility.yul\":1088:1092   */\n      0x00\n        /* \"#utility.yul\":1126:1128   */\n      0x40\n        /* \"#utility.yul\":1115:1124   */\n      dup3\n        /* \"#utility.yul\":1111:1129   */\n      add\n        /* \"#utility.yul\":1103:1129   */\n      swap1\n      pop\n        /* \"#utility.yul\":1139:1208   */\n      tag_42\n        /* \"#utility.yul\":1205:1206   */\n      0x00\n        /* \"#utility.yul\":1194:1203   */\n      dup4\n        /* \"#utility.yul\":1190:1207   */\n      add\n        /* \"#utility.yul\":1181:1187   */\n      dup6\n        /* \"#utility.yul\":1139:1208   */\n      tag_35\n      jump\t// in\n    tag_42:\n        /* \"#utility.yul\":1218:1288   */\n      tag_43\n        /* \"#utility.yul\":1284:1286   */\n      0x20\n        /* \"#utility.yul\":1273:1282   */\n      dup4\n        /* \"#utility.yul\":1269:1287   */\n      add\n        /* \"#utility.yul\":1260:1266   */\n      dup5\n        /* \"#utility.yul\":1218:1288   */\n      tag_35\n      jump\t// in\n    tag_43:\n        /* \"#utility.yul\":1093:1295   */\n      swap4\n      swap3\n      pop\n      pop\n      pop\n      jump\t// out\n        /* \"#utility.yul\":1382:1907   */\n    tag_23:\n        /* \"#utility.yul\":1421:1424   */\n      0x00\n        /* \"#utility.yul\":1440:1459   */\n      tag_47\n        /* \"#utility.yul\":1457:1458   */\n      dup3\n        /* \"#utility.yul\":1440:1459   */\n      tag_38\n      jump\t// in\n    tag_47:\n        /* \"#utility.yul\":1435:1459   */\n      swap2\n      pop\n        /* \"#utility.yul\":1473:1492   */\n      tag_48\n        /* \"#utility.yul\":1490:1491   */\n      dup4\n        /* \"#utility.yul\":1473:1492   */\n      tag_38\n      jump\t// in\n    tag_48:\n        /* \"#utility.yul\":1468:1492   */\n      swap3\n      pop\n        /* \"#utility.yul\":1661:1662   */\n      dup2\n        /* \"#utility.yul\":1593:1659   */\n      0x7fffffffffffffffffffffffffffffffffffffffffffffffffffffffffffffff\n        /* \"#utility.yul\":1589:1663   */\n      sub\n        /* \"#utility.yul\":1586:1587   */\n      dup4\n        /* \"#utility.yul\":1582:1664   */\n      sgt\n        /* \"#utility.yul\":1577:1578   */\n      0x00\n        /* \"#utility.yul\":1574:1575   */\n      dup4\n        /* \"#utility.yul\":1570:1579   */\n      slt\n        /* \"#utility.yul\":1563:1580   */\n      iszero\n        /* \"#utility.yul\":1559:1665   */\n      and\n        /* \"#utility.yul\":1556:1558   */\n      iszero\n      tag_49\n      jumpi\n        /* \"#utility.yul\":1668:1686   */\n      tag_50\n      tag_51\n      jump\t// in\n    tag_50:\n        /* \"#utility.yul\":1556:1558   */\n    tag_49:\n        /* \"#utility.yul\":1848:1849   */\n      dup2\n        /* \"#utility.yul\":1780:1846   */\n      0x8000000000000000000000000000000000000000000000000000000000000000\n        /* \"#utility.yul\":1776:1850   */\n      sub\n        /* \"#utility.yul\":1773:1774   */\n      dup4\n        /* \"#utility.yul\":1769:1851   */\n      slt\n        /* \"#utility.yul\":1765:1766   */\n      0x00\n        /* \"#utility.yul\":1762:1763   */\n      dup4\n        /* \"#utility.yul\":1758:1767   */\n      slt\n        /* \"#utility.yul\":1754:1852   */\n      and\n        /* \"#utility.yul\":1751:1753   */\n      iszero\n      tag_52\n      jumpi\n        /* \"#utility.yul\":1855:1873   */\n      tag_53\n      tag_51\n      jump\t// in\n    tag_53:\n        /* \"#utility.yul\":1751:1753   */\n    tag_52:\n        /* \"#utility.yul\":1899:1900   */\n      dup3\n        /* \"#utility.yul\":1896:1897   */\n      dup3\n        /* \"#utility.yul\":1892:1901   */\n      add\n        /* \"#utility.yul\":1885:1901   */\n      swap1\n      pop\n        /* \"#utility.yul\":1425:1907   */\n      swap3\n      swap2\n      pop\n      pop\n      jump\t// out\n        /* \"#utility.yul\":1913:1989   */\n    tag_38:\n        /* \"#utility.yul\":1949:1956   */\n      0x00\n        /* \"#utility.yul\":1978:1983   */\n      dup2\n        /* \"#utility.yul\":1967:1983   */\n      swap1\n      pop\n        /* \"#utility.yul\":1957:1989   */\n      swap2\n      swap1\n      pop\n      jump\t// out\n        /* \"#utility.yul\":1995:2175   */\n    tag_51:\n        /* \"#utility.yul\":2043:2120   */\n      0x4e487b7100000000000000000000000000000000000000000000000000000000\n        /* \"#utility.yul\":2040:2041   */\n      0x00\n        /* \"#utility.yul\":2033:2121   */\n      mstore\n        /* \"#utility.yul\":2140:2144   */\n      0x11\n        /* \"#utility.yul\":2137:2138   */\n      0x04\n        /* \"#utility.yul\":2130:2145   */\n      mstore\n        /* \"#utility.yul\":2164:2168   */\n      0x24\n        /* \"#utility.yul\":2161:2162   */\n      0x00\n        /* \"#utility.yul\":2154:2169   */\n      revert\n        /* \"#utility.yul\":2304:2421   */\n    tag_32:\n        /* \"#utility.yul\":2413:2414   */\n      0x00\n        /* \"#utility.yul\":2410:2411   */\n      dup1\n        /* \"#utility.yul\":2403:2415   */\n      revert\n        /* \"#utility.yul\":2427:2547   */\n    tag_28:\n        /* \"#utility.yul\":2499:2522   */\n      tag_60\n        /* \"#utility.yul\":2516:2521   */\n      dup2\n        /* \"#utility.yul\":2499:2522   */\n      tag_38\n      jump\t// in\n    tag_60:\n        /* \"#utility.yul\":2492:2497   */\n      dup2\n        /* \"#utility.yul\":2489:2523   */\n      eq\n        /* \"#utility.yul\":2479:2481   */\n      tag_61\n      jumpi\n        /* \"#utility.yul\":2537:2538   */\n      0x00\n        /* \"#utility.yul\":2534:2535   */\n      dup1\n        /* \"#utility.yul\":2527:2539   */\n      revert\n        /* \"#utility.yul\":2479:2481   */\n    tag_61:\n        /* \"#utility.yul\":2469:2547   */\n      pop\n      jump\t// out\n\n    auxdata: 0xa26469706673582212201778e7249ee021a87d3a9f83b178369fb6c28f7e642a74a2dfc12339d6145d4764736f6c63430008060033\n}\n",
				"bytecode": {
					"linkReferences": {},
					"object": "608060405234801561001057600080fd5b506102b6806100206000396000f3fe608060405234801561001057600080fd5b50600436106100415760003560e01c8063224dc2781461004657806327cefa37146100655780638f189b7114610081575b600080fd5b61004e6100b1565b60405161005c92919061016e565b60405180910390f35b61007f600480360381019061007a9190610104565b6100c2565b005b61009b60048036038101906100969190610104565b6100d4565b6040516100a89190610153565b60405180910390f35b600080600054600154915091509091565b81600081905550806001819055505050565b60008082846100e39190610197565b90508091505092915050565b6000813590506100fe81610269565b92915050565b6000806040838503121561011b5761011a610264565b5b6000610129858286016100ef565b925050602061013a858286016100ef565b9150509250929050565b61014d8161022b565b82525050565b60006020820190506101686000830184610144565b92915050565b60006040820190506101836000830185610144565b6101906020830184610144565b9392505050565b60006101a28261022b565b91506101ad8361022b565b9250817f7fffffffffffffffffffffffffffffffffffffffffffffffffffffffffffffff038313600083121516156101e8576101e7610235565b5b817f80000000000000000000000000000000000000000000000000000000000000000383126000831216156102205761021f610235565b5b828201905092915050565b6000819050919050565b7f4e487b7100000000000000000000000000000000000000000000000000000000600052601160045260246000fd5b600080fd5b6102728161022b565b811461027d57600080fd5b5056fea26469706673582212201778e7249ee021a87d3a9f83b178369fb6c28f7e642a74a2dfc12339d6145d4764736f6c63430008060033",
					"opcodes": "PUSH1 0x80 PUSH1 0x40 MSTORE CALLVALUE DUP1 ISZERO PUSH2 0x10 JUMPI PUSH1 0x0 DUP1 REVERT JUMPDEST POP PUSH2 0x2B6 DUP1 PUSH2 0x20 PUSH1 0x0 CODECOPY PUSH1 0x0 RETURN INVALID PUSH1 0x80 PUSH1 0x40 MSTORE CALLVALUE DUP1 ISZERO PUSH2 0x10 JUMPI PUSH1 0x0 DUP1 REVERT JUMPDEST POP PUSH1 0x4 CALLDATASIZE LT PUSH2 0x41 JUMPI PUSH1 0x0 CALLDATALOAD PUSH1 0xE0 SHR DUP1 PUSH4 0x224DC278 EQ PUSH2 0x46 JUMPI DUP1 PUSH4 0x27CEFA37 EQ PUSH2 0x65 JUMPI DUP1 PUSH4 0x8F189B71 EQ PUSH2 0x81 JUMPI JUMPDEST PUSH1 0x0 DUP1 REVERT JUMPDEST PUSH2 0x4E PUSH2 0xB1 JUMP JUMPDEST PUSH1 0x40 MLOAD PUSH2 0x5C SWAP3 SWAP2 SWAP1 PUSH2 0x16E JUMP JUMPDEST PUSH1 0x40 MLOAD DUP1 SWAP2 SUB SWAP1 RETURN JUMPDEST PUSH2 0x7F PUSH1 0x4 DUP1 CALLDATASIZE SUB DUP2 ADD SWAP1 PUSH2 0x7A SWAP2 SWAP1 PUSH2 0x104 JUMP JUMPDEST PUSH2 0xC2 JUMP JUMPDEST STOP JUMPDEST PUSH2 0x9B PUSH1 0x4 DUP1 CALLDATASIZE SUB DUP2 ADD SWAP1 PUSH2 0x96 SWAP2 SWAP1 PUSH2 0x104 JUMP JUMPDEST PUSH2 0xD4 JUMP JUMPDEST PUSH1 0x40 MLOAD PUSH2 0xA8 SWAP2 SWAP1 PUSH2 0x153 JUMP JUMPDEST PUSH1 0x40 MLOAD DUP1 SWAP2 SUB SWAP1 RETURN JUMPDEST PUSH1 0x0 DUP1 PUSH1 0x0 SLOAD PUSH1 0x1 SLOAD SWAP2 POP SWAP2 POP SWAP1 SWAP2 JUMP JUMPDEST DUP2 PUSH1 0x0 DUP2 SWAP1 SSTORE POP DUP1 PUSH1 0x1 DUP2 SWAP1 SSTORE POP POP POP JUMP JUMPDEST PUSH1 0x0 DUP1 DUP3 DUP5 PUSH2 0xE3 SWAP2 SWAP1 PUSH2 0x197 JUMP JUMPDEST SWAP1 POP DUP1 SWAP2 POP POP SWAP3 SWAP2 POP POP JUMP JUMPDEST PUSH1 0x0 DUP2 CALLDATALOAD SWAP1 POP PUSH2 0xFE DUP2 PUSH2 0x269 JUMP JUMPDEST SWAP3 SWAP2 POP POP JUMP JUMPDEST PUSH1 0x0 DUP1 PUSH1 0x40 DUP4 DUP6 SUB SLT ISZERO PUSH2 0x11B JUMPI PUSH2 0x11A PUSH2 0x264 JUMP JUMPDEST JUMPDEST PUSH1 0x0 PUSH2 0x129 DUP6 DUP3 DUP7 ADD PUSH2 0xEF JUMP JUMPDEST SWAP3 POP POP PUSH1 0x20 PUSH2 0x13A DUP6 DUP3 DUP7 ADD PUSH2 0xEF JUMP JUMPDEST SWAP2 POP POP SWAP3 POP SWAP3 SWAP1 POP JUMP JUMPDEST PUSH2 0x14D DUP2 PUSH2 0x22B JUMP JUMPDEST DUP3 MSTORE POP POP JUMP JUMPDEST PUSH1 0x0 PUSH1 0x20 DUP3 ADD SWAP1 POP PUSH2 0x168 PUSH1 0x0 DUP4 ADD DUP5 PUSH2 0x144 JUMP JUMPDEST SWAP3 SWAP2 POP POP JUMP JUMPDEST PUSH1 0x0 PUSH1 0x40 DUP3 ADD SWAP1 POP PUSH2 0x183 PUSH1 0x0 DUP4 ADD DUP6 PUSH2 0x144 JUMP JUMPDEST PUSH2 0x190 PUSH1 0x20 DUP4 ADD DUP5 PUSH2 0x144 JUMP JUMPDEST SWAP4 SWAP3 POP POP POP JUMP JUMPDEST PUSH1 0x0 PUSH2 0x1A2 DUP3 PUSH2 0x22B JUMP JUMPDEST SWAP2 POP PUSH2 0x1AD DUP4 PUSH2 0x22B JUMP JUMPDEST SWAP3 POP DUP2 PUSH32 0x7FFFFFFFFFFFFFFFFFFFFFFFFFFFFFFFFFFFFFFFFFFFFFFFFFFFFFFFFFFFFFFF SUB DUP4 SGT PUSH1 0x0 DUP4 SLT ISZERO AND ISZERO PUSH2 0x1E8 JUMPI PUSH2 0x1E7 PUSH2 0x235 JUMP JUMPDEST JUMPDEST DUP2 PUSH32 0x8000000000000000000000000000000000000000000000000000000000000000 SUB DUP4 SLT PUSH1 0x0 DUP4 SLT AND ISZERO PUSH2 0x220 JUMPI PUSH2 0x21F PUSH2 0x235 JUMP JUMPDEST JUMPDEST DUP3 DUP3 ADD SWAP1 POP SWAP3 SWAP2 POP POP JUMP JUMPDEST PUSH1 0x0 DUP2 SWAP1 POP SWAP2 SWAP1 POP JUMP JUMPDEST PUSH32 0x4E487B7100000000000000000000000000000000000000000000000000000000 PUSH1 0x0 MSTORE PUSH1 0x11 PUSH1 0x4 MSTORE PUSH1 0x24 PUSH1 0x0 REVERT JUMPDEST PUSH1 0x0 DUP1 REVERT JUMPDEST PUSH2 0x272 DUP2 PUSH2 0x22B JUMP JUMPDEST DUP2 EQ PUSH2 0x27D JUMPI PUSH1 0x0 DUP1 REVERT JUMPDEST POP JUMP INVALID LOG2 PUSH5 0x6970667358 0x22 SLT KECCAK256 OR PUSH25 0xE7249EE021A87D3A9F83B178369FB6C28F7E642A74A2DFC123 CODECOPY 0xD6 EQ 0x5D SELFBALANCE PUSH5 0x736F6C6343 STOP ADDMOD MOD STOP CALLER "
				},
				"gasEstimates": {
					"creation": {
						"codeDepositCost": "138800",
						"executionCost": "183",
						"totalCost": "138983"
					},
					"external": {
						"addX(int256,int256)": "infinite",
						"dis()": "infinite",
						"get(int256,int256)": "infinite"
					}
				},
				"methodIdentifiers": {
					"addX(int256,int256)": "8f189b71",
					"dis()": "224dc278",
					"get(int256,int256)": "27cefa37"
				}
			},
			"storageLayout": {
				"storage": [
					{
						"astId": 3,
						"contract": "contracts/viewpure2.sol:viewpure2",
						"label": "x",
						"offset": 0,
						"slot": "0",
						"type": "t_int256"
					},
					{
						"astId": 5,
						"contract": "contracts/viewpure2.sol:viewpure2",
						"label": "y",
						"offset": 0,
						"slot": "1",
						"type": "t_int256"
					}
				],
				"types": {
					"t_int256": {
						"encoding": "inplace",
						"label": "int256",
						"numberOfBytes": "32"
					}
				}
			},
			"userdoc": {
				"kind": "user",
				"methods": {},
				"version": 1
			}
		}
	}
}