{
	"contracts/counter.sol": {
		"Counter": {
			"abi": [
				{
					"inputs": [],
					"name": "addition",
					"outputs": [
						{
							"internalType": "int256",
							"name": "c",
							"type": "int256"
						}
					],
					"stateMutability": "view",
					"type": "function"
				},
				{
					"inputs": [],
					"name": "sustraction",
					"outputs": [
						{
							"internalType": "int256",
							"name": "",
							"type": "int256"
						}
					],
					"stateMutability": "view",
					"type": "function"
				}
			],
			"devdoc": {
				"kind": "dev",
				"methods": {},
				"version": 1
			},
			"evm": {
				"assembly": "    /* \"contracts/counter.sol\":433:733  contract Counter\r... */\n  mstore(0x40, 0x80)\n    /* \"contracts/counter.sol\":460:461  8 */\n  0x08\n    /* \"contracts/counter.sol\":454:461  int a=8 */\n  0x00\n  sstore\n    /* \"contracts/counter.sol\":470:472  10 */\n  0x0a\n    /* \"contracts/counter.sol\":464:472  int b=10 */\n  0x01\n  sstore\n    /* \"contracts/counter.sol\":433:733  contract Counter\r... */\n  callvalue\n  dup1\n  iszero\n  tag_1\n  jumpi\n  0x00\n  dup1\n  revert\ntag_1:\n  pop\n  dataSize(sub_0)\n  dup1\n  dataOffset(sub_0)\n  0x00\n  codecopy\n  0x00\n  return\nstop\n\nsub_0: assembly {\n        /* \"contracts/counter.sol\":433:733  contract Counter\r... */\n      mstore(0x40, 0x80)\n      callvalue\n      dup1\n      iszero\n      tag_1\n      jumpi\n      0x00\n      dup1\n      revert\n    tag_1:\n      pop\n      jumpi(tag_2, lt(calldatasize, 0x04))\n      shr(0xe0, calldataload(0x00))\n      dup1\n      0x63519c51\n      eq\n      tag_3\n      jumpi\n      dup1\n      0xec597128\n      eq\n      tag_4\n      jumpi\n    tag_2:\n      0x00\n      dup1\n      revert\n        /* \"contracts/counter.sol\":655:728  function sustraction() public view returns(int)\r... */\n    tag_3:\n      tag_5\n      tag_6\n      jump\t// in\n    tag_5:\n      mload(0x40)\n      tag_7\n      swap2\n      swap1\n      tag_8\n      jump\t// in\n    tag_7:\n      mload(0x40)\n      dup1\n      swap2\n      sub\n      swap1\n      return\n        /* \"contracts/counter.sol\":576:653  function addition() public view returns (int c)\r... */\n    tag_4:\n      tag_9\n      tag_10\n      jump\t// in\n    tag_9:\n      mload(0x40)\n      tag_11\n      swap2\n      swap1\n      tag_8\n      jump\t// in\n    tag_11:\n      mload(0x40)\n      dup1\n      swap2\n      sub\n      swap1\n      return\n        /* \"contracts/counter.sol\":655:728  function sustraction() public view returns(int)\r... */\n    tag_6:\n        /* \"contracts/counter.sol\":698:701  int */\n      0x00\n        /* \"contracts/counter.sol\":707:712  int d */\n      dup1\n        /* \"contracts/counter.sol\":723:724  b */\n      sload(0x01)\n        /* \"contracts/counter.sol\":721:722  a */\n      sload(0x00)\n        /* \"contracts/counter.sol\":721:724  a-b */\n      tag_13\n      swap2\n      swap1\n      tag_14\n      jump\t// in\n    tag_13:\n        /* \"contracts/counter.sol\":719:724  d=a-b */\n      swap1\n      pop\n        /* \"contracts/counter.sol\":704:728  {\r... */\n      pop\n        /* \"contracts/counter.sol\":655:728  function sustraction() public view returns(int)\r... */\n      swap1\n      jump\t// out\n        /* \"contracts/counter.sol\":576:653  function addition() public view returns (int c)\r... */\n    tag_10:\n        /* \"contracts/counter.sol\":617:622  int c */\n      0x00\n        /* \"contracts/counter.sol\":632:637  int c */\n      dup1\n        /* \"contracts/counter.sol\":648:649  b */\n      sload(0x01)\n        /* \"contracts/counter.sol\":646:647  a */\n      sload(0x00)\n        /* \"contracts/counter.sol\":646:649  a+b */\n      tag_16\n      swap2\n      swap1\n      tag_17\n      jump\t// in\n    tag_16:\n        /* \"contracts/counter.sol\":644:649  c=a+b */\n      swap1\n      pop\n        /* \"contracts/counter.sol\":625:653  {\r... */\n      pop\n        /* \"contracts/counter.sol\":576:653  function addition() public view returns (int c)\r... */\n      swap1\n      jump\t// out\n        /* \"#utility.yul\":7:122   */\n    tag_19:\n        /* \"#utility.yul\":92:115   */\n      tag_21\n        /* \"#utility.yul\":109:114   */\n      dup2\n        /* \"#utility.yul\":92:115   */\n      tag_22\n      jump\t// in\n    tag_21:\n        /* \"#utility.yul\":87:90   */\n      dup3\n        /* \"#utility.yul\":80:116   */\n      mstore\n        /* \"#utility.yul\":7:122   */\n      pop\n      pop\n      jump\t// out\n        /* \"#utility.yul\":128:346   */\n    tag_8:\n        /* \"#utility.yul\":219:223   */\n      0x00\n        /* \"#utility.yul\":257:259   */\n      0x20\n        /* \"#utility.yul\":246:255   */\n      dup3\n        /* \"#utility.yul\":242:260   */\n      add\n        /* \"#utility.yul\":234:260   */\n      swap1\n      pop\n        /* \"#utility.yul\":270:339   */\n      tag_24\n        /* \"#utility.yul\":336:337   */\n      0x00\n        /* \"#utility.yul\":325:334   */\n      dup4\n        /* \"#utility.yul\":321:338   */\n      add\n        /* \"#utility.yul\":312:318   */\n      dup5\n        /* \"#utility.yul\":270:339   */\n      tag_19\n      jump\t// in\n    tag_24:\n        /* \"#utility.yul\":128:346   */\n      swap3\n      swap2\n      pop\n      pop\n      jump\t// out\n        /* \"#utility.yul\":352:877   */\n    tag_17:\n        /* \"#utility.yul\":391:394   */\n      0x00\n        /* \"#utility.yul\":410:429   */\n      tag_26\n        /* \"#utility.yul\":427:428   */\n      dup3\n        /* \"#utility.yul\":410:429   */\n      tag_22\n      jump\t// in\n    tag_26:\n        /* \"#utility.yul\":405:429   */\n      swap2\n      pop\n        /* \"#utility.yul\":443:462   */\n      tag_27\n        /* \"#utility.yul\":460:461   */\n      dup4\n        /* \"#utility.yul\":443:462   */\n      tag_22\n      jump\t// in\n    tag_27:\n        /* \"#utility.yul\":438:462   */\n      swap3\n      pop\n        /* \"#utility.yul\":631:632   */\n      dup2\n        /* \"#utility.yul\":563:629   */\n      0x7fffffffffffffffffffffffffffffffffffffffffffffffffffffffffffffff\n        /* \"#utility.yul\":559:633   */\n      sub\n        /* \"#utility.yul\":556:557   */\n      dup4\n        /* \"#utility.yul\":552:634   */\n      sgt\n        /* \"#utility.yul\":547:548   */\n      0x00\n        /* \"#utility.yul\":544:545   */\n      dup4\n        /* \"#utility.yul\":540:549   */\n      slt\n        /* \"#utility.yul\":533:550   */\n      iszero\n        /* \"#utility.yul\":529:635   */\n      and\n        /* \"#utility.yul\":526:658   */\n      iszero\n      tag_28\n      jumpi\n        /* \"#utility.yul\":638:656   */\n      tag_29\n      tag_30\n      jump\t// in\n    tag_29:\n        /* \"#utility.yul\":526:658   */\n    tag_28:\n        /* \"#utility.yul\":818:819   */\n      dup2\n        /* \"#utility.yul\":750:816   */\n      0x8000000000000000000000000000000000000000000000000000000000000000\n        /* \"#utility.yul\":746:820   */\n      sub\n        /* \"#utility.yul\":743:744   */\n      dup4\n        /* \"#utility.yul\":739:821   */\n      slt\n        /* \"#utility.yul\":735:736   */\n      0x00\n        /* \"#utility.yul\":732:733   */\n      dup4\n        /* \"#utility.yul\":728:737   */\n      slt\n        /* \"#utility.yul\":724:822   */\n      and\n        /* \"#utility.yul\":721:845   */\n      iszero\n      tag_31\n      jumpi\n        /* \"#utility.yul\":825:843   */\n      tag_32\n      tag_30\n      jump\t// in\n    tag_32:\n        /* \"#utility.yul\":721:845   */\n    tag_31:\n        /* \"#utility.yul\":869:870   */\n      dup3\n        /* \"#utility.yul\":866:867   */\n      dup3\n        /* \"#utility.yul\":862:871   */\n      add\n        /* \"#utility.yul\":855:871   */\n      swap1\n      pop\n        /* \"#utility.yul\":352:877   */\n      swap3\n      swap2\n      pop\n      pop\n      jump\t// out\n        /* \"#utility.yul\":883:1410   */\n    tag_14:\n        /* \"#utility.yul\":922:926   */\n      0x00\n        /* \"#utility.yul\":942:961   */\n      tag_34\n        /* \"#utility.yul\":959:960   */\n      dup3\n        /* \"#utility.yul\":942:961   */\n      tag_22\n      jump\t// in\n    tag_34:\n        /* \"#utility.yul\":937:961   */\n      swap2\n      pop\n        /* \"#utility.yul\":975:994   */\n      tag_35\n        /* \"#utility.yul\":992:993   */\n      dup4\n        /* \"#utility.yul\":975:994   */\n      tag_22\n      jump\t// in\n    tag_35:\n        /* \"#utility.yul\":970:994   */\n      swap3\n      pop\n        /* \"#utility.yul\":1164:1165   */\n      dup3\n        /* \"#utility.yul\":1096:1162   */\n      0x8000000000000000000000000000000000000000000000000000000000000000\n        /* \"#utility.yul\":1092:1166   */\n      add\n        /* \"#utility.yul\":1089:1090   */\n      dup3\n        /* \"#utility.yul\":1085:1167   */\n      slt\n        /* \"#utility.yul\":1080:1081   */\n      0x00\n        /* \"#utility.yul\":1077:1078   */\n      dup5\n        /* \"#utility.yul\":1073:1082   */\n      slt\n        /* \"#utility.yul\":1066:1083   */\n      iszero\n        /* \"#utility.yul\":1062:1168   */\n      and\n        /* \"#utility.yul\":1059:1191   */\n      iszero\n      tag_36\n      jumpi\n        /* \"#utility.yul\":1171:1189   */\n      tag_37\n      tag_30\n      jump\t// in\n    tag_37:\n        /* \"#utility.yul\":1059:1191   */\n    tag_36:\n        /* \"#utility.yul\":1350:1351   */\n      dup3\n        /* \"#utility.yul\":1282:1348   */\n      0x7fffffffffffffffffffffffffffffffffffffffffffffffffffffffffffffff\n        /* \"#utility.yul\":1278:1352   */\n      add\n        /* \"#utility.yul\":1275:1276   */\n      dup3\n        /* \"#utility.yul\":1271:1353   */\n      sgt\n        /* \"#utility.yul\":1267:1268   */\n      0x00\n        /* \"#utility.yul\":1264:1265   */\n      dup5\n        /* \"#utility.yul\":1260:1269   */\n      slt\n        /* \"#utility.yul\":1256:1354   */\n      and\n        /* \"#utility.yul\":1253:1377   */\n      iszero\n      tag_38\n      jumpi\n        /* \"#utility.yul\":1357:1375   */\n      tag_39\n      tag_30\n      jump\t// in\n    tag_39:\n        /* \"#utility.yul\":1253:1377   */\n    tag_38:\n        /* \"#utility.yul\":1402:1403   */\n      dup3\n        /* \"#utility.yul\":1399:1400   */\n      dup3\n        /* \"#utility.yul\":1395:1404   */\n      sub\n        /* \"#utility.yul\":1387:1404   */\n      swap1\n      pop\n        /* \"#utility.yul\":883:1410   */\n      swap3\n      swap2\n      pop\n      pop\n      jump\t// out\n        /* \"#utility.yul\":1416:1492   */\n    tag_22:\n        /* \"#utility.yul\":1452:1459   */\n      0x00\n        /* \"#utility.yul\":1481:1486   */\n      dup2\n        /* \"#utility.yul\":1470:1486   */\n      swap1\n      pop\n        /* \"#utility.yul\":1416:1492   */\n      swap2\n      swap1\n      pop\n      jump\t// out\n        /* \"#utility.yul\":1498:1678   */\n    tag_30:\n        /* \"#utility.yul\":1546:1623   */\n      0x4e487b7100000000000000000000000000000000000000000000000000000000\n        /* \"#utility.yul\":1543:1544   */\n      0x00\n        /* \"#utility.yul\":1536:1624   */\n      mstore\n        /* \"#utility.yul\":1643:1647   */\n      0x11\n        /* \"#utility.yul\":1640:1641   */\n      0x04\n        /* \"#utility.yul\":1633:1648   */\n      mstore\n        /* \"#utility.yul\":1667:1671   */\n      0x24\n        /* \"#utility.yul\":1664:1665   */\n      0x00\n        /* \"#utility.yul\":1657:1672   */\n      revert\n\n    auxdata: 0xa26469706673582212203311cda73f1121a2bcd1d0fe7ed0dc2b771939127722f9fc92c9a7c96638aa7b64736f6c63430008070033\n}\n",
				"bytecode": {
					"linkReferences": {},
					"object": "60806040526008600055600a60015534801561001a57600080fd5b5061026a8061002a6000396000f3fe608060405234801561001057600080fd5b50600436106100365760003560e01c806363519c511461003b578063ec59712814610059575b600080fd5b610043610077565b60405161005091906100b8565b60405180910390f35b610061610090565b60405161006e91906100b8565b60405180910390f35b60008060015460005461008a9190610167565b90505090565b6000806001546000546100a391906100d3565b90505090565b6100b2816101fb565b82525050565b60006020820190506100cd60008301846100a9565b92915050565b60006100de826101fb565b91506100e9836101fb565b9250817f7fffffffffffffffffffffffffffffffffffffffffffffffffffffffffffffff0383136000831215161561012457610123610205565b5b817f800000000000000000000000000000000000000000000000000000000000000003831260008312161561015c5761015b610205565b5b828201905092915050565b6000610172826101fb565b915061017d836101fb565b9250827f8000000000000000000000000000000000000000000000000000000000000000018212600084121516156101b8576101b7610205565b5b827f7fffffffffffffffffffffffffffffffffffffffffffffffffffffffffffffff0182136000841216156101f0576101ef610205565b5b828203905092915050565b6000819050919050565b7f4e487b7100000000000000000000000000000000000000000000000000000000600052601160045260246000fdfea26469706673582212203311cda73f1121a2bcd1d0fe7ed0dc2b771939127722f9fc92c9a7c96638aa7b64736f6c63430008070033",
					"opcodes": "PUSH1 0x80 PUSH1 0x40 MSTORE PUSH1 0x8 PUSH1 0x0 SSTORE PUSH1 0xA PUSH1 0x1 SSTORE CALLVALUE DUP1 ISZERO PUSH2 0x1A JUMPI PUSH1 0x0 DUP1 REVERT JUMPDEST POP PUSH2 0x26A DUP1 PUSH2 0x2A PUSH1 0x0 CODECOPY PUSH1 0x0 RETURN INVALID PUSH1 0x80 PUSH1 0x40 MSTORE CALLVALUE DUP1 ISZERO PUSH2 0x10 JUMPI PUSH1 0x0 DUP1 REVERT JUMPDEST POP PUSH1 0x4 CALLDATASIZE LT PUSH2 0x36 JUMPI PUSH1 0x0 CALLDATALOAD PUSH1 0xE0 SHR DUP1 PUSH4 0x63519C51 EQ PUSH2 0x3B JUMPI DUP1 PUSH4 0xEC597128 EQ PUSH2 0x59 JUMPI JUMPDEST PUSH1 0x0 DUP1 REVERT JUMPDEST PUSH2 0x43 PUSH2 0x77 JUMP JUMPDEST PUSH1 0x40 MLOAD PUSH2 0x50 SWAP2 SWAP1 PUSH2 0xB8 JUMP JUMPDEST PUSH1 0x40 MLOAD DUP1 SWAP2 SUB SWAP1 RETURN JUMPDEST PUSH2 0x61 PUSH2 0x90 JUMP JUMPDEST PUSH1 0x40 MLOAD PUSH2 0x6E SWAP2 SWAP1 PUSH2 0xB8 JUMP JUMPDEST PUSH1 0x40 MLOAD DUP1 SWAP2 SUB SWAP1 RETURN JUMPDEST PUSH1 0x0 DUP1 PUSH1 0x1 SLOAD PUSH1 0x0 SLOAD PUSH2 0x8A SWAP2 SWAP1 PUSH2 0x167 JUMP JUMPDEST SWAP1 POP POP SWAP1 JUMP JUMPDEST PUSH1 0x0 DUP1 PUSH1 0x1 SLOAD PUSH1 0x0 SLOAD PUSH2 0xA3 SWAP2 SWAP1 PUSH2 0xD3 JUMP JUMPDEST SWAP1 POP POP SWAP1 JUMP JUMPDEST PUSH2 0xB2 DUP2 PUSH2 0x1FB JUMP JUMPDEST DUP3 MSTORE POP POP JUMP JUMPDEST PUSH1 0x0 PUSH1 0x20 DUP3 ADD SWAP1 POP PUSH2 0xCD PUSH1 0x0 DUP4 ADD DUP5 PUSH2 0xA9 JUMP JUMPDEST SWAP3 SWAP2 POP POP JUMP JUMPDEST PUSH1 0x0 PUSH2 0xDE DUP3 PUSH2 0x1FB JUMP JUMPDEST SWAP2 POP PUSH2 0xE9 DUP4 PUSH2 0x1FB JUMP JUMPDEST SWAP3 POP DUP2 PUSH32 0x7FFFFFFFFFFFFFFFFFFFFFFFFFFFFFFFFFFFFFFFFFFFFFFFFFFFFFFFFFFFFFFF SUB DUP4 SGT PUSH1 0x0 DUP4 SLT ISZERO AND ISZERO PUSH2 0x124 JUMPI PUSH2 0x123 PUSH2 0x205 JUMP JUMPDEST JUMPDEST DUP2 PUSH32 0x8000000000000000000000000000000000000000000000000000000000000000 SUB DUP4 SLT PUSH1 0x0 DUP4 SLT AND ISZERO PUSH2 0x15C JUMPI PUSH2 0x15B PUSH2 0x205 JUMP JUMPDEST JUMPDEST DUP3 DUP3 ADD SWAP1 POP SWAP3 SWAP2 POP POP JUMP JUMPDEST PUSH1 0x0 PUSH2 0x172 DUP3 PUSH2 0x1FB JUMP JUMPDEST SWAP2 POP PUSH2 0x17D DUP4 PUSH2 0x1FB JUMP JUMPDEST SWAP3 POP DUP3 PUSH32 0x8000000000000000000000000000000000000000000000000000000000000000 ADD DUP3 SLT PUSH1 0x0 DUP5 SLT ISZERO AND ISZERO PUSH2 0x1B8 JUMPI PUSH2 0x1B7 PUSH2 0x205 JUMP JUMPDEST JUMPDEST DUP3 PUSH32 0x7FFFFFFFFFFFFFFFFFFFFFFFFFFFFFFFFFFFFFFFFFFFFFFFFFFFFFFFFFFFFFFF ADD DUP3 SGT PUSH1 0x0 DUP5 SLT AND ISZERO PUSH2 0x1F0 JUMPI PUSH2 0x1EF PUSH2 0x205 JUMP JUMPDEST JUMPDEST DUP3 DUP3 SUB SWAP1 POP SWAP3 SWAP2 POP POP JUMP JUMPDEST PUSH1 0x0 DUP2 SWAP1 POP SWAP2 SWAP1 POP JUMP JUMPDEST PUSH32 0x4E487B7100000000000000000000000000000000000000000000000000000000 PUSH1 0x0 MSTORE PUSH1 0x11 PUSH1 0x4 MSTORE PUSH1 0x24 PUSH1 0x0 REVERT INVALID LOG2 PUSH5 0x6970667358 0x22 SLT KECCAK256 CALLER GT 0xCD 0xA7 EXTCODEHASH GT 0x21 LOG2 0xBC 0xD1 0xD0 INVALID PUSH31 0xD0DC2B771939127722F9FC92C9A7C96638AA7B64736F6C6343000807003300 "
				},
				"gasEstimates": {
					"creation": {
						"codeDepositCost": "123600",
						"executionCost": "44383",
						"totalCost": "167983"
					},
					"external": {
						"addition()": "infinite",
						"sustraction()": "infinite"
					}
				},
				"methodIdentifiers": {
					"addition()": "ec597128",
					"sustraction()": "63519c51"
				}
			},
			"storageLayout": {
				"storage": [
					{
						"astId": 4,
						"contract": "contracts/counter.sol:Counter",
						"label": "a",
						"offset": 0,
						"slot": "0",
						"type": "t_int256"
					},
					{
						"astId": 7,
						"contract": "contracts/counter.sol:Counter",
						"label": "b",
						"offset": 0,
						"slot": "1",
						"type": "t_int256"
					}
				],
				"types": {
					"t_int256": {
						"encoding": "inplace",
						"label": "int256",
						"numberOfBytes": "32"
					}
				}
			},
			"userdoc": {
				"kind": "user",
				"methods": {},
				"version": 1
			}
		}
	}
}