{
	"contracts/counter.sol": {
		"Counter": {
			"abi": [
				{
					"inputs": [],
					"name": "dec",
					"outputs": [],
					"stateMutability": "nonpayable",
					"type": "function"
				},
				{
					"inputs": [],
					"name": "get",
					"outputs": [
						{
							"internalType": "uint256",
							"name": "",
							"type": "uint256"
						}
					],
					"stateMutability": "view",
					"type": "function"
				},
				{
					"inputs": [],
					"name": "inc",
					"outputs": [],
					"stateMutability": "nonpayable",
					"type": "function"
				}
			],
			"devdoc": {
				"kind": "dev",
				"methods": {},
				"version": 1
			},
			"evm": {
				"assembly": "    /* \"contracts/counter.sol\":429:821  contract Counter\r... */\n  mstore(0x40, 0x80)\n  callvalue\n  dup1\n  iszero\n  tag_1\n  jumpi\n  0x00\n  dup1\n  revert\ntag_1:\n  pop\n  dataSize(sub_0)\n  dup1\n  dataOffset(sub_0)\n  0x00\n  codecopy\n  0x00\n  return\nstop\n\nsub_0: assembly {\n        /* \"contracts/counter.sol\":429:821  contract Counter\r... */\n      mstore(0x40, 0x80)\n      callvalue\n      dup1\n      iszero\n      tag_1\n      jumpi\n      0x00\n      dup1\n      revert\n    tag_1:\n      pop\n      jumpi(tag_2, lt(calldatasize, 0x04))\n      shr(0xe0, calldataload(0x00))\n      dup1\n      0x371303c0\n      eq\n      tag_3\n      jumpi\n      dup1\n      0x6d4ce63c\n      eq\n      tag_4\n      jumpi\n      dup1\n      0xb3bcfa82\n      eq\n      tag_5\n      jumpi\n    tag_2:\n      0x00\n      dup1\n      revert\n        /* \"contracts/counter.sol\":574:674  function inc() public\r... */\n    tag_3:\n      tag_6\n      tag_7\n      jump\t// in\n    tag_6:\n      stop\n        /* \"contracts/counter.sol\":739:816  function get() public view returns(uint)\r... */\n    tag_4:\n      tag_8\n      tag_9\n      jump\t// in\n    tag_8:\n      mload(0x40)\n      tag_10\n      swap2\n      swap1\n      tag_11\n      jump\t// in\n    tag_10:\n      mload(0x40)\n      dup1\n      swap2\n      sub\n      swap1\n      return\n        /* \"contracts/counter.sol\":680:733  function dec() public\r... */\n    tag_5:\n      tag_12\n      tag_13\n      jump\t// in\n    tag_12:\n      stop\n        /* \"contracts/counter.sol\":574:674  function inc() public\r... */\n    tag_7:\n        /* \"contracts/counter.sol\":612:620  uint one */\n      0x00\n        /* \"contracts/counter.sol\":621:622  1 */\n      0x01\n        /* \"contracts/counter.sol\":612:622  uint one=1 */\n      swap1\n      pop\n        /* \"contracts/counter.sol\":663:666  one */\n      dup1\n        /* \"contracts/counter.sol\":657:662  count */\n      sload(0x00)\n        /* \"contracts/counter.sol\":657:666  count+one */\n      tag_15\n      swap2\n      swap1\n      tag_16\n      jump\t// in\n    tag_15:\n        /* \"contracts/counter.sol\":650:655  count */\n      0x00\n        /* \"contracts/counter.sol\":650:666  count =count+one */\n      dup2\n      swap1\n      sstore\n      pop\n        /* \"contracts/counter.sol\":601:674  {\r... */\n      pop\n        /* \"contracts/counter.sol\":574:674  function inc() public\r... */\n      jump\t// out\n        /* \"contracts/counter.sol\":739:816  function get() public view returns(uint)\r... */\n    tag_9:\n        /* \"contracts/counter.sol\":774:778  uint */\n      0x00\n        /* \"contracts/counter.sol\":803:808  count */\n      dup1\n      sload\n        /* \"contracts/counter.sol\":796:808  return count */\n      swap1\n      pop\n        /* \"contracts/counter.sol\":739:816  function get() public view returns(uint)\r... */\n      swap1\n      jump\t// out\n        /* \"contracts/counter.sol\":680:733  function dec() public\r... */\n    tag_13:\n        /* \"contracts/counter.sol\":718:723  count */\n      0x00\n      dup1\n        /* \"contracts/counter.sol\":718:725  count-- */\n      dup2\n      sload\n      dup1\n      swap3\n      swap2\n      swap1\n      tag_19\n      swap1\n      tag_20\n      jump\t// in\n    tag_19:\n      swap2\n      swap1\n      pop\n      sstore\n      pop\n        /* \"contracts/counter.sol\":680:733  function dec() public\r... */\n      jump\t// out\n        /* \"#utility.yul\":7:125   */\n    tag_22:\n        /* \"#utility.yul\":94:118   */\n      tag_24\n        /* \"#utility.yul\":112:117   */\n      dup2\n        /* \"#utility.yul\":94:118   */\n      tag_25\n      jump\t// in\n    tag_24:\n        /* \"#utility.yul\":89:92   */\n      dup3\n        /* \"#utility.yul\":82:119   */\n      mstore\n        /* \"#utility.yul\":7:125   */\n      pop\n      pop\n      jump\t// out\n        /* \"#utility.yul\":131:353   */\n    tag_11:\n        /* \"#utility.yul\":224:228   */\n      0x00\n        /* \"#utility.yul\":262:264   */\n      0x20\n        /* \"#utility.yul\":251:260   */\n      dup3\n        /* \"#utility.yul\":247:265   */\n      add\n        /* \"#utility.yul\":239:265   */\n      swap1\n      pop\n        /* \"#utility.yul\":275:346   */\n      tag_27\n        /* \"#utility.yul\":343:344   */\n      0x00\n        /* \"#utility.yul\":332:341   */\n      dup4\n        /* \"#utility.yul\":328:345   */\n      add\n        /* \"#utility.yul\":319:325   */\n      dup5\n        /* \"#utility.yul\":275:346   */\n      tag_22\n      jump\t// in\n    tag_27:\n        /* \"#utility.yul\":131:353   */\n      swap3\n      swap2\n      pop\n      pop\n      jump\t// out\n        /* \"#utility.yul\":359:664   */\n    tag_16:\n        /* \"#utility.yul\":399:402   */\n      0x00\n        /* \"#utility.yul\":418:438   */\n      tag_29\n        /* \"#utility.yul\":436:437   */\n      dup3\n        /* \"#utility.yul\":418:438   */\n      tag_25\n      jump\t// in\n    tag_29:\n        /* \"#utility.yul\":413:438   */\n      swap2\n      pop\n        /* \"#utility.yul\":452:472   */\n      tag_30\n        /* \"#utility.yul\":470:471   */\n      dup4\n        /* \"#utility.yul\":452:472   */\n      tag_25\n      jump\t// in\n    tag_30:\n        /* \"#utility.yul\":447:472   */\n      swap3\n      pop\n        /* \"#utility.yul\":606:607   */\n      dup3\n        /* \"#utility.yul\":538:604   */\n      0xffffffffffffffffffffffffffffffffffffffffffffffffffffffffffffffff\n        /* \"#utility.yul\":534:608   */\n      sub\n        /* \"#utility.yul\":531:532   */\n      dup3\n        /* \"#utility.yul\":528:609   */\n      gt\n        /* \"#utility.yul\":525:632   */\n      iszero\n      tag_31\n      jumpi\n        /* \"#utility.yul\":612:630   */\n      tag_32\n      tag_33\n      jump\t// in\n    tag_32:\n        /* \"#utility.yul\":525:632   */\n    tag_31:\n        /* \"#utility.yul\":656:657   */\n      dup3\n        /* \"#utility.yul\":653:654   */\n      dup3\n        /* \"#utility.yul\":649:658   */\n      add\n        /* \"#utility.yul\":642:658   */\n      swap1\n      pop\n        /* \"#utility.yul\":359:664   */\n      swap3\n      swap2\n      pop\n      pop\n      jump\t// out\n        /* \"#utility.yul\":670:747   */\n    tag_25:\n        /* \"#utility.yul\":707:714   */\n      0x00\n        /* \"#utility.yul\":736:741   */\n      dup2\n        /* \"#utility.yul\":725:741   */\n      swap1\n      pop\n        /* \"#utility.yul\":670:747   */\n      swap2\n      swap1\n      pop\n      jump\t// out\n        /* \"#utility.yul\":753:924   */\n    tag_20:\n        /* \"#utility.yul\":792:795   */\n      0x00\n        /* \"#utility.yul\":815:839   */\n      tag_36\n        /* \"#utility.yul\":833:838   */\n      dup3\n        /* \"#utility.yul\":815:839   */\n      tag_25\n      jump\t// in\n    tag_36:\n        /* \"#utility.yul\":806:839   */\n      swap2\n      pop\n        /* \"#utility.yul\":861:865   */\n      0x00\n        /* \"#utility.yul\":854:859   */\n      dup3\n        /* \"#utility.yul\":851:866   */\n      eq\n        /* \"#utility.yul\":848:889   */\n      iszero\n      tag_37\n      jumpi\n        /* \"#utility.yul\":869:887   */\n      tag_38\n      tag_33\n      jump\t// in\n    tag_38:\n        /* \"#utility.yul\":848:889   */\n    tag_37:\n        /* \"#utility.yul\":916:917   */\n      0x01\n        /* \"#utility.yul\":909:914   */\n      dup3\n        /* \"#utility.yul\":905:918   */\n      sub\n        /* \"#utility.yul\":898:918   */\n      swap1\n      pop\n        /* \"#utility.yul\":753:924   */\n      swap2\n      swap1\n      pop\n      jump\t// out\n        /* \"#utility.yul\":930:1110   */\n    tag_33:\n        /* \"#utility.yul\":978:1055   */\n      0x4e487b7100000000000000000000000000000000000000000000000000000000\n        /* \"#utility.yul\":975:976   */\n      0x00\n        /* \"#utility.yul\":968:1056   */\n      mstore\n        /* \"#utility.yul\":1075:1079   */\n      0x11\n        /* \"#utility.yul\":1072:1073   */\n      0x04\n        /* \"#utility.yul\":1065:1080   */\n      mstore\n        /* \"#utility.yul\":1099:1103   */\n      0x24\n        /* \"#utility.yul\":1096:1097   */\n      0x00\n        /* \"#utility.yul\":1089:1104   */\n      revert\n\n    auxdata: 0xa2646970667358221220c24d05aa9999e18aba477be112f01c0531f636695f0b866971b74f430d54806a64736f6c63430008070033\n}\n",
				"bytecode": {
					"linkReferences": {},
					"object": "608060405234801561001057600080fd5b506101d0806100206000396000f3fe608060405234801561001057600080fd5b50600436106100415760003560e01c8063371303c0146100465780636d4ce63c14610050578063b3bcfa821461006e575b600080fd5b61004e610078565b005b610058610095565b60405161006591906100c6565b60405180910390f35b61007661009e565b005b6000600190508060005461008c91906100e1565b60008190555050565b60008054905090565b6000808154809291906100b090610141565b9190505550565b6100c081610137565b82525050565b60006020820190506100db60008301846100b7565b92915050565b60006100ec82610137565b91506100f783610137565b9250827fffffffffffffffffffffffffffffffffffffffffffffffffffffffffffffffff0382111561012c5761012b61016b565b5b828201905092915050565b6000819050919050565b600061014c82610137565b915060008214156101605761015f61016b565b5b600182039050919050565b7f4e487b7100000000000000000000000000000000000000000000000000000000600052601160045260246000fdfea2646970667358221220c24d05aa9999e18aba477be112f01c0531f636695f0b866971b74f430d54806a64736f6c63430008070033",
					"opcodes": "PUSH1 0x80 PUSH1 0x40 MSTORE CALLVALUE DUP1 ISZERO PUSH2 0x10 JUMPI PUSH1 0x0 DUP1 REVERT JUMPDEST POP PUSH2 0x1D0 DUP1 PUSH2 0x20 PUSH1 0x0 CODECOPY PUSH1 0x0 RETURN INVALID PUSH1 0x80 PUSH1 0x40 MSTORE CALLVALUE DUP1 ISZERO PUSH2 0x10 JUMPI PUSH1 0x0 DUP1 REVERT JUMPDEST POP PUSH1 0x4 CALLDATASIZE LT PUSH2 0x41 JUMPI PUSH1 0x0 CALLDATALOAD PUSH1 0xE0 SHR DUP1 PUSH4 0x371303C0 EQ PUSH2 0x46 JUMPI DUP1 PUSH4 0x6D4CE63C EQ PUSH2 0x50 JUMPI DUP1 PUSH4 0xB3BCFA82 EQ PUSH2 0x6E JUMPI JUMPDEST PUSH1 0x0 DUP1 REVERT JUMPDEST PUSH2 0x4E PUSH2 0x78 JUMP JUMPDEST STOP JUMPDEST PUSH2 0x58 PUSH2 0x95 JUMP JUMPDEST PUSH1 0x40 MLOAD PUSH2 0x65 SWAP2 SWAP1 PUSH2 0xC6 JUMP JUMPDEST PUSH1 0x40 MLOAD DUP1 SWAP2 SUB SWAP1 RETURN JUMPDEST PUSH2 0x76 PUSH2 0x9E JUMP JUMPDEST STOP JUMPDEST PUSH1 0x0 PUSH1 0x1 SWAP1 POP DUP1 PUSH1 0x0 SLOAD PUSH2 0x8C SWAP2 SWAP1 PUSH2 0xE1 JUMP JUMPDEST PUSH1 0x0 DUP2 SWAP1 SSTORE POP POP JUMP JUMPDEST PUSH1 0x0 DUP1 SLOAD SWAP1 POP SWAP1 JUMP JUMPDEST PUSH1 0x0 DUP1 DUP2 SLOAD DUP1 SWAP3 SWAP2 SWAP1 PUSH2 0xB0 SWAP1 PUSH2 0x141 JUMP JUMPDEST SWAP2 SWAP1 POP SSTORE POP JUMP JUMPDEST PUSH2 0xC0 DUP2 PUSH2 0x137 JUMP JUMPDEST DUP3 MSTORE POP POP JUMP JUMPDEST PUSH1 0x0 PUSH1 0x20 DUP3 ADD SWAP1 POP PUSH2 0xDB PUSH1 0x0 DUP4 ADD DUP5 PUSH2 0xB7 JUMP JUMPDEST SWAP3 SWAP2 POP POP JUMP JUMPDEST PUSH1 0x0 PUSH2 0xEC DUP3 PUSH2 0x137 JUMP JUMPDEST SWAP2 POP PUSH2 0xF7 DUP4 PUSH2 0x137 JUMP JUMPDEST SWAP3 POP DUP3 PUSH32 0xFFFFFFFFFFFFFFFFFFFFFFFFFFFFFFFFFFFFFFFFFFFFFFFFFFFFFFFFFFFFFFFF SUB DUP3 GT ISZERO PUSH2 0x12C JUMPI PUSH2 0x12B PUSH2 0x16B JUMP JUMPDEST JUMPDEST DUP3 DUP3 ADD SWAP1 POP SWAP3 SWAP2 POP POP JUMP JUMPDEST PUSH1 0x0 DUP2 SWAP1 POP SWAP2 SWAP1 POP JUMP JUMPDEST PUSH1 0x0 PUSH2 0x14C DUP3 PUSH2 0x137 JUMP JUMPDEST SWAP2 POP PUSH1 0x0 DUP3 EQ ISZERO PUSH2 0x160 JUMPI PUSH2 0x15F PUSH2 0x16B JUMP JUMPDEST JUMPDEST PUSH1 0x1 DUP3 SUB SWAP1 POP SWAP2 SWAP1 POP JUMP JUMPDEST PUSH32 0x4E487B7100000000000000000000000000000000000000000000000000000000 PUSH1 0x0 MSTORE PUSH1 0x11 PUSH1 0x4 MSTORE PUSH1 0x24 PUSH1 0x0 REVERT INVALID LOG2 PUSH5 0x6970667358 0x22 SLT KECCAK256 0xC2 0x4D SDIV 0xAA SWAP10 SWAP10 0xE1 DUP11 0xBA SELFBALANCE PUSH28 0xE112F01C0531F636695F0B866971B74F430D54806A64736F6C634300 ADDMOD SMOD STOP CALLER "
				},
				"gasEstimates": {
					"creation": {
						"codeDepositCost": "92800",
						"executionCost": "141",
						"totalCost": "92941"
					},
					"external": {
						"dec()": "24526",
						"get()": "2437",
						"inc()": "infinite"
					}
				},
				"methodIdentifiers": {
					"dec()": "b3bcfa82",
					"get()": "6d4ce63c",
					"inc()": "371303c0"
				}
			},
			"storageLayout": {
				"storage": [
					{
						"astId": 3,
						"contract": "contracts/counter.sol:Counter",
						"label": "count",
						"offset": 0,
						"slot": "0",
						"type": "t_uint256"
					}
				],
				"types": {
					"t_uint256": {
						"encoding": "inplace",
						"label": "uint256",
						"numberOfBytes": "32"
					}
				}
			},
			"userdoc": {
				"kind": "user",
				"methods": {},
				"version": 1
			}
		}
	}
}