{
	"contracts/callsendtx.sol": {
		"sumcal": {
			"abi": [
				{
					"constant": true,
					"inputs": [],
					"name": "getResult",
					"outputs": [
						{
							"internalType": "uint256",
							"name": "",
							"type": "uint256"
						}
					],
					"payable": false,
					"stateMutability": "view",
					"type": "function"
				}
			],
			"devdoc": {
				"methods": {}
			},
			"evm": {
				"assembly": "    /* \"contracts/callsendtx.sol\":57:237  contract sumcal {\r... */\n  mstore(0x40, 0x80)\n  callvalue\n    /* \"--CODEGEN--\":8:17   */\n  dup1\n    /* \"--CODEGEN--\":5:7   */\n  iszero\n  tag_1\n  jumpi\n    /* \"--CODEGEN--\":30:31   */\n  0x00\n    /* \"--CODEGEN--\":27:28   */\n  dup1\n    /* \"--CODEGEN--\":20:32   */\n  revert\n    /* \"--CODEGEN--\":5:7   */\ntag_1:\n    /* \"contracts/callsendtx.sol\":57:237  contract sumcal {\r... */\n  pop\n  dataSize(sub_0)\n  dup1\n  dataOffset(sub_0)\n  0x00\n  codecopy\n  0x00\n  return\nstop\n\nsub_0: assembly {\n        /* \"contracts/callsendtx.sol\":57:237  contract sumcal {\r... */\n      mstore(0x40, 0x80)\n      callvalue\n        /* \"--CODEGEN--\":8:17   */\n      dup1\n        /* \"--CODEGEN--\":5:7   */\n      iszero\n      tag_1\n      jumpi\n        /* \"--CODEGEN--\":30:31   */\n      0x00\n        /* \"--CODEGEN--\":27:28   */\n      dup1\n        /* \"--CODEGEN--\":20:32   */\n      revert\n        /* \"--CODEGEN--\":5:7   */\n    tag_1:\n        /* \"contracts/callsendtx.sol\":57:237  contract sumcal {\r... */\n      pop\n      jumpi(tag_2, lt(calldatasize, 0x04))\n      shr(0xe0, calldataload(0x00))\n      dup1\n      0xde292789\n      eq\n      tag_3\n      jumpi\n    tag_2:\n      0x00\n      dup1\n      revert\n        /* \"contracts/callsendtx.sol\":85:234  function getResult() public view returns (uint) {\r... */\n    tag_3:\n      tag_4\n      tag_5\n      jump\t// in\n    tag_4:\n      mload(0x40)\n      dup1\n      dup3\n      dup2\n      mstore\n      0x20\n      add\n      swap2\n      pop\n      pop\n      mload(0x40)\n      dup1\n      swap2\n      sub\n      swap1\n      return\n    tag_5:\n        /* \"contracts/callsendtx.sol\":127:131  uint */\n      0x00\n        /* \"contracts/callsendtx.sol\":142:148  uint a */\n      dup1\n        /* \"contracts/callsendtx.sol\":151:154  234 */\n      0xea\n        /* \"contracts/callsendtx.sol\":142:154  uint a = 234 */\n      swap1\n      pop\n        /* \"contracts/callsendtx.sol\":163:169  uint b */\n      0x00\n        /* \"contracts/callsendtx.sol\":172:177  23423 */\n      0x5b7f\n        /* \"contracts/callsendtx.sol\":163:177  uint b = 23423 */\n      swap1\n      pop\n        /* \"contracts/callsendtx.sol\":186:197  uint result */\n      0x00\n        /* \"contracts/callsendtx.sol\":204:205  b */\n      dup2\n        /* \"contracts/callsendtx.sol\":200:201  a */\n      dup4\n        /* \"contracts/callsendtx.sol\":200:205  a + b */\n      add\n        /* \"contracts/callsendtx.sol\":186:205  uint result = a + b */\n      swap1\n      pop\n        /* \"contracts/callsendtx.sol\":221:227  result */\n      dup1\n        /* \"contracts/callsendtx.sol\":214:227  return result */\n      swap4\n      pop\n      pop\n      pop\n      pop\n        /* \"contracts/callsendtx.sol\":85:234  function getResult() public view returns (uint) {\r... */\n      swap1\n      jump\t// out\n\n    auxdata: 0xa265627a7a72315820cdc81297b6979d4c4849523a5a7940a262c7604bf190cc8bbbf3031e3e19e8ac64736f6c63430005110032\n}\n",
				"bytecode": {
					"linkReferences": {},
					"object": "6080604052348015600f57600080fd5b50609c8061001e6000396000f3fe6080604052348015600f57600080fd5b506004361060285760003560e01c8063de29278914602d575b600080fd5b60336049565b6040518082815260200191505060405180910390f35b60008060ea90506000615b7f9050600081830190508093505050509056fea265627a7a72315820cdc81297b6979d4c4849523a5a7940a262c7604bf190cc8bbbf3031e3e19e8ac64736f6c63430005110032",
					"opcodes": "PUSH1 0x80 PUSH1 0x40 MSTORE CALLVALUE DUP1 ISZERO PUSH1 0xF JUMPI PUSH1 0x0 DUP1 REVERT JUMPDEST POP PUSH1 0x9C DUP1 PUSH2 0x1E PUSH1 0x0 CODECOPY PUSH1 0x0 RETURN INVALID PUSH1 0x80 PUSH1 0x40 MSTORE CALLVALUE DUP1 ISZERO PUSH1 0xF JUMPI PUSH1 0x0 DUP1 REVERT JUMPDEST POP PUSH1 0x4 CALLDATASIZE LT PUSH1 0x28 JUMPI PUSH1 0x0 CALLDATALOAD PUSH1 0xE0 SHR DUP1 PUSH4 0xDE292789 EQ PUSH1 0x2D JUMPI JUMPDEST PUSH1 0x0 DUP1 REVERT JUMPDEST PUSH1 0x33 PUSH1 0x49 JUMP JUMPDEST PUSH1 0x40 MLOAD DUP1 DUP3 DUP2 MSTORE PUSH1 0x20 ADD SWAP2 POP POP PUSH1 0x40 MLOAD DUP1 SWAP2 SUB SWAP1 RETURN JUMPDEST PUSH1 0x0 DUP1 PUSH1 0xEA SWAP1 POP PUSH1 0x0 PUSH2 0x5B7F SWAP1 POP PUSH1 0x0 DUP2 DUP4 ADD SWAP1 POP DUP1 SWAP4 POP POP POP POP SWAP1 JUMP INVALID LOG2 PUSH6 0x627A7A723158 KECCAK256 0xCD 0xC8 SLT SWAP8 0xB6 SWAP8 SWAP14 0x4C 0x48 0x49 MSTORE GASPRICE GAS PUSH26 0x40A262C7604BF190CC8BBBF3031E3E19E8AC64736F6C63430005 GT STOP ORIGIN "
				},
				"gasEstimates": {
					"creation": {
						"codeDepositCost": "31200",
						"executionCost": "81",
						"totalCost": "31281"
					},
					"external": {
						"getResult()": "236"
					}
				},
				"methodIdentifiers": {
					"getResult()": "de292789"
				}
			},
			"storageLayout": {
				"storage": [],
				"types": null
			},
			"userdoc": {
				"methods": {}
			}
		}
	}
}