{
	"contracts/event.sol": {
		"evenLog": {
			"abi": [
				{
					"anonymous": false,
					"inputs": [],
					"name": "Event2",
					"type": "event"
				},
				{
					"anonymous": false,
					"inputs": [
						{
							"indexed": true,
							"internalType": "address",
							"name": "sender",
							"type": "address"
						},
						{
							"indexed": false,
							"internalType": "string",
							"name": "message",
							"type": "string"
						}
					],
					"name": "Log",
					"type": "event"
				},
				{
					"inputs": [],
					"name": "testEventWorking",
					"outputs": [],
					"stateMutability": "nonpayable",
					"type": "function"
				}
			],
			"devdoc": {
				"kind": "dev",
				"methods": {},
				"version": 1
			},
			"evm": {
				"assembly": "    /* \"contracts/event.sol\":55:636  contract evenLog{\r... */\n  mstore(0x40, 0x80)\n  callvalue\n  dup1\n  iszero\n  tag_1\n  jumpi\n  0x00\n  dup1\n  revert\ntag_1:\n  pop\n  dataSize(sub_0)\n  dup1\n  dataOffset(sub_0)\n  0x00\n  codecopy\n  0x00\n  return\nstop\n\nsub_0: assembly {\n        /* \"contracts/event.sol\":55:636  contract evenLog{\r... */\n      mstore(0x40, 0x80)\n      callvalue\n      dup1\n      iszero\n      tag_1\n      jumpi\n      0x00\n      dup1\n      revert\n    tag_1:\n      pop\n      jumpi(tag_2, lt(calldatasize, 0x04))\n      shr(0xe0, calldataload(0x00))\n      dup1\n      0x8a173ce9\n      eq\n      tag_3\n      jumpi\n    tag_2:\n      0x00\n      dup1\n      revert\n        /* \"contracts/event.sol\":453:633  function testEventWorking() public {\r... */\n    tag_3:\n      tag_4\n      tag_5\n      jump\t// in\n    tag_4:\n      stop\n    tag_5:\n        /* \"contracts/event.sol\":508:518  msg.sender */\n      caller\n        /* \"contracts/event.sol\":504:542  Log(msg.sender,\"Blockchain is awsome\") */\n      0xffffffffffffffffffffffffffffffffffffffff\n      and\n      0x0738f4da267a110d810e6e89fc59e46be6de0c37b1d5cd559b267dc3688e74e0\n      mload(0x40)\n      tag_7\n      swap1\n      tag_8\n      jump\t// in\n    tag_7:\n      mload(0x40)\n      dup1\n      swap2\n      sub\n      swap1\n      log2\n        /* \"contracts/event.sol\":562:572  msg.sender */\n      caller\n        /* \"contracts/event.sol\":558:601  Log(msg.sender,\"User created successfully\") */\n      0xffffffffffffffffffffffffffffffffffffffff\n      and\n      0x0738f4da267a110d810e6e89fc59e46be6de0c37b1d5cd559b267dc3688e74e0\n      mload(0x40)\n      tag_9\n      swap1\n      tag_10\n      jump\t// in\n    tag_9:\n      mload(0x40)\n      dup1\n      swap2\n      sub\n      swap1\n      log2\n        /* \"contracts/event.sol\":617:625  Event2() */\n      0xf8eb641b4da774cab432e72f24b258ec539677496d7f9ec48fcbb16fda0e4425\n      mload(0x40)\n      mload(0x40)\n      dup1\n      swap2\n      sub\n      swap1\n      log1\n        /* \"contracts/event.sol\":453:633  function testEventWorking() public {\r... */\n      jump\t// out\n        /* \"#utility.yul\":7:373   */\n    tag_12:\n        /* \"#utility.yul\":149:152   */\n      0x00\n        /* \"#utility.yul\":170:237   */\n      tag_14\n        /* \"#utility.yul\":234:236   */\n      0x14\n        /* \"#utility.yul\":229:232   */\n      dup4\n        /* \"#utility.yul\":170:237   */\n      tag_15\n      jump\t// in\n    tag_14:\n        /* \"#utility.yul\":163:237   */\n      swap2\n      pop\n        /* \"#utility.yul\":246:339   */\n      tag_16\n        /* \"#utility.yul\":335:338   */\n      dup3\n        /* \"#utility.yul\":246:339   */\n      tag_17\n      jump\t// in\n    tag_16:\n        /* \"#utility.yul\":364:366   */\n      0x20\n        /* \"#utility.yul\":359:362   */\n      dup3\n        /* \"#utility.yul\":355:367   */\n      add\n        /* \"#utility.yul\":348:367   */\n      swap1\n      pop\n        /* \"#utility.yul\":153:373   */\n      swap2\n      swap1\n      pop\n      jump\t// out\n        /* \"#utility.yul\":379:745   */\n    tag_18:\n        /* \"#utility.yul\":521:524   */\n      0x00\n        /* \"#utility.yul\":542:609   */\n      tag_20\n        /* \"#utility.yul\":606:608   */\n      0x19\n        /* \"#utility.yul\":601:604   */\n      dup4\n        /* \"#utility.yul\":542:609   */\n      tag_15\n      jump\t// in\n    tag_20:\n        /* \"#utility.yul\":535:609   */\n      swap2\n      pop\n        /* \"#utility.yul\":618:711   */\n      tag_21\n        /* \"#utility.yul\":707:710   */\n      dup3\n        /* \"#utility.yul\":618:711   */\n      tag_22\n      jump\t// in\n    tag_21:\n        /* \"#utility.yul\":736:738   */\n      0x20\n        /* \"#utility.yul\":731:734   */\n      dup3\n        /* \"#utility.yul\":727:739   */\n      add\n        /* \"#utility.yul\":720:739   */\n      swap1\n      pop\n        /* \"#utility.yul\":525:745   */\n      swap2\n      swap1\n      pop\n      jump\t// out\n        /* \"#utility.yul\":751:1170   */\n    tag_8:\n        /* \"#utility.yul\":917:921   */\n      0x00\n        /* \"#utility.yul\":955:957   */\n      0x20\n        /* \"#utility.yul\":944:953   */\n      dup3\n        /* \"#utility.yul\":940:958   */\n      add\n        /* \"#utility.yul\":932:958   */\n      swap1\n      pop\n        /* \"#utility.yul\":1004:1013   */\n      dup2\n        /* \"#utility.yul\":998:1002   */\n      dup2\n        /* \"#utility.yul\":994:1014   */\n      sub\n        /* \"#utility.yul\":990:991   */\n      0x00\n        /* \"#utility.yul\":979:988   */\n      dup4\n        /* \"#utility.yul\":975:992   */\n      add\n        /* \"#utility.yul\":968:1015   */\n      mstore\n        /* \"#utility.yul\":1032:1163   */\n      tag_24\n        /* \"#utility.yul\":1158:1162   */\n      dup2\n        /* \"#utility.yul\":1032:1163   */\n      tag_12\n      jump\t// in\n    tag_24:\n        /* \"#utility.yul\":1024:1163   */\n      swap1\n      pop\n        /* \"#utility.yul\":922:1170   */\n      swap2\n      swap1\n      pop\n      jump\t// out\n        /* \"#utility.yul\":1176:1595   */\n    tag_10:\n        /* \"#utility.yul\":1342:1346   */\n      0x00\n        /* \"#utility.yul\":1380:1382   */\n      0x20\n        /* \"#utility.yul\":1369:1378   */\n      dup3\n        /* \"#utility.yul\":1365:1383   */\n      add\n        /* \"#utility.yul\":1357:1383   */\n      swap1\n      pop\n        /* \"#utility.yul\":1429:1438   */\n      dup2\n        /* \"#utility.yul\":1423:1427   */\n      dup2\n        /* \"#utility.yul\":1419:1439   */\n      sub\n        /* \"#utility.yul\":1415:1416   */\n      0x00\n        /* \"#utility.yul\":1404:1413   */\n      dup4\n        /* \"#utility.yul\":1400:1417   */\n      add\n        /* \"#utility.yul\":1393:1440   */\n      mstore\n        /* \"#utility.yul\":1457:1588   */\n      tag_26\n        /* \"#utility.yul\":1583:1587   */\n      dup2\n        /* \"#utility.yul\":1457:1588   */\n      tag_18\n      jump\t// in\n    tag_26:\n        /* \"#utility.yul\":1449:1588   */\n      swap1\n      pop\n        /* \"#utility.yul\":1347:1595   */\n      swap2\n      swap1\n      pop\n      jump\t// out\n        /* \"#utility.yul\":1601:1770   */\n    tag_15:\n        /* \"#utility.yul\":1685:1696   */\n      0x00\n        /* \"#utility.yul\":1719:1725   */\n      dup3\n        /* \"#utility.yul\":1714:1717   */\n      dup3\n        /* \"#utility.yul\":1707:1726   */\n      mstore\n        /* \"#utility.yul\":1759:1763   */\n      0x20\n        /* \"#utility.yul\":1754:1757   */\n      dup3\n        /* \"#utility.yul\":1750:1764   */\n      add\n        /* \"#utility.yul\":1735:1764   */\n      swap1\n      pop\n        /* \"#utility.yul\":1697:1770   */\n      swap3\n      swap2\n      pop\n      pop\n      jump\t// out\n        /* \"#utility.yul\":1776:1946   */\n    tag_17:\n        /* \"#utility.yul\":1916:1938   */\n      0x426c6f636b636861696e206973206177736f6d65000000000000000000000000\n        /* \"#utility.yul\":1912:1913   */\n      0x00\n        /* \"#utility.yul\":1904:1910   */\n      dup3\n        /* \"#utility.yul\":1900:1914   */\n      add\n        /* \"#utility.yul\":1893:1939   */\n      mstore\n        /* \"#utility.yul\":1882:1946   */\n      pop\n      jump\t// out\n        /* \"#utility.yul\":1952:2127   */\n    tag_22:\n        /* \"#utility.yul\":2092:2119   */\n      0x557365722063726561746564207375636365737366756c6c7900000000000000\n        /* \"#utility.yul\":2088:2089   */\n      0x00\n        /* \"#utility.yul\":2080:2086   */\n      dup3\n        /* \"#utility.yul\":2076:2090   */\n      add\n        /* \"#utility.yul\":2069:2120   */\n      mstore\n        /* \"#utility.yul\":2058:2127   */\n      pop\n      jump\t// out\n\n    auxdata: 0xa2646970667358221220bb4280024a223e97ae005442e4ae127eab4648eed1d04166fe49caf9d88ecb9164736f6c63430008060033\n}\n",
				"bytecode": {
					"linkReferences": {},
					"object": "608060405234801561001057600080fd5b5061021f806100206000396000f3fe608060405234801561001057600080fd5b506004361061002b5760003560e01c80638a173ce914610030575b600080fd5b61003861003a565b005b3373ffffffffffffffffffffffffffffffffffffffff167f0738f4da267a110d810e6e89fc59e46be6de0c37b1d5cd559b267dc3688e74e060405161007e90610146565b60405180910390a23373ffffffffffffffffffffffffffffffffffffffff167f0738f4da267a110d810e6e89fc59e46be6de0c37b1d5cd559b267dc3688e74e06040516100ca90610166565b60405180910390a27ff8eb641b4da774cab432e72f24b258ec539677496d7f9ec48fcbb16fda0e442560405160405180910390a1565b600061010d601483610186565b915061011882610197565b602082019050919050565b6000610130601983610186565b915061013b826101c0565b602082019050919050565b6000602082019050818103600083015261015f81610100565b9050919050565b6000602082019050818103600083015261017f81610123565b9050919050565b600082825260208201905092915050565b7f426c6f636b636861696e206973206177736f6d65000000000000000000000000600082015250565b7f557365722063726561746564207375636365737366756c6c790000000000000060008201525056fea2646970667358221220bb4280024a223e97ae005442e4ae127eab4648eed1d04166fe49caf9d88ecb9164736f6c63430008060033",
					"opcodes": "PUSH1 0x80 PUSH1 0x40 MSTORE CALLVALUE DUP1 ISZERO PUSH2 0x10 JUMPI PUSH1 0x0 DUP1 REVERT JUMPDEST POP PUSH2 0x21F DUP1 PUSH2 0x20 PUSH1 0x0 CODECOPY PUSH1 0x0 RETURN INVALID PUSH1 0x80 PUSH1 0x40 MSTORE CALLVALUE DUP1 ISZERO PUSH2 0x10 JUMPI PUSH1 0x0 DUP1 REVERT JUMPDEST POP PUSH1 0x4 CALLDATASIZE LT PUSH2 0x2B JUMPI PUSH1 0x0 CALLDATALOAD PUSH1 0xE0 SHR DUP1 PUSH4 0x8A173CE9 EQ PUSH2 0x30 JUMPI JUMPDEST PUSH1 0x0 DUP1 REVERT JUMPDEST PUSH2 0x38 PUSH2 0x3A JUMP JUMPDEST STOP JUMPDEST CALLER PUSH20 0xFFFFFFFFFFFFFFFFFFFFFFFFFFFFFFFFFFFFFFFF AND PUSH32 0x738F4DA267A110D810E6E89FC59E46BE6DE0C37B1D5CD559B267DC3688E74E0 PUSH1 0x40 MLOAD PUSH2 0x7E SWAP1 PUSH2 0x146 JUMP JUMPDEST PUSH1 0x40 MLOAD DUP1 SWAP2 SUB SWAP1 LOG2 CALLER PUSH20 0xFFFFFFFFFFFFFFFFFFFFFFFFFFFFFFFFFFFFFFFF AND PUSH32 0x738F4DA267A110D810E6E89FC59E46BE6DE0C37B1D5CD559B267DC3688E74E0 PUSH1 0x40 MLOAD PUSH2 0xCA SWAP1 PUSH2 0x166 JUMP JUMPDEST PUSH1 0x40 MLOAD DUP1 SWAP2 SUB SWAP1 LOG2 PUSH32 0xF8EB641B4DA774CAB432E72F24B258EC539677496D7F9EC48FCBB16FDA0E4425 PUSH1 0x40 MLOAD PUSH1 0x40 MLOAD DUP1 SWAP2 SUB SWAP1 LOG1 JUMP JUMPDEST PUSH1 0x0 PUSH2 0x10D PUSH1 0x14 DUP4 PUSH2 0x186 JUMP JUMPDEST SWAP2 POP PUSH2 0x118 DUP3 PUSH2 0x197 JUMP JUMPDEST PUSH1 0x20 DUP3 ADD SWAP1 POP SWAP2 SWAP1 POP JUMP JUMPDEST PUSH1 0x0 PUSH2 0x130 PUSH1 0x19 DUP4 PUSH2 0x186 JUMP JUMPDEST SWAP2 POP PUSH2 0x13B DUP3 PUSH2 0x1C0 JUMP JUMPDEST PUSH1 0x20 DUP3 ADD SWAP1 POP SWAP2 SWAP1 POP JUMP JUMPDEST PUSH1 0x0 PUSH1 0x20 DUP3 ADD SWAP1 POP DUP2 DUP2 SUB PUSH1 0x0 DUP4 ADD MSTORE PUSH2 0x15F DUP2 PUSH2 0x100 JUMP JUMPDEST SWAP1 POP SWAP2 SWAP1 POP JUMP JUMPDEST PUSH1 0x0 PUSH1 0x20 DUP3 ADD SWAP1 POP DUP2 DUP2 SUB PUSH1 0x0 DUP4 ADD MSTORE PUSH2 0x17F DUP2 PUSH2 0x123 JUMP JUMPDEST SWAP1 POP SWAP2 SWAP1 POP JUMP JUMPDEST PUSH1 0x0 DUP3 DUP3 MSTORE PUSH1 0x20 DUP3 ADD SWAP1 POP SWAP3 SWAP2 POP POP JUMP JUMPDEST PUSH32 0x426C6F636B636861696E206973206177736F6D65000000000000000000000000 PUSH1 0x0 DUP3 ADD MSTORE POP JUMP JUMPDEST PUSH32 0x557365722063726561746564207375636365737366756C6C7900000000000000 PUSH1 0x0 DUP3 ADD MSTORE POP JUMP INVALID LOG2 PUSH5 0x6970667358 0x22 SLT KECCAK256 0xBB TIMESTAMP DUP1 MUL 0x4A 0x22 RETURNDATACOPY SWAP8 0xAE STOP SLOAD TIMESTAMP 0xE4 0xAE SLT PUSH31 0xAB4648EED1D04166FE49CAF9D88ECB9164736F6C6343000806003300000000 "
				},
				"gasEstimates": {
					"creation": {
						"codeDepositCost": "108600",
						"executionCost": "153",
						"totalCost": "108753"
					},
					"external": {
						"testEventWorking()": "infinite"
					}
				},
				"methodIdentifiers": {
					"testEventWorking()": "8a173ce9"
				}
			},
			"storageLayout": {
				"storage": [],
				"types": null
			},
			"userdoc": {
				"kind": "user",
				"methods": {},
				"version": 1
			}
		}
	}
}