{
	"contracts/counter.sol": {
		"Counter": {
			"abi": [
				{
					"inputs": [],
					"name": "addition",
					"outputs": [],
					"stateMutability": "nonpayable",
					"type": "function"
				},
				{
					"inputs": [],
					"name": "sustraction",
					"outputs": [],
					"stateMutability": "nonpayable",
					"type": "function"
				}
			],
			"devdoc": {
				"kind": "dev",
				"methods": {},
				"version": 1
			},
			"evm": {
				"assembly": "    /* \"contracts/counter.sol\":433:689  contract Counter\r... */\n  mstore(0x40, 0x80)\n    /* \"contracts/counter.sol\":460:461  8 */\n  0x08\n    /* \"contracts/counter.sol\":454:461  int a=8 */\n  0x00\n  sstore\n    /* \"contracts/counter.sol\":433:689  contract Counter\r... */\n  callvalue\n  dup1\n  iszero\n  tag_1\n  jumpi\n  0x00\n  dup1\n  revert\ntag_1:\n  pop\n  dataSize(sub_0)\n  dup1\n  dataOffset(sub_0)\n  0x00\n  codecopy\n  0x00\n  return\nstop\n\nsub_0: assembly {\n        /* \"contracts/counter.sol\":433:689  contract Counter\r... */\n      mstore(0x40, 0x80)\n      callvalue\n      dup1\n      iszero\n      tag_1\n      jumpi\n      0x00\n      dup1\n      revert\n    tag_1:\n      pop\n      jumpi(tag_2, lt(calldatasize, 0x04))\n      shr(0xe0, calldataload(0x00))\n      dup1\n      0x63519c51\n      eq\n      tag_3\n      jumpi\n      dup1\n      0xec597128\n      eq\n      tag_4\n      jumpi\n    tag_2:\n      0x00\n      dup1\n      revert\n        /* \"contracts/counter.sol\":635:683  function sustraction() public \r... */\n    tag_3:\n      tag_5\n      tag_6\n      jump\t// in\n    tag_5:\n      stop\n        /* \"contracts/counter.sol\":587:633  function addition() public  \r... */\n    tag_4:\n      tag_7\n      tag_8\n      jump\t// in\n    tag_7:\n      stop\n        /* \"contracts/counter.sol\":635:683  function sustraction() public \r... */\n    tag_6:\n        /* \"contracts/counter.sol\":678:679  b */\n      sload(0x01)\n        /* \"contracts/counter.sol\":676:677  a */\n      sload(0x00)\n        /* \"contracts/counter.sol\":676:679  a-b */\n      tag_10\n      swap2\n      swap1\n      tag_11\n      jump\t// in\n    tag_10:\n        /* \"contracts/counter.sol\":674:675  d */\n      0x03\n        /* \"contracts/counter.sol\":674:679  d=a-b */\n      dup2\n      swap1\n      sstore\n      pop\n        /* \"contracts/counter.sol\":635:683  function sustraction() public \r... */\n      jump\t// out\n        /* \"contracts/counter.sol\":587:633  function addition() public  \r... */\n    tag_8:\n        /* \"contracts/counter.sol\":628:629  b */\n      sload(0x01)\n        /* \"contracts/counter.sol\":626:627  a */\n      sload(0x00)\n        /* \"contracts/counter.sol\":626:629  a+b */\n      tag_13\n      swap2\n      swap1\n      tag_14\n      jump\t// in\n    tag_13:\n        /* \"contracts/counter.sol\":624:625  c */\n      0x02\n        /* \"contracts/counter.sol\":624:629  c=a+b */\n      dup2\n      swap1\n      sstore\n      pop\n        /* \"contracts/counter.sol\":587:633  function addition() public  \r... */\n      jump\t// out\n        /* \"#utility.yul\":7:532   */\n    tag_14:\n        /* \"#utility.yul\":46:49   */\n      0x00\n        /* \"#utility.yul\":65:84   */\n      tag_17\n        /* \"#utility.yul\":82:83   */\n      dup3\n        /* \"#utility.yul\":65:84   */\n      tag_18\n      jump\t// in\n    tag_17:\n        /* \"#utility.yul\":60:84   */\n      swap2\n      pop\n        /* \"#utility.yul\":98:117   */\n      tag_19\n        /* \"#utility.yul\":115:116   */\n      dup4\n        /* \"#utility.yul\":98:117   */\n      tag_18\n      jump\t// in\n    tag_19:\n        /* \"#utility.yul\":93:117   */\n      swap3\n      pop\n        /* \"#utility.yul\":286:287   */\n      dup2\n        /* \"#utility.yul\":218:284   */\n      0x7fffffffffffffffffffffffffffffffffffffffffffffffffffffffffffffff\n        /* \"#utility.yul\":214:288   */\n      sub\n        /* \"#utility.yul\":211:212   */\n      dup4\n        /* \"#utility.yul\":207:289   */\n      sgt\n        /* \"#utility.yul\":202:203   */\n      0x00\n        /* \"#utility.yul\":199:200   */\n      dup4\n        /* \"#utility.yul\":195:204   */\n      slt\n        /* \"#utility.yul\":188:205   */\n      iszero\n        /* \"#utility.yul\":184:290   */\n      and\n        /* \"#utility.yul\":181:313   */\n      iszero\n      tag_20\n      jumpi\n        /* \"#utility.yul\":293:311   */\n      tag_21\n      tag_22\n      jump\t// in\n    tag_21:\n        /* \"#utility.yul\":181:313   */\n    tag_20:\n        /* \"#utility.yul\":473:474   */\n      dup2\n        /* \"#utility.yul\":405:471   */\n      0x8000000000000000000000000000000000000000000000000000000000000000\n        /* \"#utility.yul\":401:475   */\n      sub\n        /* \"#utility.yul\":398:399   */\n      dup4\n        /* \"#utility.yul\":394:476   */\n      slt\n        /* \"#utility.yul\":390:391   */\n      0x00\n        /* \"#utility.yul\":387:388   */\n      dup4\n        /* \"#utility.yul\":383:392   */\n      slt\n        /* \"#utility.yul\":379:477   */\n      and\n        /* \"#utility.yul\":376:500   */\n      iszero\n      tag_23\n      jumpi\n        /* \"#utility.yul\":480:498   */\n      tag_24\n      tag_22\n      jump\t// in\n    tag_24:\n        /* \"#utility.yul\":376:500   */\n    tag_23:\n        /* \"#utility.yul\":524:525   */\n      dup3\n        /* \"#utility.yul\":521:522   */\n      dup3\n        /* \"#utility.yul\":517:526   */\n      add\n        /* \"#utility.yul\":510:526   */\n      swap1\n      pop\n        /* \"#utility.yul\":7:532   */\n      swap3\n      swap2\n      pop\n      pop\n      jump\t// out\n        /* \"#utility.yul\":538:1065   */\n    tag_11:\n        /* \"#utility.yul\":577:581   */\n      0x00\n        /* \"#utility.yul\":597:616   */\n      tag_26\n        /* \"#utility.yul\":614:615   */\n      dup3\n        /* \"#utility.yul\":597:616   */\n      tag_18\n      jump\t// in\n    tag_26:\n        /* \"#utility.yul\":592:616   */\n      swap2\n      pop\n        /* \"#utility.yul\":630:649   */\n      tag_27\n        /* \"#utility.yul\":647:648   */\n      dup4\n        /* \"#utility.yul\":630:649   */\n      tag_18\n      jump\t// in\n    tag_27:\n        /* \"#utility.yul\":625:649   */\n      swap3\n      pop\n        /* \"#utility.yul\":819:820   */\n      dup3\n        /* \"#utility.yul\":751:817   */\n      0x8000000000000000000000000000000000000000000000000000000000000000\n        /* \"#utility.yul\":747:821   */\n      add\n        /* \"#utility.yul\":744:745   */\n      dup3\n        /* \"#utility.yul\":740:822   */\n      slt\n        /* \"#utility.yul\":735:736   */\n      0x00\n        /* \"#utility.yul\":732:733   */\n      dup5\n        /* \"#utility.yul\":728:737   */\n      slt\n        /* \"#utility.yul\":721:738   */\n      iszero\n        /* \"#utility.yul\":717:823   */\n      and\n        /* \"#utility.yul\":714:846   */\n      iszero\n      tag_28\n      jumpi\n        /* \"#utility.yul\":826:844   */\n      tag_29\n      tag_22\n      jump\t// in\n    tag_29:\n        /* \"#utility.yul\":714:846   */\n    tag_28:\n        /* \"#utility.yul\":1005:1006   */\n      dup3\n        /* \"#utility.yul\":937:1003   */\n      0x7fffffffffffffffffffffffffffffffffffffffffffffffffffffffffffffff\n        /* \"#utility.yul\":933:1007   */\n      add\n        /* \"#utility.yul\":930:931   */\n      dup3\n        /* \"#utility.yul\":926:1008   */\n      sgt\n        /* \"#utility.yul\":922:923   */\n      0x00\n        /* \"#utility.yul\":919:920   */\n      dup5\n        /* \"#utility.yul\":915:924   */\n      slt\n        /* \"#utility.yul\":911:1009   */\n      and\n        /* \"#utility.yul\":908:1032   */\n      iszero\n      tag_30\n      jumpi\n        /* \"#utility.yul\":1012:1030   */\n      tag_31\n      tag_22\n      jump\t// in\n    tag_31:\n        /* \"#utility.yul\":908:1032   */\n    tag_30:\n        /* \"#utility.yul\":1057:1058   */\n      dup3\n        /* \"#utility.yul\":1054:1055   */\n      dup3\n        /* \"#utility.yul\":1050:1059   */\n      sub\n        /* \"#utility.yul\":1042:1059   */\n      swap1\n      pop\n        /* \"#utility.yul\":538:1065   */\n      swap3\n      swap2\n      pop\n      pop\n      jump\t// out\n        /* \"#utility.yul\":1071:1147   */\n    tag_18:\n        /* \"#utility.yul\":1107:1114   */\n      0x00\n        /* \"#utility.yul\":1136:1141   */\n      dup2\n        /* \"#utility.yul\":1125:1141   */\n      swap1\n      pop\n        /* \"#utility.yul\":1071:1147   */\n      swap2\n      swap1\n      pop\n      jump\t// out\n        /* \"#utility.yul\":1153:1333   */\n    tag_22:\n        /* \"#utility.yul\":1201:1278   */\n      0x4e487b7100000000000000000000000000000000000000000000000000000000\n        /* \"#utility.yul\":1198:1199   */\n      0x00\n        /* \"#utility.yul\":1191:1279   */\n      mstore\n        /* \"#utility.yul\":1298:1302   */\n      0x11\n        /* \"#utility.yul\":1295:1296   */\n      0x04\n        /* \"#utility.yul\":1288:1303   */\n      mstore\n        /* \"#utility.yul\":1322:1326   */\n      0x24\n        /* \"#utility.yul\":1319:1320   */\n      0x00\n        /* \"#utility.yul\":1312:1327   */\n      revert\n\n    auxdata: 0xa2646970667358221220a29e0560c68755ad4d9452ec81b46ffbe6acda1ffd4e3a0a10463f32f8fa77fc64736f6c63430008070033\n}\n",
				"bytecode": {
					"linkReferences": {},
					"object": "6080604052600860005534801561001557600080fd5b50610216806100256000396000f3fe608060405234801561001057600080fd5b50600436106100365760003560e01c806363519c511461003b578063ec59712814610045575b600080fd5b61004361004f565b005b61004d610067565b005b60015460005461005f9190610113565b600381905550565b600154600054610077919061007f565b600281905550565b600061008a826101a7565b9150610095836101a7565b9250817f7fffffffffffffffffffffffffffffffffffffffffffffffffffffffffffffff038313600083121516156100d0576100cf6101b1565b5b817f8000000000000000000000000000000000000000000000000000000000000000038312600083121615610108576101076101b1565b5b828201905092915050565b600061011e826101a7565b9150610129836101a7565b9250827f800000000000000000000000000000000000000000000000000000000000000001821260008412151615610164576101636101b1565b5b827f7fffffffffffffffffffffffffffffffffffffffffffffffffffffffffffffff01821360008412161561019c5761019b6101b1565b5b828203905092915050565b6000819050919050565b7f4e487b7100000000000000000000000000000000000000000000000000000000600052601160045260246000fdfea2646970667358221220a29e0560c68755ad4d9452ec81b46ffbe6acda1ffd4e3a0a10463f32f8fa77fc64736f6c63430008070033",
					"opcodes": "PUSH1 0x80 PUSH1 0x40 MSTORE PUSH1 0x8 PUSH1 0x0 SSTORE CALLVALUE DUP1 ISZERO PUSH2 0x15 JUMPI PUSH1 0x0 DUP1 REVERT JUMPDEST POP PUSH2 0x216 DUP1 PUSH2 0x25 PUSH1 0x0 CODECOPY PUSH1 0x0 RETURN INVALID PUSH1 0x80 PUSH1 0x40 MSTORE CALLVALUE DUP1 ISZERO PUSH2 0x10 JUMPI PUSH1 0x0 DUP1 REVERT JUMPDEST POP PUSH1 0x4 CALLDATASIZE LT PUSH2 0x36 JUMPI PUSH1 0x0 CALLDATALOAD PUSH1 0xE0 SHR DUP1 PUSH4 0x63519C51 EQ PUSH2 0x3B JUMPI DUP1 PUSH4 0xEC597128 EQ PUSH2 0x45 JUMPI JUMPDEST PUSH1 0x0 DUP1 REVERT JUMPDEST PUSH2 0x43 PUSH2 0x4F JUMP JUMPDEST STOP JUMPDEST PUSH2 0x4D PUSH2 0x67 JUMP JUMPDEST STOP JUMPDEST PUSH1 0x1 SLOAD PUSH1 0x0 SLOAD PUSH2 0x5F SWAP2 SWAP1 PUSH2 0x113 JUMP JUMPDEST PUSH1 0x3 DUP2 SWAP1 SSTORE POP JUMP JUMPDEST PUSH1 0x1 SLOAD PUSH1 0x0 SLOAD PUSH2 0x77 SWAP2 SWAP1 PUSH2 0x7F JUMP JUMPDEST PUSH1 0x2 DUP2 SWAP1 SSTORE POP JUMP JUMPDEST PUSH1 0x0 PUSH2 0x8A DUP3 PUSH2 0x1A7 JUMP JUMPDEST SWAP2 POP PUSH2 0x95 DUP4 PUSH2 0x1A7 JUMP JUMPDEST SWAP3 POP DUP2 PUSH32 0x7FFFFFFFFFFFFFFFFFFFFFFFFFFFFFFFFFFFFFFFFFFFFFFFFFFFFFFFFFFFFFFF SUB DUP4 SGT PUSH1 0x0 DUP4 SLT ISZERO AND ISZERO PUSH2 0xD0 JUMPI PUSH2 0xCF PUSH2 0x1B1 JUMP JUMPDEST JUMPDEST DUP2 PUSH32 0x8000000000000000000000000000000000000000000000000000000000000000 SUB DUP4 SLT PUSH1 0x0 DUP4 SLT AND ISZERO PUSH2 0x108 JUMPI PUSH2 0x107 PUSH2 0x1B1 JUMP JUMPDEST JUMPDEST DUP3 DUP3 ADD SWAP1 POP SWAP3 SWAP2 POP POP JUMP JUMPDEST PUSH1 0x0 PUSH2 0x11E DUP3 PUSH2 0x1A7 JUMP JUMPDEST SWAP2 POP PUSH2 0x129 DUP4 PUSH2 0x1A7 JUMP JUMPDEST SWAP3 POP DUP3 PUSH32 0x8000000000000000000000000000000000000000000000000000000000000000 ADD DUP3 SLT PUSH1 0x0 DUP5 SLT ISZERO AND ISZERO PUSH2 0x164 JUMPI PUSH2 0x163 PUSH2 0x1B1 JUMP JUMPDEST JUMPDEST DUP3 PUSH32 0x7FFFFFFFFFFFFFFFFFFFFFFFFFFFFFFFFFFFFFFFFFFFFFFFFFFFFFFFFFFFFFFF ADD DUP3 SGT PUSH1 0x0 DUP5 SLT AND ISZERO PUSH2 0x19C JUMPI PUSH2 0x19B PUSH2 0x1B1 JUMP JUMPDEST JUMPDEST DUP3 DUP3 SUB SWAP1 POP SWAP3 SWAP2 POP POP JUMP JUMPDEST PUSH1 0x0 DUP2 SWAP1 POP SWAP2 SWAP1 POP JUMP JUMPDEST PUSH32 0x4E487B7100000000000000000000000000000000000000000000000000000000 PUSH1 0x0 MSTORE PUSH1 0x11 PUSH1 0x4 MSTORE PUSH1 0x24 PUSH1 0x0 REVERT INVALID LOG2 PUSH5 0x6970667358 0x22 SLT KECCAK256 LOG2 SWAP15 SDIV PUSH1 0xC6 DUP8 SSTORE 0xAD 0x4D SWAP5 MSTORE 0xEC DUP2 0xB4 PUSH16 0xFBE6ACDA1FFD4E3A0A10463F32F8FA77 0xFC PUSH5 0x736F6C6343 STOP ADDMOD SMOD STOP CALLER "
				},
				"gasEstimates": {
					"creation": {
						"codeDepositCost": "106800",
						"executionCost": "22259",
						"totalCost": "129059"
					},
					"external": {
						"addition()": "infinite",
						"sustraction()": "infinite"
					}
				},
				"methodIdentifiers": {
					"addition()": "ec597128",
					"sustraction()": "63519c51"
				}
			},
			"storageLayout": {
				"storage": [
					{
						"astId": 4,
						"contract": "contracts/counter.sol:Counter",
						"label": "a",
						"offset": 0,
						"slot": "0",
						"type": "t_int256"
					},
					{
						"astId": 6,
						"contract": "contracts/counter.sol:Counter",
						"label": "b",
						"offset": 0,
						"slot": "1",
						"type": "t_int256"
					},
					{
						"astId": 8,
						"contract": "contracts/counter.sol:Counter",
						"label": "c",
						"offset": 0,
						"slot": "2",
						"type": "t_int256"
					},
					{
						"astId": 10,
						"contract": "contracts/counter.sol:Counter",
						"label": "d",
						"offset": 0,
						"slot": "3",
						"type": "t_int256"
					}
				],
				"types": {
					"t_int256": {
						"encoding": "inplace",
						"label": "int256",
						"numberOfBytes": "32"
					}
				}
			},
			"userdoc": {
				"kind": "user",
				"methods": {},
				"version": 1
			}
		}
	}
}