{
	"contracts/datatype.sol": {
		"datatype": {
			"abi": [
				{
					"inputs": [],
					"name": "bool1",
					"outputs": [
						{
							"internalType": "bool",
							"name": "",
							"type": "bool"
						}
					],
					"stateMutability": "view",
					"type": "function"
				},
				{
					"inputs": [],
					"name": "maxint",
					"outputs": [
						{
							"internalType": "int256",
							"name": "",
							"type": "int256"
						}
					],
					"stateMutability": "view",
					"type": "function"
				},
				{
					"inputs": [],
					"name": "mint",
					"outputs": [
						{
							"internalType": "int256",
							"name": "",
							"type": "int256"
						}
					],
					"stateMutability": "view",
					"type": "function"
				},
				{
					"inputs": [],
					"name": "u8",
					"outputs": [
						{
							"internalType": "uint8",
							"name": "",
							"type": "uint8"
						}
					],
					"stateMutability": "view",
					"type": "function"
				}
			],
			"devdoc": {
				"kind": "dev",
				"methods": {},
				"version": 1
			},
			"evm": {
				"assembly": "    /* \"contracts/datatype.sol\":56:399  contract datatype{\r... */\n  mstore(0x40, 0x80)\n    /* \"contracts/datatype.sol\":95:99  true */\n  0x01\n    /* \"contracts/datatype.sol\":76:99  bool public bool1 =true */\n  0x00\n  dup1\n  0x0100\n  exp\n  dup2\n  sload\n  dup2\n  0xff\n  mul\n  not\n  and\n  swap1\n  dup4\n  iszero\n  iszero\n  mul\n  or\n  swap1\n  sstore\n  pop\n    /* \"contracts/datatype.sol\":118:119  4 */\n  0x04\n    /* \"contracts/datatype.sol\":102:119  uint8 public u8=4 */\n  0x00\n  exp(0x0100, 0x01)\n  dup2\n  sload\n  dup2\n  0xff\n  mul\n  not\n  and\n  swap1\n  dup4\n  0xff\n  and\n  mul\n  or\n  swap1\n  sstore\n  pop\n    /* \"contracts/datatype.sol\":130:132  -4 */\n  0xfffffffffffffffffffffffffffffffffffffffffffffffffffffffffffffffc\n    /* \"contracts/datatype.sol\":122:132  int8 i8=-4 */\n  0x00\n  exp(0x0100, 0x02)\n  dup2\n  sload\n  dup2\n  0xff\n  mul\n  not\n  and\n  swap1\n  dup4\n  0x00\n  signextend\n  0xff\n  and\n  mul\n  or\n  swap1\n  sstore\n  pop\n    /* \"contracts/datatype.sol\":146:149  200 */\n  0xc8\n    /* \"contracts/datatype.sol\":135:149  uint16 u16=200 */\n  0x00\n  exp(0x0100, 0x03)\n  dup2\n  sload\n  dup2\n  0xffff\n  mul\n  not\n  and\n  swap1\n  dup4\n  0xffff\n  and\n  mul\n  or\n  swap1\n  sstore\n  pop\n    /* \"contracts/datatype.sol\":166:172  100000 */\n  0x0186a0\n    /* \"contracts/datatype.sol\":152:172  uint256 u256= 100000 */\n  0x01\n  sstore\n    /* \"contracts/datatype.sol\":215:228  type(int).min */\n  0x8000000000000000000000000000000000000000000000000000000000000000\n    /* \"contracts/datatype.sol\":198:228  int public mint =type(int).min */\n  0x02\n  sstore\n    /* \"contracts/datatype.sol\":313:326  type(int).max */\n  0x7fffffffffffffffffffffffffffffffffffffffffffffffffffffffffffffff\n    /* \"contracts/datatype.sol\":295:326  int public maxint=type(int).max */\n  0x03\n  sstore\n    /* \"contracts/datatype.sol\":56:399  contract datatype{\r... */\n  callvalue\n  dup1\n  iszero\n  tag_1\n  jumpi\n  0x00\n  dup1\n  revert\ntag_1:\n  pop\n  dataSize(sub_0)\n  dup1\n  dataOffset(sub_0)\n  0x00\n  codecopy\n  0x00\n  return\nstop\n\nsub_0: assembly {\n        /* \"contracts/datatype.sol\":56:399  contract datatype{\r... */\n      mstore(0x40, 0x80)\n      callvalue\n      dup1\n      iszero\n      tag_1\n      jumpi\n      0x00\n      dup1\n      revert\n    tag_1:\n      pop\n      jumpi(tag_2, lt(calldatasize, 0x04))\n      shr(0xe0, calldataload(0x00))\n      dup1\n      0x1249c58b\n      eq\n      tag_3\n      jumpi\n      dup1\n      0x2c23de69\n      eq\n      tag_4\n      jumpi\n      dup1\n      0xab3a58a3\n      eq\n      tag_5\n      jumpi\n      dup1\n      0xec630c70\n      eq\n      tag_6\n      jumpi\n    tag_2:\n      0x00\n      dup1\n      revert\n        /* \"contracts/datatype.sol\":198:228  int public mint =type(int).min */\n    tag_3:\n      tag_7\n      tag_8\n      jump\t// in\n    tag_7:\n      mload(0x40)\n      tag_9\n      swap2\n      swap1\n      tag_10\n      jump\t// in\n    tag_9:\n      mload(0x40)\n      dup1\n      swap2\n      sub\n      swap1\n      return\n        /* \"contracts/datatype.sol\":295:326  int public maxint=type(int).max */\n    tag_4:\n      tag_11\n      tag_12\n      jump\t// in\n    tag_11:\n      mload(0x40)\n      tag_13\n      swap2\n      swap1\n      tag_10\n      jump\t// in\n    tag_13:\n      mload(0x40)\n      dup1\n      swap2\n      sub\n      swap1\n      return\n        /* \"contracts/datatype.sol\":102:119  uint8 public u8=4 */\n    tag_5:\n      tag_14\n      tag_15\n      jump\t// in\n    tag_14:\n      mload(0x40)\n      tag_16\n      swap2\n      swap1\n      tag_17\n      jump\t// in\n    tag_16:\n      mload(0x40)\n      dup1\n      swap2\n      sub\n      swap1\n      return\n        /* \"contracts/datatype.sol\":76:99  bool public bool1 =true */\n    tag_6:\n      tag_18\n      tag_19\n      jump\t// in\n    tag_18:\n      mload(0x40)\n      tag_20\n      swap2\n      swap1\n      tag_21\n      jump\t// in\n    tag_20:\n      mload(0x40)\n      dup1\n      swap2\n      sub\n      swap1\n      return\n        /* \"contracts/datatype.sol\":198:228  int public mint =type(int).min */\n    tag_8:\n      sload(0x02)\n      dup2\n      jump\t// out\n        /* \"contracts/datatype.sol\":295:326  int public maxint=type(int).max */\n    tag_12:\n      sload(0x03)\n      dup2\n      jump\t// out\n        /* \"contracts/datatype.sol\":102:119  uint8 public u8=4 */\n    tag_15:\n      0x00\n      0x01\n      swap1\n      sload\n      swap1\n      0x0100\n      exp\n      swap1\n      div\n      0xff\n      and\n      dup2\n      jump\t// out\n        /* \"contracts/datatype.sol\":76:99  bool public bool1 =true */\n    tag_19:\n      0x00\n      dup1\n      sload\n      swap1\n      0x0100\n      exp\n      swap1\n      div\n      0xff\n      and\n      dup2\n      jump\t// out\n        /* \"#utility.yul\":7:116   */\n    tag_23:\n        /* \"#utility.yul\":88:109   */\n      tag_25\n        /* \"#utility.yul\":103:108   */\n      dup2\n        /* \"#utility.yul\":88:109   */\n      tag_26\n      jump\t// in\n    tag_25:\n        /* \"#utility.yul\":83:86   */\n      dup3\n        /* \"#utility.yul\":76:110   */\n      mstore\n        /* \"#utility.yul\":66:116   */\n      pop\n      pop\n      jump\t// out\n        /* \"#utility.yul\":122:237   */\n    tag_27:\n        /* \"#utility.yul\":207:230   */\n      tag_29\n        /* \"#utility.yul\":224:229   */\n      dup2\n        /* \"#utility.yul\":207:230   */\n      tag_30\n      jump\t// in\n    tag_29:\n        /* \"#utility.yul\":202:205   */\n      dup3\n        /* \"#utility.yul\":195:231   */\n      mstore\n        /* \"#utility.yul\":185:237   */\n      pop\n      pop\n      jump\t// out\n        /* \"#utility.yul\":243:355   */\n    tag_31:\n        /* \"#utility.yul\":326:348   */\n      tag_33\n        /* \"#utility.yul\":342:347   */\n      dup2\n        /* \"#utility.yul\":326:348   */\n      tag_34\n      jump\t// in\n    tag_33:\n        /* \"#utility.yul\":321:324   */\n      dup3\n        /* \"#utility.yul\":314:349   */\n      mstore\n        /* \"#utility.yul\":304:355   */\n      pop\n      pop\n      jump\t// out\n        /* \"#utility.yul\":361:571   */\n    tag_21:\n        /* \"#utility.yul\":448:452   */\n      0x00\n        /* \"#utility.yul\":486:488   */\n      0x20\n        /* \"#utility.yul\":475:484   */\n      dup3\n        /* \"#utility.yul\":471:489   */\n      add\n        /* \"#utility.yul\":463:489   */\n      swap1\n      pop\n        /* \"#utility.yul\":499:564   */\n      tag_36\n        /* \"#utility.yul\":561:562   */\n      0x00\n        /* \"#utility.yul\":550:559   */\n      dup4\n        /* \"#utility.yul\":546:563   */\n      add\n        /* \"#utility.yul\":537:543   */\n      dup5\n        /* \"#utility.yul\":499:564   */\n      tag_23\n      jump\t// in\n    tag_36:\n        /* \"#utility.yul\":453:571   */\n      swap3\n      swap2\n      pop\n      pop\n      jump\t// out\n        /* \"#utility.yul\":577:795   */\n    tag_10:\n        /* \"#utility.yul\":668:672   */\n      0x00\n        /* \"#utility.yul\":706:708   */\n      0x20\n        /* \"#utility.yul\":695:704   */\n      dup3\n        /* \"#utility.yul\":691:709   */\n      add\n        /* \"#utility.yul\":683:709   */\n      swap1\n      pop\n        /* \"#utility.yul\":719:788   */\n      tag_38\n        /* \"#utility.yul\":785:786   */\n      0x00\n        /* \"#utility.yul\":774:783   */\n      dup4\n        /* \"#utility.yul\":770:787   */\n      add\n        /* \"#utility.yul\":761:767   */\n      dup5\n        /* \"#utility.yul\":719:788   */\n      tag_27\n      jump\t// in\n    tag_38:\n        /* \"#utility.yul\":673:795   */\n      swap3\n      swap2\n      pop\n      pop\n      jump\t// out\n        /* \"#utility.yul\":801:1015   */\n    tag_17:\n        /* \"#utility.yul\":890:894   */\n      0x00\n        /* \"#utility.yul\":928:930   */\n      0x20\n        /* \"#utility.yul\":917:926   */\n      dup3\n        /* \"#utility.yul\":913:931   */\n      add\n        /* \"#utility.yul\":905:931   */\n      swap1\n      pop\n        /* \"#utility.yul\":941:1008   */\n      tag_40\n        /* \"#utility.yul\":1005:1006   */\n      0x00\n        /* \"#utility.yul\":994:1003   */\n      dup4\n        /* \"#utility.yul\":990:1007   */\n      add\n        /* \"#utility.yul\":981:987   */\n      dup5\n        /* \"#utility.yul\":941:1008   */\n      tag_31\n      jump\t// in\n    tag_40:\n        /* \"#utility.yul\":895:1015   */\n      swap3\n      swap2\n      pop\n      pop\n      jump\t// out\n        /* \"#utility.yul\":1021:1111   */\n    tag_26:\n        /* \"#utility.yul\":1055:1062   */\n      0x00\n        /* \"#utility.yul\":1098:1103   */\n      dup2\n        /* \"#utility.yul\":1091:1104   */\n      iszero\n        /* \"#utility.yul\":1084:1105   */\n      iszero\n        /* \"#utility.yul\":1073:1105   */\n      swap1\n      pop\n        /* \"#utility.yul\":1063:1111   */\n      swap2\n      swap1\n      pop\n      jump\t// out\n        /* \"#utility.yul\":1117:1193   */\n    tag_30:\n        /* \"#utility.yul\":1153:1160   */\n      0x00\n        /* \"#utility.yul\":1182:1187   */\n      dup2\n        /* \"#utility.yul\":1171:1187   */\n      swap1\n      pop\n        /* \"#utility.yul\":1161:1193   */\n      swap2\n      swap1\n      pop\n      jump\t// out\n        /* \"#utility.yul\":1199:1285   */\n    tag_34:\n        /* \"#utility.yul\":1234:1241   */\n      0x00\n        /* \"#utility.yul\":1274:1278   */\n      0xff\n        /* \"#utility.yul\":1267:1272   */\n      dup3\n        /* \"#utility.yul\":1263:1279   */\n      and\n        /* \"#utility.yul\":1252:1279   */\n      swap1\n      pop\n        /* \"#utility.yul\":1242:1285   */\n      swap2\n      swap1\n      pop\n      jump\t// out\n\n    auxdata: 0xa2646970667358221220a4a60a95548bfa564c7797a1534c1519cc5a46f275149a28e61762411ef5dc5164736f6c63430008060033\n}\n",
				"bytecode": {
					"linkReferences": {},
					"object": "608060405260016000806101000a81548160ff0219169083151502179055506004600060016101000a81548160ff021916908360ff1602179055507ffffffffffffffffffffffffffffffffffffffffffffffffffffffffffffffffc600060026101000a81548160ff021916908360000b60ff16021790555060c8600060036101000a81548161ffff021916908361ffff160217905550620186a06001557f80000000000000000000000000000000000000000000000000000000000000006002557f7fffffffffffffffffffffffffffffffffffffffffffffffffffffffffffffff6003553480156100f157600080fd5b506101d0806101016000396000f3fe608060405234801561001057600080fd5b506004361061004c5760003560e01c80631249c58b146100515780632c23de691461006f578063ab3a58a31461008d578063ec630c70146100ab575b600080fd5b6100596100c9565b6040516100669190610141565b60405180910390f35b6100776100cf565b6040516100849190610141565b60405180910390f35b6100956100d5565b6040516100a2919061015c565b60405180910390f35b6100b36100e8565b6040516100c09190610126565b60405180910390f35b60025481565b60035481565b600060019054906101000a900460ff1681565b60008054906101000a900460ff1681565b61010281610177565b82525050565b61011181610183565b82525050565b6101208161018d565b82525050565b600060208201905061013b60008301846100f9565b92915050565b60006020820190506101566000830184610108565b92915050565b60006020820190506101716000830184610117565b92915050565b60008115159050919050565b6000819050919050565b600060ff8216905091905056fea2646970667358221220a4a60a95548bfa564c7797a1534c1519cc5a46f275149a28e61762411ef5dc5164736f6c63430008060033",
					"opcodes": "PUSH1 0x80 PUSH1 0x40 MSTORE PUSH1 0x1 PUSH1 0x0 DUP1 PUSH2 0x100 EXP DUP2 SLOAD DUP2 PUSH1 0xFF MUL NOT AND SWAP1 DUP4 ISZERO ISZERO MUL OR SWAP1 SSTORE POP PUSH1 0x4 PUSH1 0x0 PUSH1 0x1 PUSH2 0x100 EXP DUP2 SLOAD DUP2 PUSH1 0xFF MUL NOT AND SWAP1 DUP4 PUSH1 0xFF AND MUL OR SWAP1 SSTORE POP PUSH32 0xFFFFFFFFFFFFFFFFFFFFFFFFFFFFFFFFFFFFFFFFFFFFFFFFFFFFFFFFFFFFFFFC PUSH1 0x0 PUSH1 0x2 PUSH2 0x100 EXP DUP2 SLOAD DUP2 PUSH1 0xFF MUL NOT AND SWAP1 DUP4 PUSH1 0x0 SIGNEXTEND PUSH1 0xFF AND MUL OR SWAP1 SSTORE POP PUSH1 0xC8 PUSH1 0x0 PUSH1 0x3 PUSH2 0x100 EXP DUP2 SLOAD DUP2 PUSH2 0xFFFF MUL NOT AND SWAP1 DUP4 PUSH2 0xFFFF AND MUL OR SWAP1 SSTORE POP PUSH3 0x186A0 PUSH1 0x1 SSTORE PUSH32 0x8000000000000000000000000000000000000000000000000000000000000000 PUSH1 0x2 SSTORE PUSH32 0x7FFFFFFFFFFFFFFFFFFFFFFFFFFFFFFFFFFFFFFFFFFFFFFFFFFFFFFFFFFFFFFF PUSH1 0x3 SSTORE CALLVALUE DUP1 ISZERO PUSH2 0xF1 JUMPI PUSH1 0x0 DUP1 REVERT JUMPDEST POP PUSH2 0x1D0 DUP1 PUSH2 0x101 PUSH1 0x0 CODECOPY PUSH1 0x0 RETURN INVALID PUSH1 0x80 PUSH1 0x40 MSTORE CALLVALUE DUP1 ISZERO PUSH2 0x10 JUMPI PUSH1 0x0 DUP1 REVERT JUMPDEST POP PUSH1 0x4 CALLDATASIZE LT PUSH2 0x4C JUMPI PUSH1 0x0 CALLDATALOAD PUSH1 0xE0 SHR DUP1 PUSH4 0x1249C58B EQ PUSH2 0x51 JUMPI DUP1 PUSH4 0x2C23DE69 EQ PUSH2 0x6F JUMPI DUP1 PUSH4 0xAB3A58A3 EQ PUSH2 0x8D JUMPI DUP1 PUSH4 0xEC630C70 EQ PUSH2 0xAB JUMPI JUMPDEST PUSH1 0x0 DUP1 REVERT JUMPDEST PUSH2 0x59 PUSH2 0xC9 JUMP JUMPDEST PUSH1 0x40 MLOAD PUSH2 0x66 SWAP2 SWAP1 PUSH2 0x141 JUMP JUMPDEST PUSH1 0x40 MLOAD DUP1 SWAP2 SUB SWAP1 RETURN JUMPDEST PUSH2 0x77 PUSH2 0xCF JUMP JUMPDEST PUSH1 0x40 MLOAD PUSH2 0x84 SWAP2 SWAP1 PUSH2 0x141 JUMP JUMPDEST PUSH1 0x40 MLOAD DUP1 SWAP2 SUB SWAP1 RETURN JUMPDEST PUSH2 0x95 PUSH2 0xD5 JUMP JUMPDEST PUSH1 0x40 MLOAD PUSH2 0xA2 SWAP2 SWAP1 PUSH2 0x15C JUMP JUMPDEST PUSH1 0x40 MLOAD DUP1 SWAP2 SUB SWAP1 RETURN JUMPDEST PUSH2 0xB3 PUSH2 0xE8 JUMP JUMPDEST PUSH1 0x40 MLOAD PUSH2 0xC0 SWAP2 SWAP1 PUSH2 0x126 JUMP JUMPDEST PUSH1 0x40 MLOAD DUP1 SWAP2 SUB SWAP1 RETURN JUMPDEST PUSH1 0x2 SLOAD DUP2 JUMP JUMPDEST PUSH1 0x3 SLOAD DUP2 JUMP JUMPDEST PUSH1 0x0 PUSH1 0x1 SWAP1 SLOAD SWAP1 PUSH2 0x100 EXP SWAP1 DIV PUSH1 0xFF AND DUP2 JUMP JUMPDEST PUSH1 0x0 DUP1 SLOAD SWAP1 PUSH2 0x100 EXP SWAP1 DIV PUSH1 0xFF AND DUP2 JUMP JUMPDEST PUSH2 0x102 DUP2 PUSH2 0x177 JUMP JUMPDEST DUP3 MSTORE POP POP JUMP JUMPDEST PUSH2 0x111 DUP2 PUSH2 0x183 JUMP JUMPDEST DUP3 MSTORE POP POP JUMP JUMPDEST PUSH2 0x120 DUP2 PUSH2 0x18D JUMP JUMPDEST DUP3 MSTORE POP POP JUMP JUMPDEST PUSH1 0x0 PUSH1 0x20 DUP3 ADD SWAP1 POP PUSH2 0x13B PUSH1 0x0 DUP4 ADD DUP5 PUSH2 0xF9 JUMP JUMPDEST SWAP3 SWAP2 POP POP JUMP JUMPDEST PUSH1 0x0 PUSH1 0x20 DUP3 ADD SWAP1 POP PUSH2 0x156 PUSH1 0x0 DUP4 ADD DUP5 PUSH2 0x108 JUMP JUMPDEST SWAP3 SWAP2 POP POP JUMP JUMPDEST PUSH1 0x0 PUSH1 0x20 DUP3 ADD SWAP1 POP PUSH2 0x171 PUSH1 0x0 DUP4 ADD DUP5 PUSH2 0x117 JUMP JUMPDEST SWAP3 SWAP2 POP POP JUMP JUMPDEST PUSH1 0x0 DUP2 ISZERO ISZERO SWAP1 POP SWAP2 SWAP1 POP JUMP JUMPDEST PUSH1 0x0 DUP2 SWAP1 POP SWAP2 SWAP1 POP JUMP JUMPDEST PUSH1 0x0 PUSH1 0xFF DUP3 AND SWAP1 POP SWAP2 SWAP1 POP JUMP INVALID LOG2 PUSH5 0x6970667358 0x22 SLT KECCAK256 LOG4 0xA6 EXP SWAP6 SLOAD DUP12 STATICCALL JUMP 0x4C PUSH24 0x97A1534C1519CC5A46F275149A28E61762411EF5DC516473 PUSH16 0x6C634300080600330000000000000000 "
				},
				"gasEstimates": {
					"creation": {
						"codeDepositCost": "92800",
						"executionCost": "163685",
						"totalCost": "256485"
					},
					"external": {
						"bool1()": "2512",
						"maxint()": "2429",
						"mint()": "2407",
						"u8()": "2543"
					}
				},
				"methodIdentifiers": {
					"bool1()": "ec630c70",
					"maxint()": "2c23de69",
					"mint()": "1249c58b",
					"u8()": "ab3a58a3"
				}
			},
			"storageLayout": {
				"storage": [
					{
						"astId": 4,
						"contract": "contracts/datatype.sol:datatype",
						"label": "bool1",
						"offset": 0,
						"slot": "0",
						"type": "t_bool"
					},
					{
						"astId": 7,
						"contract": "contracts/datatype.sol:datatype",
						"label": "u8",
						"offset": 1,
						"slot": "0",
						"type": "t_uint8"
					},
					{
						"astId": 11,
						"contract": "contracts/datatype.sol:datatype",
						"label": "i8",
						"offset": 2,
						"slot": "0",
						"type": "t_int8"
					},
					{
						"astId": 14,
						"contract": "contracts/datatype.sol:datatype",
						"label": "u16",
						"offset": 3,
						"slot": "0",
						"type": "t_uint16"
					},
					{
						"astId": 17,
						"contract": "contracts/datatype.sol:datatype",
						"label": "u256",
						"offset": 0,
						"slot": "1",
						"type": "t_uint256"
					},
					{
						"astId": 24,
						"contract": "contracts/datatype.sol:datatype",
						"label": "mint",
						"offset": 0,
						"slot": "2",
						"type": "t_int256"
					},
					{
						"astId": 31,
						"contract": "contracts/datatype.sol:datatype",
						"label": "maxint",
						"offset": 0,
						"slot": "3",
						"type": "t_int256"
					}
				],
				"types": {
					"t_bool": {
						"encoding": "inplace",
						"label": "bool",
						"numberOfBytes": "1"
					},
					"t_int256": {
						"encoding": "inplace",
						"label": "int256",
						"numberOfBytes": "32"
					},
					"t_int8": {
						"encoding": "inplace",
						"label": "int8",
						"numberOfBytes": "1"
					},
					"t_uint16": {
						"encoding": "inplace",
						"label": "uint16",
						"numberOfBytes": "2"
					},
					"t_uint256": {
						"encoding": "inplace",
						"label": "uint256",
						"numberOfBytes": "32"
					},
					"t_uint8": {
						"encoding": "inplace",
						"label": "uint8",
						"numberOfBytes": "1"
					}
				}
			},
			"userdoc": {
				"kind": "user",
				"methods": {},
				"version": 1
			}
		}
	}
}