{
	"contracts/forloop.sol": {
		"forLoop": {
			"abi": [
				{
					"inputs": [],
					"name": "output",
					"outputs": [
						{
							"internalType": "int256[]",
							"name": "",
							"type": "int256[]"
						}
					],
					"stateMutability": "nonpayable",
					"type": "function"
				}
			],
			"devdoc": {
				"kind": "dev",
				"methods": {},
				"version": 1
			},
			"evm": {
				"assembly": "    /* \"contracts/forloop.sol\":59:239  contract forLoop{\r... */\n  mstore(0x40, 0x80)\n    /* \"contracts/forloop.sol\":86:87  0 */\n  0x00\n    /* \"contracts/forloop.sol\":80:87  int x=0 */\n  dup1\n  sstore\n    /* \"contracts/forloop.sol\":59:239  contract forLoop{\r... */\n  callvalue\n  dup1\n  iszero\n  tag_1\n  jumpi\n  0x00\n  dup1\n  revert\ntag_1:\n  pop\n  dataSize(sub_0)\n  dup1\n  dataOffset(sub_0)\n  0x00\n  codecopy\n  0x00\n  return\nstop\n\nsub_0: assembly {\n        /* \"contracts/forloop.sol\":59:239  contract forLoop{\r... */\n      mstore(0x40, 0x80)\n      callvalue\n      dup1\n      iszero\n      tag_1\n      jumpi\n      0x00\n      dup1\n      revert\n    tag_1:\n      pop\n      jumpi(tag_2, lt(calldatasize, 0x04))\n      shr(0xe0, calldataload(0x00))\n      dup1\n      0xf20eaeb8\n      eq\n      tag_3\n      jumpi\n    tag_2:\n      0x00\n      dup1\n      revert\n        /* \"contracts/forloop.sol\":105:231  function output() public returns (int[] memory)\r... */\n    tag_3:\n      tag_4\n      tag_5\n      jump\t// in\n    tag_4:\n      mload(0x40)\n      tag_6\n      swap2\n      swap1\n      tag_7\n      jump\t// in\n    tag_6:\n      mload(0x40)\n      dup1\n      swap2\n      sub\n      swap1\n      return\n    tag_5:\n        /* \"contracts/forloop.sol\":139:151  int[] memory */\n      0x60\n        /* \"contracts/forloop.sol\":161:166  int k */\n      0x00\n        /* \"contracts/forloop.sol\":177:178  0 */\n      dup1\n        /* \"contracts/forloop.sol\":175:176  x */\n      0x00\n        /* \"contracts/forloop.sol\":175:178  x=0 */\n      dup2\n      swap1\n      sstore\n      pop\n        /* \"contracts/forloop.sol\":170:210  for (x=0;x<k;x++)\r... */\n    tag_9:\n        /* \"contracts/forloop.sol\":181:182  k */\n      dup1\n        /* \"contracts/forloop.sol\":179:180  x */\n      sload(0x00)\n        /* \"contracts/forloop.sol\":179:182  x<k */\n      slt\n        /* \"contracts/forloop.sol\":170:210  for (x=0;x<k;x++)\r... */\n      iszero\n      tag_10\n      jumpi\n        /* \"contracts/forloop.sol\":193:197  data */\n      0x01\n        /* \"contracts/forloop.sol\":203:204  x */\n      sload(0x00)\n        /* \"contracts/forloop.sol\":193:205  data.push(x) */\n      swap1\n      dup1\n      0x01\n      dup2\n      sload\n      add\n      dup1\n      dup3\n      sstore\n      dup1\n      swap2\n      pop\n      pop\n      0x01\n      swap1\n      sub\n      swap1\n      0x00\n      mstore\n      keccak256(0x00, 0x20)\n      add\n      0x00\n      swap1\n      swap2\n      swap1\n      swap2\n      swap1\n      swap2\n      pop\n      sstore\n        /* \"contracts/forloop.sol\":183:184  x */\n      0x00\n      dup1\n        /* \"contracts/forloop.sol\":183:186  x++ */\n      dup2\n      sload\n      dup1\n      swap3\n      swap2\n      swap1\n      tag_13\n      swap1\n      tag_14\n      jump\t// in\n    tag_13:\n      swap2\n      swap1\n      pop\n      sstore\n      pop\n        /* \"contracts/forloop.sol\":170:210  for (x=0;x<k;x++)\r... */\n      jump(tag_9)\n    tag_10:\n        /* \"contracts/forloop.sol\":222:226  data */\n      0x01\n        /* \"contracts/forloop.sol\":215:226  return data */\n      dup1\n      sload\n      dup1\n      0x20\n      mul\n      0x20\n      add\n      mload(0x40)\n      swap1\n      dup2\n      add\n      0x40\n      mstore\n      dup1\n      swap3\n      swap2\n      swap1\n      dup2\n      dup2\n      mstore\n      0x20\n      add\n      dup3\n      dup1\n      sload\n      dup1\n      iszero\n      tag_15\n      jumpi\n      0x20\n      mul\n      dup3\n      add\n      swap2\n      swap1\n      0x00\n      mstore\n      keccak256(0x00, 0x20)\n      swap1\n    tag_16:\n      dup2\n      sload\n      dup2\n      mstore\n      0x20\n      add\n      swap1\n      0x01\n      add\n      swap1\n      dup1\n      dup4\n      gt\n      tag_16\n      jumpi\n    tag_15:\n      pop\n      pop\n      pop\n      pop\n      pop\n      swap2\n      pop\n      pop\n        /* \"contracts/forloop.sol\":105:231  function output() public returns (int[] memory)\r... */\n      swap1\n      jump\t// out\n        /* \"#utility.yul\":7:182   */\n    tag_18:\n        /* \"#utility.yul\":74:84   */\n      0x00\n        /* \"#utility.yul\":95:139   */\n      tag_20\n        /* \"#utility.yul\":135:138   */\n      dup4\n        /* \"#utility.yul\":127:133   */\n      dup4\n        /* \"#utility.yul\":95:139   */\n      tag_21\n      jump\t// in\n    tag_20:\n        /* \"#utility.yul\":171:175   */\n      0x20\n        /* \"#utility.yul\":166:169   */\n      dup4\n        /* \"#utility.yul\":162:176   */\n      add\n        /* \"#utility.yul\":148:176   */\n      swap1\n      pop\n        /* \"#utility.yul\":85:182   */\n      swap3\n      swap2\n      pop\n      pop\n      jump\t// out\n        /* \"#utility.yul\":216:940   */\n    tag_22:\n        /* \"#utility.yul\":333:336   */\n      0x00\n        /* \"#utility.yul\":362:415   */\n      tag_24\n        /* \"#utility.yul\":409:414   */\n      dup3\n        /* \"#utility.yul\":362:415   */\n      tag_25\n      jump\t// in\n    tag_24:\n        /* \"#utility.yul\":431:516   */\n      tag_26\n        /* \"#utility.yul\":509:515   */\n      dup2\n        /* \"#utility.yul\":504:507   */\n      dup6\n        /* \"#utility.yul\":431:516   */\n      tag_27\n      jump\t// in\n    tag_26:\n        /* \"#utility.yul\":424:516   */\n      swap4\n      pop\n        /* \"#utility.yul\":540:595   */\n      tag_28\n        /* \"#utility.yul\":589:594   */\n      dup4\n        /* \"#utility.yul\":540:595   */\n      tag_29\n      jump\t// in\n    tag_28:\n        /* \"#utility.yul\":618:625   */\n      dup1\n        /* \"#utility.yul\":649:650   */\n      0x00\n        /* \"#utility.yul\":634:915   */\n    tag_30:\n        /* \"#utility.yul\":659:665   */\n      dup4\n        /* \"#utility.yul\":656:657   */\n      dup2\n        /* \"#utility.yul\":653:666   */\n      lt\n        /* \"#utility.yul\":634:915   */\n      iszero\n      tag_32\n      jumpi\n        /* \"#utility.yul\":735:741   */\n      dup2\n        /* \"#utility.yul\":729:742   */\n      mload\n        /* \"#utility.yul\":762:823   */\n      tag_33\n        /* \"#utility.yul\":819:822   */\n      dup9\n        /* \"#utility.yul\":804:817   */\n      dup3\n        /* \"#utility.yul\":762:823   */\n      tag_18\n      jump\t// in\n    tag_33:\n        /* \"#utility.yul\":755:823   */\n      swap8\n      pop\n        /* \"#utility.yul\":846:905   */\n      tag_34\n        /* \"#utility.yul\":898:904   */\n      dup4\n        /* \"#utility.yul\":846:905   */\n      tag_35\n      jump\t// in\n    tag_34:\n        /* \"#utility.yul\":836:905   */\n      swap3\n      pop\n        /* \"#utility.yul\":694:915   */\n      pop\n        /* \"#utility.yul\":681:682   */\n      0x01\n        /* \"#utility.yul\":678:679   */\n      dup2\n        /* \"#utility.yul\":674:683   */\n      add\n        /* \"#utility.yul\":669:683   */\n      swap1\n      pop\n        /* \"#utility.yul\":634:915   */\n      jump(tag_30)\n    tag_32:\n        /* \"#utility.yul\":638:652   */\n      pop\n        /* \"#utility.yul\":931:934   */\n      dup6\n        /* \"#utility.yul\":924:934   */\n      swap4\n      pop\n        /* \"#utility.yul\":338:940   */\n      pop\n      pop\n      pop\n      swap3\n      swap2\n      pop\n      pop\n      jump\t// out\n        /* \"#utility.yul\":946:1051   */\n    tag_21:\n        /* \"#utility.yul\":1021:1044   */\n      tag_37\n        /* \"#utility.yul\":1038:1043   */\n      dup2\n        /* \"#utility.yul\":1021:1044   */\n      tag_38\n      jump\t// in\n    tag_37:\n        /* \"#utility.yul\":1016:1019   */\n      dup3\n        /* \"#utility.yul\":1009:1045   */\n      mstore\n        /* \"#utility.yul\":999:1051   */\n      pop\n      pop\n      jump\t// out\n        /* \"#utility.yul\":1057:1426   */\n    tag_7:\n        /* \"#utility.yul\":1198:1202   */\n      0x00\n        /* \"#utility.yul\":1236:1238   */\n      0x20\n        /* \"#utility.yul\":1225:1234   */\n      dup3\n        /* \"#utility.yul\":1221:1239   */\n      add\n        /* \"#utility.yul\":1213:1239   */\n      swap1\n      pop\n        /* \"#utility.yul\":1285:1294   */\n      dup2\n        /* \"#utility.yul\":1279:1283   */\n      dup2\n        /* \"#utility.yul\":1275:1295   */\n      sub\n        /* \"#utility.yul\":1271:1272   */\n      0x00\n        /* \"#utility.yul\":1260:1269   */\n      dup4\n        /* \"#utility.yul\":1256:1273   */\n      add\n        /* \"#utility.yul\":1249:1296   */\n      mstore\n        /* \"#utility.yul\":1313:1419   */\n      tag_40\n        /* \"#utility.yul\":1414:1418   */\n      dup2\n        /* \"#utility.yul\":1405:1411   */\n      dup5\n        /* \"#utility.yul\":1313:1419   */\n      tag_22\n      jump\t// in\n    tag_40:\n        /* \"#utility.yul\":1305:1419   */\n      swap1\n      pop\n        /* \"#utility.yul\":1203:1426   */\n      swap3\n      swap2\n      pop\n      pop\n      jump\t// out\n        /* \"#utility.yul\":1432:1563   */\n    tag_29:\n        /* \"#utility.yul\":1498:1502   */\n      0x00\n        /* \"#utility.yul\":1521:1524   */\n      dup2\n        /* \"#utility.yul\":1513:1524   */\n      swap1\n      pop\n        /* \"#utility.yul\":1551:1555   */\n      0x20\n        /* \"#utility.yul\":1546:1549   */\n      dup3\n        /* \"#utility.yul\":1542:1556   */\n      add\n        /* \"#utility.yul\":1534:1556   */\n      swap1\n      pop\n        /* \"#utility.yul\":1503:1563   */\n      swap2\n      swap1\n      pop\n      jump\t// out\n        /* \"#utility.yul\":1569:1682   */\n    tag_25:\n        /* \"#utility.yul\":1635:1641   */\n      0x00\n        /* \"#utility.yul\":1669:1674   */\n      dup2\n        /* \"#utility.yul\":1663:1675   */\n      mload\n        /* \"#utility.yul\":1653:1675   */\n      swap1\n      pop\n        /* \"#utility.yul\":1642:1682   */\n      swap2\n      swap1\n      pop\n      jump\t// out\n        /* \"#utility.yul\":1688:1800   */\n    tag_35:\n        /* \"#utility.yul\":1757:1761   */\n      0x00\n        /* \"#utility.yul\":1789:1793   */\n      0x20\n        /* \"#utility.yul\":1784:1787   */\n      dup3\n        /* \"#utility.yul\":1780:1794   */\n      add\n        /* \"#utility.yul\":1772:1794   */\n      swap1\n      pop\n        /* \"#utility.yul\":1762:1800   */\n      swap2\n      swap1\n      pop\n      jump\t// out\n        /* \"#utility.yul\":1806:1989   */\n    tag_27:\n        /* \"#utility.yul\":1904:1915   */\n      0x00\n        /* \"#utility.yul\":1938:1944   */\n      dup3\n        /* \"#utility.yul\":1933:1936   */\n      dup3\n        /* \"#utility.yul\":1926:1945   */\n      mstore\n        /* \"#utility.yul\":1978:1982   */\n      0x20\n        /* \"#utility.yul\":1973:1976   */\n      dup3\n        /* \"#utility.yul\":1969:1983   */\n      add\n        /* \"#utility.yul\":1954:1983   */\n      swap1\n      pop\n        /* \"#utility.yul\":1916:1989   */\n      swap3\n      swap2\n      pop\n      pop\n      jump\t// out\n        /* \"#utility.yul\":1995:2071   */\n    tag_38:\n        /* \"#utility.yul\":2031:2038   */\n      0x00\n        /* \"#utility.yul\":2060:2065   */\n      dup2\n        /* \"#utility.yul\":2049:2065   */\n      swap1\n      pop\n        /* \"#utility.yul\":2039:2071   */\n      swap2\n      swap1\n      pop\n      jump\t// out\n        /* \"#utility.yul\":2077:2308   */\n    tag_14:\n        /* \"#utility.yul\":2115:2118   */\n      0x00\n        /* \"#utility.yul\":2138:2161   */\n      tag_47\n        /* \"#utility.yul\":2155:2160   */\n      dup3\n        /* \"#utility.yul\":2138:2161   */\n      tag_38\n      jump\t// in\n    tag_47:\n        /* \"#utility.yul\":2129:2161   */\n      swap2\n      pop\n        /* \"#utility.yul\":2183:2249   */\n      0x7fffffffffffffffffffffffffffffffffffffffffffffffffffffffffffffff\n        /* \"#utility.yul\":2176:2181   */\n      dup3\n        /* \"#utility.yul\":2173:2250   */\n      eq\n        /* \"#utility.yul\":2170:2172   */\n      iszero\n      tag_48\n      jumpi\n        /* \"#utility.yul\":2253:2271   */\n      tag_49\n      tag_50\n      jump\t// in\n    tag_49:\n        /* \"#utility.yul\":2170:2172   */\n    tag_48:\n        /* \"#utility.yul\":2300:2301   */\n      0x01\n        /* \"#utility.yul\":2293:2298   */\n      dup3\n        /* \"#utility.yul\":2289:2302   */\n      add\n        /* \"#utility.yul\":2282:2302   */\n      swap1\n      pop\n        /* \"#utility.yul\":2119:2308   */\n      swap2\n      swap1\n      pop\n      jump\t// out\n        /* \"#utility.yul\":2314:2494   */\n    tag_50:\n        /* \"#utility.yul\":2362:2439   */\n      0x4e487b7100000000000000000000000000000000000000000000000000000000\n        /* \"#utility.yul\":2359:2360   */\n      0x00\n        /* \"#utility.yul\":2352:2440   */\n      mstore\n        /* \"#utility.yul\":2459:2463   */\n      0x11\n        /* \"#utility.yul\":2456:2457   */\n      0x04\n        /* \"#utility.yul\":2449:2464   */\n      mstore\n        /* \"#utility.yul\":2483:2487   */\n      0x24\n        /* \"#utility.yul\":2480:2481   */\n      0x00\n        /* \"#utility.yul\":2473:2488   */\n      revert\n\n    auxdata: 0xa264697066735822122019cf2893bfbb7c35abf0a0e22c356e70607e04b7562f4caa0d55bec1d1320b2a64736f6c63430008060033\n}\n",
				"bytecode": {
					"linkReferences": {},
					"object": "60806040526000805534801561001457600080fd5b5061029a806100246000396000f3fe608060405234801561001057600080fd5b506004361061002b5760003560e01c8063f20eaeb814610030575b600080fd5b61003861004e565b6040516100459190610187565b60405180910390f35b60606000806000819055505b8060005412156100ab57600160005490806001815401808255809150506001900390600052602060002001600090919091909150556000808154809291906100a1906101ec565b919050555061005a565b60018054806020026020016040519081016040528092919081815260200182805480156100f757602002820191906000526020600020905b8154815260200190600101908083116100e3575b505050505091505090565b600061010e8383610178565b60208301905092915050565b6000610125826101b9565b61012f81856101d1565b935061013a836101a9565b8060005b8381101561016b5781516101528882610102565b975061015d836101c4565b92505060018101905061013e565b5085935050505092915050565b610181816101e2565b82525050565b600060208201905081810360008301526101a1818461011a565b905092915050565b6000819050602082019050919050565b600081519050919050565b6000602082019050919050565b600082825260208201905092915050565b6000819050919050565b60006101f7826101e2565b91507f7fffffffffffffffffffffffffffffffffffffffffffffffffffffffffffffff82141561022a57610229610235565b5b600182019050919050565b7f4e487b7100000000000000000000000000000000000000000000000000000000600052601160045260246000fdfea264697066735822122019cf2893bfbb7c35abf0a0e22c356e70607e04b7562f4caa0d55bec1d1320b2a64736f6c63430008060033",
					"opcodes": "PUSH1 0x80 PUSH1 0x40 MSTORE PUSH1 0x0 DUP1 SSTORE CALLVALUE DUP1 ISZERO PUSH2 0x14 JUMPI PUSH1 0x0 DUP1 REVERT JUMPDEST POP PUSH2 0x29A DUP1 PUSH2 0x24 PUSH1 0x0 CODECOPY PUSH1 0x0 RETURN INVALID PUSH1 0x80 PUSH1 0x40 MSTORE CALLVALUE DUP1 ISZERO PUSH2 0x10 JUMPI PUSH1 0x0 DUP1 REVERT JUMPDEST POP PUSH1 0x4 CALLDATASIZE LT PUSH2 0x2B JUMPI PUSH1 0x0 CALLDATALOAD PUSH1 0xE0 SHR DUP1 PUSH4 0xF20EAEB8 EQ PUSH2 0x30 JUMPI JUMPDEST PUSH1 0x0 DUP1 REVERT JUMPDEST PUSH2 0x38 PUSH2 0x4E JUMP JUMPDEST PUSH1 0x40 MLOAD PUSH2 0x45 SWAP2 SWAP1 PUSH2 0x187 JUMP JUMPDEST PUSH1 0x40 MLOAD DUP1 SWAP2 SUB SWAP1 RETURN JUMPDEST PUSH1 0x60 PUSH1 0x0 DUP1 PUSH1 0x0 DUP2 SWAP1 SSTORE POP JUMPDEST DUP1 PUSH1 0x0 SLOAD SLT ISZERO PUSH2 0xAB JUMPI PUSH1 0x1 PUSH1 0x0 SLOAD SWAP1 DUP1 PUSH1 0x1 DUP2 SLOAD ADD DUP1 DUP3 SSTORE DUP1 SWAP2 POP POP PUSH1 0x1 SWAP1 SUB SWAP1 PUSH1 0x0 MSTORE PUSH1 0x20 PUSH1 0x0 KECCAK256 ADD PUSH1 0x0 SWAP1 SWAP2 SWAP1 SWAP2 SWAP1 SWAP2 POP SSTORE PUSH1 0x0 DUP1 DUP2 SLOAD DUP1 SWAP3 SWAP2 SWAP1 PUSH2 0xA1 SWAP1 PUSH2 0x1EC JUMP JUMPDEST SWAP2 SWAP1 POP SSTORE POP PUSH2 0x5A JUMP JUMPDEST PUSH1 0x1 DUP1 SLOAD DUP1 PUSH1 0x20 MUL PUSH1 0x20 ADD PUSH1 0x40 MLOAD SWAP1 DUP2 ADD PUSH1 0x40 MSTORE DUP1 SWAP3 SWAP2 SWAP1 DUP2 DUP2 MSTORE PUSH1 0x20 ADD DUP3 DUP1 SLOAD DUP1 ISZERO PUSH2 0xF7 JUMPI PUSH1 0x20 MUL DUP3 ADD SWAP2 SWAP1 PUSH1 0x0 MSTORE PUSH1 0x20 PUSH1 0x0 KECCAK256 SWAP1 JUMPDEST DUP2 SLOAD DUP2 MSTORE PUSH1 0x20 ADD SWAP1 PUSH1 0x1 ADD SWAP1 DUP1 DUP4 GT PUSH2 0xE3 JUMPI JUMPDEST POP POP POP POP POP SWAP2 POP POP SWAP1 JUMP JUMPDEST PUSH1 0x0 PUSH2 0x10E DUP4 DUP4 PUSH2 0x178 JUMP JUMPDEST PUSH1 0x20 DUP4 ADD SWAP1 POP SWAP3 SWAP2 POP POP JUMP JUMPDEST PUSH1 0x0 PUSH2 0x125 DUP3 PUSH2 0x1B9 JUMP JUMPDEST PUSH2 0x12F DUP2 DUP6 PUSH2 0x1D1 JUMP JUMPDEST SWAP4 POP PUSH2 0x13A DUP4 PUSH2 0x1A9 JUMP JUMPDEST DUP1 PUSH1 0x0 JUMPDEST DUP4 DUP2 LT ISZERO PUSH2 0x16B JUMPI DUP2 MLOAD PUSH2 0x152 DUP9 DUP3 PUSH2 0x102 JUMP JUMPDEST SWAP8 POP PUSH2 0x15D DUP4 PUSH2 0x1C4 JUMP JUMPDEST SWAP3 POP POP PUSH1 0x1 DUP2 ADD SWAP1 POP PUSH2 0x13E JUMP JUMPDEST POP DUP6 SWAP4 POP POP POP POP SWAP3 SWAP2 POP POP JUMP JUMPDEST PUSH2 0x181 DUP2 PUSH2 0x1E2 JUMP JUMPDEST DUP3 MSTORE POP POP JUMP JUMPDEST PUSH1 0x0 PUSH1 0x20 DUP3 ADD SWAP1 POP DUP2 DUP2 SUB PUSH1 0x0 DUP4 ADD MSTORE PUSH2 0x1A1 DUP2 DUP5 PUSH2 0x11A JUMP JUMPDEST SWAP1 POP SWAP3 SWAP2 POP POP JUMP JUMPDEST PUSH1 0x0 DUP2 SWAP1 POP PUSH1 0x20 DUP3 ADD SWAP1 POP SWAP2 SWAP1 POP JUMP JUMPDEST PUSH1 0x0 DUP2 MLOAD SWAP1 POP SWAP2 SWAP1 POP JUMP JUMPDEST PUSH1 0x0 PUSH1 0x20 DUP3 ADD SWAP1 POP SWAP2 SWAP1 POP JUMP JUMPDEST PUSH1 0x0 DUP3 DUP3 MSTORE PUSH1 0x20 DUP3 ADD SWAP1 POP SWAP3 SWAP2 POP POP JUMP JUMPDEST PUSH1 0x0 DUP2 SWAP1 POP SWAP2 SWAP1 POP JUMP JUMPDEST PUSH1 0x0 PUSH2 0x1F7 DUP3 PUSH2 0x1E2 JUMP JUMPDEST SWAP2 POP PUSH32 0x7FFFFFFFFFFFFFFFFFFFFFFFFFFFFFFFFFFFFFFFFFFFFFFFFFFFFFFFFFFFFFFF DUP3 EQ ISZERO PUSH2 0x22A JUMPI PUSH2 0x229 PUSH2 0x235 JUMP JUMPDEST JUMPDEST PUSH1 0x1 DUP3 ADD SWAP1 POP SWAP2 SWAP1 POP JUMP JUMPDEST PUSH32 0x4E487B7100000000000000000000000000000000000000000000000000000000 PUSH1 0x0 MSTORE PUSH1 0x11 PUSH1 0x4 MSTORE PUSH1 0x24 PUSH1 0x0 REVERT INVALID LOG2 PUSH5 0x6970667358 0x22 SLT KECCAK256 NOT 0xCF 0x28 SWAP4 0xBF 0xBB PUSH29 0x35ABF0A0E22C356E70607E04B7562F4CAA0D55BEC1D1320B2A64736F6C PUSH4 0x43000806 STOP CALLER "
				},
				"gasEstimates": {
					"creation": {
						"codeDepositCost": "133200",
						"executionCost": "5183",
						"totalCost": "138383"
					},
					"external": {
						"output()": "infinite"
					}
				},
				"methodIdentifiers": {
					"output()": "f20eaeb8"
				}
			},
			"storageLayout": {
				"storage": [
					{
						"astId": 4,
						"contract": "contracts/forloop.sol:forLoop",
						"label": "x",
						"offset": 0,
						"slot": "0",
						"type": "t_int256"
					},
					{
						"astId": 7,
						"contract": "contracts/forloop.sol:forLoop",
						"label": "data",
						"offset": 0,
						"slot": "1",
						"type": "t_array(t_int256)dyn_storage"
					}
				],
				"types": {
					"t_array(t_int256)dyn_storage": {
						"base": "t_int256",
						"encoding": "dynamic_array",
						"label": "int256[]",
						"numberOfBytes": "32"
					},
					"t_int256": {
						"encoding": "inplace",
						"label": "int256",
						"numberOfBytes": "32"
					}
				}
			},
			"userdoc": {
				"kind": "user",
				"methods": {},
				"version": 1
			}
		}
	}
}