{
	"data": {
		"bytecode": {
			"linkReferences": {},
			"object": "60806040526001600055670de0b6b3a7640000600155633b9aca0060025567053332c158b1b00060035534801561003557600080fd5b506101dc806100456000396000f3fe608060405234801561001057600080fd5b50600436106100575760003560e01c8063224dc2781461005c5780634fb2e0be1461007d578063bde57d741461009b578063d297a89f146100b9578063d4af344f146100d7575b600080fd5b6100646100f5565b6040516100749493929190610157565b60405180910390f35b610085610115565b604051610092919061013c565b60405180910390f35b6100a361011b565b6040516100b0919061013c565b60405180910390f35b6100c1610121565b6040516100ce919061013c565b60405180910390f35b6100df610127565b6040516100ec919061013c565b60405180910390f35b600080600080600054600154600254600354935093509350935090919293565b60005481565b60035481565b60015481565b60025481565b6101368161019c565b82525050565b6000602082019050610151600083018461012d565b92915050565b600060808201905061016c600083018761012d565b610179602083018661012d565b610186604083018561012d565b610193606083018461012d565b95945050505050565b600081905091905056fea2646970667358221220ca3b430c6950ef492f30ec7f696b8cb49ca944793c7e843c3c3aab77a683fa6a64736f6c63430008060033",
			"opcodes": "PUSH1 0x80 PUSH1 0x40 MSTORE PUSH1 0x1 PUSH1 0x0 SSTORE PUSH8 0xDE0B6B3A7640000 PUSH1 0x1 SSTORE PUSH4 0x3B9ACA00 PUSH1 0x2 SSTORE PUSH8 0x53332C158B1B000 PUSH1 0x3 SSTORE CALLVALUE DUP1 ISZERO PUSH2 0x35 JUMPI PUSH1 0x0 DUP1 REVERT JUMPDEST POP PUSH2 0x1DC DUP1 PUSH2 0x45 PUSH1 0x0 CODECOPY PUSH1 0x0 RETURN INVALID PUSH1 0x80 PUSH1 0x40 MSTORE CALLVALUE DUP1 ISZERO PUSH2 0x10 JUMPI PUSH1 0x0 DUP1 REVERT JUMPDEST POP PUSH1 0x4 CALLDATASIZE LT PUSH2 0x57 JUMPI PUSH1 0x0 CALLDATALOAD PUSH1 0xE0 SHR DUP1 PUSH4 0x224DC278 EQ PUSH2 0x5C JUMPI DUP1 PUSH4 0x4FB2E0BE EQ PUSH2 0x7D JUMPI DUP1 PUSH4 0xBDE57D74 EQ PUSH2 0x9B JUMPI DUP1 PUSH4 0xD297A89F EQ PUSH2 0xB9 JUMPI DUP1 PUSH4 0xD4AF344F EQ PUSH2 0xD7 JUMPI JUMPDEST PUSH1 0x0 DUP1 REVERT JUMPDEST PUSH2 0x64 PUSH2 0xF5 JUMP JUMPDEST PUSH1 0x40 MLOAD PUSH2 0x74 SWAP5 SWAP4 SWAP3 SWAP2 SWAP1 PUSH2 0x157 JUMP JUMPDEST PUSH1 0x40 MLOAD DUP1 SWAP2 SUB SWAP1 RETURN JUMPDEST PUSH2 0x85 PUSH2 0x115 JUMP JUMPDEST PUSH1 0x40 MLOAD PUSH2 0x92 SWAP2 SWAP1 PUSH2 0x13C JUMP JUMPDEST PUSH1 0x40 MLOAD DUP1 SWAP2 SUB SWAP1 RETURN JUMPDEST PUSH2 0xA3 PUSH2 0x11B JUMP JUMPDEST PUSH1 0x40 MLOAD PUSH2 0xB0 SWAP2 SWAP1 PUSH2 0x13C JUMP JUMPDEST PUSH1 0x40 MLOAD DUP1 SWAP2 SUB SWAP1 RETURN JUMPDEST PUSH2 0xC1 PUSH2 0x121 JUMP JUMPDEST PUSH1 0x40 MLOAD PUSH2 0xCE SWAP2 SWAP1 PUSH2 0x13C JUMP JUMPDEST PUSH1 0x40 MLOAD DUP1 SWAP2 SUB SWAP1 RETURN JUMPDEST PUSH2 0xDF PUSH2 0x127 JUMP JUMPDEST PUSH1 0x40 MLOAD PUSH2 0xEC SWAP2 SWAP1 PUSH2 0x13C JUMP JUMPDEST PUSH1 0x40 MLOAD DUP1 SWAP2 SUB SWAP1 RETURN JUMPDEST PUSH1 0x0 DUP1 PUSH1 0x0 DUP1 PUSH1 0x0 SLOAD PUSH1 0x1 SLOAD PUSH1 0x2 SLOAD PUSH1 0x3 SLOAD SWAP4 POP SWAP4 POP SWAP4 POP SWAP4 POP SWAP1 SWAP2 SWAP3 SWAP4 JUMP JUMPDEST PUSH1 0x0 SLOAD DUP2 JUMP JUMPDEST PUSH1 0x3 SLOAD DUP2 JUMP JUMPDEST PUSH1 0x1 SLOAD DUP2 JUMP JUMPDEST PUSH1 0x2 SLOAD DUP2 JUMP JUMPDEST PUSH2 0x136 DUP2 PUSH2 0x19C JUMP JUMPDEST DUP3 MSTORE POP POP JUMP JUMPDEST PUSH1 0x0 PUSH1 0x20 DUP3 ADD SWAP1 POP PUSH2 0x151 PUSH1 0x0 DUP4 ADD DUP5 PUSH2 0x12D JUMP JUMPDEST SWAP3 SWAP2 POP POP JUMP JUMPDEST PUSH1 0x0 PUSH1 0x80 DUP3 ADD SWAP1 POP PUSH2 0x16C PUSH1 0x0 DUP4 ADD DUP8 PUSH2 0x12D JUMP JUMPDEST PUSH2 0x179 PUSH1 0x20 DUP4 ADD DUP7 PUSH2 0x12D JUMP JUMPDEST PUSH2 0x186 PUSH1 0x40 DUP4 ADD DUP6 PUSH2 0x12D JUMP JUMPDEST PUSH2 0x193 PUSH1 0x60 DUP4 ADD DUP5 PUSH2 0x12D JUMP JUMPDEST SWAP6 SWAP5 POP POP POP POP POP JUMP JUMPDEST PUSH1 0x0 DUP2 SWAP1 POP SWAP2 SWAP1 POP JUMP INVALID LOG2 PUSH5 0x6970667358 0x22 SLT KECCAK256 0xCA EXTCODESIZE NUMBER 0xC PUSH10 0x50EF492F30EC7F696B8C 0xB4 SWAP13 0xA9 DIFFICULTY PUSH26 0x3C7E843C3C3AAB77A683FA6A64736F6C63430008060033000000 "
		},
		"gasEstimates": {
			"creation": {
				"codeDepositCost": "95200",
				"executionCost": "88565",
				"totalCost": "183765"
			},
			"external": {
				"dis()": "infinite",
				"fraction_eth()": "2451",
				"oneEther()": "2473",
				"oneGwi()": "2495",
				"oneWei()": "2429"
			}
		},
		"methodIdentifiers": {
			"dis()": "224dc278",
			"fraction_eth()": "bde57d74",
			"oneEther()": "d297a89f",
			"oneGwi()": "d4af344f",
			"oneWei()": "4fb2e0be"
		}
	},
	"abi": [
		{
			"inputs": [],
			"name": "dis",
			"outputs": [
				{
					"internalType": "uint256",
					"name": "",
					"type": "uint256"
				},
				{
					"internalType": "uint256",
					"name": "",
					"type": "uint256"
				},
				{
					"internalType": "uint256",
					"name": "",
					"type": "uint256"
				},
				{
					"internalType": "uint256",
					"name": "",
					"type": "uint256"
				}
			],
			"stateMutability": "view",
			"type": "function"
		},
		{
			"inputs": [],
			"name": "fraction_eth",
			"outputs": [
				{
					"internalType": "uint256",
					"name": "",
					"type": "uint256"
				}
			],
			"stateMutability": "view",
			"type": "function"
		},
		{
			"inputs": [],
			"name": "oneEther",
			"outputs": [
				{
					"internalType": "uint256",
					"name": "",
					"type": "uint256"
				}
			],
			"stateMutability": "view",
			"type": "function"
		},
		{
			"inputs": [],
			"name": "oneGwi",
			"outputs": [
				{
					"internalType": "uint256",
					"name": "",
					"type": "uint256"
				}
			],
			"stateMutability": "view",
			"type": "function"
		},
		{
			"inputs": [],
			"name": "oneWei",
			"outputs": [
				{
					"internalType": "uint256",
					"name": "",
					"type": "uint256"
				}
			],
			"stateMutability": "view",
			"type": "function"
		}
	]
}