{
	"data": {
		"bytecode": {
			"linkReferences": {},
			"object": "608060405234801561001057600080fd5b50610226806100206000396000f3fe608060405234801561001057600080fd5b506004361061004c5760003560e01c806321a02f9a14610051578063466858b21461006f578063694ebe4f1461008d57806391ff2c8614610097575b600080fd5b6100596100a1565b6040516100669190610148565b60405180910390f35b6100776100b7565b6040516100849190610163565b60405180910390f35b6100956100d2565b005b61009f6100fe565b005b60008060009054906101000a900460ff16905090565b6000600160028111156100cd576100cc6101ad565b5b905090565b60026000806101000a81548160ff021916908360028111156100f7576100f66101ad565b5b0217905550565b60008060006101000a81548160ff02191690836002811115610123576101226101ad565b5b0217905550565b6101338161019b565b82525050565b61014281610191565b82525050565b600060208201905061015d600083018461012a565b92915050565b60006020820190506101786000830184610139565b92915050565b600081905061018c826101dc565b919050565b6000819050919050565b60006101a68261017e565b9050919050565b7f4e487b7100000000000000000000000000000000000000000000000000000000600052602160045260246000fd5b600381106101ed576101ec6101ad565b5b5056fea2646970667358221220c972cf4506c3fbb1f645ad8da677f34664d567a70409014161453c22c09ef07c64736f6c63430008060033",
			"opcodes": "PUSH1 0x80 PUSH1 0x40 MSTORE CALLVALUE DUP1 ISZERO PUSH2 0x10 JUMPI PUSH1 0x0 DUP1 REVERT JUMPDEST POP PUSH2 0x226 DUP1 PUSH2 0x20 PUSH1 0x0 CODECOPY PUSH1 0x0 RETURN INVALID PUSH1 0x80 PUSH1 0x40 MSTORE CALLVALUE DUP1 ISZERO PUSH2 0x10 JUMPI PUSH1 0x0 DUP1 REVERT JUMPDEST POP PUSH1 0x4 CALLDATASIZE LT PUSH2 0x4C JUMPI PUSH1 0x0 CALLDATALOAD PUSH1 0xE0 SHR DUP1 PUSH4 0x21A02F9A EQ PUSH2 0x51 JUMPI DUP1 PUSH4 0x466858B2 EQ PUSH2 0x6F JUMPI DUP1 PUSH4 0x694EBE4F EQ PUSH2 0x8D JUMPI DUP1 PUSH4 0x91FF2C86 EQ PUSH2 0x97 JUMPI JUMPDEST PUSH1 0x0 DUP1 REVERT JUMPDEST PUSH2 0x59 PUSH2 0xA1 JUMP JUMPDEST PUSH1 0x40 MLOAD PUSH2 0x66 SWAP2 SWAP1 PUSH2 0x148 JUMP JUMPDEST PUSH1 0x40 MLOAD DUP1 SWAP2 SUB SWAP1 RETURN JUMPDEST PUSH2 0x77 PUSH2 0xB7 JUMP JUMPDEST PUSH1 0x40 MLOAD PUSH2 0x84 SWAP2 SWAP1 PUSH2 0x163 JUMP JUMPDEST PUSH1 0x40 MLOAD DUP1 SWAP2 SUB SWAP1 RETURN JUMPDEST PUSH2 0x95 PUSH2 0xD2 JUMP JUMPDEST STOP JUMPDEST PUSH2 0x9F PUSH2 0xFE JUMP JUMPDEST STOP JUMPDEST PUSH1 0x0 DUP1 PUSH1 0x0 SWAP1 SLOAD SWAP1 PUSH2 0x100 EXP SWAP1 DIV PUSH1 0xFF AND SWAP1 POP SWAP1 JUMP JUMPDEST PUSH1 0x0 PUSH1 0x1 PUSH1 0x2 DUP2 GT ISZERO PUSH2 0xCD JUMPI PUSH2 0xCC PUSH2 0x1AD JUMP JUMPDEST JUMPDEST SWAP1 POP SWAP1 JUMP JUMPDEST PUSH1 0x2 PUSH1 0x0 DUP1 PUSH2 0x100 EXP DUP2 SLOAD DUP2 PUSH1 0xFF MUL NOT AND SWAP1 DUP4 PUSH1 0x2 DUP2 GT ISZERO PUSH2 0xF7 JUMPI PUSH2 0xF6 PUSH2 0x1AD JUMP JUMPDEST JUMPDEST MUL OR SWAP1 SSTORE POP JUMP JUMPDEST PUSH1 0x0 DUP1 PUSH1 0x0 PUSH2 0x100 EXP DUP2 SLOAD DUP2 PUSH1 0xFF MUL NOT AND SWAP1 DUP4 PUSH1 0x2 DUP2 GT ISZERO PUSH2 0x123 JUMPI PUSH2 0x122 PUSH2 0x1AD JUMP JUMPDEST JUMPDEST MUL OR SWAP1 SSTORE POP JUMP JUMPDEST PUSH2 0x133 DUP2 PUSH2 0x19B JUMP JUMPDEST DUP3 MSTORE POP POP JUMP JUMPDEST PUSH2 0x142 DUP2 PUSH2 0x191 JUMP JUMPDEST DUP3 MSTORE POP POP JUMP JUMPDEST PUSH1 0x0 PUSH1 0x20 DUP3 ADD SWAP1 POP PUSH2 0x15D PUSH1 0x0 DUP4 ADD DUP5 PUSH2 0x12A JUMP JUMPDEST SWAP3 SWAP2 POP POP JUMP JUMPDEST PUSH1 0x0 PUSH1 0x20 DUP3 ADD SWAP1 POP PUSH2 0x178 PUSH1 0x0 DUP4 ADD DUP5 PUSH2 0x139 JUMP JUMPDEST SWAP3 SWAP2 POP POP JUMP JUMPDEST PUSH1 0x0 DUP2 SWAP1 POP PUSH2 0x18C DUP3 PUSH2 0x1DC JUMP JUMPDEST SWAP2 SWAP1 POP JUMP JUMPDEST PUSH1 0x0 DUP2 SWAP1 POP SWAP2 SWAP1 POP JUMP JUMPDEST PUSH1 0x0 PUSH2 0x1A6 DUP3 PUSH2 0x17E JUMP JUMPDEST SWAP1 POP SWAP2 SWAP1 POP JUMP JUMPDEST PUSH32 0x4E487B7100000000000000000000000000000000000000000000000000000000 PUSH1 0x0 MSTORE PUSH1 0x21 PUSH1 0x4 MSTORE PUSH1 0x24 PUSH1 0x0 REVERT JUMPDEST PUSH1 0x3 DUP2 LT PUSH2 0x1ED JUMPI PUSH2 0x1EC PUSH2 0x1AD JUMP JUMPDEST JUMPDEST POP JUMP INVALID LOG2 PUSH5 0x6970667358 0x22 SLT KECCAK256 0xC9 PUSH19 0xCF4506C3FBB1F645AD8DA677F34664D567A704 MULMOD ADD COINBASE PUSH2 0x453C 0x22 0xC0 SWAP15 CREATE PUSH29 0x64736F6C63430008060033000000000000000000000000000000000000 "
		},
		"gasEstimates": {
			"creation": {
				"codeDepositCost": "110000",
				"executionCost": "159",
				"totalCost": "110159"
			},
			"external": {
				"getChoise()": "2546",
				"getDefault()": "363",
				"setLarge()": "24453",
				"setSmall()": "24475"
			}
		},
		"methodIdentifiers": {
			"getChoise()": "21a02f9a",
			"getDefault()": "466858b2",
			"setLarge()": "694ebe4f",
			"setSmall()": "91ff2c86"
		}
	},
	"abi": [
		{
			"inputs": [],
			"name": "getChoise",
			"outputs": [
				{
					"internalType": "enum enumeu.FreshJuise",
					"name": "",
					"type": "uint8"
				}
			],
			"stateMutability": "view",
			"type": "function"
		},
		{
			"inputs": [],
			"name": "getDefault",
			"outputs": [
				{
					"internalType": "uint256",
					"name": "",
					"type": "uint256"
				}
			],
			"stateMutability": "pure",
			"type": "function"
		},
		{
			"inputs": [],
			"name": "setLarge",
			"outputs": [],
			"stateMutability": "nonpayable",
			"type": "function"
		},
		{
			"inputs": [],
			"name": "setSmall",
			"outputs": [],
			"stateMutability": "nonpayable",
			"type": "function"
		}
	]
}