{
	"data": {
		"bytecode": {
			"linkReferences": {},
			"object": "608060405234801561001057600080fd5b506102a3806100206000396000f3fe608060405234801561001057600080fd5b506004361061004c5760003560e01c80633dece511146100515780637297237f14610071578063e61e400814610092578063eb0faae8146100b2575b600080fd5b6100596100d2565b6040516100689392919061019a565b60405180910390f35b610079610106565b6040516100899493929190610208565b60405180910390f35b61009a61014d565b6040516100a9939291906101d1565b60405180910390f35b6100ba610163565b6040516100c99392919061019a565b60405180910390f35b60008060006001807ffffffffffffffffffffffffffffffffffffffffffffffffffffffffffffffffb925092509250909192565b600080600080600080600061011961014d565b92509250925061012c92506000806000600a600f601492509250925085858584995099509950995050505050505090919293565b600080600060056000600a925092509250909192565b6000806000909192565b6101768161024d565b82525050565b61018581610259565b82525050565b61019481610263565b82525050565b60006060820190506101af600083018661018b565b6101bc602083018561016d565b6101c9604083018461017c565b949350505050565b60006060820190506101e6600083018661018b565b6101f3602083018561016d565b610200604083018461018b565b949350505050565b600060808201905061021d600083018761018b565b61022a602083018661016d565b610237604083018561018b565b610244606083018461018b565b95945050505050565b60008115159050919050565b6000819050919050565b600081905091905056fea26469706673582212209ab0b350ea4ad00bc6ddd499d1600601c8c1408fd163cf88d3b25d3308fe081064736f6c63430008060033",
			"opcodes": "PUSH1 0x80 PUSH1 0x40 MSTORE CALLVALUE DUP1 ISZERO PUSH2 0x10 JUMPI PUSH1 0x0 DUP1 REVERT JUMPDEST POP PUSH2 0x2A3 DUP1 PUSH2 0x20 PUSH1 0x0 CODECOPY PUSH1 0x0 RETURN INVALID PUSH1 0x80 PUSH1 0x40 MSTORE CALLVALUE DUP1 ISZERO PUSH2 0x10 JUMPI PUSH1 0x0 DUP1 REVERT JUMPDEST POP PUSH1 0x4 CALLDATASIZE LT PUSH2 0x4C JUMPI PUSH1 0x0 CALLDATALOAD PUSH1 0xE0 SHR DUP1 PUSH4 0x3DECE511 EQ PUSH2 0x51 JUMPI DUP1 PUSH4 0x7297237F EQ PUSH2 0x71 JUMPI DUP1 PUSH4 0xE61E4008 EQ PUSH2 0x92 JUMPI DUP1 PUSH4 0xEB0FAAE8 EQ PUSH2 0xB2 JUMPI JUMPDEST PUSH1 0x0 DUP1 REVERT JUMPDEST PUSH2 0x59 PUSH2 0xD2 JUMP JUMPDEST PUSH1 0x40 MLOAD PUSH2 0x68 SWAP4 SWAP3 SWAP2 SWAP1 PUSH2 0x19A JUMP JUMPDEST PUSH1 0x40 MLOAD DUP1 SWAP2 SUB SWAP1 RETURN JUMPDEST PUSH2 0x79 PUSH2 0x106 JUMP JUMPDEST PUSH1 0x40 MLOAD PUSH2 0x89 SWAP5 SWAP4 SWAP3 SWAP2 SWAP1 PUSH2 0x208 JUMP JUMPDEST PUSH1 0x40 MLOAD DUP1 SWAP2 SUB SWAP1 RETURN JUMPDEST PUSH2 0x9A PUSH2 0x14D JUMP JUMPDEST PUSH1 0x40 MLOAD PUSH2 0xA9 SWAP4 SWAP3 SWAP2 SWAP1 PUSH2 0x1D1 JUMP JUMPDEST PUSH1 0x40 MLOAD DUP1 SWAP2 SUB SWAP1 RETURN JUMPDEST PUSH2 0xBA PUSH2 0x163 JUMP JUMPDEST PUSH1 0x40 MLOAD PUSH2 0xC9 SWAP4 SWAP3 SWAP2 SWAP1 PUSH2 0x19A JUMP JUMPDEST PUSH1 0x40 MLOAD DUP1 SWAP2 SUB SWAP1 RETURN JUMPDEST PUSH1 0x0 DUP1 PUSH1 0x0 PUSH1 0x1 DUP1 PUSH32 0xFFFFFFFFFFFFFFFFFFFFFFFFFFFFFFFFFFFFFFFFFFFFFFFFFFFFFFFFFFFFFFFB SWAP3 POP SWAP3 POP SWAP3 POP SWAP1 SWAP2 SWAP3 JUMP JUMPDEST PUSH1 0x0 DUP1 PUSH1 0x0 DUP1 PUSH1 0x0 DUP1 PUSH1 0x0 PUSH2 0x119 PUSH2 0x14D JUMP JUMPDEST SWAP3 POP SWAP3 POP SWAP3 POP PUSH2 0x12C SWAP3 POP PUSH1 0x0 DUP1 PUSH1 0x0 PUSH1 0xA PUSH1 0xF PUSH1 0x14 SWAP3 POP SWAP3 POP SWAP3 POP DUP6 DUP6 DUP6 DUP5 SWAP10 POP SWAP10 POP SWAP10 POP SWAP10 POP POP POP POP POP POP POP SWAP1 SWAP2 SWAP3 SWAP4 JUMP JUMPDEST PUSH1 0x0 DUP1 PUSH1 0x0 PUSH1 0x5 PUSH1 0x0 PUSH1 0xA SWAP3 POP SWAP3 POP SWAP3 POP SWAP1 SWAP2 SWAP3 JUMP JUMPDEST PUSH1 0x0 DUP1 PUSH1 0x0 SWAP1 SWAP2 SWAP3 JUMP JUMPDEST PUSH2 0x176 DUP2 PUSH2 0x24D JUMP JUMPDEST DUP3 MSTORE POP POP JUMP JUMPDEST PUSH2 0x185 DUP2 PUSH2 0x259 JUMP JUMPDEST DUP3 MSTORE POP POP JUMP JUMPDEST PUSH2 0x194 DUP2 PUSH2 0x263 JUMP JUMPDEST DUP3 MSTORE POP POP JUMP JUMPDEST PUSH1 0x0 PUSH1 0x60 DUP3 ADD SWAP1 POP PUSH2 0x1AF PUSH1 0x0 DUP4 ADD DUP7 PUSH2 0x18B JUMP JUMPDEST PUSH2 0x1BC PUSH1 0x20 DUP4 ADD DUP6 PUSH2 0x16D JUMP JUMPDEST PUSH2 0x1C9 PUSH1 0x40 DUP4 ADD DUP5 PUSH2 0x17C JUMP JUMPDEST SWAP5 SWAP4 POP POP POP POP JUMP JUMPDEST PUSH1 0x0 PUSH1 0x60 DUP3 ADD SWAP1 POP PUSH2 0x1E6 PUSH1 0x0 DUP4 ADD DUP7 PUSH2 0x18B JUMP JUMPDEST PUSH2 0x1F3 PUSH1 0x20 DUP4 ADD DUP6 PUSH2 0x16D JUMP JUMPDEST PUSH2 0x200 PUSH1 0x40 DUP4 ADD DUP5 PUSH2 0x18B JUMP JUMPDEST SWAP5 SWAP4 POP POP POP POP JUMP JUMPDEST PUSH1 0x0 PUSH1 0x80 DUP3 ADD SWAP1 POP PUSH2 0x21D PUSH1 0x0 DUP4 ADD DUP8 PUSH2 0x18B JUMP JUMPDEST PUSH2 0x22A PUSH1 0x20 DUP4 ADD DUP7 PUSH2 0x16D JUMP JUMPDEST PUSH2 0x237 PUSH1 0x40 DUP4 ADD DUP6 PUSH2 0x18B JUMP JUMPDEST PUSH2 0x244 PUSH1 0x60 DUP4 ADD DUP5 PUSH2 0x18B JUMP JUMPDEST SWAP6 SWAP5 POP POP POP POP POP JUMP JUMPDEST PUSH1 0x0 DUP2 ISZERO ISZERO SWAP1 POP SWAP2 SWAP1 POP JUMP JUMPDEST PUSH1 0x0 DUP2 SWAP1 POP SWAP2 SWAP1 POP JUMP JUMPDEST PUSH1 0x0 DUP2 SWAP1 POP SWAP2 SWAP1 POP JUMP INVALID LOG2 PUSH5 0x6970667358 0x22 SLT KECCAK256 SWAP11 0xB0 0xB3 POP 0xEA 0x4A 0xD0 SIGNEXTEND 0xC6 0xDD 0xD4 SWAP10 0xD1 PUSH1 0x6 ADD 0xC8 0xC1 BLOCKHASH DUP16 0xD1 PUSH4 0xCF88D3B2 0x5D CALLER ADDMOD INVALID ADDMOD LT PUSH5 0x736F6C6343 STOP ADDMOD MOD STOP CALLER "
		},
		"gasEstimates": {
			"creation": {
				"codeDepositCost": "135000",
				"executionCost": "183",
				"totalCost": "135183"
			},
			"external": {
				"AssignValues()": "591",
				"destructuring()": "infinite",
				"returnMultiple()": "infinite",
				"returnNamed()": "549"
			}
		},
		"methodIdentifiers": {
			"AssignValues()": "eb0faae8",
			"destructuring()": "7297237f",
			"returnMultiple()": "e61e4008",
			"returnNamed()": "3dece511"
		}
	},
	"abi": [
		{
			"inputs": [],
			"name": "AssignValues",
			"outputs": [
				{
					"internalType": "uint256",
					"name": "x",
					"type": "uint256"
				},
				{
					"internalType": "bool",
					"name": "b",
					"type": "bool"
				},
				{
					"internalType": "int256",
					"name": "y",
					"type": "int256"
				}
			],
			"stateMutability": "pure",
			"type": "function"
		},
		{
			"inputs": [],
			"name": "destructuring",
			"outputs": [
				{
					"internalType": "uint256",
					"name": "",
					"type": "uint256"
				},
				{
					"internalType": "bool",
					"name": "",
					"type": "bool"
				},
				{
					"internalType": "uint256",
					"name": "",
					"type": "uint256"
				},
				{
					"internalType": "uint256",
					"name": "",
					"type": "uint256"
				}
			],
			"stateMutability": "pure",
			"type": "function"
		},
		{
			"inputs": [],
			"name": "returnMultiple",
			"outputs": [
				{
					"internalType": "uint256",
					"name": "",
					"type": "uint256"
				},
				{
					"internalType": "bool",
					"name": "",
					"type": "bool"
				},
				{
					"internalType": "uint256",
					"name": "",
					"type": "uint256"
				}
			],
			"stateMutability": "pure",
			"type": "function"
		},
		{
			"inputs": [],
			"name": "returnNamed",
			"outputs": [
				{
					"internalType": "uint256",
					"name": "x",
					"type": "uint256"
				},
				{
					"internalType": "bool",
					"name": "b",
					"type": "bool"
				},
				{
					"internalType": "int256",
					"name": "y",
					"type": "int256"
				}
			],
			"stateMutability": "pure",
			"type": "function"
		}
	]
}